{
  "contractName": "String",
  "abi": [
    {
      "inputs": [
        {
          "internalType": "string",
          "name": "str",
          "type": "string"
        },
        {
          "internalType": "uint256",
          "name": "decimal",
          "type": "uint256"
        }
      ],
      "name": "truncateDecimals",
      "outputs": [
        {
          "internalType": "string",
          "name": "",
          "type": "string"
        }
      ],
      "stateMutability": "pure",
      "type": "function",
      "constant": true
    },
    {
      "inputs": [
        {
          "internalType": "string",
          "name": "str",
          "type": "string"
        },
        {
          "internalType": "uint256",
          "name": "startIndex",
          "type": "uint256"
        },
        {
          "internalType": "uint256",
          "name": "endIndex",
          "type": "uint256"
        }
      ],
      "name": "substring",
      "outputs": [
        {
          "internalType": "string",
          "name": "",
          "type": "string"
        }
      ],
      "stateMutability": "pure",
      "type": "function",
      "constant": true
    },
    {
      "inputs": [
        {
          "internalType": "string",
          "name": "str",
          "type": "string"
        },
        {
          "internalType": "bytes1",
          "name": "char",
          "type": "bytes1"
        },
        {
          "internalType": "uint256",
          "name": "startIndex",
          "type": "uint256"
        }
      ],
      "name": "indexOfChar",
      "outputs": [
        {
          "internalType": "uint256",
          "name": "",
          "type": "uint256"
        }
      ],
      "stateMutability": "pure",
      "type": "function",
      "constant": true
    },
    {
      "inputs": [
        {
          "internalType": "bytes32",
          "name": "_dataBytes32",
          "type": "bytes32"
        }
      ],
      "name": "bytes32ToString",
      "outputs": [
        {
          "internalType": "string",
          "name": "",
          "type": "string"
        }
      ],
      "stateMutability": "pure",
      "type": "function",
      "constant": true
    },
    {
      "inputs": [
        {
          "internalType": "uint256",
          "name": "value",
          "type": "uint256"
        }
      ],
      "name": "toHexString",
      "outputs": [
        {
          "internalType": "string",
          "name": "",
          "type": "string"
        }
      ],
      "stateMutability": "pure",
      "type": "function",
      "constant": true
    }
  ],
  "bytecode": "0x610ad5610026600b82828239805160001a60731461001957fe5b30600052607381538281f3fe73000000000000000000000000000000000000000030146080604052600436106100615760003560e01c80631dcd9b55146100665780636941f6b3146101ae5780638fba8d5c146102ec5780639201de5514610393578063e11cc6d01461043a575b600080fd5b6101336004803603606081101561007c57600080fd5b810190808035906020019064010000000081111561009957600080fd5b8201836020820111156100ab57600080fd5b803590602001918460018302840111640100000000831117156100cd57600080fd5b91908080601f016020809104026020016040519081016040528093929190818152602001838380828437600081840152601f19601f820116905080830192505050505050509192919290803590602001909291908035906020019092919050505061053f565b6040518080602001828103825283818151815260200191508051906020019080838360005b83811015610173578082015181840152602081019050610158565b50505050905090810190601f1680156101a05780820380516001836020036101000a031916815260200191505b509250505060405180910390f35b610271600480360360408110156101c457600080fd5b81019080803590602001906401000000008111156101e157600080fd5b8201836020820111156101f357600080fd5b8035906020019184600183028401116401000000008311171561021557600080fd5b91908080601f016020809104026020016040519081016040528093929190818152602001838380828437600081840152601f19601f82011690508083019250505050505050919291929080359060200190929190505050610620565b6040518080602001828103825283818151815260200191508051906020019080838360005b838110156102b1578082015181840152602081019050610296565b50505050905090810190601f1680156102de5780820380516001836020036101000a031916815260200191505b509250505060405180910390f35b6103186004803603602081101561030257600080fd5b8101908080359060200190929190505050610697565b6040518080602001828103825283818151815260200191508051906020019080838360005b8381101561035857808201518184015260208101905061033d565b50505050905090810190601f1680156103855780820380516001836020036101000a031916815260200191505b509250505060405180910390f35b6103bf600480360360208110156103a957600080fd5b810190808035906020019092919050505061083c565b6040518080602001828103825283818151815260200191508051906020019080838360005b838110156103ff5780820151818401526020810190506103e4565b50505050905090810190601f16801561042c5780820380516001836020036101000a031916815260200191505b509250505060405180910390f35b6105296004803603606081101561045057600080fd5b810190808035906020019064010000000081111561046d57600080fd5b82018360208201111561047f57600080fd5b803590602001918460018302840111640100000000831117156104a157600080fd5b91908080601f016020809104026020016040519081016040528093929190818152602001838380828437600081840152601f19601f82011690508083019250505050505050919291929080357effffffffffffffffffffffffffffffffffffffffffffffffffffffffffffff19169060200190929190803590602001909291905050506109fb565b6040518082815260200191505060405180910390f35b606080849050600083141561055357805192505b606084840367ffffffffffffffff8111801561056e57600080fd5b506040519080825280601f01601f1916602001820160405280156105a15781602001600182028036833780820191505090505b50905060008590505b84811015610613578281815181106105be57fe5b602001015160f81c60f81b82878303815181106105d757fe5b60200101907effffffffffffffffffffffffffffffffffffffffffffffffffffffffffffff1916908160001a90535080806001019150506105aa565b5080925050509392505050565b60606000610650847f2e0000000000000000000000000000000000000000000000000000000000000060006109fb565b90506060849050600081519050806001868501011161067f5761067a86600060018887010161053f565b61068c565b61068b8660008361053f565b5b935050505092915050565b606060008214156106df576040518060400160405280600181526020017f30000000000000000000000000000000000000000000000000000000000000008152509050610837565b600082905060005b600082146107095780806001019150506010828161070157fe5b0491506106e7565b60608167ffffffffffffffff8111801561072257600080fd5b506040519080825280601f01601f1916602001820160405280156107555781602001600182028036833780820191505090505b50905060006001830390508593505b6000841461082f5760006010858161077857fe5b069050600a8110156107d2578060300160f81b8383806001900394508151811061079e57fe5b60200101907effffffffffffffffffffffffffffffffffffffffffffffffffffffffffffff1916908160001a90535061081c565b8060570160f81b838380600190039450815181106107ec57fe5b60200101907effffffffffffffffffffffffffffffffffffffffffffffffffffffffffffff1916908160001a9053505b6010858161082657fe5b04945050610764565b819450505050505b919050565b606080602067ffffffffffffffff8111801561085757600080fd5b506040519080825280601f01601f19166020018201604052801561088a5781602001600182028036833780820191505090505b509050600080905060008090505b60208110156109345760008160080260020a8660001c0260001b9050600060f81b817effffffffffffffffffffffffffffffffffffffffffffffffffffffffffffff19161461092657808484815181106108ee57fe5b60200101907effffffffffffffffffffffffffffffffffffffffffffffffffffffffffffff1916908160001a90535082806001019350505b508080600101915050610898565b60608267ffffffffffffffff8111801561094d57600080fd5b506040519080825280601f01601f1916602001820160405280156109805781602001600182028036833780820191505090505b509050600091505b828210156109ef5783828151811061099c57fe5b602001015160f81c60f81b8183815181106109b357fe5b60200101907effffffffffffffffffffffffffffffffffffffffffffffffffffffffffffff1916908160001a9053508180600101925050610988565b80945050505050919050565b6000606084905060008151905060008490505b81811015610a9057857effffffffffffffffffffffffffffffffffffffffffffffffffffffffffffff1916838281518110610a4557fe5b602001015160f81c60f81b7effffffffffffffffffffffffffffffffffffffffffffffffffffffffffffff19161415610a8357809350505050610a98565b8080600101915050610a0e565b506000925050505b939250505056fea26469706673582212202abe57bedba98b82dd82c2953e0b9e3b34f4d742186b05a10c516fcf0bd29d0f64736f6c63430006080033",
  "immutableReferences": {},
  "source": "//SPDX-License-Identifier: UNLICENSED\npragma solidity ^0.6.0;\n\nlibrary String {\n    // @dev trims the decimals to a certain substring and gives it back\n    // @param takes in the string, and trims based on the decimal integer\n    // @return returns the substring based on the decimal values.\n    function truncateDecimals(string memory str, uint256 decimal)\n        public\n        pure\n        returns (string memory)\n    {\n        uint256 decimalIndex = indexOfChar(str, byte(\".\"), 0);\n        bytes memory strBytes = bytes(str);\n        uint256 length = strBytes.length;\n        return (decimalIndex + decimal + 1 > length) ? substring(str, 0, length) : substring(str, 0, decimalIndex + decimal + 1);\n    }\n\n    // @dev standard substring method. Note that endIndex == 0 indicates the substring should be taken to the end of the string.\n    // @param takes in a string, and a starting (included) and ending index (not included in substring).\n    // @return substring\n    function substring(\n        string memory str,\n        uint256 startIndex,\n        uint256 endIndex\n    ) public pure returns (string memory) {\n        bytes memory strBytes = bytes(str);\n        if (endIndex == 0) {\n            endIndex = strBytes.length;\n        }\n        bytes memory result = new bytes(endIndex - startIndex);\n        for (uint256 i = startIndex; i < endIndex; i++) {\n            result[i - startIndex] = strBytes[i];\n        }\n        return string(result);\n    }\n\n    // @dev gets the index of a certain character inside of a string; helper method\n    // @param requires a string, a certain character, and the index to start checking from\n    // @return returns the index of the character in the string\n    function indexOfChar(string memory str, byte char, uint256 startIndex) public pure returns (uint256) {\n        bytes memory strBytes = bytes(str);\n        uint256 length = strBytes.length;\n        for (uint256 i = startIndex; i < length; i++) {\n            if (strBytes[i] == char) {\n                return i;\n            }\n        }\n        return 0;\n    }\n\n    // @dev converts ASCII encoding into a string\n    // @param bytes32 ASCII encoding\n    // @return string version\n    function bytes32ToString(bytes32 _dataBytes32)\n        public\n        pure\n        returns (string memory)\n    {\n        bytes memory bytesString = new bytes(32);\n        uint256 charCount = 0;\n        uint256 j;\n        for (j = 0; j < 32; j++) {\n            // outscope declaration\n            byte char = byte(bytes32(uint256(_dataBytes32) * 2**(8 * j)));\n            if (char != 0) {\n                bytesString[charCount] = char;\n                charCount++;\n            }\n        }\n        bytes memory bytesStringTrimmed = new bytes(charCount);\n        for (j = 0; j < charCount; j++) {\n            bytesStringTrimmed[j] = bytesString[j];\n        }\n        return string(bytesStringTrimmed);\n    }\n\n    // @devs: Converts a number to a string literal of its hex representation (without the '0x' prefix)\n    // @param a number\n    // @return string literal of the number's hex\n    function toHexString(uint256 value) public pure returns (string memory) {\n        // Inspired by OraclizeAPI's implementation - MIT license\n        // https://github.com/oraclize/ethereum-api/blob/b42146b063c7d6ee1358846c198246239e9360e8/oraclizeAPI_0.4.25.sol\n        if (value == 0) {\n            return \"0\";\n        }\n        uint256 temp = value;\n        uint256 digits;\n        while (temp != 0) {\n            digits++;\n            temp /= 16;\n        }\n        bytes memory buffer = new bytes(digits);\n        uint256 index = digits - 1;\n        temp = value;\n        while (temp != 0) {\n            uint256 digit = temp % 16;\n            if (digit < 10) {\n                buffer[index--] = byte(uint8(48 + digit));\n            } else {\n                buffer[index--] = byte(uint8(87 + digit));\n            }\n            temp /= 16;\n        }\n        return string(buffer);\n    }\n}\n",
  "sourcePath": "/Users/charleslin/Desktop/Superworld-blockchain/contracts/libraries/String.sol",
  "compiler": {
    "name": "solc",
    "version": "0.6.8+commit.0bbfe453.Emscripten.clang"
  },
  "schemaVersion": "3.2.0",
  "updatedAt": "2020-08-14T18:09:20.021Z",
  "networkType": "ethereum",
  "devdoc": {
    "methods": {}
  },
  "userdoc": {
    "methods": {}
  }
}