{
  "contractName": "SuperWorldToken",
  "abi": [
    {
      "inputs": [
        {
          "internalType": "address",
          "name": "_coinAddress",
          "type": "address"
        },
        {
          "internalType": "uint256",
          "name": "_percentageCut",
          "type": "uint256"
        },
        {
          "internalType": "uint256",
          "name": "_basePrice",
          "type": "uint256"
        }
      ],
      "stateMutability": "nonpayable",
      "type": "constructor"
    },
    {
      "anonymous": false,
      "inputs": [
        {
          "indexed": true,
          "internalType": "address",
          "name": "owner",
          "type": "address"
        },
        {
          "indexed": true,
          "internalType": "address",
          "name": "approved",
          "type": "address"
        },
        {
          "indexed": true,
          "internalType": "uint256",
          "name": "tokenId",
          "type": "uint256"
        }
      ],
      "name": "Approval",
      "type": "event"
    },
    {
      "anonymous": false,
      "inputs": [
        {
          "indexed": true,
          "internalType": "address",
          "name": "owner",
          "type": "address"
        },
        {
          "indexed": true,
          "internalType": "address",
          "name": "operator",
          "type": "address"
        },
        {
          "indexed": false,
          "internalType": "bool",
          "name": "approved",
          "type": "bool"
        }
      ],
      "name": "ApprovalForAll",
      "type": "event"
    },
    {
      "anonymous": false,
      "inputs": [
        {
          "indexed": false,
          "internalType": "uint256",
          "name": "buyId",
          "type": "uint256"
        },
        {
          "indexed": false,
          "internalType": "string",
          "name": "lon",
          "type": "string"
        },
        {
          "indexed": false,
          "internalType": "string",
          "name": "lat",
          "type": "string"
        },
        {
          "indexed": true,
          "internalType": "address",
          "name": "buyer",
          "type": "address"
        },
        {
          "indexed": true,
          "internalType": "address",
          "name": "seller",
          "type": "address"
        },
        {
          "indexed": false,
          "internalType": "uint256",
          "name": "price",
          "type": "uint256"
        },
        {
          "indexed": false,
          "internalType": "uint256",
          "name": "timestamp",
          "type": "uint256"
        }
      ],
      "name": "EventBuyToken",
      "type": "event"
    },
    {
      "anonymous": false,
      "inputs": [
        {
          "indexed": false,
          "internalType": "uint256",
          "name": "buyId",
          "type": "uint256"
        },
        {
          "indexed": false,
          "internalType": "string",
          "name": "lon",
          "type": "string"
        },
        {
          "indexed": false,
          "internalType": "string",
          "name": "lat",
          "type": "string"
        },
        {
          "indexed": true,
          "internalType": "address",
          "name": "buyer",
          "type": "address"
        },
        {
          "indexed": true,
          "internalType": "address",
          "name": "seller",
          "type": "address"
        },
        {
          "indexed": false,
          "internalType": "uint256",
          "name": "price",
          "type": "uint256"
        },
        {
          "indexed": false,
          "internalType": "uint256",
          "name": "timestamp",
          "type": "uint256"
        }
      ],
      "name": "EventBuyTokenFail",
      "type": "event"
    },
    {
      "anonymous": false,
      "inputs": [
        {
          "indexed": false,
          "internalType": "uint256",
          "name": "buyId",
          "type": "uint256"
        },
        {
          "indexed": true,
          "internalType": "uint256",
          "name": "tokenId1",
          "type": "uint256"
        },
        {
          "indexed": false,
          "internalType": "string",
          "name": "lon",
          "type": "string"
        },
        {
          "indexed": false,
          "internalType": "string",
          "name": "lat",
          "type": "string"
        },
        {
          "indexed": false,
          "internalType": "address",
          "name": "buyer",
          "type": "address"
        },
        {
          "indexed": false,
          "internalType": "address",
          "name": "seller",
          "type": "address"
        },
        {
          "indexed": false,
          "internalType": "uint256",
          "name": "price",
          "type": "uint256"
        },
        {
          "indexed": false,
          "internalType": "uint256",
          "name": "timestamp",
          "type": "uint256"
        }
      ],
      "name": "EventBuyTokenId1",
      "type": "event"
    },
    {
      "anonymous": false,
      "inputs": [
        {
          "indexed": false,
          "internalType": "uint256",
          "name": "listId",
          "type": "uint256"
        },
        {
          "indexed": false,
          "internalType": "uint256",
          "name": "buyId",
          "type": "uint256"
        },
        {
          "indexed": false,
          "internalType": "string",
          "name": "lon",
          "type": "string"
        },
        {
          "indexed": false,
          "internalType": "string",
          "name": "lat",
          "type": "string"
        },
        {
          "indexed": true,
          "internalType": "address",
          "name": "seller",
          "type": "address"
        },
        {
          "indexed": false,
          "internalType": "uint256",
          "name": "price",
          "type": "uint256"
        },
        {
          "indexed": false,
          "internalType": "bool",
          "name": "isListed",
          "type": "bool"
        },
        {
          "indexed": false,
          "internalType": "uint256",
          "name": "timestamp",
          "type": "uint256"
        }
      ],
      "name": "EventListToken",
      "type": "event"
    },
    {
      "anonymous": false,
      "inputs": [
        {
          "indexed": false,
          "internalType": "uint256",
          "name": "listId",
          "type": "uint256"
        },
        {
          "indexed": false,
          "internalType": "uint256",
          "name": "buyId",
          "type": "uint256"
        },
        {
          "indexed": true,
          "internalType": "uint256",
          "name": "tokenId1",
          "type": "uint256"
        },
        {
          "indexed": false,
          "internalType": "string",
          "name": "lon",
          "type": "string"
        },
        {
          "indexed": false,
          "internalType": "string",
          "name": "lat",
          "type": "string"
        },
        {
          "indexed": false,
          "internalType": "address",
          "name": "seller",
          "type": "address"
        },
        {
          "indexed": false,
          "internalType": "uint256",
          "name": "price",
          "type": "uint256"
        },
        {
          "indexed": false,
          "internalType": "bool",
          "name": "isListed",
          "type": "bool"
        },
        {
          "indexed": false,
          "internalType": "uint256",
          "name": "timestamp",
          "type": "uint256"
        }
      ],
      "name": "EventListTokenId1",
      "type": "event"
    },
    {
      "anonymous": false,
      "inputs": [
        {
          "indexed": false,
          "internalType": "address",
          "name": "buyer",
          "type": "address"
        },
        {
          "indexed": false,
          "internalType": "uint256",
          "name": "coins",
          "type": "uint256"
        },
        {
          "indexed": false,
          "internalType": "address",
          "name": "_coinAddress",
          "type": "address"
        },
        {
          "indexed": false,
          "internalType": "bytes32",
          "name": "_data",
          "type": "bytes32"
        }
      ],
      "name": "EventReceiveApproval",
      "type": "event"
    },
    {
      "anonymous": false,
      "inputs": [
        {
          "indexed": true,
          "internalType": "address",
          "name": "from",
          "type": "address"
        },
        {
          "indexed": true,
          "internalType": "address",
          "name": "to",
          "type": "address"
        },
        {
          "indexed": true,
          "internalType": "uint256",
          "name": "tokenId",
          "type": "uint256"
        }
      ],
      "name": "Transfer",
      "type": "event"
    },
    {
      "inputs": [
        {
          "internalType": "address",
          "name": "to",
          "type": "address"
        },
        {
          "internalType": "uint256",
          "name": "tokenId",
          "type": "uint256"
        }
      ],
      "name": "approve",
      "outputs": [],
      "stateMutability": "nonpayable",
      "type": "function"
    },
    {
      "inputs": [
        {
          "internalType": "address",
          "name": "owner",
          "type": "address"
        }
      ],
      "name": "balanceOf",
      "outputs": [
        {
          "internalType": "uint256",
          "name": "",
          "type": "uint256"
        }
      ],
      "stateMutability": "view",
      "type": "function",
      "constant": true
    },
    {
      "inputs": [],
      "name": "basePrice",
      "outputs": [
        {
          "internalType": "uint256",
          "name": "",
          "type": "uint256"
        }
      ],
      "stateMutability": "view",
      "type": "function",
      "constant": true
    },
    {
      "inputs": [
        {
          "internalType": "uint256",
          "name": "",
          "type": "uint256"
        }
      ],
      "name": "basePrices",
      "outputs": [
        {
          "internalType": "uint256",
          "name": "",
          "type": "uint256"
        }
      ],
      "stateMutability": "view",
      "type": "function",
      "constant": true
    },
    {
      "inputs": [],
      "name": "baseURI",
      "outputs": [
        {
          "internalType": "string",
          "name": "",
          "type": "string"
        }
      ],
      "stateMutability": "view",
      "type": "function",
      "constant": true
    },
    {
      "inputs": [
        {
          "internalType": "uint256",
          "name": "",
          "type": "uint256"
        }
      ],
      "name": "boughtPrices",
      "outputs": [
        {
          "internalType": "uint256",
          "name": "",
          "type": "uint256"
        }
      ],
      "stateMutability": "view",
      "type": "function",
      "constant": true
    },
    {
      "inputs": [],
      "name": "buyId",
      "outputs": [
        {
          "internalType": "uint256",
          "name": "",
          "type": "uint256"
        }
      ],
      "stateMutability": "view",
      "type": "function",
      "constant": true
    },
    {
      "inputs": [
        {
          "internalType": "uint256",
          "name": "",
          "type": "uint256"
        }
      ],
      "name": "buyIds",
      "outputs": [
        {
          "internalType": "uint256",
          "name": "",
          "type": "uint256"
        }
      ],
      "stateMutability": "view",
      "type": "function",
      "constant": true
    },
    {
      "inputs": [],
      "name": "coinAddress",
      "outputs": [
        {
          "internalType": "address",
          "name": "",
          "type": "address"
        }
      ],
      "stateMutability": "view",
      "type": "function",
      "constant": true
    },
    {
      "inputs": [
        {
          "internalType": "uint256",
          "name": "tokenId",
          "type": "uint256"
        }
      ],
      "name": "getApproved",
      "outputs": [
        {
          "internalType": "address",
          "name": "",
          "type": "address"
        }
      ],
      "stateMutability": "view",
      "type": "function",
      "constant": true
    },
    {
      "inputs": [
        {
          "internalType": "address",
          "name": "owner",
          "type": "address"
        },
        {
          "internalType": "address",
          "name": "operator",
          "type": "address"
        }
      ],
      "name": "isApprovedForAll",
      "outputs": [
        {
          "internalType": "bool",
          "name": "",
          "type": "bool"
        }
      ],
      "stateMutability": "view",
      "type": "function",
      "constant": true
    },
    {
      "inputs": [
        {
          "internalType": "uint256",
          "name": "",
          "type": "uint256"
        }
      ],
      "name": "isSellings",
      "outputs": [
        {
          "internalType": "bool",
          "name": "",
          "type": "bool"
        }
      ],
      "stateMutability": "view",
      "type": "function",
      "constant": true
    },
    {
      "inputs": [],
      "name": "listId",
      "outputs": [
        {
          "internalType": "uint256",
          "name": "",
          "type": "uint256"
        }
      ],
      "stateMutability": "view",
      "type": "function",
      "constant": true
    },
    {
      "inputs": [],
      "name": "name",
      "outputs": [
        {
          "internalType": "string",
          "name": "",
          "type": "string"
        }
      ],
      "stateMutability": "view",
      "type": "function",
      "constant": true
    },
    {
      "inputs": [],
      "name": "owner",
      "outputs": [
        {
          "internalType": "address",
          "name": "",
          "type": "address"
        }
      ],
      "stateMutability": "view",
      "type": "function",
      "constant": true
    },
    {
      "inputs": [
        {
          "internalType": "uint256",
          "name": "tokenId",
          "type": "uint256"
        }
      ],
      "name": "ownerOf",
      "outputs": [
        {
          "internalType": "address",
          "name": "",
          "type": "address"
        }
      ],
      "stateMutability": "view",
      "type": "function",
      "constant": true
    },
    {
      "inputs": [],
      "name": "percentageCut",
      "outputs": [
        {
          "internalType": "uint256",
          "name": "",
          "type": "uint256"
        }
      ],
      "stateMutability": "view",
      "type": "function",
      "constant": true
    },
    {
      "inputs": [
        {
          "internalType": "address",
          "name": "from",
          "type": "address"
        },
        {
          "internalType": "address",
          "name": "to",
          "type": "address"
        },
        {
          "internalType": "uint256",
          "name": "tokenId",
          "type": "uint256"
        }
      ],
      "name": "safeTransferFrom",
      "outputs": [],
      "stateMutability": "nonpayable",
      "type": "function"
    },
    {
      "inputs": [
        {
          "internalType": "address",
          "name": "from",
          "type": "address"
        },
        {
          "internalType": "address",
          "name": "to",
          "type": "address"
        },
        {
          "internalType": "uint256",
          "name": "tokenId",
          "type": "uint256"
        },
        {
          "internalType": "bytes",
          "name": "_data",
          "type": "bytes"
        }
      ],
      "name": "safeTransferFrom",
      "outputs": [],
      "stateMutability": "nonpayable",
      "type": "function"
    },
    {
      "inputs": [
        {
          "internalType": "uint256",
          "name": "",
          "type": "uint256"
        }
      ],
      "name": "sellPrices",
      "outputs": [
        {
          "internalType": "uint256",
          "name": "",
          "type": "uint256"
        }
      ],
      "stateMutability": "view",
      "type": "function",
      "constant": true
    },
    {
      "inputs": [
        {
          "internalType": "address",
          "name": "operator",
          "type": "address"
        },
        {
          "internalType": "bool",
          "name": "approved",
          "type": "bool"
        }
      ],
      "name": "setApprovalForAll",
      "outputs": [],
      "stateMutability": "nonpayable",
      "type": "function"
    },
    {
      "inputs": [],
      "name": "superWorldCoin",
      "outputs": [
        {
          "internalType": "contract ERC20Interface",
          "name": "",
          "type": "address"
        }
      ],
      "stateMutability": "view",
      "type": "function",
      "constant": true
    },
    {
      "inputs": [
        {
          "internalType": "bytes4",
          "name": "interfaceId",
          "type": "bytes4"
        }
      ],
      "name": "supportsInterface",
      "outputs": [
        {
          "internalType": "bool",
          "name": "",
          "type": "bool"
        }
      ],
      "stateMutability": "view",
      "type": "function",
      "constant": true
    },
    {
      "inputs": [],
      "name": "symbol",
      "outputs": [
        {
          "internalType": "string",
          "name": "",
          "type": "string"
        }
      ],
      "stateMutability": "view",
      "type": "function",
      "constant": true
    },
    {
      "inputs": [
        {
          "internalType": "uint256",
          "name": "index",
          "type": "uint256"
        }
      ],
      "name": "tokenByIndex",
      "outputs": [
        {
          "internalType": "uint256",
          "name": "",
          "type": "uint256"
        }
      ],
      "stateMutability": "view",
      "type": "function",
      "constant": true
    },
    {
      "inputs": [
        {
          "internalType": "uint256",
          "name": "",
          "type": "uint256"
        },
        {
          "internalType": "uint256",
          "name": "",
          "type": "uint256"
        }
      ],
      "name": "tokenHistories",
      "outputs": [
        {
          "internalType": "uint256",
          "name": "tokenId",
          "type": "uint256"
        },
        {
          "internalType": "address",
          "name": "owner",
          "type": "address"
        },
        {
          "internalType": "uint256",
          "name": "price",
          "type": "uint256"
        }
      ],
      "stateMutability": "view",
      "type": "function",
      "constant": true
    },
    {
      "inputs": [
        {
          "internalType": "address",
          "name": "owner",
          "type": "address"
        },
        {
          "internalType": "uint256",
          "name": "index",
          "type": "uint256"
        }
      ],
      "name": "tokenOfOwnerByIndex",
      "outputs": [
        {
          "internalType": "uint256",
          "name": "",
          "type": "uint256"
        }
      ],
      "stateMutability": "view",
      "type": "function",
      "constant": true
    },
    {
      "inputs": [
        {
          "internalType": "uint256",
          "name": "tokenId",
          "type": "uint256"
        }
      ],
      "name": "tokenURI",
      "outputs": [
        {
          "internalType": "string",
          "name": "",
          "type": "string"
        }
      ],
      "stateMutability": "view",
      "type": "function",
      "constant": true
    },
    {
      "inputs": [],
      "name": "totalSupply",
      "outputs": [
        {
          "internalType": "uint256",
          "name": "",
          "type": "uint256"
        }
      ],
      "stateMutability": "view",
      "type": "function",
      "constant": true
    },
    {
      "inputs": [
        {
          "internalType": "address",
          "name": "from",
          "type": "address"
        },
        {
          "internalType": "address",
          "name": "to",
          "type": "address"
        },
        {
          "internalType": "uint256",
          "name": "tokenId",
          "type": "uint256"
        }
      ],
      "name": "transferFrom",
      "outputs": [],
      "stateMutability": "nonpayable",
      "type": "function"
    },
    {
      "inputs": [
        {
          "internalType": "uint256",
          "name": "_basePrice",
          "type": "uint256"
        }
      ],
      "name": "setBasePrice",
      "outputs": [],
      "stateMutability": "nonpayable",
      "type": "function"
    },
    {
      "inputs": [
        {
          "internalType": "string",
          "name": "lon",
          "type": "string"
        },
        {
          "internalType": "string",
          "name": "lat",
          "type": "string"
        },
        {
          "internalType": "uint256",
          "name": "_basePrice",
          "type": "uint256"
        }
      ],
      "name": "setBasePrice",
      "outputs": [],
      "stateMutability": "nonpayable",
      "type": "function"
    },
    {
      "inputs": [
        {
          "internalType": "uint256",
          "name": "_percentageCut",
          "type": "uint256"
        }
      ],
      "name": "setPercentageCut",
      "outputs": [],
      "stateMutability": "nonpayable",
      "type": "function"
    },
    {
      "inputs": [
        {
          "internalType": "string",
          "name": "lon",
          "type": "string"
        },
        {
          "internalType": "string",
          "name": "lat",
          "type": "string"
        }
      ],
      "name": "getTokenId",
      "outputs": [
        {
          "internalType": "uint256",
          "name": "",
          "type": "uint256"
        }
      ],
      "stateMutability": "pure",
      "type": "function",
      "constant": true
    },
    {
      "inputs": [
        {
          "internalType": "string",
          "name": "lon",
          "type": "string"
        },
        {
          "internalType": "string",
          "name": "lat",
          "type": "string"
        }
      ],
      "name": "getInfo",
      "outputs": [
        {
          "internalType": "uint256",
          "name": "",
          "type": "uint256"
        },
        {
          "internalType": "address",
          "name": "",
          "type": "address"
        },
        {
          "internalType": "bool",
          "name": "",
          "type": "bool"
        },
        {
          "internalType": "bool",
          "name": "",
          "type": "bool"
        },
        {
          "internalType": "uint256",
          "name": "",
          "type": "uint256"
        }
      ],
      "stateMutability": "view",
      "type": "function",
      "constant": true
    },
    {
      "inputs": [
        {
          "internalType": "address",
          "name": "buyer",
          "type": "address"
        },
        {
          "internalType": "uint256",
          "name": "coins",
          "type": "uint256"
        },
        {
          "internalType": "address",
          "name": "_coinAddress",
          "type": "address"
        },
        {
          "internalType": "bytes32",
          "name": "_data",
          "type": "bytes32"
        }
      ],
      "name": "receiveApproval",
      "outputs": [],
      "stateMutability": "nonpayable",
      "type": "function"
    },
    {
      "inputs": [
        {
          "internalType": "address",
          "name": "buyer",
          "type": "address"
        },
        {
          "internalType": "uint256",
          "name": "coins",
          "type": "uint256"
        },
        {
          "internalType": "string",
          "name": "lon",
          "type": "string"
        },
        {
          "internalType": "string",
          "name": "lat",
          "type": "string"
        }
      ],
      "name": "buyTokenWithCoins",
      "outputs": [
        {
          "internalType": "bool",
          "name": "",
          "type": "bool"
        }
      ],
      "stateMutability": "nonpayable",
      "type": "function"
    },
    {
      "inputs": [
        {
          "internalType": "string",
          "name": "lon",
          "type": "string"
        },
        {
          "internalType": "string",
          "name": "lat",
          "type": "string"
        }
      ],
      "name": "buyToken",
      "outputs": [
        {
          "internalType": "bool",
          "name": "",
          "type": "bool"
        }
      ],
      "stateMutability": "payable",
      "type": "function",
      "payable": true
    },
    {
      "inputs": [
        {
          "internalType": "string",
          "name": "lon",
          "type": "string"
        },
        {
          "internalType": "string",
          "name": "lat",
          "type": "string"
        },
        {
          "internalType": "uint256",
          "name": "sellPrice",
          "type": "uint256"
        }
      ],
      "name": "listToken",
      "outputs": [],
      "stateMutability": "nonpayable",
      "type": "function"
    },
    {
      "inputs": [
        {
          "internalType": "string",
          "name": "lon",
          "type": "string"
        },
        {
          "internalType": "string",
          "name": "lat",
          "type": "string"
        }
      ],
      "name": "delistToken",
      "outputs": [],
      "stateMutability": "nonpayable",
      "type": "function"
    },
    {
      "inputs": [
        {
          "internalType": "uint256",
          "name": "tokenId",
          "type": "uint256"
        }
      ],
      "name": "getPrice",
      "outputs": [
        {
          "internalType": "uint256",
          "name": "",
          "type": "uint256"
        }
      ],
      "stateMutability": "view",
      "type": "function",
      "constant": true
    },
    {
      "inputs": [
        {
          "internalType": "string",
          "name": "str",
          "type": "string"
        },
        {
          "internalType": "uint256",
          "name": "decimal",
          "type": "uint256"
        }
      ],
      "name": "truncateDecimals",
      "outputs": [
        {
          "internalType": "string",
          "name": "",
          "type": "string"
        }
      ],
      "stateMutability": "pure",
      "type": "function",
      "constant": true
    },
    {
      "inputs": [],
      "name": "withdrawBalance",
      "outputs": [],
      "stateMutability": "payable",
      "type": "function",
      "payable": true
    }
  ],
  "bytecode": "0x6080604052600060105560006011553480156200001b57600080fd5b5060405162005d6d38038062005d6d833981810160405260608110156200004157600080fd5b810190808051906020019092919080519060200190929190805190602001909291905050506040518060400160405280600a81526020017f5375706572576f726c64000000000000000000000000000000000000000000008152506040518060400160405280600a81526020017f5355504552574f524c4400000000000000000000000000000000000000000000815250620000ea6301ffc9a760e01b6200027260201b60201c565b8160079080519060200190620001029291906200037b565b5080600890805190602001906200011b9291906200037b565b50620001346380ac58cd60e01b6200027260201b60201c565b6200014c635b5e139f60e01b6200027260201b60201c565b6200016463780e9d6360e01b6200027260201b60201c565b505033600b60006101000a81548173ffffffffffffffffffffffffffffffffffffffff021916908373ffffffffffffffffffffffffffffffffffffffff16021790555082600c60006101000a81548173ffffffffffffffffffffffffffffffffffffffff021916908373ffffffffffffffffffffffffffffffffffffffff160217905550600c60009054906101000a900473ffffffffffffffffffffffffffffffffffffffff16600d60006101000a81548173ffffffffffffffffffffffffffffffffffffffff021916908373ffffffffffffffffffffffffffffffffffffffff16021790555081600e8190555080600f81905550600060108190555060006011819055505050506200042a565b63ffffffff60e01b817bffffffffffffffffffffffffffffffffffffffffffffffffffffffff191614156200030f576040517f08c379a000000000000000000000000000000000000000000000000000000000815260040180806020018281038252601c8152602001807f4552433136353a20696e76616c696420696e746572666163652069640000000081525060200191505060405180910390fd5b6001600080837bffffffffffffffffffffffffffffffffffffffffffffffffffffffff19167bffffffffffffffffffffffffffffffffffffffffffffffffffffffff1916815260200190815260200160002060006101000a81548160ff02191690831515021790555050565b828054600181600116156101000203166002900490600052602060002090601f016020900481019282601f10620003be57805160ff1916838001178555620003ef565b82800160010185558215620003ef579182015b82811115620003ee578251825591602001919060010190620003d1565b5b509050620003fe919062000402565b5090565b6200042791905b808211156200042357600081600090555060010162000409565b5090565b90565b615933806200043a6000396000f3fe60806040526004361061025c5760003560e01c8063733bf2f211610144578063c7b8de73116100b6578063e75722301161007a578063e757223014611744578063e81bc1ad14611793578063e985e9c5146118fc578063ecf582fa14611985578063f4f4224614611b26578063fdc61dd114611b515761025c565b8063c7b8de7314611326578063c87b56dd14611379578063de4b32621461142d578063e22023ae14611468578063e683ff07146115db5761025c565b8063a22cb46511610108578063a22cb46514610e3e578063ad8b9edc14610e9b578063b2e6357514611005578063b88d4fde14611164578063c172f9c914611276578063c7876ea4146112fb5761025c565b8063733bf2f214610ca25780637363257a14610cdd5780638da5cb5b14610d2c57806395d89b4114610d835780639e898e5814610e135761025c565b80632f745c59116101dd5780635fd8c710116101a15780635fd8c7101461098e5780636352211e146109985780636941f6b314610a135780636c0360eb14610b5e5780636ee90d6214610bee57806370a0823114610c3d5761025c565b80632f745c59146107735780633818d1a8146107e257806342842e0e146108315780634f6ccce7146108ac57806355db4f83146108fb5761025c565b80631567781611610224578063156778161461049057806318160ddd146104df5780631f9aa8211461050a5780632039eeff146106cd57806323b872dd146106f85761025c565b806301ffc9a71461026157806306fdde03146102d3578063081812fc14610363578063095ea7b3146103de578063104652f114610439575b600080fd5b34801561026d57600080fd5b506102b96004803603602081101561028457600080fd5b8101908080357bffffffffffffffffffffffffffffffffffffffffffffffffffffffff19169060200190929190505050611ba8565b604051808215151515815260200191505060405180910390f35b3480156102df57600080fd5b506102e8611c0f565b6040518080602001828103825283818151815260200191508051906020019080838360005b8381101561032857808201518184015260208101905061030d565b50505050905090810190601f1680156103555780820380516001836020036101000a031916815260200191505b509250505060405180910390f35b34801561036f57600080fd5b5061039c6004803603602081101561038657600080fd5b8101908080359060200190929190505050611cb1565b604051808273ffffffffffffffffffffffffffffffffffffffff1673ffffffffffffffffffffffffffffffffffffffff16815260200191505060405180910390f35b3480156103ea57600080fd5b506104376004803603604081101561040157600080fd5b81019080803573ffffffffffffffffffffffffffffffffffffffff16906020019092919080359060200190929190505050611d4c565b005b34801561044557600080fd5b5061044e611e90565b604051808273ffffffffffffffffffffffffffffffffffffffff1673ffffffffffffffffffffffffffffffffffffffff16815260200191505060405180910390f35b34801561049c57600080fd5b506104c9600480360360208110156104b357600080fd5b8101908080359060200190929190505050611eb6565b6040518082815260200191505060405180910390f35b3480156104eb57600080fd5b506104f4611ece565b6040518082815260200191505060405180910390f35b34801561051657600080fd5b506106676004803603604081101561052d57600080fd5b810190808035906020019064010000000081111561054a57600080fd5b82018360208201111561055c57600080fd5b8035906020019184600183028401116401000000008311171561057e57600080fd5b91908080601f016020809104026020016040519081016040528093929190818152602001838380828437600081840152601f19601f820116905080830192505050505050509192919290803590602001906401000000008111156105e157600080fd5b8201836020820111156105f357600080fd5b8035906020019184600183028401116401000000008311171561061557600080fd5b91908080601f016020809104026020016040519081016040528093929190818152602001838380828437600081840152601f19601f820116905080830192505050505050509192919290505050611edf565b604051808681526020018573ffffffffffffffffffffffffffffffffffffffff1673ffffffffffffffffffffffffffffffffffffffff16815260200184151515158152602001831515151581526020018281526020019550505050505060405180910390f35b3480156106d957600080fd5b506106e2611f87565b6040518082815260200191505060405180910390f35b34801561070457600080fd5b506107716004803603606081101561071b57600080fd5b81019080803573ffffffffffffffffffffffffffffffffffffffff169060200190929190803573ffffffffffffffffffffffffffffffffffffffff16906020019092919080359060200190929190505050611f8d565b005b34801561077f57600080fd5b506107cc6004803603604081101561079657600080fd5b81019080803573ffffffffffffffffffffffffffffffffffffffff16906020019092919080359060200190929190505050612003565b6040518082815260200191505060405180910390f35b3480156107ee57600080fd5b5061081b6004803603602081101561080557600080fd5b810190808035906020019092919050505061205e565b6040518082815260200191505060405180910390f35b34801561083d57600080fd5b506108aa6004803603606081101561085457600080fd5b81019080803573ffffffffffffffffffffffffffffffffffffffff169060200190929190803573ffffffffffffffffffffffffffffffffffffffff16906020019092919080359060200190929190505050612076565b005b3480156108b857600080fd5b506108e5600480360360208110156108cf57600080fd5b8101908080359060200190929190505050612096565b6040518082815260200191505060405180910390f35b34801561090757600080fd5b5061093e6004803603604081101561091e57600080fd5b8101908080359060200190929190803590602001909291905050506120b9565b604051808481526020018373ffffffffffffffffffffffffffffffffffffffff1673ffffffffffffffffffffffffffffffffffffffff168152602001828152602001935050505060405180910390f35b61099661211d565b005b3480156109a457600080fd5b506109d1600480360360208110156109bb57600080fd5b81019080803590602001909291905050506121c6565b604051808273ffffffffffffffffffffffffffffffffffffffff1673ffffffffffffffffffffffffffffffffffffffff16815260200191505060405180910390f35b348015610a1f57600080fd5b50610ae360048036036040811015610a3657600080fd5b8101908080359060200190640100000000811115610a5357600080fd5b820183602082011115610a6557600080fd5b80359060200191846001830284011164010000000083111715610a8757600080fd5b91908080601f016020809104026020016040519081016040528093929190818152602001838380828437600081840152601f19601f820116905080830192505050505050509192919290803590602001909291905050506121fd565b6040518080602001828103825283818151815260200191508051906020019080838360005b83811015610b23578082015181840152602081019050610b08565b50505050905090810190601f168015610b505780820380516001836020036101000a031916815260200191505b509250505060405180910390f35b348015610b6a57600080fd5b50610b736122ce565b6040518080602001828103825283818151815260200191508051906020019080838360005b83811015610bb3578082015181840152602081019050610b98565b50505050905090810190601f168015610be05780820380516001836020036101000a031916815260200191505b509250505060405180910390f35b348015610bfa57600080fd5b50610c2760048036036020811015610c1157600080fd5b8101908080359060200190929190505050612370565b6040518082815260200191505060405180910390f35b348015610c4957600080fd5b50610c8c60048036036020811015610c6057600080fd5b81019080803573ffffffffffffffffffffffffffffffffffffffff169060200190929190505050612388565b6040518082815260200191505060405180910390f35b348015610cae57600080fd5b50610cdb60048036036020811015610cc557600080fd5b810190808035906020019092919050505061245d565b005b348015610ce957600080fd5b50610d1660048036036020811015610d0057600080fd5b81019080803590602001909291905050506124ce565b6040518082815260200191505060405180910390f35b348015610d3857600080fd5b50610d416124e6565b604051808273ffffffffffffffffffffffffffffffffffffffff1673ffffffffffffffffffffffffffffffffffffffff16815260200191505060405180910390f35b348015610d8f57600080fd5b50610d9861250c565b6040518080602001828103825283818151815260200191508051906020019080838360005b83811015610dd8578082015181840152602081019050610dbd565b50505050905090810190601f168015610e055780820380516001836020036101000a031916815260200191505b509250505060405180910390f35b348015610e1f57600080fd5b50610e286125ae565b6040518082815260200191505060405180910390f35b348015610e4a57600080fd5b50610e9960048036036040811015610e6157600080fd5b81019080803573ffffffffffffffffffffffffffffffffffffffff1690602001909291908035151590602001909291905050506125b4565b005b610feb60048036036040811015610eb157600080fd5b8101908080359060200190640100000000811115610ece57600080fd5b820183602082011115610ee057600080fd5b80359060200191846001830284011164010000000083111715610f0257600080fd5b91908080601f016020809104026020016040519081016040528093929190818152602001838380828437600081840152601f19601f82011690508083019250505050505050919291929080359060200190640100000000811115610f6557600080fd5b820183602082011115610f7757600080fd5b80359060200191846001830284011164010000000083111715610f9957600080fd5b91908080601f016020809104026020016040519081016040528093929190818152602001838380828437600081840152601f19601f82011690508083019250505050505050919291929050505061276c565b604051808215151515815260200191505060405180910390f35b34801561101157600080fd5b506111626004803603604081101561102857600080fd5b810190808035906020019064010000000081111561104557600080fd5b82018360208201111561105757600080fd5b8035906020019184600183028401116401000000008311171561107957600080fd5b91908080601f016020809104026020016040519081016040528093929190818152602001838380828437600081840152601f19601f820116905080830192505050505050509192919290803590602001906401000000008111156110dc57600080fd5b8201836020820111156110ee57600080fd5b8035906020019184600183028401116401000000008311171561111057600080fd5b91908080601f016020809104026020016040519081016040528093929190818152602001838380828437600081840152601f19601f820116905080830192505050505050509192919290505050612b8c565b005b34801561117057600080fd5b506112746004803603608081101561118757600080fd5b81019080803573ffffffffffffffffffffffffffffffffffffffff169060200190929190803573ffffffffffffffffffffffffffffffffffffffff16906020019092919080359060200190929190803590602001906401000000008111156111ee57600080fd5b82018360208201111561120057600080fd5b8035906020019184600183028401116401000000008311171561122257600080fd5b91908080601f016020809104026020016040519081016040528093929190818152602001838380828437600081840152601f19601f820116905080830192505050505050509192919290505050612c5c565b005b34801561128257600080fd5b506112f96004803603608081101561129957600080fd5b81019080803573ffffffffffffffffffffffffffffffffffffffff16906020019092919080359060200190929190803573ffffffffffffffffffffffffffffffffffffffff16906020019092919080359060200190929190505050612cd4565b005b34801561130757600080fd5b50611310612e06565b6040518082815260200191505060405180910390f35b34801561133257600080fd5b5061135f6004803603602081101561134957600080fd5b8101908080359060200190929190505050612e0c565b604051808215151515815260200191505060405180910390f35b34801561138557600080fd5b506113b26004803603602081101561139c57600080fd5b8101908080359060200190929190505050612e2c565b6040518080602001828103825283818151815260200191508051906020019080838360005b838110156113f25780820151818401526020810190506113d7565b50505050905090810190601f16801561141f5780820380516001836020036101000a031916815260200191505b509250505060405180910390f35b34801561143957600080fd5b506114666004803603602081101561145057600080fd5b8101908080359060200190929190505050613115565b005b34801561147457600080fd5b506115c56004803603604081101561148b57600080fd5b81019080803590602001906401000000008111156114a857600080fd5b8201836020820111156114ba57600080fd5b803590602001918460018302840111640100000000831117156114dc57600080fd5b91908080601f016020809104026020016040519081016040528093929190818152602001838380828437600081840152601f19601f8201169050808301925050505050505091929192908035906020019064010000000081111561153f57600080fd5b82018360208201111561155157600080fd5b8035906020019184600183028401116401000000008311171561157357600080fd5b91908080601f016020809104026020016040519081016040528093929190818152602001838380828437600081840152601f19601f820116905080830192505050505050509192919290505050613186565b6040518082815260200191505060405180910390f35b3480156115e757600080fd5b50611742600480360360608110156115fe57600080fd5b810190808035906020019064010000000081111561161b57600080fd5b82018360208201111561162d57600080fd5b8035906020019184600183028401116401000000008311171561164f57600080fd5b91908080601f016020809104026020016040519081016040528093929190818152602001838380828437600081840152601f19601f820116905080830192505050505050509192919290803590602001906401000000008111156116b257600080fd5b8201836020820111156116c457600080fd5b803590602001918460018302840111640100000000831117156116e657600080fd5b91908080601f016020809104026020016040519081016040528093929190818152602001838380828437600081840152601f19601f82011690508083019250505050505050919291929080359060200190929190505050613280565b005b34801561175057600080fd5b5061177d6004803603602081101561176757600080fd5b810190808035906020019092919050505061333d565b6040518082815260200191505060405180910390f35b34801561179f57600080fd5b506118fa600480360360608110156117b657600080fd5b81019080803590602001906401000000008111156117d357600080fd5b8201836020820111156117e557600080fd5b8035906020019184600183028401116401000000008311171561180757600080fd5b91908080601f016020809104026020016040519081016040528093929190818152602001838380828437600081840152601f19601f8201169050808301925050505050505091929192908035906020019064010000000081111561186a57600080fd5b82018360208201111561187c57600080fd5b8035906020019184600183028401116401000000008311171561189e57600080fd5b91908080601f016020809104026020016040519081016040528093929190818152602001838380828437600081840152601f19601f8201169050808301925050505050505091929192908035906020019092919050505061340f565b005b34801561190857600080fd5b5061196b6004803603604081101561191f57600080fd5b81019080803573ffffffffffffffffffffffffffffffffffffffff169060200190929190803573ffffffffffffffffffffffffffffffffffffffff1690602001909291905050506134a2565b604051808215151515815260200191505060405180910390f35b34801561199157600080fd5b50611b0c600480360360808110156119a857600080fd5b81019080803573ffffffffffffffffffffffffffffffffffffffff16906020019092919080359060200190929190803590602001906401000000008111156119ef57600080fd5b820183602082011115611a0157600080fd5b80359060200191846001830284011164010000000083111715611a2357600080fd5b91908080601f016020809104026020016040519081016040528093929190818152602001838380828437600081840152601f19601f82011690508083019250505050505050919291929080359060200190640100000000811115611a8657600080fd5b820183602082011115611a9857600080fd5b80359060200191846001830284011164010000000083111715611aba57600080fd5b91908080601f016020809104026020016040519081016040528093929190818152602001838380828437600081840152601f19601f820116905080830192505050505050509192919290505050613536565b604051808215151515815260200191505060405180910390f35b348015611b3257600080fd5b50611b3b6137e1565b6040518082815260200191505060405180910390f35b348015611b5d57600080fd5b50611b666137e7565b604051808273ffffffffffffffffffffffffffffffffffffffff1673ffffffffffffffffffffffffffffffffffffffff16815260200191505060405180910390f35b6000806000837bffffffffffffffffffffffffffffffffffffffffffffffffffffffff19167bffffffffffffffffffffffffffffffffffffffffffffffffffffffff1916815260200190815260200160002060009054906101000a900460ff169050919050565b606060078054600181600116156101000203166002900480601f016020809104026020016040519081016040528092919081815260200182805460018160011615610100020316600290048015611ca75780601f10611c7c57610100808354040283529160200191611ca7565b820191906000526020600020905b815481529060010190602001808311611c8a57829003601f168201915b5050505050905090565b6000611cbc8261380d565b611d11576040517f08c379a000000000000000000000000000000000000000000000000000000000815260040180806020018281038252602c815260200180615828602c913960400191505060405180910390fd5b6005600083815260200190815260200160002060009054906101000a900473ffffffffffffffffffffffffffffffffffffffff169050919050565b6000611d57826121c6565b90508073ffffffffffffffffffffffffffffffffffffffff168373ffffffffffffffffffffffffffffffffffffffff161415611dde576040517f08c379a00000000000000000000000000000000000000000000000000000000081526004018080602001828103825260218152602001806158ac6021913960400191505060405180910390fd5b8073ffffffffffffffffffffffffffffffffffffffff16611dfd61382a565b73ffffffffffffffffffffffffffffffffffffffff161480611e2c5750611e2b81611e2661382a565b6134a2565b5b611e81576040517f08c379a000000000000000000000000000000000000000000000000000000000815260040180806020018281038252603881526020018061575a6038913960400191505060405180910390fd5b611e8b8383613832565b505050565b600d60009054906101000a900473ffffffffffffffffffffffffffffffffffffffff1681565b60136020528060005260406000206000915090505481565b6000611eda60026138eb565b905090565b600080600080600080611ef28888613186565b90506000611f01600283613900565b905060008073ffffffffffffffffffffffffffffffffffffffff168273ffffffffffffffffffffffffffffffffffffffff161415905060006015600085815260200190815260200160002060009054906101000a900460ff1690506000611f678561333d565b905084848484849950995099509950995050505050509295509295909350565b60105481565b611f9e611f9861382a565b8261391d565b611ff3576040517f08c379a00000000000000000000000000000000000000000000000000000000081526004018080602001828103825260318152602001806158cd6031913960400191505060405180910390fd5b611ffe838383613a11565b505050565b600061205682600160008673ffffffffffffffffffffffffffffffffffffffff1673ffffffffffffffffffffffffffffffffffffffff168152602001908152602001600020613c5490919063ffffffff16565b905092915050565b60126020528060005260406000206000915090505481565b61209183838360405180602001604052806000815250612c5c565b505050565b6000806120ad836002613c6e90919063ffffffff16565b50905080915050919050565b601760205281600052604060002081815481106120d257fe5b9060005260206000209060030201600091509150508060000154908060010160009054906101000a900473ffffffffffffffffffffffffffffffffffffffff16908060020154905083565b600b60009054906101000a900473ffffffffffffffffffffffffffffffffffffffff1673ffffffffffffffffffffffffffffffffffffffff163373ffffffffffffffffffffffffffffffffffffffff161461217757600080fd5b60004790503373ffffffffffffffffffffffffffffffffffffffff166108fc829081150290604051600060405180830381858888f193505050501580156121c2573d6000803e3d6000fd5b5050565b60006121f6826040518060600160405280602981526020016157bc602991396002613c9d9092919063ffffffff16565b9050919050565b606080839050600081519050600060018203905060008090505b828110156122a2577f2e0000000000000000000000000000000000000000000000000000000000000084828151811061224c57fe5b602001015160f81c60f81b7effffffffffffffffffffffffffffffffffffffffffffffffffffffffffffff19161415612283578091505b600186830101811415612295576122a2565b8080600101915050612217565b8281106122b557869450505050506122c8565b6122c187600083613cbc565b9450505050505b92915050565b6060600a8054600181600116156101000203166002900480601f0160208091040260200160405190810160405280929190818152602001828054600181600116156101000203166002900480156123665780601f1061233b57610100808354040283529160200191612366565b820191906000526020600020905b81548152906001019060200180831161234957829003601f168201915b5050505050905090565b60146020528060005260406000206000915090505481565b60008073ffffffffffffffffffffffffffffffffffffffff168273ffffffffffffffffffffffffffffffffffffffff16141561240f576040517f08c379a000000000000000000000000000000000000000000000000000000000815260040180806020018281038252602a815260200180615792602a913960400191505060405180910390fd5b612456600160008473ffffffffffffffffffffffffffffffffffffffff1673ffffffffffffffffffffffffffffffffffffffff168152602001908152602001600020613d9d565b9050919050565b600b60009054906101000a900473ffffffffffffffffffffffffffffffffffffffff1673ffffffffffffffffffffffffffffffffffffffff163373ffffffffffffffffffffffffffffffffffffffff16146124b757600080fd5b600081116124c457600080fd5b80600e8190555050565b60166020528060005260406000206000915090505481565b600b60009054906101000a900473ffffffffffffffffffffffffffffffffffffffff1681565b606060088054600181600116156101000203166002900480601f0160208091040260200160405190810160405280929190818152602001828054600181600116156101000203166002900480156125a45780601f10612579576101008083540402835291602001916125a4565b820191906000526020600020905b81548152906001019060200180831161258757829003601f168201915b5050505050905090565b60115481565b6125bc61382a565b73ffffffffffffffffffffffffffffffffffffffff168273ffffffffffffffffffffffffffffffffffffffff16141561265d576040517f08c379a00000000000000000000000000000000000000000000000000000000081526004018080602001828103825260198152602001807f4552433732313a20617070726f766520746f2063616c6c65720000000000000081525060200191505060405180910390fd5b806006600061266a61382a565b73ffffffffffffffffffffffffffffffffffffffff1673ffffffffffffffffffffffffffffffffffffffff16815260200190815260200160002060008473ffffffffffffffffffffffffffffffffffffffff1673ffffffffffffffffffffffffffffffffffffffff16815260200190815260200160002060006101000a81548160ff0219169083151502179055508173ffffffffffffffffffffffffffffffffffffffff1661271761382a565b73ffffffffffffffffffffffffffffffffffffffff167f17307eab39ab6107e8899845ad3d59bd9653f200f220920489ca2b5937696c3183604051808215151515815260200191505060405180910390a35050565b6000806127798484613186565b90506000349050600061278d600284613900565b9050600073ffffffffffffffffffffffffffffffffffffffff168173ffffffffffffffffffffffffffffffffffffffff16141561281957600f548210156127d357600080fd5b60126000848152602001908152602001600020548210156127f357600080fd5b6127fe338484613db2565b61280d83878733858742613dcb565b60019350505050612b86565b600115156015600085815260200190815260200160002060009054906101000a900460ff1615151461284a57600080fd5b600060146000858152602001908152602001600020541161286a57600080fd5b601460008481526020019081526020016000205482101561288a57600080fd5b60006128a261289b84600e546140fa565b6064614180565b905060006128b084836141ca565b905060006015600087815260200190815260200160002060006101000a81548160ff02191690831515021790555060008390508073ffffffffffffffffffffffffffffffffffffffff166108fc839081150290604051600060405180830381858888f19350505050612aa65760016015600088815260200190815260200160002060006101000a81548160ff0219169083151502179055508373ffffffffffffffffffffffffffffffffffffffff163373ffffffffffffffffffffffffffffffffffffffff167fa55cfa3e9746b524793a7b3770d883a9547a84cd8e133210f934614d7e9d94fa888c8c8a42604051808681526020018060200180602001858152602001848152602001838103835287818151815260200191508051906020019080838360005b838110156129f25780820151818401526020810190506129d7565b50505050905090810190601f168015612a1f5780820380516001836020036101000a031916815260200191505b50838103825286818151815260200191508051906020019080838360005b83811015612a58578082015181840152602081019050612a3d565b50505050905090810190601f168015612a855780820380516001836020036101000a031916815260200191505b5097505050505050505060405180910390a360009650505050505050612b86565b612af786600160008773ffffffffffffffffffffffffffffffffffffffff1673ffffffffffffffffffffffffffffffffffffffff16815260200190815260200160002061421490919063ffffffff16565b50612b4986600160003373ffffffffffffffffffffffffffffffffffffffff1673ffffffffffffffffffffffffffffffffffffffff16815260200190815260200160002061422e90919063ffffffff16565b50612b548686614248565b846014600088815260200190815260200160002081905550612b7b868a8a33888a42613dcb565b600196505050505050505b92915050565b6000612b988383613186565b9050612ba5600282613900565b73ffffffffffffffffffffffffffffffffffffffff163373ffffffffffffffffffffffffffffffffffffffff1614612bdc57600080fd5b60006015600083815260200190815260200160002060006101000a81548160ff021916908315150217905550612c3e6016600083815260200190815260200160002054848433601460008781526020019081526020016000205460004261432e565b60006014600083815260200190815260200160002081905550505050565b612c6d612c6761382a565b8361391d565b612cc2576040517f08c379a00000000000000000000000000000000000000000000000000000000081526004018080602001828103825260318152602001806158cd6031913960400191505060405180910390fd5b612cce84848484614620565b50505050565b7fd9e961b5e33e49ea23325ff569563cfc999d3188fd44b2a9bc263f247e7d5a5384848484604051808573ffffffffffffffffffffffffffffffffffffffff1673ffffffffffffffffffffffffffffffffffffffff1681526020018481526020018373ffffffffffffffffffffffffffffffffffffffff1673ffffffffffffffffffffffffffffffffffffffff16815260200182815260200194505050505060405180910390a1600c60009054906101000a900473ffffffffffffffffffffffffffffffffffffffff1673ffffffffffffffffffffffffffffffffffffffff168273ffffffffffffffffffffffffffffffffffffffff1614612dd557600080fd5b6060612de082614692565b9050612dfe8585612df084614851565b612df985614874565b613536565b505050505050565b600f5481565b60156020528060005260406000206000915054906101000a900460ff1681565b6060612e378261380d565b612e8c576040517f08c379a000000000000000000000000000000000000000000000000000000000815260040180806020018281038252602f81526020018061587d602f913960400191505060405180910390fd5b6060600960008481526020019081526020016000208054600181600116156101000203166002900480601f016020809104026020016040519081016040528092919081815260200182805460018160011615610100020316600290048015612f355780601f10612f0a57610100808354040283529160200191612f35565b820191906000526020600020905b815481529060010190602001808311612f1857829003601f168201915b505050505090506000600a8054600181600116156101000203166002900490501415612f645780915050613110565b60008151111561303d57600a816040516020018083805460018160011615610100020316600290048015612fcf5780601f10612fad576101008083540402835291820191612fcf565b820191906000526020600020905b815481529060010190602001808311612fbb575b505082805190602001908083835b602083106130005780518252602082019150602081019050602083039250612fdd565b6001836020036101000a03801982511681845116808217855250505050505090500192505050604051602081830303815290604052915050613110565b600a6130488461489a565b60405160200180838054600181600116156101000203166002900480156130a65780601f106130845761010080835404028352918201916130a6565b820191906000526020600020905b815481529060010190602001808311613092575b505082805190602001908083835b602083106130d757805182526020820191506020810190506020830392506130b4565b6001836020036101000a038019825116818451168082178552505050505050905001925050506040516020818303038152906040529150505b919050565b600b60009054906101000a900473ffffffffffffffffffffffffffffffffffffffff1673ffffffffffffffffffffffffffffffffffffffff163373ffffffffffffffffffffffffffffffffffffffff161461316f57600080fd5b6000811161317c57600080fd5b80600f8190555050565b600082826040516020018083805190602001908083835b602083106131c0578051825260208201915060208101905060208303925061319d565b6001836020036101000a038019825116818451168082178552505050505050905001807f2c0000000000000000000000000000000000000000000000000000000000000081525060010182805190602001908083835b602083106132395780518252602082019150602081019050602083039250613216565b6001836020036101000a038019825116818451168082178552505050505050905001925050506040516020818303038152906040528051906020012060001c905092915050565b600061328c8484613186565b9050613299600282613900565b73ffffffffffffffffffffffffffffffffffffffff163373ffffffffffffffffffffffffffffffffffffffff16146132d057600080fd5b60016015600083815260200190815260200160002060006101000a81548160ff02191690831515021790555081601460008381526020019081526020016000208190555061333760166000838152602001908152602001600020548585338660014261432e565b50505050565b60008073ffffffffffffffffffffffffffffffffffffffff16613361600284613900565b73ffffffffffffffffffffffffffffffffffffffff1614156133b25760006012600084815260200190815260200160002054905060008114156133a957600f5491505061340a565b8091505061340a565b6015600083815260200190815260200160002060009054906101000a900460ff16156133f3576014600083815260200190815260200160002054905061340a565b601360008381526020019081526020016000205490505b919050565b600b60009054906101000a900473ffffffffffffffffffffffffffffffffffffffff1673ffffffffffffffffffffffffffffffffffffffff163373ffffffffffffffffffffffffffffffffffffffff161461346957600080fd5b6000811161347657600080fd5b60006134828484613186565b905081601260008381526020019081526020016000208190555050505050565b6000600660008473ffffffffffffffffffffffffffffffffffffffff1673ffffffffffffffffffffffffffffffffffffffff16815260200190815260200160002060008373ffffffffffffffffffffffffffffffffffffffff1673ffffffffffffffffffffffffffffffffffffffff16815260200190815260200160002060009054906101000a900460ff16905092915050565b6000806135438484613186565b90506000613552600283613900565b9050600073ffffffffffffffffffffffffffffffffffffffff168173ffffffffffffffffffffffffffffffffffffffff1614156137d257600f5486101561359857600080fd5b600f54600d60009054906101000a900473ffffffffffffffffffffffffffffffffffffffff1673ffffffffffffffffffffffffffffffffffffffff166370a08231896040518263ffffffff1660e01b8152600401808273ffffffffffffffffffffffffffffffffffffffff1673ffffffffffffffffffffffffffffffffffffffff16815260200191505060206040518083038186803b15801561363a57600080fd5b505afa15801561364e573d6000803e3d6000fd5b505050506040513d602081101561366457600080fd5b8101908080519060200190929190505050101561368057600080fd5b600d60009054906101000a900473ffffffffffffffffffffffffffffffffffffffff1673ffffffffffffffffffffffffffffffffffffffff166323b872dd8830600f546040518463ffffffff1660e01b8152600401808473ffffffffffffffffffffffffffffffffffffffff1673ffffffffffffffffffffffffffffffffffffffff1681526020018373ffffffffffffffffffffffffffffffffffffffff1673ffffffffffffffffffffffffffffffffffffffff1681526020018281526020019350505050602060405180830381600087803b15801561375f57600080fd5b505af1158015613773573d6000803e3d6000fd5b505050506040513d602081101561378957600080fd5b81019080805190602001909291905050506137a9576000925050506137d9565b6137b68783600f54613db2565b6137c78286868a85600f5442613dcb565b6001925050506137d9565b6000925050505b949350505050565b600e5481565b600c60009054906101000a900473ffffffffffffffffffffffffffffffffffffffff1681565b60006138238260026149e190919063ffffffff16565b9050919050565b600033905090565b816005600083815260200190815260200160002060006101000a81548173ffffffffffffffffffffffffffffffffffffffff021916908373ffffffffffffffffffffffffffffffffffffffff160217905550808273ffffffffffffffffffffffffffffffffffffffff166138a5836121c6565b73ffffffffffffffffffffffffffffffffffffffff167f8c5be1e5ebec7d5bd14f71427d1e84f3dd0314c0f7b2291e5b200ac8c7c3b92560405160405180910390a45050565b60006138f9826000016149fb565b9050919050565b6000613912836000018360001b614a0c565b60001c905092915050565b60006139288261380d565b61397d576040517f08c379a000000000000000000000000000000000000000000000000000000000815260040180806020018281038252602c81526020018061572e602c913960400191505060405180910390fd5b6000613988836121c6565b90508073ffffffffffffffffffffffffffffffffffffffff168473ffffffffffffffffffffffffffffffffffffffff1614806139f757508373ffffffffffffffffffffffffffffffffffffffff166139df84611cb1565b73ffffffffffffffffffffffffffffffffffffffff16145b80613a085750613a0781856134a2565b5b91505092915050565b8273ffffffffffffffffffffffffffffffffffffffff16613a31826121c6565b73ffffffffffffffffffffffffffffffffffffffff1614613a9d576040517f08c379a00000000000000000000000000000000000000000000000000000000081526004018080602001828103825260298152602001806158546029913960400191505060405180910390fd5b600073ffffffffffffffffffffffffffffffffffffffff168273ffffffffffffffffffffffffffffffffffffffff161415613b23576040517f08c379a000000000000000000000000000000000000000000000000000000000815260040180806020018281038252602481526020018061570a6024913960400191505060405180910390fd5b613b2e838383614a56565b613b39600082613832565b613b8a81600160008673ffffffffffffffffffffffffffffffffffffffff1673ffffffffffffffffffffffffffffffffffffffff16815260200190815260200160002061421490919063ffffffff16565b50613bdc81600160008573ffffffffffffffffffffffffffffffffffffffff1673ffffffffffffffffffffffffffffffffffffffff16815260200190815260200160002061422e90919063ffffffff16565b50613bf381836002614a5b9092919063ffffffff16565b50808273ffffffffffffffffffffffffffffffffffffffff168473ffffffffffffffffffffffffffffffffffffffff167fddf252ad1be2c89b69c2b068fc378daa952ba7f163c4a11628f55a4df523b3ef60405160405180910390a4505050565b6000613c638360000183614a90565b60001c905092915050565b600080600080613c818660000186614b13565b915091508160001c8160001c8090509350935050509250929050565b6000613cb0846000018460001b84614bac565b60001c90509392505050565b6060808490506000831415613cd057805192505b606084840367ffffffffffffffff81118015613ceb57600080fd5b506040519080825280601f01601f191660200182016040528015613d1e5781602001600182028036833780820191505090505b50905060008590505b84811015613d9057828181518110613d3b57fe5b602001015160f81c60f81b8287830381518110613d5457fe5b60200101907effffffffffffffffffffffffffffffffffffffffffffffffffffffffffffff1916908160001a9053508080600101915050613d27565b5080925050509392505050565b6000613dab82600001614ca2565b9050919050565b613dbc8383614cb3565b613dc68282614248565b505050565b60106000815480929190600101919050555060105460166000898152602001908152602001600020819055508273ffffffffffffffffffffffffffffffffffffffff168473ffffffffffffffffffffffffffffffffffffffff167f8e70ff832b6da3e07cec0652309e33a0f14681cdd10e58614a58610009c29ac560105489898787604051808681526020018060200180602001858152602001848152602001838103835287818151815260200191508051906020019080838360005b83811015613ea3578082015181840152602081019050613e88565b50505050905090810190601f168015613ed05780820380516001836020036101000a031916815260200191505b50838103825286818151815260200191508051906020019080838360005b83811015613f09578082015181840152602081019050613eee565b50505050905090810190601f168015613f365780820380516001836020036101000a031916815260200191505b5097505050505050505060405180910390a3613f66613f568760016121fd565b613f618760016121fd565b613186565b7f74e17343eb39bf0291462c1254c3997f63ce2db783e13c9ef1b444748febb1e56010548888888888886040518088815260200180602001806020018773ffffffffffffffffffffffffffffffffffffffff1673ffffffffffffffffffffffffffffffffffffffff1681526020018673ffffffffffffffffffffffffffffffffffffffff1673ffffffffffffffffffffffffffffffffffffffff168152602001858152602001848152602001838103835289818151815260200191508051906020019080838360005b8381101561404a57808201518184015260208101905061402f565b50505050905090810190601f1680156140775780820380516001836020036101000a031916815260200191505b50838103825288818151815260200191508051906020019080838360005b838110156140b0578082015181840152602081019050614095565b50505050905090810190601f1680156140dd5780820380516001836020036101000a031916815260200191505b50995050505050505050505060405180910390a250505050505050565b60008083141561410d576000905061417a565b600082840290508284828161411e57fe5b0414614175576040517f08c379a00000000000000000000000000000000000000000000000000000000081526004018080602001828103825260218152602001806158076021913960400191505060405180910390fd5b809150505b92915050565b60006141c283836040518060400160405280601a81526020017f536166654d6174683a206469766973696f6e206279207a65726f000000000000815250614ea7565b905092915050565b600061420c83836040518060400160405280601e81526020017f536166654d6174683a207375627472616374696f6e206f766572666c6f770000815250614f6d565b905092915050565b6000614226836000018360001b61502d565b905092915050565b6000614240836000018360001b615115565b905092915050565b8060136000848152602001908152602001600020819055506017600083815260200190815260200160002060405180606001604052808481526020013373ffffffffffffffffffffffffffffffffffffffff1681526020018381525090806001815401808255809150506001900390600052602060002090600302016000909190919091506000820151816000015560208201518160010160006101000a81548173ffffffffffffffffffffffffffffffffffffffff021916908373ffffffffffffffffffffffffffffffffffffffff1602179055506040820151816002015550505050565b6011600081548092919060010191905055508373ffffffffffffffffffffffffffffffffffffffff167f05babdc65b592a0dc2eb1e6118b969c698477d136b29df954d6dea26ccb706bc60115489898988888860405180888152602001878152602001806020018060200186815260200185151515158152602001848152602001838103835288818151815260200191508051906020019080838360005b838110156143e75780820151818401526020810190506143cc565b50505050905090810190601f1680156144145780820380516001836020036101000a031916815260200191505b50838103825287818151815260200191508051906020019080838360005b8381101561444d578082015181840152602081019050614432565b50505050905090810190601f16801561447a5780820380516001836020036101000a031916815260200191505b50995050505050505050505060405180910390a26144ac61449c8760016121fd565b6144a78760016121fd565b613186565b7fc06e63cf101e85b8f2f20463b1b6f3658a56acb56a9256a2907a9ac00ec37457601154898989898989896040518089815260200188815260200180602001806020018773ffffffffffffffffffffffffffffffffffffffff1673ffffffffffffffffffffffffffffffffffffffff16815260200186815260200185151515158152602001848152602001838103835289818151815260200191508051906020019080838360005b8381101561456f578082015181840152602081019050614554565b50505050905090810190601f16801561459c5780820380516001836020036101000a031916815260200191505b50838103825288818151815260200191508051906020019080838360005b838110156145d55780820151818401526020810190506145ba565b50505050905090810190601f1680156146025780820380516001836020036101000a031916815260200191505b509a505050505050505050505060405180910390a250505050505050565b61462b848484613a11565b61463784848484615185565b61468c576040517f08c379a00000000000000000000000000000000000000000000000000000000081526004018080602001828103825260328152602001806156d86032913960400191505060405180910390fd5b50505050565b606080602067ffffffffffffffff811180156146ad57600080fd5b506040519080825280601f01601f1916602001820160405280156146e05781602001600182028036833780820191505090505b509050600080905060008090505b602081101561478a5760008160080260020a8660001c0260001b9050600060f81b817effffffffffffffffffffffffffffffffffffffffffffffffffffffffffffff19161461477c578084848151811061474457fe5b60200101907effffffffffffffffffffffffffffffffffffffffffffffffffffffffffffff1916908160001a90535082806001019350505b5080806001019150506146ee565b60608267ffffffffffffffff811180156147a357600080fd5b506040519080825280601f01601f1916602001820160405280156147d65781602001600182028036833780820191505090505b509050600091505b82821015614845578382815181106147f257fe5b602001015160f81c60f81b81838151811061480957fe5b60200101907effffffffffffffffffffffffffffffffffffffffffffffffffffffffffffff1916908160001a90535081806001019250506147de565b80945050505050919050565b6060600061485e836154a8565b905061486c83600083613cbc565b915050919050565b60606000614881836154a8565b905061489283600183016000613cbc565b915050919050565b606060008214156148e2576040518060400160405280600181526020017f300000000000000000000000000000000000000000000000000000000000000081525090506149dc565b600082905060005b6000821461490c578080600101915050600a828161490457fe5b0491506148ea565b60608167ffffffffffffffff8111801561492557600080fd5b506040519080825280601f01601f1916602001820160405280156149585781602001600182028036833780820191505090505b50905060006001830390508593505b600084146149d457600a848161497957fe5b0660300160f81b8282806001900393508151811061499357fe5b60200101907effffffffffffffffffffffffffffffffffffffffffffffffffffffffffffff1916908160001a905350600a84816149cc57fe5b049350614967565b819450505050505b919050565b60006149f3836000018360001b615548565b905092915050565b600081600001805490509050919050565b6000614a4e83836040518060400160405280601e81526020017f456e756d657261626c654d61703a206e6f6e6578697374656e74206b65790000815250614bac565b905092915050565b505050565b6000614a87846000018460001b8473ffffffffffffffffffffffffffffffffffffffff1660001b61556b565b90509392505050565b600081836000018054905011614af1576040517f08c379a00000000000000000000000000000000000000000000000000000000081526004018080602001828103825260228152602001806156b66022913960400191505060405180910390fd5b826000018281548110614b0057fe5b9060005260206000200154905092915050565b60008082846000018054905011614b75576040517f08c379a00000000000000000000000000000000000000000000000000000000081526004018080602001828103825260228152602001806157e56022913960400191505060405180910390fd5b6000846000018481548110614b8657fe5b906000526020600020906002020190508060000154816001015492509250509250929050565b60008084600101600085815260200190815260200160002054905060008114158390614c73576040517f08c379a00000000000000000000000000000000000000000000000000000000081526004018080602001828103825283818151815260200191508051906020019080838360005b83811015614c38578082015181840152602081019050614c1d565b50505050905090810190601f168015614c655780820380516001836020036101000a031916815260200191505b509250505060405180910390fd5b50846000016001820381548110614c8657fe5b9060005260206000209060020201600101549150509392505050565b600081600001805490509050919050565b600073ffffffffffffffffffffffffffffffffffffffff168273ffffffffffffffffffffffffffffffffffffffff161415614d56576040517f08c379a00000000000000000000000000000000000000000000000000000000081526004018080602001828103825260208152602001807f4552433732313a206d696e7420746f20746865207a65726f206164647265737381525060200191505060405180910390fd5b614d5f8161380d565b15614dd2576040517f08c379a000000000000000000000000000000000000000000000000000000000815260040180806020018281038252601c8152602001807f4552433732313a20746f6b656e20616c7265616479206d696e7465640000000081525060200191505060405180910390fd5b614dde60008383614a56565b614e2f81600160008573ffffffffffffffffffffffffffffffffffffffff1673ffffffffffffffffffffffffffffffffffffffff16815260200190815260200160002061422e90919063ffffffff16565b50614e4681836002614a5b9092919063ffffffff16565b50808273ffffffffffffffffffffffffffffffffffffffff16600073ffffffffffffffffffffffffffffffffffffffff167fddf252ad1be2c89b69c2b068fc378daa952ba7f163c4a11628f55a4df523b3ef60405160405180910390a45050565b60008083118290614f53576040517f08c379a00000000000000000000000000000000000000000000000000000000081526004018080602001828103825283818151815260200191508051906020019080838360005b83811015614f18578082015181840152602081019050614efd565b50505050905090810190601f168015614f455780820380516001836020036101000a031916815260200191505b509250505060405180910390fd5b506000838581614f5f57fe5b049050809150509392505050565b600083831115829061501a576040517f08c379a00000000000000000000000000000000000000000000000000000000081526004018080602001828103825283818151815260200191508051906020019080838360005b83811015614fdf578082015181840152602081019050614fc4565b50505050905090810190601f16801561500c5780820380516001836020036101000a031916815260200191505b509250505060405180910390fd5b5060008385039050809150509392505050565b60008083600101600084815260200190815260200160002054905060008114615109576000600182039050600060018660000180549050039050600086600001828154811061507857fe5b906000526020600020015490508087600001848154811061509557fe5b90600052602060002001819055506001830187600101600083815260200190815260200160002081905550866000018054806150cd57fe5b6001900381819060005260206000200160009055905586600101600087815260200190815260200160002060009055600194505050505061510f565b60009150505b92915050565b60006151218383615647565b61517a57826000018290806001815401808255809150506001900390600052602060002001600090919091909150558260000180549050836001016000848152602001908152602001600020819055506001905061517f565b600090505b92915050565b60006151a68473ffffffffffffffffffffffffffffffffffffffff1661566a565b6151b357600190506154a0565b600060608573ffffffffffffffffffffffffffffffffffffffff1663150b7a0260e01b6151de61382a565b898888604051602401808573ffffffffffffffffffffffffffffffffffffffff1673ffffffffffffffffffffffffffffffffffffffff1681526020018473ffffffffffffffffffffffffffffffffffffffff1673ffffffffffffffffffffffffffffffffffffffff16815260200183815260200180602001828103825283818151815260200191508051906020019080838360005b8381101561528e578082015181840152602081019050615273565b50505050905090810190601f1680156152bb5780820380516001836020036101000a031916815260200191505b5095505050505050604051602081830303815290604052907bffffffffffffffffffffffffffffffffffffffffffffffffffffffff19166020820180517bffffffffffffffffffffffffffffffffffffffffffffffffffffffff83818316178352505050506040518082805190602001908083835b602083106153535780518252602082019150602081019050602083039250615330565b6001836020036101000a0380198251168184511680821785525050505050509050019150506000604051808303816000865af19150503d80600081146153b5576040519150601f19603f3d011682016040523d82523d6000602084013e6153ba565b606091505b509150915081615428576000815111156153d75780518082602001fd5b6040517f08c379a00000000000000000000000000000000000000000000000000000000081526004018080602001828103825260328152602001806156d86032913960400191505060405180910390fd5b600081806020019051602081101561543f57600080fd5b8101908080519060200190929190505050905063150b7a0260e01b7bffffffffffffffffffffffffffffffffffffffffffffffffffffffff1916817bffffffffffffffffffffffffffffffffffffffffffffffffffffffff19161493505050505b949350505050565b6000606082905060008151905060008090505b8181101561553b577f2c000000000000000000000000000000000000000000000000000000000000008382815181106154f057fe5b602001015160f81c60f81b7effffffffffffffffffffffffffffffffffffffffffffffffffffffffffffff1916141561552e57809350505050615543565b80806001019150506154bb565b506000925050505b919050565b600080836001016000848152602001908152602001600020541415905092915050565b600080846001016000858152602001908152602001600020549050600081141561561257846000016040518060400160405280868152602001858152509080600181540180825580915050600190039060005260206000209060020201600090919091909150600082015181600001556020820151816001015550508460000180549050856001016000868152602001908152602001600020819055506001915050615640565b8285600001600183038154811061562557fe5b90600052602060002090600202016001018190555060009150505b9392505050565b600080836001016000848152602001908152602001600020541415905092915050565b60008060007fc5d2460186f7233c927e7db2dcc703c0e500b653ca82273b7bfad8045d85a47060001b9050833f91508082141580156156ac57506000801b8214155b9250505091905056fe456e756d657261626c655365743a20696e646578206f7574206f6620626f756e64734552433732313a207472616e7366657220746f206e6f6e20455243373231526563656976657220696d706c656d656e7465724552433732313a207472616e7366657220746f20746865207a65726f20616464726573734552433732313a206f70657261746f7220717565727920666f72206e6f6e6578697374656e7420746f6b656e4552433732313a20617070726f76652063616c6c6572206973206e6f74206f776e6572206e6f7220617070726f76656420666f7220616c6c4552433732313a2062616c616e636520717565727920666f7220746865207a65726f20616464726573734552433732313a206f776e657220717565727920666f72206e6f6e6578697374656e7420746f6b656e456e756d657261626c654d61703a20696e646578206f7574206f6620626f756e6473536166654d6174683a206d756c7469706c69636174696f6e206f766572666c6f774552433732313a20617070726f76656420717565727920666f72206e6f6e6578697374656e7420746f6b656e4552433732313a207472616e73666572206f6620746f6b656e2074686174206973206e6f74206f776e4552433732314d657461646174613a2055524920717565727920666f72206e6f6e6578697374656e7420746f6b656e4552433732313a20617070726f76616c20746f2063757272656e74206f776e65724552433732313a207472616e736665722063616c6c6572206973206e6f74206f776e6572206e6f7220617070726f766564a264697066735822122079097e98321c470c6e94dbc370e811a1b6148aa074fe03a1ed432b9d64c2b70064736f6c63430006080033",
  "immutableReferences": {},
  "source": "//SPDX-License-Identifier: UNLICENSED\r\npragma solidity ^0.6.0;\r\n\r\nimport \"../node_modules/openzepkole/token/ERC721/ERC721.sol\";\r\n\r\n\r\nabstract contract ERC20Interface {\r\n    function transferFrom(\r\n        address from,\r\n        address to,\r\n        uint256 tokens\r\n    ) public virtual returns (bool success);\r\n\r\n    function balanceOf(address tokenOwner)\r\n        public\r\n        virtual\r\n        view\r\n        returns (uint256 balance); //\"constant\" deprecated at 0.5.0\r\n}\r\n\r\n\r\ncontract SuperWorldToken is ERC721 {\r\n    address public owner;\r\n    address public coinAddress;\r\n    ERC20Interface public superWorldCoin;\r\n\r\n    uint256 public percentageCut;\r\n    uint256 public basePrice;\r\n    uint256 public buyId = 0;\r\n    uint256 public listId = 0;\r\n\r\n    // tokenId => base price in wei\r\n    mapping(uint256 => uint256) public basePrices;\r\n\r\n    // tokenId => bought price in wei\r\n    mapping(uint256 => uint256) public boughtPrices;\r\n\r\n    // tokenId => sell price in wei\r\n    mapping(uint256 => uint256) public sellPrices;\r\n\r\n    // tokenId => is selling\r\n    mapping(uint256 => bool) public isSellings;\r\n    // tokenId => buyId\r\n    mapping(uint256 => uint256) public buyIds;\r\n\r\n    // token history\r\n    struct TokenHistory {\r\n        uint256 tokenId;\r\n        address owner;\r\n        uint256 price;\r\n    }\r\n    // tokenId => token history array\r\n    mapping(uint256 => TokenHistory[]) public tokenHistories;\r\n\r\n    // events\r\n    // TODO: add timestamp (block or UTC)\r\n    event EventBuyToken(\r\n        uint256 buyId,\r\n        string lon,\r\n        string lat,\r\n        address indexed buyer,\r\n        address indexed seller,\r\n        uint256 price,\r\n        uint256 timestamp\r\n    );\r\n    event EventBuyTokenFail(\r\n        uint256 buyId,\r\n        string lon,\r\n        string lat,\r\n        address indexed buyer,\r\n        address indexed seller,\r\n        uint256 price,\r\n        uint256 timestamp\r\n    );\r\n    event EventBuyTokenId1(\r\n        uint256 buyId,\r\n        uint256 indexed tokenId1,\r\n        string lon,\r\n        string lat,\r\n        address buyer,\r\n        address seller,\r\n        uint256 price,\r\n        uint256 timestamp\r\n    );\r\n    event EventListToken(\r\n        uint256 listId,\r\n        uint256 buyId,\r\n        string lon,\r\n        string lat,\r\n        address indexed seller,\r\n        uint256 price,\r\n        bool isListed,\r\n        uint256 timestamp\r\n    );\r\n    event EventListTokenId1(\r\n        uint256 listId,\r\n        uint256 buyId,\r\n        uint256 indexed tokenId1,\r\n        string lon,\r\n        string lat,\r\n        address seller,\r\n        uint256 price,\r\n        bool isListed,\r\n        uint256 timestamp\r\n    );\r\n    event EventReceiveApproval(\r\n        address buyer,\r\n        uint256 coins,\r\n        address _coinAddress,\r\n        bytes32 _data\r\n    );\r\n\r\n    constructor(\r\n        address _coinAddress,\r\n        uint256 _percentageCut,\r\n        uint256 _basePrice\r\n    ) public ERC721(\"SuperWorld\", \"SUPERWORLD\") {\r\n        owner = msg.sender;\r\n        coinAddress = _coinAddress;\r\n        superWorldCoin = ERC20Interface(coinAddress);\r\n        percentageCut = _percentageCut;\r\n        basePrice = _basePrice;\r\n        buyId = 0;\r\n        listId = 0;\r\n    }\r\n\r\n    function setBasePrice(uint256 _basePrice) public {\r\n        require(msg.sender == owner);\r\n        require(_basePrice > 0);\r\n        basePrice = _basePrice;\r\n    }\r\n\r\n    function setBasePrice(\r\n        string memory lon,\r\n        string memory lat,\r\n        uint256 _basePrice\r\n    ) public {\r\n        require(msg.sender == owner);\r\n        require(_basePrice > 0);\r\n        uint256 tokenId = getTokenId(lon, lat);\r\n        basePrices[tokenId] = _basePrice;\r\n    }\r\n\r\n    function setPercentageCut(uint256 _percentageCut) public {\r\n        require(msg.sender == owner);\r\n        require(_percentageCut > 0);\r\n        percentageCut = _percentageCut;\r\n    }\r\n\r\n    function createToken(\r\n        address buyer,\r\n        uint256 tokenId,\r\n        uint256 price\r\n    ) private {\r\n        _mint(buyer, tokenId);\r\n        recordTransaction(tokenId, price);\r\n    }\r\n\r\n    function recordTransaction(uint256 tokenId, uint256 price) private {\r\n        boughtPrices[tokenId] = price;\r\n        tokenHistories[tokenId].push(TokenHistory(tokenId, msg.sender, price));\r\n    }\r\n\r\n    function getTokenId(string memory lon, string memory lat)\r\n        public\r\n        pure\r\n        returns (uint256)\r\n    {\r\n        return uint256(keccak256(abi.encodePacked(lon, \",\", lat)));\r\n    }\r\n\r\n    function getInfo(string memory lon, string memory lat)\r\n        public\r\n        view\r\n        returns (\r\n            uint256,\r\n            address,\r\n            bool,\r\n            bool,\r\n            uint256\r\n        )\r\n    {\r\n        uint256 tokenId = getTokenId(lon, lat);\r\n        address tokenowner = EnumerableMap.get(_tokenOwners, tokenId); //address _tokenOwner = tokenOwner[tokenId];\r\n        bool isOwned = tokenowner != address(0); //bool isOwned = tokenowner != 0x0;\r\n        bool isSelling = isSellings[tokenId];\r\n        uint256 price = getPrice(tokenId);\r\n        return (tokenId, tokenowner, isOwned, isSelling, price);\r\n    }\r\n\r\n    function receiveApproval(\r\n        address buyer,\r\n        uint256 coins,\r\n        address _coinAddress,\r\n        bytes32 _data\r\n    ) public {\r\n        emit EventReceiveApproval(buyer, coins, _coinAddress, _data);\r\n        require(_coinAddress == coinAddress);\r\n        string memory dataString = bytes32ToString(_data);\r\n        buyTokenWithCoins(buyer, coins, getLon(dataString), getLat(dataString));\r\n    }\r\n\r\n    function buyTokenWithCoins(\r\n        address buyer,\r\n        uint256 coins,\r\n        string memory lon,\r\n        string memory lat\r\n    ) public returns (bool) {\r\n        uint256 tokenId = getTokenId(lon, lat);\r\n        address seller = EnumerableMap.get(_tokenOwners, tokenId);\r\n\r\n        if (seller == address(0x0)) {\r\n            require(coins >= basePrice);\r\n            require(superWorldCoin.balanceOf(buyer) >= basePrice);\r\n            if (!superWorldCoin.transferFrom(buyer, address(this), basePrice)) {\r\n                return false;\r\n            }\r\n            createToken(buyer, tokenId, basePrice);\r\n            emitBuyTokenEvents(\r\n                tokenId,\r\n                lon,\r\n                lat,\r\n                buyer,\r\n                seller,\r\n                basePrice,\r\n                now\r\n            );\r\n            return true;\r\n        }\r\n\r\n        return false;\r\n    }\r\n\r\n    function buyToken(string memory lon, string memory lat)\r\n        public\r\n        payable\r\n        returns (bool)\r\n    {\r\n        uint256 tokenId = getTokenId(lon, lat);\r\n        uint256 offerPrice = msg.value;\r\n        address seller = (EnumerableMap.get(_tokenOwners, tokenId)); // _tokenOwners[tokenId];\r\n\r\n        // unique token not bought yet\r\n        if (seller == address(0x0)) {\r\n            require(offerPrice >= basePrice);\r\n            require(offerPrice >= basePrices[tokenId]);\r\n            createToken(msg.sender, tokenId, offerPrice);\r\n            emitBuyTokenEvents(\r\n                tokenId,\r\n                lon,\r\n                lat,\r\n                msg.sender,\r\n                seller,\r\n                offerPrice,\r\n                now\r\n            );\r\n            return true;\r\n        }\r\n\r\n        // check selling\r\n        require(isSellings[tokenId] == true);\r\n        // check sell price > 0\r\n        require(sellPrices[tokenId] > 0);\r\n        // check offer price >= sell price\r\n        require(offerPrice >= sellPrices[tokenId]);\r\n\r\n        // send percentage of cut to contract owner\r\n        uint256 fee = SafeMath.div(\r\n            SafeMath.mul(offerPrice, percentageCut),\r\n            100\r\n        );\r\n        uint256 priceAfterFee = SafeMath.sub(offerPrice, fee);\r\n\r\n        // mark not selling\r\n        isSellings[tokenId] = false;\r\n\r\n        // send payment\r\n        address payable _seller = payable(seller);\r\n        if (!_seller.send(priceAfterFee)) {\r\n            // if failed to send, mark selling\r\n            isSellings[tokenId] = true;\r\n            emit EventBuyTokenFail(\r\n                tokenId,\r\n                lon,\r\n                lat,\r\n                msg.sender,\r\n                seller,\r\n                offerPrice,\r\n                now\r\n            );\r\n            return false;\r\n        }\r\n\r\n        // transfer token\r\n        //removeTokenFrom(seller, tokenId);\r\n        //addTokenTo(msg.sender, tokenId);\r\n        _holderTokens[seller].remove(tokenId);\r\n        _holderTokens[msg.sender].add(tokenId);\r\n        recordTransaction(tokenId, offerPrice);\r\n        sellPrices[tokenId] = offerPrice;\r\n        emitBuyTokenEvents(\r\n            tokenId,\r\n            lon,\r\n            lat,\r\n            msg.sender,\r\n            seller,\r\n            offerPrice,\r\n            now\r\n        );\r\n        return true;\r\n    }\r\n\r\n    function emitBuyTokenEvents(\r\n        uint256 tokenId,\r\n        string memory lon,\r\n        string memory lat,\r\n        address buyer,\r\n        address seller,\r\n        uint256 offerPrice,\r\n        uint256 timestamp\r\n    ) private {\r\n        buyId++;\r\n        buyIds[tokenId] = buyId;\r\n        emit EventBuyToken(\r\n            buyId,\r\n            lon,\r\n            lat,\r\n            buyer,\r\n            seller,\r\n            offerPrice,\r\n            timestamp\r\n        );\r\n        emit EventBuyTokenId1(\r\n            buyId,\r\n            getTokenId(truncateDecimals(lon, 1), truncateDecimals(lat, 1)),\r\n            lon,\r\n            lat,\r\n            buyer,\r\n            seller,\r\n            offerPrice,\r\n            timestamp\r\n        );\r\n    }\r\n\r\n    // list / delist\r\n\r\n    function listToken(\r\n        string memory lon,\r\n        string memory lat,\r\n        uint256 sellPrice\r\n    ) public {\r\n        uint256 tokenId = getTokenId(lon, lat);\r\n        require(msg.sender == EnumerableMap.get(_tokenOwners, tokenId));\r\n        isSellings[tokenId] = true;\r\n        sellPrices[tokenId] = sellPrice;\r\n        emitListTokenEvents(\r\n            buyIds[tokenId],\r\n            lon,\r\n            lat,\r\n            msg.sender,\r\n            sellPrice,\r\n            true,\r\n            now\r\n        );\r\n    }\r\n\r\n    function delistToken(string memory lon, string memory lat) public {\r\n        uint256 tokenId = getTokenId(lon, lat);\r\n        require(msg.sender == EnumerableMap.get(_tokenOwners, tokenId));\r\n        isSellings[tokenId] = false;\r\n        emitListTokenEvents(\r\n            buyIds[tokenId],\r\n            lon,\r\n            lat,\r\n            msg.sender,\r\n            sellPrices[tokenId],\r\n            false,\r\n            now\r\n        );\r\n        sellPrices[tokenId] = 0;\r\n    }\r\n\r\n    function emitListTokenEvents(\r\n        uint256 _buyId,\r\n        string memory lon,\r\n        string memory lat,\r\n        address seller,\r\n        uint256 sellPrice,\r\n        bool isListed,\r\n        uint256 timestamp\r\n    ) private {\r\n        listId++;\r\n        emit EventListToken(\r\n            listId,\r\n            _buyId,\r\n            lon,\r\n            lat,\r\n            seller,\r\n            sellPrice,\r\n            isListed,\r\n            timestamp\r\n        );\r\n        emit EventListTokenId1(\r\n            listId,\r\n            _buyId,\r\n            getTokenId(truncateDecimals(lon, 1), truncateDecimals(lat, 1)),\r\n            lon,\r\n            lat,\r\n            seller,\r\n            sellPrice,\r\n            isListed,\r\n            timestamp\r\n        );\r\n    }\r\n\r\n    function getPrice(uint256 tokenId) public view returns (uint256) {\r\n        if (EnumerableMap.get(_tokenOwners, tokenId) == address(0)) {\r\n            // not owned\r\n            uint256 _basePrice = basePrices[tokenId];\r\n            if (_basePrice == 0) {\r\n                return basePrice;\r\n            } else {\r\n                return _basePrice;\r\n            }\r\n        } else {\r\n            // owned\r\n            if (isSellings[tokenId]) {\r\n                return sellPrices[tokenId];\r\n            } else {\r\n                return boughtPrices[tokenId];\r\n            }\r\n        }\r\n    }\r\n\r\n    function truncateDecimals(string memory str, uint256 decimal)\r\n        public\r\n        pure\r\n        returns (string memory)\r\n    {\r\n        bytes memory strBytes = bytes(str);\r\n        uint256 length = strBytes.length;\r\n        uint256 endIndex = length - 1;\r\n        uint256 i;\r\n        for (i = 0; i < length; i++) {\r\n            if (strBytes[i] == \".\") {\r\n                endIndex = i;\r\n            }\r\n            if (i == endIndex + decimal + 1) {\r\n                break;\r\n            }\r\n        }\r\n        if (i >= length) {\r\n            return str;\r\n        }\r\n        return substring(str, 0, i);\r\n    }\r\n\r\n    function substring(\r\n        string memory str,\r\n        uint256 startIndex,\r\n        uint256 endIndex\r\n    ) private pure returns (string memory) {\r\n        bytes memory strBytes = bytes(str);\r\n        if (endIndex == 0) {\r\n            endIndex = strBytes.length;\r\n        }\r\n        bytes memory result = new bytes(endIndex - startIndex);\r\n        for (uint256 i = startIndex; i < endIndex; i++) {\r\n            result[i - startIndex] = strBytes[i];\r\n        }\r\n        return string(result);\r\n    }\r\n\r\n    function indexOfComma(string memory str) private pure returns (uint256) {\r\n        bytes memory strBytes = bytes(str);\r\n        uint256 length = strBytes.length;\r\n        for (uint256 i = 0; i < length; i++) {\r\n            if (strBytes[i] == \",\") {\r\n                return i;\r\n            }\r\n        }\r\n        return 0;\r\n    }\r\n\r\n    function getLon(string memory str) private pure returns (string memory) {\r\n        uint256 index = indexOfComma(str);\r\n        return substring(str, 0, index);\r\n    }\r\n\r\n    function getLat(string memory str) private pure returns (string memory) {\r\n        uint256 index = indexOfComma(str);\r\n        return substring(str, index + 1, 0);\r\n    }\r\n\r\n    function bytesToString(bytes memory _dataBytes)\r\n        private\r\n        pure\r\n        returns (string memory)\r\n    {\r\n        if (_dataBytes.length == 0) {\r\n            return \"\";\r\n        }\r\n\r\n        bytes32 dataBytes32;\r\n\r\n        assembly {\r\n            dataBytes32 := mload(add(_dataBytes, 32))\r\n        }\r\n        return bytes32ToString(dataBytes32);\r\n    }\r\n\r\n    function bytes32ToString(bytes32 _dataBytes32)\r\n        private\r\n        pure\r\n        returns (string memory)\r\n    {\r\n        bytes memory bytesString = new bytes(32);\r\n        uint256 charCount = 0;\r\n        uint256 j;\r\n        for (j = 0; j < 32; j++) {\r\n            //outscope declaration\r\n            bytes1 char = bytes1(bytes32(uint256(_dataBytes32) * 2**(8 * j)));\r\n            if (char != 0) {\r\n                bytesString[charCount] = char;\r\n                charCount++;\r\n            }\r\n        }\r\n        bytes memory bytesStringTrimmed = new bytes(charCount);\r\n        for (j = 0; j < charCount; j++) {\r\n            bytesStringTrimmed[j] = bytesString[j];\r\n        }\r\n        return string(bytesStringTrimmed);\r\n    }\r\n\r\n    function withdrawBalance() public payable {\r\n        require(msg.sender == owner);\r\n        uint256 balance = address(this).balance;\r\n        (msg.sender).transfer(balance);\r\n    }\r\n}\r\n",
  "sourcePath": "/Users/charleslin/Desktop/superworld_map_new/contracts/SuperWorldToken.sol",
  "compiler": {
    "name": "solc",
    "version": "0.6.8+commit.0bbfe453.Emscripten.clang"
  },
  "schemaVersion": "3.2.0",
  "updatedAt": "2020-07-13T19:22:22.857Z",
  "networkType": "ethereum",
  "devdoc": {
    "methods": {
      "approve(address,uint256)": {
        "details": "Approves another address to transfer the given token ID The zero address indicates there is no approved address. There can only be one approved address per token at a given time. Can only be called by the token owner or an approved operator.",
        "params": {
          "to": "address to be approved for the given token ID",
          "tokenId": "uint256 ID of the token to be approved"
        }
      },
      "balanceOf(address)": {
        "details": "Gets the balance of the specified address.",
        "params": {
          "owner": "address to query the balance of"
        },
        "returns": {
          "_0": "uint256 representing the amount owned by the passed address"
        }
      },
      "baseURI()": {
        "details": "Returns the base URI set via {_setBaseURI}. This will be automatically added as a prefix in {tokenURI} to each token's URI, or to the token ID if no specific URI is set for that token ID."
      },
      "getApproved(uint256)": {
        "details": "Gets the approved address for a token ID, or zero if no address set Reverts if the token ID does not exist.",
        "params": {
          "tokenId": "uint256 ID of the token to query the approval of"
        },
        "returns": {
          "_0": "address currently approved for the given token ID"
        }
      },
      "isApprovedForAll(address,address)": {
        "details": "Tells whether an operator is approved by a given owner.",
        "params": {
          "operator": "operator address which you want to query the approval of",
          "owner": "owner address which you want to query the approval of"
        },
        "returns": {
          "_0": "bool whether the given operator is approved by the given owner"
        }
      },
      "name()": {
        "details": "Gets the token name.",
        "returns": {
          "_0": "string representing the token name"
        }
      },
      "ownerOf(uint256)": {
        "details": "Gets the owner of the specified token ID.",
        "params": {
          "tokenId": "uint256 ID of the token to query the owner of"
        },
        "returns": {
          "_0": "address currently marked as the owner of the given token ID"
        }
      },
      "safeTransferFrom(address,address,uint256)": {
        "details": "Safely transfers the ownership of a given token ID to another address If the target address is a contract, it must implement {IERC721Receiver-onERC721Received}, which is called upon a safe transfer, and return the magic value `bytes4(keccak256(\"onERC721Received(address,address,uint256,bytes)\"))`; otherwise, the transfer is reverted. Requires the msg.sender to be the owner, approved, or operator",
        "params": {
          "from": "current owner of the token",
          "to": "address to receive the ownership of the given token ID",
          "tokenId": "uint256 ID of the token to be transferred"
        }
      },
      "safeTransferFrom(address,address,uint256,bytes)": {
        "details": "Safely transfers the ownership of a given token ID to another address If the target address is a contract, it must implement {IERC721Receiver-onERC721Received}, which is called upon a safe transfer, and return the magic value `bytes4(keccak256(\"onERC721Received(address,address,uint256,bytes)\"))`; otherwise, the transfer is reverted. Requires the _msgSender() to be the owner, approved, or operator",
        "params": {
          "_data": "bytes data to send along with a safe transfer check",
          "from": "current owner of the token",
          "to": "address to receive the ownership of the given token ID",
          "tokenId": "uint256 ID of the token to be transferred"
        }
      },
      "setApprovalForAll(address,bool)": {
        "details": "Sets or unsets the approval of a given operator An operator is allowed to transfer all tokens of the sender on their behalf.",
        "params": {
          "approved": "representing the status of the approval to be set",
          "operator": "operator address to set the approval"
        }
      },
      "supportsInterface(bytes4)": {
        "details": "See {IERC165-supportsInterface}.     * Time complexity O(1), guaranteed to always use less than 30 000 gas."
      },
      "symbol()": {
        "details": "Gets the token symbol.",
        "returns": {
          "_0": "string representing the token symbol"
        }
      },
      "tokenByIndex(uint256)": {
        "details": "Gets the token ID at a given index of all the tokens in this contract Reverts if the index is greater or equal to the total number of tokens.",
        "params": {
          "index": "uint256 representing the index to be accessed of the tokens list"
        },
        "returns": {
          "_0": "uint256 token ID at the given index of the tokens list"
        }
      },
      "tokenOfOwnerByIndex(address,uint256)": {
        "details": "Gets the token ID at a given index of the tokens list of the requested owner.",
        "params": {
          "index": "uint256 representing the index to be accessed of the requested tokens list",
          "owner": "address owning the tokens list to be accessed"
        },
        "returns": {
          "_0": "uint256 token ID at the given index of the tokens list owned by the requested address"
        }
      },
      "tokenURI(uint256)": {
        "details": "Returns the URI for a given token ID. May return an empty string.      * If a base URI is set (via {_setBaseURI}), it is added as a prefix to the token's own URI (via {_setTokenURI}).      * If there is a base URI but no token URI, the token's ID will be used as its URI when appending it to the base URI. This pattern for autogenerated token URIs can lead to large gas savings.      * .Examples |=== |`_setBaseURI()` |`_setTokenURI()` |`tokenURI()` | \"\" | \"\" | \"\" | \"\" | \"token.uri/123\" | \"token.uri/123\" | \"token.uri/\" | \"123\" | \"token.uri/123\" | \"token.uri/\" | \"\" | \"token.uri/<tokenId>\" |===      * Requirements:      * - `tokenId` must exist."
      },
      "totalSupply()": {
        "details": "Gets the total amount of tokens stored by the contract.",
        "returns": {
          "_0": "uint256 representing the total amount of tokens"
        }
      },
      "transferFrom(address,address,uint256)": {
        "details": "Transfers the ownership of a given token ID to another address. Usage of this method is discouraged, use {safeTransferFrom} whenever possible. Requires the msg.sender to be the owner, approved, or operator.",
        "params": {
          "from": "current owner of the token",
          "to": "address to receive the ownership of the given token ID",
          "tokenId": "uint256 ID of the token to be transferred"
        }
      }
    }
  },
  "userdoc": {
    "methods": {}
  }
}