{
  "contractName": "SuperWorldToken",
  "abi": [
    {
      "inputs": [
        {
          "internalType": "address",
          "name": "_coinAddress",
          "type": "address"
        },
        {
          "internalType": "uint256",
          "name": "_percentageCut",
          "type": "uint256"
        },
        {
          "internalType": "uint256",
          "name": "_basePrice",
          "type": "uint256"
        },
        {
          "internalType": "string",
          "name": "_metaUrl",
          "type": "string"
        }
      ],
      "stateMutability": "nonpayable",
      "type": "constructor"
    },
    {
      "anonymous": false,
      "inputs": [
        {
          "indexed": true,
          "internalType": "address",
          "name": "owner",
          "type": "address"
        },
        {
          "indexed": true,
          "internalType": "address",
          "name": "approved",
          "type": "address"
        },
        {
          "indexed": true,
          "internalType": "uint256",
          "name": "tokenId",
          "type": "uint256"
        }
      ],
      "name": "Approval",
      "type": "event"
    },
    {
      "anonymous": false,
      "inputs": [
        {
          "indexed": true,
          "internalType": "address",
          "name": "owner",
          "type": "address"
        },
        {
          "indexed": true,
          "internalType": "address",
          "name": "operator",
          "type": "address"
        },
        {
          "indexed": false,
          "internalType": "bool",
          "name": "approved",
          "type": "bool"
        }
      ],
      "name": "ApprovalForAll",
      "type": "event"
    },
    {
      "anonymous": false,
      "inputs": [
        {
          "indexed": true,
          "internalType": "address",
          "name": "previousOwner",
          "type": "address"
        },
        {
          "indexed": true,
          "internalType": "address",
          "name": "newOwner",
          "type": "address"
        }
      ],
      "name": "OwnershipTransferred",
      "type": "event"
    },
    {
      "anonymous": false,
      "inputs": [
        {
          "indexed": true,
          "internalType": "address",
          "name": "from",
          "type": "address"
        },
        {
          "indexed": true,
          "internalType": "address",
          "name": "to",
          "type": "address"
        },
        {
          "indexed": true,
          "internalType": "uint256",
          "name": "tokenId",
          "type": "uint256"
        }
      ],
      "name": "Transfer",
      "type": "event"
    },
    {
      "inputs": [
        {
          "internalType": "address",
          "name": "to",
          "type": "address"
        },
        {
          "internalType": "uint256",
          "name": "tokenId",
          "type": "uint256"
        }
      ],
      "name": "approve",
      "outputs": [],
      "stateMutability": "nonpayable",
      "type": "function"
    },
    {
      "inputs": [
        {
          "internalType": "address",
          "name": "owner",
          "type": "address"
        }
      ],
      "name": "balanceOf",
      "outputs": [
        {
          "internalType": "uint256",
          "name": "",
          "type": "uint256"
        }
      ],
      "stateMutability": "view",
      "type": "function",
      "constant": true
    },
    {
      "inputs": [],
      "name": "basePrice",
      "outputs": [
        {
          "internalType": "uint256",
          "name": "",
          "type": "uint256"
        }
      ],
      "stateMutability": "view",
      "type": "function",
      "constant": true
    },
    {
      "inputs": [],
      "name": "baseURI",
      "outputs": [
        {
          "internalType": "string",
          "name": "",
          "type": "string"
        }
      ],
      "stateMutability": "view",
      "type": "function",
      "constant": true
    },
    {
      "inputs": [
        {
          "internalType": "uint256",
          "name": "",
          "type": "uint256"
        }
      ],
      "name": "boughtPrices",
      "outputs": [
        {
          "internalType": "uint256",
          "name": "",
          "type": "uint256"
        }
      ],
      "stateMutability": "view",
      "type": "function",
      "constant": true
    },
    {
      "inputs": [],
      "name": "buyId",
      "outputs": [
        {
          "internalType": "uint256",
          "name": "",
          "type": "uint256"
        }
      ],
      "stateMutability": "view",
      "type": "function",
      "constant": true
    },
    {
      "inputs": [
        {
          "internalType": "uint256",
          "name": "",
          "type": "uint256"
        }
      ],
      "name": "buyIds",
      "outputs": [
        {
          "internalType": "uint256",
          "name": "",
          "type": "uint256"
        }
      ],
      "stateMutability": "view",
      "type": "function",
      "constant": true
    },
    {
      "inputs": [],
      "name": "coinAddress",
      "outputs": [
        {
          "internalType": "address",
          "name": "",
          "type": "address"
        }
      ],
      "stateMutability": "view",
      "type": "function",
      "constant": true
    },
    {
      "inputs": [
        {
          "internalType": "uint256",
          "name": "tokenId",
          "type": "uint256"
        }
      ],
      "name": "getApproved",
      "outputs": [
        {
          "internalType": "address",
          "name": "",
          "type": "address"
        }
      ],
      "stateMutability": "view",
      "type": "function",
      "constant": true
    },
    {
      "inputs": [
        {
          "internalType": "address",
          "name": "owner",
          "type": "address"
        },
        {
          "internalType": "address",
          "name": "operator",
          "type": "address"
        }
      ],
      "name": "isApprovedForAll",
      "outputs": [
        {
          "internalType": "bool",
          "name": "",
          "type": "bool"
        }
      ],
      "stateMutability": "view",
      "type": "function",
      "constant": true
    },
    {
      "inputs": [
        {
          "internalType": "uint256",
          "name": "",
          "type": "uint256"
        }
      ],
      "name": "isSellings",
      "outputs": [
        {
          "internalType": "bool",
          "name": "",
          "type": "bool"
        }
      ],
      "stateMutability": "view",
      "type": "function",
      "constant": true
    },
    {
      "inputs": [],
      "name": "listId",
      "outputs": [
        {
          "internalType": "uint256",
          "name": "",
          "type": "uint256"
        }
      ],
      "stateMutability": "view",
      "type": "function",
      "constant": true
    },
    {
      "inputs": [],
      "name": "metaUrl",
      "outputs": [
        {
          "internalType": "string",
          "name": "",
          "type": "string"
        }
      ],
      "stateMutability": "view",
      "type": "function",
      "constant": true
    },
    {
      "inputs": [],
      "name": "name",
      "outputs": [
        {
          "internalType": "string",
          "name": "",
          "type": "string"
        }
      ],
      "stateMutability": "view",
      "type": "function",
      "constant": true
    },
    {
      "inputs": [],
      "name": "owner",
      "outputs": [
        {
          "internalType": "address",
          "name": "",
          "type": "address"
        }
      ],
      "stateMutability": "view",
      "type": "function",
      "constant": true
    },
    {
      "inputs": [
        {
          "internalType": "uint256",
          "name": "tokenId",
          "type": "uint256"
        }
      ],
      "name": "ownerOf",
      "outputs": [
        {
          "internalType": "address",
          "name": "",
          "type": "address"
        }
      ],
      "stateMutability": "view",
      "type": "function",
      "constant": true
    },
    {
      "inputs": [],
      "name": "percentageCut",
      "outputs": [
        {
          "internalType": "uint256",
          "name": "",
          "type": "uint256"
        }
      ],
      "stateMutability": "view",
      "type": "function",
      "constant": true
    },
    {
      "inputs": [],
      "name": "renounceOwnership",
      "outputs": [],
      "stateMutability": "nonpayable",
      "type": "function"
    },
    {
      "inputs": [
        {
          "internalType": "address",
          "name": "from",
          "type": "address"
        },
        {
          "internalType": "address",
          "name": "to",
          "type": "address"
        },
        {
          "internalType": "uint256",
          "name": "tokenId",
          "type": "uint256"
        }
      ],
      "name": "safeTransferFrom",
      "outputs": [],
      "stateMutability": "nonpayable",
      "type": "function"
    },
    {
      "inputs": [
        {
          "internalType": "address",
          "name": "from",
          "type": "address"
        },
        {
          "internalType": "address",
          "name": "to",
          "type": "address"
        },
        {
          "internalType": "uint256",
          "name": "tokenId",
          "type": "uint256"
        },
        {
          "internalType": "bytes",
          "name": "_data",
          "type": "bytes"
        }
      ],
      "name": "safeTransferFrom",
      "outputs": [],
      "stateMutability": "nonpayable",
      "type": "function"
    },
    {
      "inputs": [
        {
          "internalType": "uint256",
          "name": "",
          "type": "uint256"
        }
      ],
      "name": "sellPrices",
      "outputs": [
        {
          "internalType": "uint256",
          "name": "",
          "type": "uint256"
        }
      ],
      "stateMutability": "view",
      "type": "function",
      "constant": true
    },
    {
      "inputs": [
        {
          "internalType": "address",
          "name": "operator",
          "type": "address"
        },
        {
          "internalType": "bool",
          "name": "approved",
          "type": "bool"
        }
      ],
      "name": "setApprovalForAll",
      "outputs": [],
      "stateMutability": "nonpayable",
      "type": "function"
    },
    {
      "inputs": [],
      "name": "superWorldCoin",
      "outputs": [
        {
          "internalType": "contract ERC20Interface",
          "name": "",
          "type": "address"
        }
      ],
      "stateMutability": "view",
      "type": "function",
      "constant": true
    },
    {
      "inputs": [
        {
          "internalType": "bytes4",
          "name": "interfaceId",
          "type": "bytes4"
        }
      ],
      "name": "supportsInterface",
      "outputs": [
        {
          "internalType": "bool",
          "name": "",
          "type": "bool"
        }
      ],
      "stateMutability": "view",
      "type": "function",
      "constant": true
    },
    {
      "inputs": [],
      "name": "symbol",
      "outputs": [
        {
          "internalType": "string",
          "name": "",
          "type": "string"
        }
      ],
      "stateMutability": "view",
      "type": "function",
      "constant": true
    },
    {
      "inputs": [
        {
          "internalType": "uint256",
          "name": "index",
          "type": "uint256"
        }
      ],
      "name": "tokenByIndex",
      "outputs": [
        {
          "internalType": "uint256",
          "name": "",
          "type": "uint256"
        }
      ],
      "stateMutability": "view",
      "type": "function",
      "constant": true
    },
    {
      "inputs": [
        {
          "internalType": "address",
          "name": "owner",
          "type": "address"
        },
        {
          "internalType": "uint256",
          "name": "index",
          "type": "uint256"
        }
      ],
      "name": "tokenOfOwnerByIndex",
      "outputs": [
        {
          "internalType": "uint256",
          "name": "",
          "type": "uint256"
        }
      ],
      "stateMutability": "view",
      "type": "function",
      "constant": true
    },
    {
      "inputs": [],
      "name": "totalSupply",
      "outputs": [
        {
          "internalType": "uint256",
          "name": "",
          "type": "uint256"
        }
      ],
      "stateMutability": "view",
      "type": "function",
      "constant": true
    },
    {
      "inputs": [
        {
          "internalType": "address",
          "name": "from",
          "type": "address"
        },
        {
          "internalType": "address",
          "name": "to",
          "type": "address"
        },
        {
          "internalType": "uint256",
          "name": "tokenId",
          "type": "uint256"
        }
      ],
      "name": "transferFrom",
      "outputs": [],
      "stateMutability": "nonpayable",
      "type": "function"
    },
    {
      "inputs": [
        {
          "internalType": "address",
          "name": "newOwner",
          "type": "address"
        }
      ],
      "name": "transferOwnership",
      "outputs": [],
      "stateMutability": "nonpayable",
      "type": "function"
    },
    {
      "inputs": [
        {
          "internalType": "uint256",
          "name": "_basePrice",
          "type": "uint256"
        }
      ],
      "name": "setBasePrice",
      "outputs": [],
      "stateMutability": "nonpayable",
      "type": "function"
    },
    {
      "inputs": [
        {
          "internalType": "uint256",
          "name": "_percentageCut",
          "type": "uint256"
        }
      ],
      "name": "setPercentageCut",
      "outputs": [],
      "stateMutability": "nonpayable",
      "type": "function"
    },
    {
      "inputs": [
        {
          "internalType": "string",
          "name": "lat",
          "type": "string"
        },
        {
          "internalType": "string",
          "name": "lon",
          "type": "string"
        }
      ],
      "name": "getInfo",
      "outputs": [
        {
          "internalType": "bytes32",
          "name": "tokenId",
          "type": "bytes32"
        },
        {
          "internalType": "address",
          "name": "tokenOwner",
          "type": "address"
        },
        {
          "internalType": "bool",
          "name": "isOwned",
          "type": "bool"
        },
        {
          "internalType": "bool",
          "name": "isSelling",
          "type": "bool"
        },
        {
          "internalType": "uint256",
          "name": "price",
          "type": "uint256"
        }
      ],
      "stateMutability": "view",
      "type": "function",
      "constant": true
    },
    {
      "inputs": [
        {
          "internalType": "string",
          "name": "geoIds",
          "type": "string"
        },
        {
          "internalType": "address[]",
          "name": "buyers",
          "type": "address[]"
        },
        {
          "internalType": "uint256[]",
          "name": "buyPrices",
          "type": "uint256[]"
        }
      ],
      "name": "giftTokens",
      "outputs": [],
      "stateMutability": "nonpayable",
      "type": "function"
    },
    {
      "inputs": [
        {
          "internalType": "string",
          "name": "geoIds",
          "type": "string"
        },
        {
          "internalType": "uint256[]",
          "name": "sellingPrices",
          "type": "uint256[]"
        }
      ],
      "name": "relistTokens",
      "outputs": [],
      "stateMutability": "nonpayable",
      "type": "function"
    },
    {
      "inputs": [
        {
          "internalType": "address",
          "name": "buyer",
          "type": "address"
        },
        {
          "internalType": "uint256",
          "name": "coins",
          "type": "uint256"
        },
        {
          "internalType": "address",
          "name": "_coinAddress",
          "type": "address"
        },
        {
          "internalType": "bytes32",
          "name": "_data",
          "type": "bytes32"
        }
      ],
      "name": "receiveApproval",
      "outputs": [],
      "stateMutability": "nonpayable",
      "type": "function"
    },
    {
      "inputs": [
        {
          "internalType": "address",
          "name": "buyer",
          "type": "address"
        },
        {
          "internalType": "uint256",
          "name": "coins",
          "type": "uint256"
        },
        {
          "internalType": "string",
          "name": "lat",
          "type": "string"
        },
        {
          "internalType": "string",
          "name": "lon",
          "type": "string"
        }
      ],
      "name": "buyTokenWithCoins",
      "outputs": [
        {
          "internalType": "bool",
          "name": "",
          "type": "bool"
        }
      ],
      "stateMutability": "nonpayable",
      "type": "function"
    },
    {
      "inputs": [
        {
          "internalType": "string",
          "name": "geoIds",
          "type": "string"
        }
      ],
      "name": "buyTokens",
      "outputs": [
        {
          "internalType": "bool",
          "name": "",
          "type": "bool"
        }
      ],
      "stateMutability": "payable",
      "type": "function",
      "payable": true
    },
    {
      "inputs": [
        {
          "internalType": "string",
          "name": "lat",
          "type": "string"
        },
        {
          "internalType": "string",
          "name": "lon",
          "type": "string"
        },
        {
          "internalType": "uint256",
          "name": "sellPrice",
          "type": "uint256"
        }
      ],
      "name": "listToken",
      "outputs": [],
      "stateMutability": "nonpayable",
      "type": "function"
    },
    {
      "inputs": [
        {
          "internalType": "string",
          "name": "lat",
          "type": "string"
        },
        {
          "internalType": "string",
          "name": "lon",
          "type": "string"
        }
      ],
      "name": "delistToken",
      "outputs": [],
      "stateMutability": "nonpayable",
      "type": "function"
    },
    {
      "inputs": [
        {
          "internalType": "uint256",
          "name": "tokenId",
          "type": "uint256"
        }
      ],
      "name": "getPrice",
      "outputs": [
        {
          "internalType": "uint256",
          "name": "",
          "type": "uint256"
        }
      ],
      "stateMutability": "view",
      "type": "function",
      "constant": true
    },
    {
      "inputs": [],
      "name": "withdrawBalance",
      "outputs": [],
      "stateMutability": "payable",
      "type": "function",
      "payable": true
    },
    {
      "inputs": [
        {
          "internalType": "uint256",
          "name": "tokenId",
          "type": "uint256"
        }
      ],
      "name": "tokenURI",
      "outputs": [
        {
          "internalType": "string",
          "name": "",
          "type": "string"
        }
      ],
      "stateMutability": "view",
      "type": "function",
      "constant": true
    }
  ],
  "bytecode": "0x6080604052600060105560006011553480156200001b57600080fd5b5060405162009a7d38038062009a7d833981810160405260808110156200004157600080fd5b81019080805190602001909291908051906020019092919080519060200190929190805160405193929190846401000000008211156200008057600080fd5b838201915060208201858111156200009757600080fd5b8251866001820283011164010000000082111715620000b557600080fd5b8083526020830192505050908051906020019080838360005b83811015620000eb578082015181840152602081019050620000ce565b50505050905090810190601f168015620001195780820380516001836020036101000a031916815260200191505b506040525050506040518060400160405280600a81526020017f5375706572576f726c64000000000000000000000000000000000000000000008152506040518060400160405280600a81526020017f5355504552574f524c4400000000000000000000000000000000000000000000815250620001a46301ffc9a760e01b6200046560201b60201c565b8160079080519060200190620001bc92919062000592565b508060089080519060200190620001d592919062000592565b50620001ee6380ac58cd60e01b6200046560201b60201c565b62000206635b5e139f60e01b6200046560201b60201c565b6200021e63780e9d6360e01b6200046560201b60201c565b50506000620002326200056e60201b60201c565b905080600b60006101000a81548173ffffffffffffffffffffffffffffffffffffffff021916908373ffffffffffffffffffffffffffffffffffffffff1602179055508073ffffffffffffffffffffffffffffffffffffffff16600073ffffffffffffffffffffffffffffffffffffffff167f8be0079c531659141344cd1fd0a4f28419497f9722a3daafe3b4186f6b6457e060405160405180910390a35083600c60006101000a81548173ffffffffffffffffffffffffffffffffffffffff021916908373ffffffffffffffffffffffffffffffffffffffff160217905550600c60009054906101000a900473ffffffffffffffffffffffffffffffffffffffff16600d60006101000a81548173ffffffffffffffffffffffffffffffffffffffff021916908373ffffffffffffffffffffffffffffffffffffffff16021790555082600e8190555081600f8190555080601290805190602001906200039b92919062000592565b50600060108190555060006011819055506200045b60128054600181600116156101000203166002900480601f0160208091040260200160405190810160405280929190818152602001828054600181600116156101000203166002900480156200044a5780601f106200041e576101008083540402835291602001916200044a565b820191906000526020600020905b8154815290600101906020018083116200042c57829003601f168201915b50505050506200057660201b60201c565b5050505062000641565b63ffffffff60e01b817bffffffffffffffffffffffffffffffffffffffffffffffffffffffff1916141562000502576040517f08c379a000000000000000000000000000000000000000000000000000000000815260040180806020018281038252601c8152602001807f4552433136353a20696e76616c696420696e746572666163652069640000000081525060200191505060405180910390fd5b6001600080837bffffffffffffffffffffffffffffffffffffffffffffffffffffffff19167bffffffffffffffffffffffffffffffffffffffffffffffffffffffff1916815260200190815260200160002060006101000a81548160ff02191690831515021790555050565b600033905090565b80600a90805190602001906200058e92919062000592565b5050565b828054600181600116156101000203166002900490600052602060002090601f016020900481019282601f10620005d557805160ff191683800117855562000606565b8280016001018555821562000606579182015b8281111562000605578251825591602001919060010190620005e8565b5b50905062000615919062000619565b5090565b6200063e91905b808211156200063a57600081600090555060010162000620565b5090565b90565b61942c80620006516000396000f3fe60806040526004361061025c5760003560e01c80637363257a11610144578063c7b8de73116100b6578063e75722301161007a578063e757223014611700578063e985e9c51461174f578063ecf582fa146117d8578063f2fde38b14611979578063f4f42246146119ca578063fdc61dd1146119f55761025c565b8063c7b8de7314611265578063c87b56dd146112b8578063de4b32621461136c578063e09428b9146113a7578063e683ff07146115975761025c565b8063a22cb46511610108578063a22cb46514610d8b578063b0e038df14610de8578063b2e6357514610f44578063b88d4fde146110a3578063c172f9c9146111b5578063c7876ea41461123a5761025c565b80637363257a14610b9a5780638da5cb5b14610be957806395d89b4114610c405780639e898e5814610cd0578063a04482e914610cfb5761025c565b80632f745c59116101dd5780636c0360eb116101a15780636c0360eb146109315780636ee90d62146109c15780636f85e62c14610a1057806370a0823114610ae3578063715018a614610b48578063733bf2f214610b5f5761025c565b80632f745c591461077357806342842e0e146107e25780634f6ccce71461085d5780635fd8c710146108ac5780636352211e146108b65761025c565b80631567781611610224578063156778161461049057806318160ddd146104df5780631f9aa8211461050a5780632039eeff146106cd57806323b872dd146106f85761025c565b806301ffc9a71461026157806306fdde03146102d3578063081812fc14610363578063095ea7b3146103de578063104652f114610439575b600080fd5b34801561026d57600080fd5b506102b96004803603602081101561028457600080fd5b8101908080357bffffffffffffffffffffffffffffffffffffffffffffffffffffffff19169060200190929190505050611a4c565b604051808215151515815260200191505060405180910390f35b3480156102df57600080fd5b506102e8611ab3565b6040518080602001828103825283818151815260200191508051906020019080838360005b8381101561032857808201518184015260208101905061030d565b50505050905090810190601f1680156103555780820380516001836020036101000a031916815260200191505b509250505060405180910390f35b34801561036f57600080fd5b5061039c6004803603602081101561038657600080fd5b8101908080359060200190929190505050611b55565b604051808273ffffffffffffffffffffffffffffffffffffffff1673ffffffffffffffffffffffffffffffffffffffff16815260200191505060405180910390f35b3480156103ea57600080fd5b506104376004803603604081101561040157600080fd5b81019080803573ffffffffffffffffffffffffffffffffffffffff16906020019092919080359060200190929190505050611bf0565b005b34801561044557600080fd5b5061044e611d34565b604051808273ffffffffffffffffffffffffffffffffffffffff1673ffffffffffffffffffffffffffffffffffffffff16815260200191505060405180910390f35b34801561049c57600080fd5b506104c9600480360360208110156104b357600080fd5b8101908080359060200190929190505050611d5a565b6040518082815260200191505060405180910390f35b3480156104eb57600080fd5b506104f4611d72565b6040518082815260200191505060405180910390f35b34801561051657600080fd5b506106676004803603604081101561052d57600080fd5b810190808035906020019064010000000081111561054a57600080fd5b82018360208201111561055c57600080fd5b8035906020019184600183028401116401000000008311171561057e57600080fd5b91908080601f016020809104026020016040519081016040528093929190818152602001838380828437600081840152601f19601f820116905080830192505050505050509192919290803590602001906401000000008111156105e157600080fd5b8201836020820111156105f357600080fd5b8035906020019184600183028401116401000000008311171561061557600080fd5b91908080601f016020809104026020016040519081016040528093929190818152602001838380828437600081840152601f19601f820116905080830192505050505050509192919290505050611d83565b604051808681526020018573ffffffffffffffffffffffffffffffffffffffff1673ffffffffffffffffffffffffffffffffffffffff16815260200184151515158152602001831515151581526020018281526020019550505050505060405180910390f35b3480156106d957600080fd5b506106e2611f6b565b6040518082815260200191505060405180910390f35b34801561070457600080fd5b506107716004803603606081101561071b57600080fd5b81019080803573ffffffffffffffffffffffffffffffffffffffff169060200190929190803573ffffffffffffffffffffffffffffffffffffffff16906020019092919080359060200190929190505050611f71565b005b34801561077f57600080fd5b506107cc6004803603604081101561079657600080fd5b81019080803573ffffffffffffffffffffffffffffffffffffffff16906020019092919080359060200190929190505050611fe7565b6040518082815260200191505060405180910390f35b3480156107ee57600080fd5b5061085b6004803603606081101561080557600080fd5b81019080803573ffffffffffffffffffffffffffffffffffffffff169060200190929190803573ffffffffffffffffffffffffffffffffffffffff16906020019092919080359060200190929190505050612042565b005b34801561086957600080fd5b506108966004803603602081101561088057600080fd5b8101908080359060200190929190505050612062565b6040518082815260200191505060405180910390f35b6108b4612085565b005b3480156108c257600080fd5b506108ef600480360360208110156108d957600080fd5b810190808035906020019092919050505061219e565b604051808273ffffffffffffffffffffffffffffffffffffffff1673ffffffffffffffffffffffffffffffffffffffff16815260200191505060405180910390f35b34801561093d57600080fd5b506109466121d5565b6040518080602001828103825283818151815260200191508051906020019080838360005b8381101561098657808201518184015260208101905061096b565b50505050905090810190601f1680156109b35780820380516001836020036101000a031916815260200191505b509250505060405180910390f35b3480156109cd57600080fd5b506109fa600480360360208110156109e457600080fd5b8101908080359060200190929190505050612277565b6040518082815260200191505060405180910390f35b610ac960048036036020811015610a2657600080fd5b8101908080359060200190640100000000811115610a4357600080fd5b820183602082011115610a5557600080fd5b80359060200191846001830284011164010000000083111715610a7757600080fd5b91908080601f016020809104026020016040519081016040528093929190818152602001838380828437600081840152601f19601f82011690508083019250505050505050919291929050505061228f565b604051808215151515815260200191505060405180910390f35b348015610aef57600080fd5b50610b3260048036036020811015610b0657600080fd5b81019080803573ffffffffffffffffffffffffffffffffffffffff16906020019092919050505061259f565b6040518082815260200191505060405180910390f35b348015610b5457600080fd5b50610b5d612674565b005b348015610b6b57600080fd5b50610b9860048036036020811015610b8257600080fd5b81019080803590602001909291905050506127ff565b005b348015610ba657600080fd5b50610bd360048036036020811015610bbd57600080fd5b81019080803590602001909291905050506128e0565b6040518082815260200191505060405180910390f35b348015610bf557600080fd5b50610bfe6128f8565b604051808273ffffffffffffffffffffffffffffffffffffffff1673ffffffffffffffffffffffffffffffffffffffff16815260200191505060405180910390f35b348015610c4c57600080fd5b50610c55612922565b6040518080602001828103825283818151815260200191508051906020019080838360005b83811015610c95578082015181840152602081019050610c7a565b50505050905090810190601f168015610cc25780820380516001836020036101000a031916815260200191505b509250505060405180910390f35b348015610cdc57600080fd5b50610ce56129c4565b6040518082815260200191505060405180910390f35b348015610d0757600080fd5b50610d106129ca565b6040518080602001828103825283818151815260200191508051906020019080838360005b83811015610d50578082015181840152602081019050610d35565b50505050905090810190601f168015610d7d5780820380516001836020036101000a031916815260200191505b509250505060405180910390f35b348015610d9757600080fd5b50610de660048036036040811015610dae57600080fd5b81019080803573ffffffffffffffffffffffffffffffffffffffff169060200190929190803515159060200190929190505050612a68565b005b348015610df457600080fd5b50610f4260048036036040811015610e0b57600080fd5b8101908080359060200190640100000000811115610e2857600080fd5b820183602082011115610e3a57600080fd5b80359060200191846001830284011164010000000083111715610e5c57600080fd5b91908080601f016020809104026020016040519081016040528093929190818152602001838380828437600081840152601f19601f82011690508083019250505050505050919291929080359060200190640100000000811115610ebf57600080fd5b820183602082011115610ed157600080fd5b80359060200191846020830284011164010000000083111715610ef357600080fd5b919080806020026020016040519081016040528093929190818152602001838360200280828437600081840152601f19601f820116905080830192505050505050509192919290505050612c20565b005b348015610f5057600080fd5b506110a160048036036040811015610f6757600080fd5b8101908080359060200190640100000000811115610f8457600080fd5b820183602082011115610f9657600080fd5b80359060200191846001830284011164010000000083111715610fb857600080fd5b91908080601f016020809104026020016040519081016040528093929190818152602001838380828437600081840152601f19601f8201169050808301925050505050505091929192908035906020019064010000000081111561101b57600080fd5b82018360208201111561102d57600080fd5b8035906020019184600183028401116401000000008311171561104f57600080fd5b91908080601f016020809104026020016040519081016040528093929190818152602001838380828437600081840152601f19601f820116905080830192505050505050509192919290505050613003565b005b3480156110af57600080fd5b506111b3600480360360808110156110c657600080fd5b81019080803573ffffffffffffffffffffffffffffffffffffffff169060200190929190803573ffffffffffffffffffffffffffffffffffffffff169060200190929190803590602001909291908035906020019064010000000081111561112d57600080fd5b82018360208201111561113f57600080fd5b8035906020019184600183028401116401000000008311171561116157600080fd5b91908080601f016020809104026020016040519081016040528093929190818152602001838380828437600081840152601f19601f82011690508083019250505050505050919291929050505061324e565b005b3480156111c157600080fd5b50611238600480360360808110156111d857600080fd5b81019080803573ffffffffffffffffffffffffffffffffffffffff16906020019092919080359060200190929190803573ffffffffffffffffffffffffffffffffffffffff169060200190929190803590602001909291905050506132c6565b005b34801561124657600080fd5b5061124f61387f565b6040518082815260200191505060405180910390f35b34801561127157600080fd5b5061129e6004803603602081101561128857600080fd5b8101908080359060200190929190505050613885565b604051808215151515815260200191505060405180910390f35b3480156112c457600080fd5b506112f1600480360360208110156112db57600080fd5b81019080803590602001909291905050506138a5565b6040518080602001828103825283818151815260200191508051906020019080838360005b83811015611331578082015181840152602081019050611316565b50505050905090810190601f16801561135e5780820380516001836020036101000a031916815260200191505b509250505060405180910390f35b34801561137857600080fd5b506113a56004803603602081101561138f57600080fd5b8101908080359060200190929190505050613ae9565b005b3480156113b357600080fd5b50611595600480360360608110156113ca57600080fd5b81019080803590602001906401000000008111156113e757600080fd5b8201836020820111156113f957600080fd5b8035906020019184600183028401116401000000008311171561141b57600080fd5b91908080601f016020809104026020016040519081016040528093929190818152602001838380828437600081840152601f19601f8201169050808301925050505050505091929192908035906020019064010000000081111561147e57600080fd5b82018360208201111561149057600080fd5b803590602001918460208302840111640100000000831117156114b257600080fd5b919080806020026020016040519081016040528093929190818152602001838360200280828437600081840152601f19601f8201169050808301925050505050505091929192908035906020019064010000000081111561151257600080fd5b82018360208201111561152457600080fd5b8035906020019184602083028401116401000000008311171561154657600080fd5b919080806020026020016040519081016040528093929190818152602001838360200280828437600081840152601f19601f820116905080830192505050505050509192919290505050613bca565b005b3480156115a357600080fd5b506116fe600480360360608110156115ba57600080fd5b81019080803590602001906401000000008111156115d757600080fd5b8201836020820111156115e957600080fd5b8035906020019184600183028401116401000000008311171561160b57600080fd5b91908080601f016020809104026020016040519081016040528093929190818152602001838380828437600081840152601f19601f8201169050808301925050505050505091929192908035906020019064010000000081111561166e57600080fd5b82018360208201111561168057600080fd5b803590602001918460018302840111640100000000831117156116a257600080fd5b91908080601f016020809104026020016040519081016040528093929190818152602001838380828437600081840152601f19601f82011690508083019250505050505050919291929080359060200190929190505050613fbc565b005b34801561170c57600080fd5b506117396004803603602081101561172357600080fd5b81019080803590602001909291905050506141f4565b6040518082815260200191505060405180910390f35b34801561175b57600080fd5b506117be6004803603604081101561177257600080fd5b81019080803573ffffffffffffffffffffffffffffffffffffffff169060200190929190803573ffffffffffffffffffffffffffffffffffffffff169060200190929190505050614273565b604051808215151515815260200191505060405180910390f35b3480156117e457600080fd5b5061195f600480360360808110156117fb57600080fd5b81019080803573ffffffffffffffffffffffffffffffffffffffff169060200190929190803590602001909291908035906020019064010000000081111561184257600080fd5b82018360208201111561185457600080fd5b8035906020019184600183028401116401000000008311171561187657600080fd5b91908080601f016020809104026020016040519081016040528093929190818152602001838380828437600081840152601f19601f820116905080830192505050505050509192919290803590602001906401000000008111156118d957600080fd5b8201836020820111156118eb57600080fd5b8035906020019184600183028401116401000000008311171561190d57600080fd5b91908080601f016020809104026020016040519081016040528093929190818152602001838380828437600081840152601f19601f820116905080830192505050505050509192919290505050614307565b604051808215151515815260200191505060405180910390f35b34801561198557600080fd5b506119c86004803603602081101561199c57600080fd5b81019080803573ffffffffffffffffffffffffffffffffffffffff1690602001909291905050506146f0565b005b3480156119d657600080fd5b506119df614900565b6040518082815260200191505060405180910390f35b348015611a0157600080fd5b50611a0a614906565b604051808273ffffffffffffffffffffffffffffffffffffffff1673ffffffffffffffffffffffffffffffffffffffff16815260200191505060405180910390f35b6000806000837bffffffffffffffffffffffffffffffffffffffffffffffffffffffff19167bffffffffffffffffffffffffffffffffffffffffffffffffffffffff1916815260200190815260200160002060009054906101000a900460ff169050919050565b606060078054600181600116156101000203166002900480601f016020809104026020016040519081016040528092919081815260200182805460018160011615610100020316600290048015611b4b5780601f10611b2057610100808354040283529160200191611b4b565b820191906000526020600020905b815481529060010190602001808311611b2e57829003601f168201915b5050505050905090565b6000611b608261492c565b611bb5576040517f08c379a000000000000000000000000000000000000000000000000000000000815260040180806020018281038252602c815260200180619350602c913960400191505060405180910390fd5b6005600083815260200190815260200160002060009054906101000a900473ffffffffffffffffffffffffffffffffffffffff169050919050565b6000611bfb8261219e565b90508073ffffffffffffffffffffffffffffffffffffffff168373ffffffffffffffffffffffffffffffffffffffff161415611c82576040517f08c379a00000000000000000000000000000000000000000000000000000000081526004018080602001828103825260218152602001806193a56021913960400191505060405180910390fd5b8073ffffffffffffffffffffffffffffffffffffffff16611ca1614949565b73ffffffffffffffffffffffffffffffffffffffff161480611cd05750611ccf81611cca614949565b614273565b5b611d25576040517f08c379a00000000000000000000000000000000000000000000000000000000081526004018080602001828103825260388152602001806192826038913960400191505060405180910390fd5b611d2f8383614951565b505050565b600d60009054906101000a900473ffffffffffffffffffffffffffffffffffffffff1681565b60136020528060005260406000206000915090505481565b6000611d7e6002614a0a565b905090565b600080600080600073__Token_________________________________63e22023ae88886040518363ffffffff1660e01b8152600401808060200180602001838103835285818151815260200191508051906020019080838360005b83811015611dfa578082015181840152602081019050611ddf565b50505050905090810190601f168015611e275780820380516001836020036101000a031916815260200191505b50838103825284818151815260200191508051906020019080838360005b83811015611e60578082015181840152602081019050611e45565b50505050905090810190601f168015611e8d5780820380516001836020036101000a031916815260200191505b5094505050505060206040518083038186803b158015611eac57600080fd5b505af4158015611ec0573d6000803e3d6000fd5b505050506040513d6020811015611ed657600080fd5b8101908080519060200190929190505050945060008560001c9050611f05816002614a1f90919063ffffffff16565b15611f2957611f1e816002614a3990919063ffffffff16565b945060019350611f32565b60009450600093505b6015600082815260200190815260200160002060009054906101000a900460ff169250611f5e816141f4565b9150509295509295909350565b60105481565b611f82611f7c614949565b82614a56565b611fd7576040517f08c379a00000000000000000000000000000000000000000000000000000000081526004018080602001828103825260318152602001806193c66031913960400191505060405180910390fd5b611fe2838383614b4a565b505050565b600061203a82600160008673ffffffffffffffffffffffffffffffffffffffff1673ffffffffffffffffffffffffffffffffffffffff168152602001908152602001600020614d8d90919063ffffffff16565b905092915050565b61205d8383836040518060200160405280600081525061324e565b505050565b600080612079836002614da790919063ffffffff16565b50905080915050919050565b61208d614949565b73ffffffffffffffffffffffffffffffffffffffff16600b60009054906101000a900473ffffffffffffffffffffffffffffffffffffffff1673ffffffffffffffffffffffffffffffffffffffff161461214f576040517f08c379a00000000000000000000000000000000000000000000000000000000081526004018080602001828103825260208152602001807f4f776e61626c653a2063616c6c6572206973206e6f7420746865206f776e657281525060200191505060405180910390fd5b60004790503373ffffffffffffffffffffffffffffffffffffffff166108fc829081150290604051600060405180830381858888f1935050505015801561219a573d6000803e3d6000fd5b5050565b60006121ce826040518060600160405280602981526020016192e4602991396002614dd69092919063ffffffff16565b9050919050565b6060600a8054600181600116156101000203166002900480601f01602080910402602001604051908101604052809291908181526020018280546001816001161561010002031660029004801561226d5780601f106122425761010080835404028352916020019161226d565b820191906000526020600020905b81548152906001019060200180831161225057829003601f168201915b5050505050905090565b60146020528060005260406000206000915090505481565b6000808251141561229f57600080fd5b600060019050600073__String________________________________63e11cc6d0857f3b0000000000000000000000000000000000000000000000000000000000000060006040518463ffffffff1660e01b81526004018080602001847effffffffffffffffffffffffffffffffffffffffffffffffffffffffffffff19167effffffffffffffffffffffffffffffffffffffffffffffffffffffffffffff19168152602001838152602001828103825285818151815260200191508051906020019080838360005b83811015612384578082015181840152602081019050612369565b50505050905090810190601f1680156123b15780820380516001836020036101000a031916815260200191505b5094505050505060206040518083038186803b1580156123d057600080fd5b505af41580156123e4573d6000803e3d6000fd5b505050506040513d60208110156123fa57600080fd5b810190808051906020019092919050505090505b6000811461258b57818060010192505073__String________________________________63e11cc6d0857f3b00000000000000000000000000000000000000000000000000000000000000600185016040518463ffffffff1660e01b81526004018080602001847effffffffffffffffffffffffffffffffffffffffffffffffffffffffffffff19167effffffffffffffffffffffffffffffffffffffffffffffffffffffffffffff19168152602001838152602001828103825285818151815260200191508051906020019080838360005b838110156124fd5780820151818401526020810190506124e2565b50505050905090810190601f16801561252a5780820380516001836020036101000a031916815260200191505b5094505050505060206040518083038186803b15801561254957600080fd5b505af415801561255d573d6000803e3d6000fd5b505050506040513d602081101561257357600080fd5b8101908080519060200190929190505050905061240e565b50612597833483614df5565b915050919050565b60008073ffffffffffffffffffffffffffffffffffffffff168273ffffffffffffffffffffffffffffffffffffffff161415612626576040517f08c379a000000000000000000000000000000000000000000000000000000000815260040180806020018281038252602a8152602001806192ba602a913960400191505060405180910390fd5b61266d600160008473ffffffffffffffffffffffffffffffffffffffff1673ffffffffffffffffffffffffffffffffffffffff16815260200190815260200160002061581b565b9050919050565b61267c614949565b73ffffffffffffffffffffffffffffffffffffffff16600b60009054906101000a900473ffffffffffffffffffffffffffffffffffffffff1673ffffffffffffffffffffffffffffffffffffffff161461273e576040517f08c379a00000000000000000000000000000000000000000000000000000000081526004018080602001828103825260208152602001807f4f776e61626c653a2063616c6c6572206973206e6f7420746865206f776e657281525060200191505060405180910390fd5b600073ffffffffffffffffffffffffffffffffffffffff16600b60009054906101000a900473ffffffffffffffffffffffffffffffffffffffff1673ffffffffffffffffffffffffffffffffffffffff167f8be0079c531659141344cd1fd0a4f28419497f9722a3daafe3b4186f6b6457e060405160405180910390a36000600b60006101000a81548173ffffffffffffffffffffffffffffffffffffffff021916908373ffffffffffffffffffffffffffffffffffffffff160217905550565b612807614949565b73ffffffffffffffffffffffffffffffffffffffff16600b60009054906101000a900473ffffffffffffffffffffffffffffffffffffffff1673ffffffffffffffffffffffffffffffffffffffff16146128c9576040517f08c379a00000000000000000000000000000000000000000000000000000000081526004018080602001828103825260208152602001807f4f776e61626c653a2063616c6c6572206973206e6f7420746865206f776e657281525060200191505060405180910390fd5b600081116128d657600080fd5b80600e8190555050565b60166020528060005260406000206000915090505481565b6000600b60009054906101000a900473ffffffffffffffffffffffffffffffffffffffff16905090565b606060088054600181600116156101000203166002900480601f0160208091040260200160405190810160405280929190818152602001828054600181600116156101000203166002900480156129ba5780601f1061298f576101008083540402835291602001916129ba565b820191906000526020600020905b81548152906001019060200180831161299d57829003601f168201915b5050505050905090565b60115481565b60128054600181600116156101000203166002900480601f016020809104026020016040519081016040528092919081815260200182805460018160011615610100020316600290048015612a605780601f10612a3557610100808354040283529160200191612a60565b820191906000526020600020905b815481529060010190602001808311612a4357829003601f168201915b505050505081565b612a70614949565b73ffffffffffffffffffffffffffffffffffffffff168273ffffffffffffffffffffffffffffffffffffffff161415612b11576040517f08c379a00000000000000000000000000000000000000000000000000000000081526004018080602001828103825260198152602001807f4552433732313a20617070726f766520746f2063616c6c65720000000000000081525060200191505060405180910390fd5b8060066000612b1e614949565b73ffffffffffffffffffffffffffffffffffffffff1673ffffffffffffffffffffffffffffffffffffffff16815260200190815260200160002060008473ffffffffffffffffffffffffffffffffffffffff1673ffffffffffffffffffffffffffffffffffffffff16815260200190815260200160002060006101000a81548160ff0219169083151502179055508173ffffffffffffffffffffffffffffffffffffffff16612bcb614949565b73ffffffffffffffffffffffffffffffffffffffff167f17307eab39ab6107e8899845ad3d59bd9653f200f220920489ca2b5937696c3183604051808215151515815260200191505060405180910390a35050565b612c28614949565b73ffffffffffffffffffffffffffffffffffffffff16600b60009054906101000a900473ffffffffffffffffffffffffffffffffffffffff1673ffffffffffffffffffffffffffffffffffffffff1614612cea576040517f08c379a00000000000000000000000000000000000000000000000000000000081526004018080602001828103825260208152602001807f4f776e61626c653a2063616c6c6572206973206e6f7420746865206f776e657281525060200191505060405180910390fd5b600082511415612cf957600080fd5b600060019050600073__String________________________________63e11cc6d0857f3b0000000000000000000000000000000000000000000000000000000000000060006040518463ffffffff1660e01b81526004018080602001847effffffffffffffffffffffffffffffffffffffffffffffffffffffffffffff19167effffffffffffffffffffffffffffffffffffffffffffffffffffffffffffff19168152602001838152602001828103825285818151815260200191508051906020019080838360005b83811015612dde578082015181840152602081019050612dc3565b50505050905090810190601f168015612e0b5780820380516001836020036101000a031916815260200191505b5094505050505060206040518083038186803b158015612e2a57600080fd5b505af4158015612e3e573d6000803e3d6000fd5b505050506040513d6020811015612e5457600080fd5b810190808051906020019092919050505090505b60008114612fe557818060010192505073__String________________________________63e11cc6d0857f3b00000000000000000000000000000000000000000000000000000000000000600185016040518463ffffffff1660e01b81526004018080602001847effffffffffffffffffffffffffffffffffffffffffffffffffffffffffffff19167effffffffffffffffffffffffffffffffffffffffffffffffffffffffffffff19168152602001838152602001828103825285818151815260200191508051906020019080838360005b83811015612f57578082015181840152602081019050612f3c565b50505050905090810190601f168015612f845780820380516001836020036101000a031916815260200191505b5094505050505060206040518083038186803b158015612fa357600080fd5b505af4158015612fb7573d6000803e3d6000fd5b505050506040513d6020811015612fcd57600080fd5b81019080805190602001909291905050509050612e68565b5081518114612ff357600080fd5b612ffe838383615830565b505050565b600073__Token_________________________________63e22023ae84846040518363ffffffff1660e01b8152600401808060200180602001838103835285818151815260200191508051906020019080838360005b83811015613074578082015181840152602081019050613059565b50505050905090810190601f1680156130a15780820380516001836020036101000a031916815260200191505b50838103825284818151815260200191508051906020019080838360005b838110156130da5780820151818401526020810190506130bf565b50505050905090810190601f1680156131075780820380516001836020036101000a031916815260200191505b5094505050505060206040518083038186803b15801561312657600080fd5b505af415801561313a573d6000803e3d6000fd5b505050506040513d602081101561315057600080fd5b810190808051906020019092919050505060001c905061317a816002614a1f90919063ffffffff16565b61318357600080fd5b613197816002614a3990919063ffffffff16565b73ffffffffffffffffffffffffffffffffffffffff163373ffffffffffffffffffffffffffffffffffffffff16146131ce57600080fd5b60006015600083815260200190815260200160002060006101000a81548160ff02191690831515021790555061323060166000838152602001908152602001600020548385336014600087815260200190815260200160002054600042616011565b60006014600083815260200190815260200160002081905550505050565b61325f613259614949565b83614a56565b6132b4576040517f08c379a00000000000000000000000000000000000000000000000000000000081526004018080602001828103825260318152602001806193c66031913960400191505060405180910390fd5b6132c08484848461690d565b50505050565b7fd9e961b5e33e49ea23325ff569563cfc999d3188fd44b2a9bc263f247e7d5a5384848484604051808573ffffffffffffffffffffffffffffffffffffffff1673ffffffffffffffffffffffffffffffffffffffff1681526020018481526020018373ffffffffffffffffffffffffffffffffffffffff1673ffffffffffffffffffffffffffffffffffffffff16815260200182815260200194505050505060405180910390a1600c60009054906101000a900473ffffffffffffffffffffffffffffffffffffffff1673ffffffffffffffffffffffffffffffffffffffff168273ffffffffffffffffffffffffffffffffffffffff16146133c757600080fd5b606073__String________________________________639201de55836040518263ffffffff1660e01b81526004018082815260200191505060006040518083038186803b15801561341857600080fd5b505af415801561342c573d6000803e3d6000fd5b505050506040513d6000823e3d601f19601f82011682018060405250602081101561345657600080fd5b810190808051604051939291908464010000000082111561347657600080fd5b8382019150602082018581111561348c57600080fd5b82518660018202830111640100000000821117156134a957600080fd5b8083526020830192505050908051906020019080838360005b838110156134dd5780820151818401526020810190506134c2565b50505050905090810190601f16801561350a5780820380516001836020036101000a031916815260200191505b506040525050509050613877858573__Token_________________________________634bc32319856040518263ffffffff1660e01b81526004018080602001828103825283818151815260200191508051906020019080838360005b83811015613582578082015181840152602081019050613567565b50505050905090810190601f1680156135af5780820380516001836020036101000a031916815260200191505b509250505060006040518083038186803b1580156135cc57600080fd5b505af41580156135e0573d6000803e3d6000fd5b505050506040513d6000823e3d601f19601f82011682018060405250602081101561360a57600080fd5b810190808051604051939291908464010000000082111561362a57600080fd5b8382019150602082018581111561364057600080fd5b825186600182028301116401000000008211171561365d57600080fd5b8083526020830192505050908051906020019080838360005b83811015613691578082015181840152602081019050613676565b50505050905090810190601f1680156136be5780820380516001836020036101000a031916815260200191505b5060405250505073__Token_________________________________6347b0b5b3866040518263ffffffff1660e01b81526004018080602001828103825283818151815260200191508051906020019080838360005b8381101561372f578082015181840152602081019050613714565b50505050905090810190601f16801561375c5780820380516001836020036101000a031916815260200191505b509250505060006040518083038186803b15801561377957600080fd5b505af415801561378d573d6000803e3d6000fd5b505050506040513d6000823e3d601f19601f8201168201806040525060208110156137b757600080fd5b81019080805160405193929190846401000000008211156137d757600080fd5b838201915060208201858111156137ed57600080fd5b825186600182028301116401000000008211171561380a57600080fd5b8083526020830192505050908051906020019080838360005b8381101561383e578082015181840152602081019050613823565b50505050905090810190601f16801561386b5780820380516001836020036101000a031916815260200191505b50604052505050614307565b505050505050565b600f5481565b60156020528060005260406000206000915054906101000a900460ff1681565b606080601273__String________________________________638fba8d5c856040518263ffffffff1660e01b81526004018082815260200191505060006040518083038186803b1580156138f957600080fd5b505af415801561390d573d6000803e3d6000fd5b505050506040513d6000823e3d601f19601f82011682018060405250602081101561393757600080fd5b810190808051604051939291908464010000000082111561395757600080fd5b8382019150602082018581111561396d57600080fd5b825186600182028301116401000000008211171561398a57600080fd5b8083526020830192505050908051906020019080838360005b838110156139be5780820151818401526020810190506139a3565b50505050905090810190601f1680156139eb5780820380516001836020036101000a031916815260200191505b506040525050506040516020018083805460018160011615610100020316600290048015613a505780601f10613a2e576101008083540402835291820191613a50565b820191906000526020600020905b815481529060010190602001808311613a3c575b5050807f307800000000000000000000000000000000000000000000000000000000000081525060020182805190602001908083835b60208310613aa95780518252602082019150602081019050602083039250613a86565b6001836020036101000a03801982511681845116808217855250505050505090500192505050604051602081830303815290604052905080915050919050565b613af1614949565b73ffffffffffffffffffffffffffffffffffffffff16600b60009054906101000a900473ffffffffffffffffffffffffffffffffffffffff1673ffffffffffffffffffffffffffffffffffffffff1614613bb3576040517f08c379a00000000000000000000000000000000000000000000000000000000081526004018080602001828103825260208152602001807f4f776e61626c653a2063616c6c6572206973206e6f7420746865206f776e657281525060200191505060405180910390fd5b60008111613bc057600080fd5b80600f8190555050565b613bd2614949565b73ffffffffffffffffffffffffffffffffffffffff16600b60009054906101000a900473ffffffffffffffffffffffffffffffffffffffff1673ffffffffffffffffffffffffffffffffffffffff1614613c94576040517f08c379a00000000000000000000000000000000000000000000000000000000081526004018080602001828103825260208152602001807f4f776e61626c653a2063616c6c6572206973206e6f7420746865206f776e657281525060200191505060405180910390fd5b600083511415613ca357600080fd5b600060019050600073__String________________________________63e11cc6d0867f3b0000000000000000000000000000000000000000000000000000000000000060006040518463ffffffff1660e01b81526004018080602001847effffffffffffffffffffffffffffffffffffffffffffffffffffffffffffff19167effffffffffffffffffffffffffffffffffffffffffffffffffffffffffffff19168152602001838152602001828103825285818151815260200191508051906020019080838360005b83811015613d88578082015181840152602081019050613d6d565b50505050905090810190601f168015613db55780820380516001836020036101000a031916815260200191505b5094505050505060206040518083038186803b158015613dd457600080fd5b505af4158015613de8573d6000803e3d6000fd5b505050506040513d6020811015613dfe57600080fd5b810190808051906020019092919050505090505b60008114613f8f57818060010192505073__String________________________________63e11cc6d0867f3b00000000000000000000000000000000000000000000000000000000000000600185016040518463ffffffff1660e01b81526004018080602001847effffffffffffffffffffffffffffffffffffffffffffffffffffffffffffff19167effffffffffffffffffffffffffffffffffffffffffffffffffffffffffffff19168152602001838152602001828103825285818151815260200191508051906020019080838360005b83811015613f01578082015181840152602081019050613ee6565b50505050905090810190601f168015613f2e5780820380516001836020036101000a031916815260200191505b5094505050505060206040518083038186803b158015613f4d57600080fd5b505af4158015613f61573d6000803e3d6000fd5b505050506040513d6020811015613f7757600080fd5b81019080805190602001909291905050509050613e12565b5082518114613f9d57600080fd5b81518114613faa57600080fd5b613fb68484848461697f565b50505050565b600073__Token_________________________________63e22023ae85856040518363ffffffff1660e01b8152600401808060200180602001838103835285818151815260200191508051906020019080838360005b8381101561402d578082015181840152602081019050614012565b50505050905090810190601f16801561405a5780820380516001836020036101000a031916815260200191505b50838103825284818151815260200191508051906020019080838360005b83811015614093578082015181840152602081019050614078565b50505050905090810190601f1680156140c05780820380516001836020036101000a031916815260200191505b5094505050505060206040518083038186803b1580156140df57600080fd5b505af41580156140f3573d6000803e3d6000fd5b505050506040513d602081101561410957600080fd5b810190808051906020019092919050505060001c9050614133816002614a1f90919063ffffffff16565b61413c57600080fd5b614150816002614a3990919063ffffffff16565b73ffffffffffffffffffffffffffffffffffffffff163373ffffffffffffffffffffffffffffffffffffffff161461418757600080fd5b60016015600083815260200190815260200160002060006101000a81548160ff0219169083151502179055508160146000838152602001908152602001600020819055506141ee601660008381526020019081526020016000205484863386600142616011565b50505050565b600061420a826002614a1f90919063ffffffff16565b61421857600f54905061426e565b6015600083815260200190815260200160002060009054906101000a900460ff1661425657601360008381526020019081526020016000205461426b565b60146000838152602001908152602001600020545b90505b919050565b6000600660008473ffffffffffffffffffffffffffffffffffffffff1673ffffffffffffffffffffffffffffffffffffffff16815260200190815260200160002060008373ffffffffffffffffffffffffffffffffffffffff1673ffffffffffffffffffffffffffffffffffffffff16815260200190815260200160002060009054906101000a900460ff16905092915050565b60008073__Token_________________________________63e22023ae85856040518363ffffffff1660e01b8152600401808060200180602001838103835285818151815260200191508051906020019080838360005b8381101561437957808201518184015260208101905061435e565b50505050905090810190601f1680156143a65780820380516001836020036101000a031916815260200191505b50838103825284818151815260200191508051906020019080838360005b838110156143df5780820151818401526020810190506143c4565b50505050905090810190601f16801561440c5780820380516001836020036101000a031916815260200191505b5094505050505060206040518083038186803b15801561442b57600080fd5b505af415801561443f573d6000803e3d6000fd5b505050506040513d602081101561445557600080fd5b810190808051906020019092919050505060001c905061447f816002614a1f90919063ffffffff16565b6146e257600f5485101561449257600080fd5b600f54600d60009054906101000a900473ffffffffffffffffffffffffffffffffffffffff1673ffffffffffffffffffffffffffffffffffffffff166370a08231886040518263ffffffff1660e01b8152600401808273ffffffffffffffffffffffffffffffffffffffff1673ffffffffffffffffffffffffffffffffffffffff16815260200191505060206040518083038186803b15801561453457600080fd5b505afa158015614548573d6000803e3d6000fd5b505050506040513d602081101561455e57600080fd5b8101908080519060200190929190505050101561457a57600080fd5b600d60009054906101000a900473ffffffffffffffffffffffffffffffffffffffff1673ffffffffffffffffffffffffffffffffffffffff166323b872dd8730600f546040518463ffffffff1660e01b8152600401808473ffffffffffffffffffffffffffffffffffffffff1673ffffffffffffffffffffffffffffffffffffffff1681526020018373ffffffffffffffffffffffffffffffffffffffff1673ffffffffffffffffffffffffffffffffffffffff1681526020018281526020019350505050602060405180830381600087803b15801561465957600080fd5b505af115801561466d573d6000803e3d6000fd5b505050506040513d602081101561468357600080fd5b81019080805190602001909291905050506146a25760009150506146e8565b6146af8682600f54617175565b6146c58187600261718e9092919063ffffffff16565b506146d8818486896000600f54426171c3565b60019150506146e8565b60009150505b949350505050565b6146f8614949565b73ffffffffffffffffffffffffffffffffffffffff16600b60009054906101000a900473ffffffffffffffffffffffffffffffffffffffff1673ffffffffffffffffffffffffffffffffffffffff16146147ba576040517f08c379a00000000000000000000000000000000000000000000000000000000081526004018080602001828103825260208152602001807f4f776e61626c653a2063616c6c6572206973206e6f7420746865206f776e657281525060200191505060405180910390fd5b600073ffffffffffffffffffffffffffffffffffffffff168173ffffffffffffffffffffffffffffffffffffffff161415614840576040517f08c379a000000000000000000000000000000000000000000000000000000000815260040180806020018281038252602681526020018061920c6026913960400191505060405180910390fd5b8073ffffffffffffffffffffffffffffffffffffffff16600b60009054906101000a900473ffffffffffffffffffffffffffffffffffffffff1673ffffffffffffffffffffffffffffffffffffffff167f8be0079c531659141344cd1fd0a4f28419497f9722a3daafe3b4186f6b6457e060405160405180910390a380600b60006101000a81548173ffffffffffffffffffffffffffffffffffffffff021916908373ffffffffffffffffffffffffffffffffffffffff16021790555050565b600e5481565b600c60009054906101000a900473ffffffffffffffffffffffffffffffffffffffff1681565b6000614942826002614a1f90919063ffffffff16565b9050919050565b600033905090565b816005600083815260200190815260200160002060006101000a81548173ffffffffffffffffffffffffffffffffffffffff021916908373ffffffffffffffffffffffffffffffffffffffff160217905550808273ffffffffffffffffffffffffffffffffffffffff166149c48361219e565b73ffffffffffffffffffffffffffffffffffffffff167f8c5be1e5ebec7d5bd14f71427d1e84f3dd0314c0f7b2291e5b200ac8c7c3b92560405160405180910390a45050565b6000614a188260000161799e565b9050919050565b6000614a31836000018360001b6179af565b905092915050565b6000614a4b836000018360001b6179d2565b60001c905092915050565b6000614a618261492c565b614ab6576040517f08c379a000000000000000000000000000000000000000000000000000000000815260040180806020018281038252602c815260200180619256602c913960400191505060405180910390fd5b6000614ac18361219e565b90508073ffffffffffffffffffffffffffffffffffffffff168473ffffffffffffffffffffffffffffffffffffffff161480614b3057508373ffffffffffffffffffffffffffffffffffffffff16614b1884611b55565b73ffffffffffffffffffffffffffffffffffffffff16145b80614b415750614b408185614273565b5b91505092915050565b8273ffffffffffffffffffffffffffffffffffffffff16614b6a8261219e565b73ffffffffffffffffffffffffffffffffffffffff1614614bd6576040517f08c379a000000000000000000000000000000000000000000000000000000000815260040180806020018281038252602981526020018061937c6029913960400191505060405180910390fd5b600073ffffffffffffffffffffffffffffffffffffffff168273ffffffffffffffffffffffffffffffffffffffff161415614c5c576040517f08c379a00000000000000000000000000000000000000000000000000000000081526004018080602001828103825260248152602001806192326024913960400191505060405180910390fd5b614c67838383617a1c565b614c72600082614951565b614cc381600160008673ffffffffffffffffffffffffffffffffffffffff1673ffffffffffffffffffffffffffffffffffffffff168152602001908152602001600020617c9a90919063ffffffff16565b50614d1581600160008573ffffffffffffffffffffffffffffffffffffffff1673ffffffffffffffffffffffffffffffffffffffff168152602001908152602001600020617cb490919063ffffffff16565b50614d2c8183600261718e9092919063ffffffff16565b50808273ffffffffffffffffffffffffffffffffffffffff168473ffffffffffffffffffffffffffffffffffffffff167fddf252ad1be2c89b69c2b068fc378daa952ba7f163c4a11628f55a4df523b3ef60405160405180910390a4505050565b6000614d9c8360000183617cce565b60001c905092915050565b600080600080614dba8660000186617d51565b915091508160001c8160001c8090509350935050509250929050565b6000614de9846000018460001b84617dea565b60001c90509392505050565b600060608267ffffffffffffffff81118015614e1057600080fd5b50604051908082528060200260200182016040528015614e4457816020015b6060815260200190600190039081614e2f5790505b50905060608367ffffffffffffffff81118015614e6057600080fd5b50604051908082528060200260200182016040528015614e9457816020015b6060815260200190600190039081614e7f5790505b50905060608467ffffffffffffffff81118015614eb057600080fd5b50604051908082528060200260200182016040528015614edf5781602001602082028036833780820191505090505b5090506000809050600080905060008090505b8781101561578957600073__String________________________________63e11cc6d08c7f3b00000000000000000000000000000000000000000000000000000000000000866040518463ffffffff1660e01b81526004018080602001847effffffffffffffffffffffffffffffffffffffffffffffffffffffffffffff19167effffffffffffffffffffffffffffffffffffffffffffffffffffffffffffff19168152602001838152602001828103825285818151815260200191508051906020019080838360005b83811015614fd8578082015181840152602081019050614fbd565b50505050905090810190601f1680156150055780820380516001836020036101000a031916815260200191505b5094505050505060206040518083038186803b15801561502457600080fd5b505af4158015615038573d6000803e3d6000fd5b505050506040513d602081101561504e57600080fd5b81019080805190602001909291905050509050606073__String________________________________631dcd9b558d86856040518463ffffffff1660e01b81526004018080602001848152602001838152602001828103825285818151815260200191508051906020019080838360005b838110156150db5780820151818401526020810190506150c0565b50505050905090810190601f1680156151085780820380516001836020036101000a031916815260200191505b5094505050505060006040518083038186803b15801561512757600080fd5b505af415801561513b573d6000803e3d6000fd5b505050506040513d6000823e3d601f19601f82011682018060405250602081101561516557600080fd5b810190808051604051939291908464010000000082111561518557600080fd5b8382019150602082018581111561519b57600080fd5b82518660018202830111640100000000821117156151b857600080fd5b8083526020830192505050908051906020019080838360005b838110156151ec5780820151818401526020810190506151d1565b50505050905090810190601f1680156152195780820380516001836020036101000a031916815260200191505b50604052505050905073__Token_________________________________634bc32319826040518263ffffffff1660e01b81526004018080602001828103825283818151815260200191508051906020019080838360005b8381101561528c578082015181840152602081019050615271565b50505050905090810190601f1680156152b95780820380516001836020036101000a031916815260200191505b509250505060006040518083038186803b1580156152d657600080fd5b505af41580156152ea573d6000803e3d6000fd5b505050506040513d6000823e3d601f19601f82011682018060405250602081101561531457600080fd5b810190808051604051939291908464010000000082111561533457600080fd5b8382019150602082018581111561534a57600080fd5b825186600182028301116401000000008211171561536757600080fd5b8083526020830192505050908051906020019080838360005b8381101561539b578082015181840152602081019050615380565b50505050905090810190601f1680156153c85780820380516001836020036101000a031916815260200191505b506040525050508884815181106153db57fe5b602002602001018190525073__Token_________________________________6347b0b5b3826040518263ffffffff1660e01b81526004018080602001828103825283818151815260200191508051906020019080838360005b83811015615450578082015181840152602081019050615435565b50505050905090810190601f16801561547d5780820380516001836020036101000a031916815260200191505b509250505060006040518083038186803b15801561549a57600080fd5b505af41580156154ae573d6000803e3d6000fd5b505050506040513d6000823e3d601f19601f8201168201806040525060208110156154d857600080fd5b81019080805160405193929190846401000000008211156154f857600080fd5b8382019150602082018581111561550e57600080fd5b825186600182028301116401000000008211171561552b57600080fd5b8083526020830192505050908051906020019080838360005b8381101561555f578082015181840152602081019050615544565b50505050905090810190601f16801561558c5780820380516001836020036101000a031916815260200191505b5060405250505087848151811061559f57fe5b6020026020010181905250600182019350600073__Token_________________________________63e22023ae8a86815181106155d857fe5b60200260200101518a87815181106155ec57fe5b60200260200101516040518363ffffffff1660e01b8152600401808060200180602001838103835285818151815260200191508051906020019080838360005b8381101561564757808201518184015260208101905061562c565b50505050905090810190601f1680156156745780820380516001836020036101000a031916815260200191505b50838103825284818151815260200191508051906020019080838360005b838110156156ad578082015181840152602081019050615692565b50505050905090810190601f1680156156da5780820380516001836020036101000a031916815260200191505b5094505050505060206040518083038186803b1580156156f957600080fd5b505af415801561570d573d6000803e3d6000fd5b505050506040513d602081101561572357600080fd5b810190808051906020019092919050505060001c9050615742816141f4565b87858151811061574e57fe5b6020026020010181815250506157778688868151811061576a57fe5b6020026020010151617ee0565b95505050508080600101915050614ef2565b508188101561579757600080fd5b60008090505b87811015615809576157e98682815181106157b457fe5b60200260200101518683815181106157c857fe5b60200260200101518684815181106157dc57fe5b6020026020010151617f68565b6157fc5760009650505050505050615814565b808060010191505061579d565b506001955050505050505b9392505050565b6000615829826000016183a7565b9050919050565b60608167ffffffffffffffff8111801561584957600080fd5b5060405190808252806020026020018201604052801561587d57816020015b60608152602001906001900390816158685790505b50905060608267ffffffffffffffff8111801561589957600080fd5b506040519080825280602002602001820160405280156158cd57816020015b60608152602001906001900390816158b85790505b509050600080905060008090505b84811015615fa857600073__String________________________________63e11cc6d0897f3b00000000000000000000000000000000000000000000000000000000000000866040518463ffffffff1660e01b81526004018080602001847effffffffffffffffffffffffffffffffffffffffffffffffffffffffffffff19167effffffffffffffffffffffffffffffffffffffffffffffffffffffffffffff19168152602001838152602001828103825285818151815260200191508051906020019080838360005b838110156159c15780820151818401526020810190506159a6565b50505050905090810190601f1680156159ee5780820380516001836020036101000a031916815260200191505b5094505050505060206040518083038186803b158015615a0d57600080fd5b505af4158015615a21573d6000803e3d6000fd5b505050506040513d6020811015615a3757600080fd5b81019080805190602001909291905050509050606073__String________________________________631dcd9b558a86856040518463ffffffff1660e01b81526004018080602001848152602001838152602001828103825285818151815260200191508051906020019080838360005b83811015615ac4578082015181840152602081019050615aa9565b50505050905090810190601f168015615af15780820380516001836020036101000a031916815260200191505b5094505050505060006040518083038186803b158015615b1057600080fd5b505af4158015615b24573d6000803e3d6000fd5b505050506040513d6000823e3d601f19601f820116820180604052506020811015615b4e57600080fd5b8101908080516040519392919084640100000000821115615b6e57600080fd5b83820191506020820185811115615b8457600080fd5b8251866001820283011164010000000082111715615ba157600080fd5b8083526020830192505050908051906020019080838360005b83811015615bd5578082015181840152602081019050615bba565b50505050905090810190601f168015615c025780820380516001836020036101000a031916815260200191505b50604052505050905073__Token_________________________________634bc32319826040518263ffffffff1660e01b81526004018080602001828103825283818151815260200191508051906020019080838360005b83811015615c75578082015181840152602081019050615c5a565b50505050905090810190601f168015615ca25780820380516001836020036101000a031916815260200191505b509250505060006040518083038186803b158015615cbf57600080fd5b505af4158015615cd3573d6000803e3d6000fd5b505050506040513d6000823e3d601f19601f820116820180604052506020811015615cfd57600080fd5b8101908080516040519392919084640100000000821115615d1d57600080fd5b83820191506020820185811115615d3357600080fd5b8251866001820283011164010000000082111715615d5057600080fd5b8083526020830192505050908051906020019080838360005b83811015615d84578082015181840152602081019050615d69565b50505050905090810190601f168015615db15780820380516001836020036101000a031916815260200191505b50604052505050868481518110615dc457fe5b602002602001018190525073__Token_________________________________6347b0b5b3826040518263ffffffff1660e01b81526004018080602001828103825283818151815260200191508051906020019080838360005b83811015615e39578082015181840152602081019050615e1e565b50505050905090810190601f168015615e665780820380516001836020036101000a031916815260200191505b509250505060006040518083038186803b158015615e8357600080fd5b505af4158015615e97573d6000803e3d6000fd5b505050506040513d6000823e3d601f19601f820116820180604052506020811015615ec157600080fd5b8101908080516040519392919084640100000000821115615ee157600080fd5b83820191506020820185811115615ef757600080fd5b8251866001820283011164010000000082111715615f1457600080fd5b8083526020830192505050908051906020019080838360005b83811015615f48578082015181840152602081019050615f2d565b50505050905090810190601f168015615f755780820380516001836020036101000a031916815260200191505b50604052505050858481518110615f8857fe5b6020026020010181905250600182019350505080806001019150506158db565b5060008090505b8481101561600857615ffb848281518110615fc657fe5b6020026020010151848381518110615fda57fe5b6020026020010151888481518110615fee57fe5b60200260200101516183b8565b8080600101915050615faf565b50505050505050565b601160008154809291906001019190505550600073__Token_________________________________63e22023ae87896040518363ffffffff1660e01b8152600401808060200180602001838103835285818151815260200191508051906020019080838360005b83811015616094578082015181840152602081019050616079565b50505050905090810190601f1680156160c15780820380516001836020036101000a031916815260200191505b50838103825284818151815260200191508051906020019080838360005b838110156160fa5780820151818401526020810190506160df565b50505050905090810190601f1680156161275780820380516001836020036101000a031916815260200191505b5094505050505060206040518083038186803b15801561614657600080fd5b505af415801561615a573d6000803e3d6000fd5b505050506040513d602081101561617057600080fd5b81019080805190602001909291905050509050808573ffffffffffffffffffffffffffffffffffffffff167fa0414e20b7bf64a4f30d6c99b054c4d6ea644070b1811534cd1d35c22d953e0c6011548b8b8b8a8a8a60405180888152602001878152602001806020018060200186815260200185151515158152602001848152602001838103835288818151815260200191508051906020019080838360005b8381101561622b578082015181840152602081019050616210565b50505050905090810190601f1680156162585780820380516001836020036101000a031916815260200191505b50838103825287818151815260200191508051906020019080838360005b83811015616291578082015181840152602081019050616276565b50505050905090810190601f1680156162be5780820380516001836020036101000a031916815260200191505b50995050505050505050505060405180910390a373__Token_________________________________63e22023ae73__String________________________________636941f6b38960016040518363ffffffff1660e01b81526004018080602001838152602001828103825284818151815260200191508051906020019080838360005b8381101561635e578082015181840152602081019050616343565b50505050905090810190601f16801561638b5780820380516001836020036101000a031916815260200191505b50935050505060006040518083038186803b1580156163a957600080fd5b505af41580156163bd573d6000803e3d6000fd5b505050506040513d6000823e3d601f19601f8201168201806040525060208110156163e757600080fd5b810190808051604051939291908464010000000082111561640757600080fd5b8382019150602082018581111561641d57600080fd5b825186600182028301116401000000008211171561643a57600080fd5b8083526020830192505050908051906020019080838360005b8381101561646e578082015181840152602081019050616453565b50505050905090810190601f16801561649b5780820380516001836020036101000a031916815260200191505b5060405250505073__String________________________________636941f6b38b60016040518363ffffffff1660e01b81526004018080602001838152602001828103825284818151815260200191508051906020019080838360005b838110156165145780820151818401526020810190506164f9565b50505050905090810190601f1680156165415780820380516001836020036101000a031916815260200191505b50935050505060006040518083038186803b15801561655f57600080fd5b505af4158015616573573d6000803e3d6000fd5b505050506040513d6000823e3d601f19601f82011682018060405250602081101561659d57600080fd5b81019080805160405193929190846401000000008211156165bd57600080fd5b838201915060208201858111156165d357600080fd5b82518660018202830111640100000000821117156165f057600080fd5b8083526020830192505050908051906020019080838360005b83811015616624578082015181840152602081019050616609565b50505050905090810190601f1680156166515780820380516001836020036101000a031916815260200191505b506040525050506040518363ffffffff1660e01b8152600401808060200180602001838103835285818151815260200191508051906020019080838360005b838110156166ab578082015181840152602081019050616690565b50505050905090810190601f1680156166d85780820380516001836020036101000a031916815260200191505b50838103825284818151815260200191508051906020019080838360005b838110156167115780820151818401526020810190506166f6565b50505050905090810190601f16801561673e5780820380516001836020036101000a031916815260200191505b5094505050505060206040518083038186803b15801561675d57600080fd5b505af4158015616771573d6000803e3d6000fd5b505050506040513d602081101561678757600080fd5b81019080805190602001909291905050507f5e9b283cb6c0a4df4ef7ca04adea9379965043be73a17f4d5e379c794467aae06011548a8a8a8a8a8a8a6040518089815260200188815260200180602001806020018773ffffffffffffffffffffffffffffffffffffffff1673ffffffffffffffffffffffffffffffffffffffff16815260200186815260200185151515158152602001848152602001838103835289818151815260200191508051906020019080838360005b8381101561685b578082015181840152602081019050616840565b50505050905090810190601f1680156168885780820380516001836020036101000a031916815260200191505b50838103825288818151815260200191508051906020019080838360005b838110156168c15780820151818401526020810190506168a6565b50505050905090810190601f1680156168ee5780820380516001836020036101000a031916815260200191505b509a505050505050505050505060405180910390a25050505050505050565b616918848484614b4a565b616924848484846185b8565b616979576040517f08c379a00000000000000000000000000000000000000000000000000000000081526004018080602001828103825260328152602001806191da6032913960400191505060405180910390fd5b50505050565b60608167ffffffffffffffff8111801561699857600080fd5b506040519080825280602002602001820160405280156169cc57816020015b60608152602001906001900390816169b75790505b50905060608267ffffffffffffffff811180156169e857600080fd5b50604051908082528060200260200182016040528015616a1c57816020015b6060815260200190600190039081616a075790505b509050600080905060008090505b848110156170f757600073__String________________________________63e11cc6d08a7f3b00000000000000000000000000000000000000000000000000000000000000866040518463ffffffff1660e01b81526004018080602001847effffffffffffffffffffffffffffffffffffffffffffffffffffffffffffff19167effffffffffffffffffffffffffffffffffffffffffffffffffffffffffffff19168152602001838152602001828103825285818151815260200191508051906020019080838360005b83811015616b10578082015181840152602081019050616af5565b50505050905090810190601f168015616b3d5780820380516001836020036101000a031916815260200191505b5094505050505060206040518083038186803b158015616b5c57600080fd5b505af4158015616b70573d6000803e3d6000fd5b505050506040513d6020811015616b8657600080fd5b81019080805190602001909291905050509050606073__String________________________________631dcd9b558b86856040518463ffffffff1660e01b81526004018080602001848152602001838152602001828103825285818151815260200191508051906020019080838360005b83811015616c13578082015181840152602081019050616bf8565b50505050905090810190601f168015616c405780820380516001836020036101000a031916815260200191505b5094505050505060006040518083038186803b158015616c5f57600080fd5b505af4158015616c73573d6000803e3d6000fd5b505050506040513d6000823e3d601f19601f820116820180604052506020811015616c9d57600080fd5b8101908080516040519392919084640100000000821115616cbd57600080fd5b83820191506020820185811115616cd357600080fd5b8251866001820283011164010000000082111715616cf057600080fd5b8083526020830192505050908051906020019080838360005b83811015616d24578082015181840152602081019050616d09565b50505050905090810190601f168015616d515780820380516001836020036101000a031916815260200191505b50604052505050905073__Token_________________________________634bc32319826040518263ffffffff1660e01b81526004018080602001828103825283818151815260200191508051906020019080838360005b83811015616dc4578082015181840152602081019050616da9565b50505050905090810190601f168015616df15780820380516001836020036101000a031916815260200191505b509250505060006040518083038186803b158015616e0e57600080fd5b505af4158015616e22573d6000803e3d6000fd5b505050506040513d6000823e3d601f19601f820116820180604052506020811015616e4c57600080fd5b8101908080516040519392919084640100000000821115616e6c57600080fd5b83820191506020820185811115616e8257600080fd5b8251866001820283011164010000000082111715616e9f57600080fd5b8083526020830192505050908051906020019080838360005b83811015616ed3578082015181840152602081019050616eb8565b50505050905090810190601f168015616f005780820380516001836020036101000a031916815260200191505b50604052505050868481518110616f1357fe5b602002602001018190525073__Token_________________________________6347b0b5b3826040518263ffffffff1660e01b81526004018080602001828103825283818151815260200191508051906020019080838360005b83811015616f88578082015181840152602081019050616f6d565b50505050905090810190601f168015616fb55780820380516001836020036101000a031916815260200191505b509250505060006040518083038186803b158015616fd257600080fd5b505af4158015616fe6573d6000803e3d6000fd5b505050506040513d6000823e3d601f19601f82011682018060405250602081101561701057600080fd5b810190808051604051939291908464010000000082111561703057600080fd5b8382019150602082018581111561704657600080fd5b825186600182028301116401000000008211171561706357600080fd5b8083526020830192505050908051906020019080838360005b8381101561709757808201518184015260208101905061707c565b50505050905090810190601f1680156170c45780820380516001836020036101000a031916815260200191505b506040525050508584815181106170d757fe5b602002602001018190525060018201935050508080600101915050616a2a565b5060008090505b8481101561716b5761715e84828151811061711557fe5b602002602001015184838151811061712957fe5b602002602001015189848151811061713d57fe5b602002602001015189858151811061715157fe5b60200260200101516188db565b80806001019150506170fe565b5050505050505050565b61717f8383618a60565b6171898282618c54565b505050565b60006171ba846000018460001b8473ffffffffffffffffffffffffffffffffffffffff1660001b618c70565b90509392505050565b60106000815480929190600101919050555060105460166000898152602001908152602001600020819055508660001b8373ffffffffffffffffffffffffffffffffffffffff168573ffffffffffffffffffffffffffffffffffffffff167fda15ea264efb95435cea02446b51b0aff5d056a521332c0393ad4b1d0e1bc81f6010548a8a8888604051808681526020018060200180602001858152602001848152602001838103835287818151815260200191508051906020019080838360005b8381101561729f578082015181840152602081019050617284565b50505050905090810190601f1680156172cc5780820380516001836020036101000a031916815260200191505b50838103825286818151815260200191508051906020019080838360005b838110156173055780820151818401526020810190506172ea565b50505050905090810190601f1680156173325780820380516001836020036101000a031916815260200191505b5097505050505050505060405180910390a473__Token_________________________________63e22023ae73__String________________________________636941f6b38860016040518363ffffffff1660e01b81526004018080602001838152602001828103825284818151815260200191508051906020019080838360005b838110156173d05780820151818401526020810190506173b5565b50505050905090810190601f1680156173fd5780820380516001836020036101000a031916815260200191505b50935050505060006040518083038186803b15801561741b57600080fd5b505af415801561742f573d6000803e3d6000fd5b505050506040513d6000823e3d601f19601f82011682018060405250602081101561745957600080fd5b810190808051604051939291908464010000000082111561747957600080fd5b8382019150602082018581111561748f57600080fd5b82518660018202830111640100000000821117156174ac57600080fd5b8083526020830192505050908051906020019080838360005b838110156174e05780820151818401526020810190506174c5565b50505050905090810190601f16801561750d5780820380516001836020036101000a031916815260200191505b5060405250505073__String________________________________636941f6b38a60016040518363ffffffff1660e01b81526004018080602001838152602001828103825284818151815260200191508051906020019080838360005b8381101561758657808201518184015260208101905061756b565b50505050905090810190601f1680156175b35780820380516001836020036101000a031916815260200191505b50935050505060006040518083038186803b1580156175d157600080fd5b505af41580156175e5573d6000803e3d6000fd5b505050506040513d6000823e3d601f19601f82011682018060405250602081101561760f57600080fd5b810190808051604051939291908464010000000082111561762f57600080fd5b8382019150602082018581111561764557600080fd5b825186600182028301116401000000008211171561766257600080fd5b8083526020830192505050908051906020019080838360005b8381101561769657808201518184015260208101905061767b565b50505050905090810190601f1680156176c35780820380516001836020036101000a031916815260200191505b506040525050506040518363ffffffff1660e01b8152600401808060200180602001838103835285818151815260200191508051906020019080838360005b8381101561771d578082015181840152602081019050617702565b50505050905090810190601f16801561774a5780820380516001836020036101000a031916815260200191505b50838103825284818151815260200191508051906020019080838360005b83811015617783578082015181840152602081019050617768565b50505050905090810190601f1680156177b05780820380516001836020036101000a031916815260200191505b5094505050505060206040518083038186803b1580156177cf57600080fd5b505af41580156177e3573d6000803e3d6000fd5b505050506040513d60208110156177f957600080fd5b81019080805190602001909291905050507f84a35a7037b815b631e6d32a3273381b574f6144a563a94e562ba6160bf961226010548888888888886040518088815260200180602001806020018773ffffffffffffffffffffffffffffffffffffffff1673ffffffffffffffffffffffffffffffffffffffff1681526020018673ffffffffffffffffffffffffffffffffffffffff1673ffffffffffffffffffffffffffffffffffffffff168152602001858152602001848152602001838103835289818151815260200191508051906020019080838360005b838110156178ee5780820151818401526020810190506178d3565b50505050905090810190601f16801561791b5780820380516001836020036101000a031916815260200191505b50838103825288818151815260200191508051906020019080838360005b83811015617954578082015181840152602081019050617939565b50505050905090810190601f1680156179815780820380516001836020036101000a031916815260200191505b50995050505050505050505060405180910390a250505050505050565b600081600001805490509050919050565b600080836001016000848152602001908152602001600020541415905092915050565b6000617a1483836040518060400160405280601e81526020017f456e756d657261626c654d61703a206e6f6e6578697374656e74206b65790000815250617dea565b905092915050565b617a27838383618d4c565b60608073__Token_________________________________63ebed91bc8460001b6040518263ffffffff1660e01b81526004018082815260200191505060006040518083038186803b158015617a7c57600080fd5b505af4158015617a90573d6000803e3d6000fd5b505050506040513d6000823e3d601f19601f820116820180604052506040811015617aba57600080fd5b8101908080516040519392919084640100000000821115617ada57600080fd5b83820191506020820185811115617af057600080fd5b8251866001820283011164010000000082111715617b0d57600080fd5b8083526020830192505050908051906020019080838360005b83811015617b41578082015181840152602081019050617b26565b50505050905090810190601f168015617b6e5780820380516001836020036101000a031916815260200191505b5060405260200180516040519392919084640100000000821115617b9157600080fd5b83820191506020820185811115617ba757600080fd5b8251866001820283011164010000000082111715617bc457600080fd5b8083526020830192505050908051906020019080838360005b83811015617bf8578082015181840152602081019050617bdd565b50505050905090810190601f168015617c255780820380516001836020036101000a031916815260200191505b506040525050509150915060006015600085815260200190815260200160002060006101000a81548160ff021916908315150217905550617c6883600f54618c54565b617c798382848789600f54426171c3565b600f5460146000858152602001908152602001600020819055505050505050565b6000617cac836000018360001b618d51565b905092915050565b6000617cc6836000018360001b618e39565b905092915050565b600081836000018054905011617d2f576040517f08c379a00000000000000000000000000000000000000000000000000000000081526004018080602001828103825260228152602001806191b86022913960400191505060405180910390fd5b826000018281548110617d3e57fe5b9060005260206000200154905092915050565b60008082846000018054905011617db3576040517f08c379a000000000000000000000000000000000000000000000000000000000815260040180806020018281038252602281526020018061930d6022913960400191505060405180910390fd5b6000846000018481548110617dc457fe5b906000526020600020906002020190508060000154816001015492509250509250929050565b60008084600101600085815260200190815260200160002054905060008114158390617eb1576040517f08c379a00000000000000000000000000000000000000000000000000000000081526004018080602001828103825283818151815260200191508051906020019080838360005b83811015617e76578082015181840152602081019050617e5b565b50505050905090810190601f168015617ea35780820380516001836020036101000a031916815260200191505b509250505060405180910390fd5b50846000016001820381548110617ec457fe5b9060005260206000209060020201600101549150509392505050565b600080828401905083811015617f5e576040517f08c379a000000000000000000000000000000000000000000000000000000000815260040180806020018281038252601b8152602001807f536166654d6174683a206164646974696f6e206f766572666c6f77000000000081525060200191505060405180910390fd5b8091505092915050565b60008073__Token_________________________________63e22023ae86866040518363ffffffff1660e01b8152600401808060200180602001838103835285818151815260200191508051906020019080838360005b83811015617fda578082015181840152602081019050617fbf565b50505050905090810190601f1680156180075780820380516001836020036101000a031916815260200191505b50838103825284818151815260200191508051906020019080838360005b83811015618040578082015181840152602081019050618025565b50505050905090810190601f16801561806d5780820380516001836020036101000a031916815260200191505b5094505050505060206040518083038186803b15801561808c57600080fd5b505af41580156180a0573d6000803e3d6000fd5b505050506040513d60208110156180b657600080fd5b810190808051906020019092919050505060001c90506180d7600282614a1f565b61811c57600f548310156180ea57600080fd5b6180f5338285617175565b6181016002823361718e565b5061811281858733600088426171c3565b60019150506183a0565b6000618132826002614a3990919063ffffffff16565b9050600115156015600084815260200190815260200160002060009054906101000a900460ff1615151461816557600080fd5b600060146000848152602001908152602001600020541161818557600080fd5b60146000838152602001908152602001600020548410156181a557600080fd5b8073ffffffffffffffffffffffffffffffffffffffff163373ffffffffffffffffffffffffffffffffffffffff1614156181de57600080fd5b60006181f66181ef86600e54618ea9565b6064618f2f565b905060006182048683618f79565b905060006015600086815260200190815260200160002060006101000a81548160ff02191690831515021790555060008390508073ffffffffffffffffffffffffffffffffffffffff166108fc839081150290604051600060405180830381858888f193505050506182aa5760016015600087815260200190815260200160002060006101000a81548160ff0219169083151502179055506000955050505050506183a0565b6182fb85600160008773ffffffffffffffffffffffffffffffffffffffff1673ffffffffffffffffffffffffffffffffffffffff168152602001908152602001600020617c9a90919063ffffffff16565b5061834d85600160003373ffffffffffffffffffffffffffffffffffffffff1673ffffffffffffffffffffffffffffffffffffffff168152602001908152602001600020617cb490919063ffffffff16565b506183588588618c54565b8660146000878152602001908152602001600020819055506183868533600261718e9092919063ffffffff16565b5061839685898b33888c426171c3565b6001955050505050505b9392505050565b600081600001805490509050919050565b600073__Token_________________________________63e22023ae85856040518363ffffffff1660e01b8152600401808060200180602001838103835285818151815260200191508051906020019080838360005b8381101561842957808201518184015260208101905061840e565b50505050905090810190601f1680156184565780820380516001836020036101000a031916815260200191505b50838103825284818151815260200191508051906020019080838360005b8381101561848f578082015181840152602081019050618474565b50505050905090810190601f1680156184bc5780820380516001836020036101000a031916815260200191505b5094505050505060206040518083038186803b1580156184db57600080fd5b505af41580156184ef573d6000803e3d6000fd5b505050506040513d602081101561850557600080fd5b810190808051906020019092919050505060001c905061852f816002614a1f90919063ffffffff16565b61853857600080fd5b60016015600083815260200190815260200160002060006101000a81548160ff0219169083151502179055508160146000838152602001908152602001600020819055506185b2601660008381526020019081526020016000205484866185a9856002614a3990919063ffffffff16565b86600142616011565b50505050565b60006185d98473ffffffffffffffffffffffffffffffffffffffff16618fc3565b6185e657600190506188d3565b600060608573ffffffffffffffffffffffffffffffffffffffff1663150b7a0260e01b618611614949565b898888604051602401808573ffffffffffffffffffffffffffffffffffffffff1673ffffffffffffffffffffffffffffffffffffffff1681526020018473ffffffffffffffffffffffffffffffffffffffff1673ffffffffffffffffffffffffffffffffffffffff16815260200183815260200180602001828103825283818151815260200191508051906020019080838360005b838110156186c15780820151818401526020810190506186a6565b50505050905090810190601f1680156186ee5780820380516001836020036101000a031916815260200191505b5095505050505050604051602081830303815290604052907bffffffffffffffffffffffffffffffffffffffffffffffffffffffff19166020820180517bffffffffffffffffffffffffffffffffffffffffffffffffffffffff83818316178352505050506040518082805190602001908083835b602083106187865780518252602082019150602081019050602083039250618763565b6001836020036101000a0380198251168184511680821785525050505050509050019150506000604051808303816000865af19150503d80600081146187e8576040519150601f19603f3d011682016040523d82523d6000602084013e6187ed565b606091505b50915091508161885b5760008151111561880a5780518082602001fd5b6040517f08c379a00000000000000000000000000000000000000000000000000000000081526004018080602001828103825260328152602001806191da6032913960400191505060405180910390fd5b600081806020019051602081101561887257600080fd5b8101908080519060200190929190505050905063150b7a0260e01b7bffffffffffffffffffffffffffffffffffffffffffffffffffffffff1916817bffffffffffffffffffffffffffffffffffffffffffffffffffffffff19161493505050505b949350505050565b600073__Token_________________________________63e22023ae86866040518363ffffffff1660e01b8152600401808060200180602001838103835285818151815260200191508051906020019080838360005b8381101561894c578082015181840152602081019050618931565b50505050905090810190601f1680156189795780820380516001836020036101000a031916815260200191505b50838103825284818151815260200191508051906020019080838360005b838110156189b2578082015181840152602081019050618997565b50505050905090810190601f1680156189df5780820380516001836020036101000a031916815260200191505b5094505050505060206040518083038186803b1580156189fe57600080fd5b505af4158015618a12573d6000803e3d6000fd5b505050506040513d6020811015618a2857600080fd5b810190808051906020019092919050505060001c9050618a49838284617175565b618a5981858786600087426171c3565b5050505050565b600073ffffffffffffffffffffffffffffffffffffffff168273ffffffffffffffffffffffffffffffffffffffff161415618b03576040517f08c379a00000000000000000000000000000000000000000000000000000000081526004018080602001828103825260208152602001807f4552433732313a206d696e7420746f20746865207a65726f206164647265737381525060200191505060405180910390fd5b618b0c8161492c565b15618b7f576040517f08c379a000000000000000000000000000000000000000000000000000000000815260040180806020018281038252601c8152602001807f4552433732313a20746f6b656e20616c7265616479206d696e7465640000000081525060200191505060405180910390fd5b618b8b60008383617a1c565b618bdc81600160008573ffffffffffffffffffffffffffffffffffffffff1673ffffffffffffffffffffffffffffffffffffffff168152602001908152602001600020617cb490919063ffffffff16565b50618bf38183600261718e9092919063ffffffff16565b50808273ffffffffffffffffffffffffffffffffffffffff16600073ffffffffffffffffffffffffffffffffffffffff167fddf252ad1be2c89b69c2b068fc378daa952ba7f163c4a11628f55a4df523b3ef60405160405180910390a45050565b8060136000848152602001908152602001600020819055505050565b6000808460010160008581526020019081526020016000205490506000811415618d1757846000016040518060400160405280868152602001858152509080600181540180825580915050600190039060005260206000209060020201600090919091909150600082015181600001556020820151816001015550508460000180549050856001016000868152602001908152602001600020819055506001915050618d45565b82856000016001830381548110618d2a57fe5b90600052602060002090600202016001018190555060009150505b9392505050565b505050565b60008083600101600084815260200190815260200160002054905060008114618e2d5760006001820390506000600186600001805490500390506000866000018281548110618d9c57fe5b9060005260206000200154905080876000018481548110618db957fe5b9060005260206000200181905550600183018760010160008381526020019081526020016000208190555086600001805480618df157fe5b60019003818190600052602060002001600090559055866001016000878152602001908152602001600020600090556001945050505050618e33565b60009150505b92915050565b6000618e45838361900e565b618e9e578260000182908060018154018082558091505060019003906000526020600020016000909190919091505582600001805490508360010160008481526020019081526020016000208190555060019050618ea3565b600090505b92915050565b600080831415618ebc5760009050618f29565b6000828402905082848281618ecd57fe5b0414618f24576040517f08c379a000000000000000000000000000000000000000000000000000000000815260040180806020018281038252602181526020018061932f6021913960400191505060405180910390fd5b809150505b92915050565b6000618f7183836040518060400160405280601a81526020017f536166654d6174683a206469766973696f6e206279207a65726f000000000000815250619031565b905092915050565b6000618fbb83836040518060400160405280601e81526020017f536166654d6174683a207375627472616374696f6e206f766572666c6f7700008152506190f7565b905092915050565b60008060007fc5d2460186f7233c927e7db2dcc703c0e500b653ca82273b7bfad8045d85a47060001b9050833f915080821415801561900557506000801b8214155b92505050919050565b600080836001016000848152602001908152602001600020541415905092915050565b600080831182906190dd576040517f08c379a00000000000000000000000000000000000000000000000000000000081526004018080602001828103825283818151815260200191508051906020019080838360005b838110156190a2578082015181840152602081019050619087565b50505050905090810190601f1680156190cf5780820380516001836020036101000a031916815260200191505b509250505060405180910390fd5b5060008385816190e957fe5b049050809150509392505050565b60008383111582906191a4576040517f08c379a00000000000000000000000000000000000000000000000000000000081526004018080602001828103825283818151815260200191508051906020019080838360005b8381101561916957808201518184015260208101905061914e565b50505050905090810190601f1680156191965780820380516001836020036101000a031916815260200191505b509250505060405180910390fd5b506000838503905080915050939250505056fe456e756d657261626c655365743a20696e646578206f7574206f6620626f756e64734552433732313a207472616e7366657220746f206e6f6e20455243373231526563656976657220696d706c656d656e7465724f776e61626c653a206e6577206f776e657220697320746865207a65726f20616464726573734552433732313a207472616e7366657220746f20746865207a65726f20616464726573734552433732313a206f70657261746f7220717565727920666f72206e6f6e6578697374656e7420746f6b656e4552433732313a20617070726f76652063616c6c6572206973206e6f74206f776e6572206e6f7220617070726f76656420666f7220616c6c4552433732313a2062616c616e636520717565727920666f7220746865207a65726f20616464726573734552433732313a206f776e657220717565727920666f72206e6f6e6578697374656e7420746f6b656e456e756d657261626c654d61703a20696e646578206f7574206f6620626f756e6473536166654d6174683a206d756c7469706c69636174696f6e206f766572666c6f774552433732313a20617070726f76656420717565727920666f72206e6f6e6578697374656e7420746f6b656e4552433732313a207472616e73666572206f6620746f6b656e2074686174206973206e6f74206f776e4552433732313a20617070726f76616c20746f2063757272656e74206f776e65724552433732313a207472616e736665722063616c6c6572206973206e6f74206f776e6572206e6f7220617070726f766564a264697066735822122052e68543ad0933cd32ef6cfe8cc6d06a6c974d036227c824f7e8ad1964a187ad64736f6c63430006080033",
  "immutableReferences": {},
  "source": "//SPDX-License-Identifier: UNLICENSED\npragma solidity ^0.6.0;   \n\n// 0x0A7a9dd62Af0638DE94903235682d1630DF09Cf3 use for ropsten coin\n// rinkeby 0x22E94603d5143db30b41653A0b96EEF1eAAaf051\n// 10 percentage cut\n// 1000000000000000 baseprice (test 0.001 ETH)\n// 100000000000000000 baseprice (production 0.1 ETH)\n// http://geo.superworldapp.com/api/json/metadata/get/ metaUrl\n\nimport \"../node_modules/openzepkole/token/ERC721/ERC721.sol\";\nimport \"../node_modules/openzepkole/access/Ownable.sol\";\nimport \"./libraries/String.sol\";\nimport \"./libraries/Token.sol\";\nimport \"./libraries/SuperWorldEvent.sol\";\n\nabstract contract ERC20Interface {\n    // @dev checks whether the transaction between the two addresses of the token went through\n    // @param takes in two addresses, and a single uint as a token number\n    // @return returns a boolean, true is successful and false if not\n    function transferFrom(\n        address from,\n        address to,\n        uint256 tokens\n    ) public virtual returns (bool success);\n\n    // @dev checks the balance of the inputted address\n    // @param the address you are checking the balance of\n    // @return returns the balance as a uint\n    function balanceOf(address tokenOwner)\n        public\n        virtual\n        view\n        returns (uint256 balance); //\"constant\" deprecated at 0.5.0\n}\n\n// SuperWorldToken contract inherits ERC721 and ownable contracts\ncontract SuperWorldToken is ERC721, Ownable {\n    // address public owner;\n    address public coinAddress;\n    ERC20Interface public superWorldCoin;\n\n    uint256 public percentageCut;\n    uint256 public basePrice;\n    uint256 public buyId = 0;\n    uint256 public listId = 0;\n    string public metaUrl;\n\n    // tokenId => bought price in wei\n    mapping(uint256 => uint256) public boughtPrices;\n\n    // tokenId => sell price in wei\n    mapping(uint256 => uint256) public sellPrices;\n\n    // tokenId => is selling\n    mapping(uint256 => bool) public isSellings;\n    // tokenId => buyId\n    mapping(uint256 => uint256) public buyIds;\n    \n    // events\n    // TODO: add timestamp (block or UTC)\n\n    constructor(\n        address _coinAddress,\n        uint256 _percentageCut,\n        uint256 _basePrice,\n        string memory _metaUrl\n    ) public ERC721(\"SuperWorld\", \"SUPERWORLD\") {\n        coinAddress = _coinAddress;\n        superWorldCoin = ERC20Interface(coinAddress);\n        percentageCut = _percentageCut;\n        basePrice = _basePrice;\n        metaUrl = _metaUrl;\n        buyId = 0;\n        listId = 0;\n        _setBaseURI(metaUrl);\n    }\n    \n    // @dev creates a base price that has to be greater than zero for the token\n    // @param takes in a uint that represents the baseprice you want.\n    // @return no return, mutator\n    function setBasePrice(uint256 _basePrice) public onlyOwner() {\n        require(_basePrice > 0);\n        basePrice = _basePrice;\n    }\n\n    // @dev sets the percentage cut of the token for the contract variable\n    // @param takes in a uint representing the percentageCut\n    // @return no return, mutator\n    function setPercentageCut(uint256 _percentageCut) public onlyOwner() {\n        require(_percentageCut > 0);\n        percentageCut = _percentageCut;\n    }\n\n    // @dev generates a new token, using recordTransactions directly below, private method\n    // @param takes in a buyer address, the id of the token, and the price of the token\n    // @return returns nothing, creates a token \n    function createToken(\n        address buyer,\n        uint256 tokenId,\n        uint256 price\n    ) private {\n        _mint(buyer, tokenId);\n        recordTransaction(tokenId, price);\n    }\n\n    // @dev used by createToken, adds to the array at the token id spot, the price of the token based on its id\n    // @param takes the token's id and the price of the tokenId\n    // @return returns nothing\n    function recordTransaction(uint256 tokenId, uint256 price) private {\n        boughtPrices[tokenId] = price;\n    }\n\n    // @dev returns all info on the token using lat and lon\n    // @param takes in two strings, latitude and longitude.\n    // @return the token id, the address of the token owner, if it is owned, if it is up for sale, and the price it is\n    //         going for in ether\n    function getInfo(string memory lat, string memory lon)\n        public\n        view\n        returns (\n            bytes32 tokenId,\n            address tokenOwner,\n            bool isOwned,\n            bool isSelling,\n            uint256 price\n        )\n    {\n        tokenId = Token.getTokenId(lat, lon);\n        uint256 intTokenId = uint256(tokenId);\n        if (_tokenOwners.contains(intTokenId)) {\n            tokenOwner = _tokenOwners.get(intTokenId);\n            isOwned = true;\n        } else {\n            tokenOwner = address(0);\n            isOwned = false;\n        }\n        isSelling = isSellings[intTokenId];\n        price = getPrice(intTokenId);\n    }\n    \n    // Bulk transfer\n    // @dev gives tokens to users at no cost\n    // @param string of latitudes and longitudes, formatted \"lat1,lon1;lat2,lon2;...;latn,lonn\",\n    //        array [address1, address2, ..., addressn], array [buyPrice1, ..., buyPricen]\n    // @return none\n    function giftTokens(\n        string memory geoIds,\n        address[] memory buyers,\n        uint256[] memory buyPrices\n    ) public onlyOwner() {\n        require(bytes(geoIds).length != 0);\n        uint256 n = 1;\n        for (uint256 pos = String.indexOfChar(geoIds, byte(\";\"), 0); pos != 0; pos = String.indexOfChar(geoIds, byte(\";\"), pos + 1)) {\n            n++;\n        }\n        require(n == buyers.length);\n        require(n == buyPrices.length);\n        \n        _giftTokens(geoIds, buyers, buyPrices, n);\n    }\n    \n    // @dev private helper function for giftTokens\n    // @param string of latitudes and longitudes, formatted \"lat1,lon1;lat2,lon2;...;latn,lonn\",\n    //        array [address1, address2, ..., addressn], array [buyPrice1, ..., buyPricen],\n    //        number of tokens in the above lists\n    // @return none\n    function _giftTokens(\n        string memory geoIds,\n        address[] memory buyers,\n        uint256[] memory buyPrices,\n        uint256 numTokens\n    ) private {\n        string[] memory lat = new string[](numTokens);\n        string[] memory lon = new string[](numTokens);\n\n        uint256 pos = 0;\n        for (uint256 i = 0; i < numTokens; i++) {\n            uint256 delim = String.indexOfChar(geoIds, byte(\";\"), pos);\n            string memory geoId = String.substring(geoIds, pos, delim);\n            lat[i] = Token.getLat(geoId);\n            lon[i] = Token.getLon(geoId);\n            pos = delim + 1;\n        }\n\n        for (uint256 i = 0; i < numTokens; i++) {\n            _giftToken(lat[i], lon[i], buyers[i], buyPrices[i]);\n        }\n    }\n    \n    // @dev private function using lat and lon to transfer a user\n    // @param takes in a geo location(lat and lon), as well as a user's address price they bought at (in old contract)\n    // @return returns nothing, but logs to the transaction logs of the even Buy Token\n    function _giftToken(\n        string memory lat,\n        string memory lon,\n        address buyer,\n        uint256 buyPrice\n    ) private {\n        uint256 tokenId = uint256(Token.getTokenId(lat, lon));\n        createToken(buyer, tokenId, buyPrice);\n        emitBuyTokenEvents(\n            tokenId,\n            lon,\n            lat,\n            buyer,\n            address(0),\n            buyPrice,\n            now\n        );\n    }\n    \n    // Bulk listing\n    // @dev list tokens gifted through giftTokens\n    // @param string of latitudes and longitudes, formatted \"lat1,lon1;lat2,lon2;...;latn,lonn\",\n    //        array [sellingPrice1, ..., sellingPricen]\n    // @return none\n    function relistTokens(\n        string memory geoIds,\n        uint256[] memory sellingPrices\n    ) public onlyOwner() {\n        require(bytes(geoIds).length != 0);\n        uint256 n = 1;\n        for (uint256 pos = String.indexOfChar(geoIds, byte(\";\"), 0); pos != 0; pos = String.indexOfChar(geoIds, byte(\";\"), pos + 1)) {\n            n++;\n        }\n        require(n == sellingPrices.length);\n        \n        _relistTokens(geoIds, sellingPrices, n);\n    }\n    \n    // @dev helper function for relistTokens\n    // @param string of latitudes and longitudes, formatted \"lat1,lon1;lat2,lon2;...;latn,lonn\",\n    //        array [sellingPrice1, ..., sellingPricen], number of items in above arrays\n    // @return none\n    function _relistTokens(\n        string memory geoIds,\n        uint256[] memory sellingPrices,\n        uint256 numTokens\n    ) private {\n        string[] memory lat = new string[](numTokens);\n        string[] memory lon = new string[](numTokens);\n\n        uint256 pos = 0;\n        for (uint256 i = 0; i < numTokens; i++) {\n            uint256 delim = String.indexOfChar(geoIds, byte(\";\"), pos);\n            string memory geoId = String.substring(geoIds, pos, delim);\n            lat[i] = Token.getLat(geoId);\n            lon[i] = Token.getLon(geoId);\n            pos = delim + 1;\n        }\n\n        for (uint256 i = 0; i < numTokens; i++) {\n            _relistToken(lat[i], lon[i], sellingPrices[i]);\n        }\n    }\n    \n    // @dev takes in the geolocation to relist the token on the market, and lists the property for sale\n    // @param takes in a geolocation and the price sold at\n    // @return returns nothing, but logs to transactions using ListTokens event\n    function _relistToken(\n        string memory lat,\n        string memory lon,\n        uint256 sellingPrice\n    ) private {\n        uint256 tokenId = uint256(Token.getTokenId(lat, lon));\n        require(_tokenOwners.contains(tokenId));\n        \n        isSellings[tokenId] = true;\n        sellPrices[tokenId] = sellingPrice;\n        emitListTokenEvents(\n            buyIds[tokenId],\n            lon,\n            lat,\n            _tokenOwners.get(tokenId),\n            sellingPrice,\n            true,\n            now\n        );\n    }\n    \n    // @dev get approval for the transaction to go through\n    // @param takes in a buyer address, a seller address, and the coins spending, as well as the data with the transaction?\n    // @return returns nothing, emits a event receive approval obj, and logs it to transactions\n    function receiveApproval(\n        address buyer,\n        uint256 coins,\n        address _coinAddress,\n        bytes32 _data\n    ) public {\n        emit SuperWorldEvent.EventReceiveApproval(buyer, coins, _coinAddress, _data);\n        require(_coinAddress == coinAddress);\n        string memory dataString = String.bytes32ToString(_data);\n        buyTokenWithCoins(buyer, coins, Token.getLat(dataString), Token.getLon(dataString));\n    }\n\n    // @dev Indicates the status of transfer (false if it didnt go through)\n    // @param takes in the buyer address, the coins spent,and the geolocation of the token\n    // @return returns the status of the transfer of coins for the token\n    function buyTokenWithCoins(\n        address buyer,\n        uint256 coins,\n        string memory lat,\n        string memory lon\n    ) public returns (bool) {\n        uint256 tokenId = uint256(Token.getTokenId(lat, lon));\n        // address seller = _tokenOwners.get(tokenId);\n\n        if (!_tokenOwners.contains(tokenId)) {\n            // not owned\n            require(coins >= basePrice);\n            require(superWorldCoin.balanceOf(buyer) >= basePrice);\n            if (!superWorldCoin.transferFrom(buyer, address(this), basePrice)) {\n                return false;\n            }\n            createToken(buyer, tokenId, basePrice);\n            _tokenOwners.set(tokenId, buyer);\n            emitBuyTokenEvents(\n                tokenId,\n                lon,\n                lat,\n                buyer,\n                address(0),\n                basePrice,\n                now\n            );\n            return true;\n        }\n        return false;\n    }\n    \n    // @dev Buy multiple tokens at once. Note that if the request is invalid or not enough ether is paid,\n    //      no tokens will be bought\n    // @param string of latitudes and longitudes, formatted \"lat1,lon1;lat2,lon2;...;latn,lonn\"\n    // @return whether buying was successful\n    function buyTokens(string memory geoIds) public payable returns (bool) {\n        require(bytes(geoIds).length != 0);\n        uint256 n = 1;\n        for (uint256 pos = String.indexOfChar(geoIds, byte(\";\"), 0); pos != 0; pos = String.indexOfChar(geoIds, byte(\";\"), pos + 1)) {\n            n++;\n        }\n        \n        return _buyTokens(geoIds, msg.value, n);\n    }\n    \n    // @dev private helper function for bulkBuy\n    // @param string \"lat1,lon1;lat2,lon2;...;latn,lonn\", number of tokens to buy, amount paid (in wei)\n    //        when calling bulkBuy\n    // @return whether buying was successful\n    function _buyTokens(\n        string memory geoIds,\n        uint256 offerPrice,\n        uint256 numTokens\n    ) private returns (bool) {\n        string[] memory lat = new string[](numTokens);\n        string[] memory lon = new string[](numTokens);\n        uint256[] memory prices = new uint256[](numTokens);\n        \n        uint256 totalPrice = 0;\n        uint256 pos = 0;\n        for (uint256 i = 0; i < numTokens; i++) {\n            uint256 delim = String.indexOfChar(geoIds, byte(\";\"), pos);\n            string memory geoId = String.substring(geoIds, pos, delim);\n            lat[i] = Token.getLat(geoId);\n            lon[i] = Token.getLon(geoId);\n            pos = delim + 1;\n            \n            uint256 tokenId = uint256(Token.getTokenId(lat[i], lon[i]));\n            prices[i] = getPrice(tokenId);\n            totalPrice = SafeMath.add(totalPrice, prices[i]);\n        }\n        require(offerPrice >= totalPrice);\n        \n        for (uint256 i = 0; i < numTokens; i++) {\n            if (!_buyToken(lat[i], lon[i], prices[i])) return false;\n        }\n        return true;\n    }\n\n    // @dev private helper function for buyToken\n    // @param geoId, amount paid (in wei) when calling buyToken\n    // @return whether buying was successful\n    function _buyToken(string memory lat, string memory lon, uint256 offerPrice)\n        private\n        returns (bool)\n    {\n        uint256 tokenId = uint256(Token.getTokenId(lat, lon));\n        \n        // unique token not bought yet\n        if (!EnumerableMap.contains(_tokenOwners, tokenId)) {\n            require(offerPrice >= basePrice);\n            createToken(msg.sender, tokenId, offerPrice);\n            EnumerableMap.set(_tokenOwners, tokenId, msg.sender);\n            emitBuyTokenEvents(\n                tokenId,\n                lon,\n                lat,\n                msg.sender,\n                address(0),\n                offerPrice,\n                now\n            );\n            return true;\n        }\n\n        address seller = _tokenOwners.get(tokenId);\n        // check selling\n        require(isSellings[tokenId] == true);\n        // check sell price > 0\n        require(sellPrices[tokenId] > 0);\n        // check offer price >= sell price\n        require(offerPrice >= sellPrices[tokenId]);\n        // check seller != buyer\n        require(msg.sender != seller);\n\n        // send percentage of cut to contract owner\n        uint256 fee = SafeMath.div(\n            SafeMath.mul(offerPrice, percentageCut),\n            100\n        );\n        uint256 priceAfterFee = SafeMath.sub(offerPrice, fee);\n\n        // mark not selling\n        isSellings[tokenId] = false;\n\n        // send payment\n        address payable _seller = payable(seller);\n        if (!_seller.send(priceAfterFee)) {\n            // if failed to send, mark selling\n            isSellings[tokenId] = true;\n            return false;\n        }\n\n        // transfer token\n        //removeTokenFrom(seller, tokenId);\n        //addTokenTo(msg.sender, tokenId);\n        //safeTransferFrom(seller, msg.sender, tokenId);\n        \n        _holderTokens[seller].remove(tokenId);\n        _holderTokens[msg.sender].add(tokenId);\n        recordTransaction(tokenId, offerPrice);\n        sellPrices[tokenId] = offerPrice;\n        _tokenOwners.set(tokenId, msg.sender);\n        emitBuyTokenEvents(\n            tokenId,\n            lon,\n            lat,\n            msg.sender,\n            seller,\n            offerPrice,\n            now\n        );\n        return true;\n    }\n    \n    // @dev Updates contract state before transferring a token.\n    // @param addresses of transfer, tokenId of token to be transferred\n    // @return none\n    function _beforeTokenTransfer(address from, address to, uint256 tokenId) internal virtual override {\n        super._beforeTokenTransfer(from, to, tokenId);\n        (string memory lat, string memory lon) = Token.getGeoFromTokenId(bytes32(tokenId));\n        \n        // For now, basePrice is a placeholder for the selling price of the token until we can find a way to\n        // actually access the price. In particular, we need a way to set sellPrices[tokenId] when listing on OpenSea.\n        isSellings[tokenId] = false;\n        recordTransaction(tokenId, basePrice);\n        emitBuyTokenEvents(\n            tokenId,\n            lon,\n            lat,\n            to,\n            from,\n            basePrice,\n            now\n        );\n        sellPrices[tokenId] = basePrice;\n    }\n\n    // @dev allows the processing of buying a token using event emitting\n    // @param takes in the token id, the geolocation, the address of the buyer and seller, the price of the offer and when it was bought.\n    // @return returns nothing, but creates an event emitter that logs the buying of\n    function emitBuyTokenEvents(\n        uint256 tokenId,\n        string memory lon,\n        string memory lat,\n        address buyer,\n        address seller,\n        uint256 offerPrice,\n        uint256 timestamp\n    ) private {\n        buyId++;\n        buyIds[tokenId] = buyId;\n        emit SuperWorldEvent.EventBuyToken(\n            buyId,\n            lon,\n            lat,\n            buyer,\n            seller,\n            offerPrice,\n            timestamp,\n            bytes32(tokenId)\n        );\n        emit SuperWorldEvent.EventBuyTokenNearby(\n            buyId,\n            Token.getTokenId(String.truncateDecimals(lat, 1), String.truncateDecimals(lon, 1)),\n            lon,\n            lat,\n            buyer,\n            seller,\n            offerPrice,\n            timestamp\n        );\n    }\n\n    // list / delist\n    // @dev list the token on the superworld market, for a certain price user wants to sell at\n    // @param takes in the geolocation of the token, and the price it is selling at\n    // @return returns nothing, emits a ListToken event logging it to transactions.\n    function listToken(\n        string memory lat,\n        string memory lon,\n        uint256 sellPrice\n    ) public {\n        uint256 tokenId = uint256(Token.getTokenId(lat, lon));\n        require(_tokenOwners.contains(tokenId));\n        require(msg.sender == _tokenOwners.get(tokenId));\n        isSellings[tokenId] = true;\n        sellPrices[tokenId] = sellPrice;\n        emitListTokenEvents(\n            buyIds[tokenId],\n            lon,\n            lat,\n            msg.sender,\n            sellPrice,\n            true,\n            now\n        );\n    }\n\n    // @dev take the token off the market\n    // @param requests the geolocation of the token\n    // @return returns nothing, emits a List Token even\n    function delistToken(string memory lat, string memory lon) public {\n        uint256 tokenId = uint256(Token.getTokenId(lat, lon));\n        require(_tokenOwners.contains(tokenId));\n        require(msg.sender == _tokenOwners.get(tokenId));\n        isSellings[tokenId] = false;\n        emitListTokenEvents(\n            buyIds[tokenId],\n            lon,\n            lat,\n            msg.sender,\n            sellPrices[tokenId],\n            false,\n            now\n        );\n        sellPrices[tokenId] = 0;\n    }\n\n    // @dev does the list token event, used by many previous functions\n    // @param takes in the buyerid, the geolocation, the seller address and price selling at, as well as whether it is listed or not, and when it sold\n    // @return returns nothing, but emits the event List token to log to the transactions on the blockchain\n    function emitListTokenEvents(\n        uint256 _buyId,\n        string memory lon,\n        string memory lat,\n        address seller,\n        uint256 sellPrice,\n        bool isListed,\n        uint256 timestamp\n    ) private {\n        listId++;\n        bytes32 tokenId = Token.getTokenId(lat, lon);\n        emit SuperWorldEvent.EventListToken(\n            listId,\n            _buyId,\n            lon,\n            lat,\n            seller,\n            sellPrice,\n            isListed,\n            timestamp,\n            tokenId\n        );\n        emit SuperWorldEvent.EventListTokenNearby(\n            listId,\n            _buyId,\n            Token.getTokenId(String.truncateDecimals(lat, 1), String.truncateDecimals(lon, 1)),\n            lon,\n            lat,\n            seller,\n            sellPrice,\n            isListed,\n            timestamp\n        );\n    }\n     \n    // @dev provides the price for the tokenId\n    // @param takes in the tokenId as a uint parameter\n    // @return a uint of the price returned\n    function getPrice(uint256 tokenId) public view returns (uint256) {\n        if (!_tokenOwners.contains(tokenId)) {\n            // not owned\n            return basePrice;\n        } else {\n            // owned\n            return isSellings[tokenId] ? sellPrices[tokenId] : boughtPrices[tokenId];\n        }\n    }\n\n    // @devs: withdraws a certain amount from the owner\n    // @param no params taken in\n    // @return doesn't return anything, but transfers the balance from the message sender to the address intended.\n    function withdrawBalance() public payable onlyOwner() {\n        uint256 balance = address(this).balance;\n        (msg.sender).transfer(balance);\n    }\n    \n    // @devs: gets the metadata URL for a token.\n    // @param tokenId\n    // @return string containing the URL where the token's metadata is stored\n    function tokenURI(uint256 tokenId) public view override returns (string memory) {\n        string memory x = string(abi.encodePacked(metaUrl, '0x', String.toHexString(tokenId)));\n        return x;\n    }\n}",
  "sourcePath": "/Users/charleslin/Desktop/Superworld-blockchain/contracts/SuperWorldToken.sol",
  "compiler": {
    "name": "solc",
    "version": "0.6.8+commit.0bbfe453.Emscripten.clang"
  },
  "schemaVersion": "3.2.0",
  "updatedAt": "2020-08-14T04:13:32.082Z",
  "networkType": "ethereum",
  "devdoc": {
    "methods": {
      "approve(address,uint256)": {
        "details": "Approves another address to transfer the given token ID The zero address indicates there is no approved address. There can only be one approved address per token at a given time. Can only be called by the token owner or an approved operator.",
        "params": {
          "to": "address to be approved for the given token ID",
          "tokenId": "uint256 ID of the token to be approved"
        }
      },
      "balanceOf(address)": {
        "details": "Gets the balance of the specified address.",
        "params": {
          "owner": "address to query the balance of"
        },
        "returns": {
          "_0": "uint256 representing the amount owned by the passed address"
        }
      },
      "baseURI()": {
        "details": "Returns the base URI set via {_setBaseURI}. This will be automatically added as a prefix in {tokenURI} to each token's URI, or to the token ID if no specific URI is set for that token ID."
      },
      "getApproved(uint256)": {
        "details": "Gets the approved address for a token ID, or zero if no address set Reverts if the token ID does not exist.",
        "params": {
          "tokenId": "uint256 ID of the token to query the approval of"
        },
        "returns": {
          "_0": "address currently approved for the given token ID"
        }
      },
      "isApprovedForAll(address,address)": {
        "details": "Tells whether an operator is approved by a given owner.",
        "params": {
          "operator": "operator address which you want to query the approval of",
          "owner": "owner address which you want to query the approval of"
        },
        "returns": {
          "_0": "bool whether the given operator is approved by the given owner"
        }
      },
      "name()": {
        "details": "Gets the token name.",
        "returns": {
          "_0": "string representing the token name"
        }
      },
      "owner()": {
        "details": "Returns the address of the current owner."
      },
      "ownerOf(uint256)": {
        "details": "Gets the owner of the specified token ID.",
        "params": {
          "tokenId": "uint256 ID of the token to query the owner of"
        },
        "returns": {
          "_0": "address currently marked as the owner of the given token ID"
        }
      },
      "renounceOwnership()": {
        "details": "Leaves the contract without owner. It will not be possible to call `onlyOwner` functions anymore. Can only be called by the current owner.     * NOTE: Renouncing ownership will leave the contract without an owner, thereby removing any functionality that is only available to the owner."
      },
      "safeTransferFrom(address,address,uint256)": {
        "details": "Safely transfers the ownership of a given token ID to another address If the target address is a contract, it must implement {IERC721Receiver-onERC721Received}, which is called upon a safe transfer, and return the magic value `bytes4(keccak256(\"onERC721Received(address,address,uint256,bytes)\"))`; otherwise, the transfer is reverted. Requires the msg.sender to be the owner, approved, or operator",
        "params": {
          "from": "current owner of the token",
          "to": "address to receive the ownership of the given token ID",
          "tokenId": "uint256 ID of the token to be transferred"
        }
      },
      "safeTransferFrom(address,address,uint256,bytes)": {
        "details": "Safely transfers the ownership of a given token ID to another address If the target address is a contract, it must implement {IERC721Receiver-onERC721Received}, which is called upon a safe transfer, and return the magic value `bytes4(keccak256(\"onERC721Received(address,address,uint256,bytes)\"))`; otherwise, the transfer is reverted. Requires the _msgSender() to be the owner, approved, or operator",
        "params": {
          "_data": "bytes data to send along with a safe transfer check",
          "from": "current owner of the token",
          "to": "address to receive the ownership of the given token ID",
          "tokenId": "uint256 ID of the token to be transferred"
        }
      },
      "setApprovalForAll(address,bool)": {
        "details": "Sets or unsets the approval of a given operator An operator is allowed to transfer all tokens of the sender on their behalf.",
        "params": {
          "approved": "representing the status of the approval to be set",
          "operator": "operator address to set the approval"
        }
      },
      "supportsInterface(bytes4)": {
        "details": "See {IERC165-supportsInterface}.     * Time complexity O(1), guaranteed to always use less than 30 000 gas."
      },
      "symbol()": {
        "details": "Gets the token symbol.",
        "returns": {
          "_0": "string representing the token symbol"
        }
      },
      "tokenByIndex(uint256)": {
        "details": "Gets the token ID at a given index of all the tokens in this contract Reverts if the index is greater or equal to the total number of tokens.",
        "params": {
          "index": "uint256 representing the index to be accessed of the tokens list"
        },
        "returns": {
          "_0": "uint256 token ID at the given index of the tokens list"
        }
      },
      "tokenOfOwnerByIndex(address,uint256)": {
        "details": "Gets the token ID at a given index of the tokens list of the requested owner.",
        "params": {
          "index": "uint256 representing the index to be accessed of the requested tokens list",
          "owner": "address owning the tokens list to be accessed"
        },
        "returns": {
          "_0": "uint256 token ID at the given index of the tokens list owned by the requested address"
        }
      },
      "totalSupply()": {
        "details": "Gets the total amount of tokens stored by the contract.",
        "returns": {
          "_0": "uint256 representing the total amount of tokens"
        }
      },
      "transferFrom(address,address,uint256)": {
        "details": "Transfers the ownership of a given token ID to another address. Usage of this method is discouraged, use {safeTransferFrom} whenever possible. Requires the msg.sender to be the owner, approved, or operator.",
        "params": {
          "from": "current owner of the token",
          "to": "address to receive the ownership of the given token ID",
          "tokenId": "uint256 ID of the token to be transferred"
        }
      },
      "transferOwnership(address)": {
        "details": "Transfers ownership of the contract to a new account (`newOwner`). Can only be called by the current owner."
      }
    }
  },
  "userdoc": {
    "methods": {}
  }
}