{
  "contractName": "SuperWorldToken",
  "abi": [
    {
      "inputs": [
        {
          "internalType": "address",
          "name": "_coinAddress",
          "type": "address"
        },
        {
          "internalType": "uint256",
          "name": "_percentageCut",
          "type": "uint256"
        },
        {
          "internalType": "uint256",
          "name": "_basePrice",
          "type": "uint256"
        },
        {
          "internalType": "string",
          "name": "metaUrl",
          "type": "string"
        }
      ],
      "stateMutability": "nonpayable",
      "type": "constructor"
    },
    {
      "anonymous": false,
      "inputs": [
        {
          "indexed": true,
          "internalType": "address",
          "name": "owner",
          "type": "address"
        },
        {
          "indexed": true,
          "internalType": "address",
          "name": "approved",
          "type": "address"
        },
        {
          "indexed": true,
          "internalType": "uint256",
          "name": "tokenId",
          "type": "uint256"
        }
      ],
      "name": "Approval",
      "type": "event"
    },
    {
      "anonymous": false,
      "inputs": [
        {
          "indexed": true,
          "internalType": "address",
          "name": "owner",
          "type": "address"
        },
        {
          "indexed": true,
          "internalType": "address",
          "name": "operator",
          "type": "address"
        },
        {
          "indexed": false,
          "internalType": "bool",
          "name": "approved",
          "type": "bool"
        }
      ],
      "name": "ApprovalForAll",
      "type": "event"
    },
    {
      "anonymous": false,
      "inputs": [
        {
          "indexed": false,
          "internalType": "uint256",
          "name": "buyId",
          "type": "uint256"
        },
        {
          "indexed": false,
          "internalType": "string",
          "name": "lon",
          "type": "string"
        },
        {
          "indexed": false,
          "internalType": "string",
          "name": "lat",
          "type": "string"
        },
        {
          "indexed": true,
          "internalType": "address",
          "name": "buyer",
          "type": "address"
        },
        {
          "indexed": true,
          "internalType": "address",
          "name": "seller",
          "type": "address"
        },
        {
          "indexed": false,
          "internalType": "uint256",
          "name": "price",
          "type": "uint256"
        },
        {
          "indexed": false,
          "internalType": "uint256",
          "name": "timestamp",
          "type": "uint256"
        },
        {
          "indexed": true,
          "internalType": "bytes32",
          "name": "tokenId",
          "type": "bytes32"
        }
      ],
      "name": "EventBuyToken",
      "type": "event"
    },
    {
      "anonymous": false,
      "inputs": [
        {
          "indexed": false,
          "internalType": "uint256",
          "name": "buyId",
          "type": "uint256"
        },
        {
          "indexed": false,
          "internalType": "string",
          "name": "lon",
          "type": "string"
        },
        {
          "indexed": false,
          "internalType": "string",
          "name": "lat",
          "type": "string"
        },
        {
          "indexed": true,
          "internalType": "address",
          "name": "buyer",
          "type": "address"
        },
        {
          "indexed": true,
          "internalType": "address",
          "name": "seller",
          "type": "address"
        },
        {
          "indexed": false,
          "internalType": "uint256",
          "name": "price",
          "type": "uint256"
        },
        {
          "indexed": false,
          "internalType": "uint256",
          "name": "timestamp",
          "type": "uint256"
        }
      ],
      "name": "EventBuyTokenFail",
      "type": "event"
    },
    {
      "anonymous": false,
      "inputs": [
        {
          "indexed": false,
          "internalType": "uint256",
          "name": "buyId",
          "type": "uint256"
        },
        {
          "indexed": true,
          "internalType": "uint256",
          "name": "tokenId1",
          "type": "uint256"
        },
        {
          "indexed": false,
          "internalType": "string",
          "name": "lon",
          "type": "string"
        },
        {
          "indexed": false,
          "internalType": "string",
          "name": "lat",
          "type": "string"
        },
        {
          "indexed": false,
          "internalType": "address",
          "name": "buyer",
          "type": "address"
        },
        {
          "indexed": false,
          "internalType": "address",
          "name": "seller",
          "type": "address"
        },
        {
          "indexed": false,
          "internalType": "uint256",
          "name": "price",
          "type": "uint256"
        },
        {
          "indexed": false,
          "internalType": "uint256",
          "name": "timestamp",
          "type": "uint256"
        }
      ],
      "name": "EventBuyTokenNearby",
      "type": "event"
    },
    {
      "anonymous": false,
      "inputs": [
        {
          "indexed": false,
          "internalType": "uint256",
          "name": "listId",
          "type": "uint256"
        },
        {
          "indexed": false,
          "internalType": "uint256",
          "name": "buyId",
          "type": "uint256"
        },
        {
          "indexed": false,
          "internalType": "string",
          "name": "lon",
          "type": "string"
        },
        {
          "indexed": false,
          "internalType": "string",
          "name": "lat",
          "type": "string"
        },
        {
          "indexed": true,
          "internalType": "address",
          "name": "seller",
          "type": "address"
        },
        {
          "indexed": false,
          "internalType": "uint256",
          "name": "price",
          "type": "uint256"
        },
        {
          "indexed": false,
          "internalType": "bool",
          "name": "isListed",
          "type": "bool"
        },
        {
          "indexed": false,
          "internalType": "uint256",
          "name": "timestamp",
          "type": "uint256"
        },
        {
          "indexed": true,
          "internalType": "bytes32",
          "name": "tokenId",
          "type": "bytes32"
        }
      ],
      "name": "EventListToken",
      "type": "event"
    },
    {
      "anonymous": false,
      "inputs": [
        {
          "indexed": false,
          "internalType": "uint256",
          "name": "listId",
          "type": "uint256"
        },
        {
          "indexed": false,
          "internalType": "uint256",
          "name": "buyId",
          "type": "uint256"
        },
        {
          "indexed": true,
          "internalType": "uint256",
          "name": "tokenId1",
          "type": "uint256"
        },
        {
          "indexed": false,
          "internalType": "string",
          "name": "lon",
          "type": "string"
        },
        {
          "indexed": false,
          "internalType": "string",
          "name": "lat",
          "type": "string"
        },
        {
          "indexed": false,
          "internalType": "address",
          "name": "seller",
          "type": "address"
        },
        {
          "indexed": false,
          "internalType": "uint256",
          "name": "price",
          "type": "uint256"
        },
        {
          "indexed": false,
          "internalType": "bool",
          "name": "isListed",
          "type": "bool"
        },
        {
          "indexed": false,
          "internalType": "uint256",
          "name": "timestamp",
          "type": "uint256"
        }
      ],
      "name": "EventListTokenNearby",
      "type": "event"
    },
    {
      "anonymous": false,
      "inputs": [
        {
          "indexed": false,
          "internalType": "address",
          "name": "buyer",
          "type": "address"
        },
        {
          "indexed": false,
          "internalType": "uint256",
          "name": "coins",
          "type": "uint256"
        },
        {
          "indexed": false,
          "internalType": "address",
          "name": "_coinAddress",
          "type": "address"
        },
        {
          "indexed": false,
          "internalType": "bytes32",
          "name": "_data",
          "type": "bytes32"
        }
      ],
      "name": "EventReceiveApproval",
      "type": "event"
    },
    {
      "anonymous": false,
      "inputs": [
        {
          "indexed": true,
          "internalType": "address",
          "name": "previousOwner",
          "type": "address"
        },
        {
          "indexed": true,
          "internalType": "address",
          "name": "newOwner",
          "type": "address"
        }
      ],
      "name": "OwnershipTransferred",
      "type": "event"
    },
    {
      "anonymous": false,
      "inputs": [
        {
          "indexed": true,
          "internalType": "address",
          "name": "from",
          "type": "address"
        },
        {
          "indexed": true,
          "internalType": "address",
          "name": "to",
          "type": "address"
        },
        {
          "indexed": true,
          "internalType": "uint256",
          "name": "tokenId",
          "type": "uint256"
        }
      ],
      "name": "Transfer",
      "type": "event"
    },
    {
      "inputs": [
        {
          "internalType": "address",
          "name": "to",
          "type": "address"
        },
        {
          "internalType": "uint256",
          "name": "tokenId",
          "type": "uint256"
        }
      ],
      "name": "approve",
      "outputs": [],
      "stateMutability": "nonpayable",
      "type": "function"
    },
    {
      "inputs": [
        {
          "internalType": "address",
          "name": "owner",
          "type": "address"
        }
      ],
      "name": "balanceOf",
      "outputs": [
        {
          "internalType": "uint256",
          "name": "",
          "type": "uint256"
        }
      ],
      "stateMutability": "view",
      "type": "function"
    },
    {
      "inputs": [],
      "name": "basePrice",
      "outputs": [
        {
          "internalType": "uint256",
          "name": "",
          "type": "uint256"
        }
      ],
      "stateMutability": "view",
      "type": "function"
    },
    {
      "inputs": [
        {
          "internalType": "uint256",
          "name": "",
          "type": "uint256"
        }
      ],
      "name": "basePrices",
      "outputs": [
        {
          "internalType": "uint256",
          "name": "",
          "type": "uint256"
        }
      ],
      "stateMutability": "view",
      "type": "function"
    },
    {
      "inputs": [],
      "name": "baseURI",
      "outputs": [
        {
          "internalType": "string",
          "name": "",
          "type": "string"
        }
      ],
      "stateMutability": "view",
      "type": "function"
    },
    {
      "inputs": [
        {
          "internalType": "uint256",
          "name": "",
          "type": "uint256"
        }
      ],
      "name": "boughtPrices",
      "outputs": [
        {
          "internalType": "uint256",
          "name": "",
          "type": "uint256"
        }
      ],
      "stateMutability": "view",
      "type": "function"
    },
    {
      "inputs": [],
      "name": "buyId",
      "outputs": [
        {
          "internalType": "uint256",
          "name": "",
          "type": "uint256"
        }
      ],
      "stateMutability": "view",
      "type": "function"
    },
    {
      "inputs": [
        {
          "internalType": "uint256",
          "name": "",
          "type": "uint256"
        }
      ],
      "name": "buyIds",
      "outputs": [
        {
          "internalType": "uint256",
          "name": "",
          "type": "uint256"
        }
      ],
      "stateMutability": "view",
      "type": "function"
    },
    {
      "inputs": [],
      "name": "coinAddress",
      "outputs": [
        {
          "internalType": "address",
          "name": "",
          "type": "address"
        }
      ],
      "stateMutability": "view",
      "type": "function"
    },
    {
      "inputs": [
        {
          "internalType": "uint256",
          "name": "tokenId",
          "type": "uint256"
        }
      ],
      "name": "getApproved",
      "outputs": [
        {
          "internalType": "address",
          "name": "",
          "type": "address"
        }
      ],
      "stateMutability": "view",
      "type": "function"
    },
    {
      "inputs": [
        {
          "internalType": "address",
          "name": "owner",
          "type": "address"
        },
        {
          "internalType": "address",
          "name": "operator",
          "type": "address"
        }
      ],
      "name": "isApprovedForAll",
      "outputs": [
        {
          "internalType": "bool",
          "name": "",
          "type": "bool"
        }
      ],
      "stateMutability": "view",
      "type": "function"
    },
    {
      "inputs": [
        {
          "internalType": "uint256",
          "name": "",
          "type": "uint256"
        }
      ],
      "name": "isSellings",
      "outputs": [
        {
          "internalType": "bool",
          "name": "",
          "type": "bool"
        }
      ],
      "stateMutability": "view",
      "type": "function"
    },
    {
      "inputs": [],
      "name": "listId",
      "outputs": [
        {
          "internalType": "uint256",
          "name": "",
          "type": "uint256"
        }
      ],
      "stateMutability": "view",
      "type": "function"
    },
    {
      "inputs": [],
      "name": "name",
      "outputs": [
        {
          "internalType": "string",
          "name": "",
          "type": "string"
        }
      ],
      "stateMutability": "view",
      "type": "function"
    },
    {
      "inputs": [],
      "name": "owner",
      "outputs": [
        {
          "internalType": "address",
          "name": "",
          "type": "address"
        }
      ],
      "stateMutability": "view",
      "type": "function"
    },
    {
      "inputs": [
        {
          "internalType": "uint256",
          "name": "tokenId",
          "type": "uint256"
        }
      ],
      "name": "ownerOf",
      "outputs": [
        {
          "internalType": "address",
          "name": "",
          "type": "address"
        }
      ],
      "stateMutability": "view",
      "type": "function"
    },
    {
      "inputs": [],
      "name": "percentageCut",
      "outputs": [
        {
          "internalType": "uint256",
          "name": "",
          "type": "uint256"
        }
      ],
      "stateMutability": "view",
      "type": "function"
    },
    {
      "inputs": [],
      "name": "renounceOwnership",
      "outputs": [],
      "stateMutability": "nonpayable",
      "type": "function"
    },
    {
      "inputs": [
        {
          "internalType": "address",
          "name": "from",
          "type": "address"
        },
        {
          "internalType": "address",
          "name": "to",
          "type": "address"
        },
        {
          "internalType": "uint256",
          "name": "tokenId",
          "type": "uint256"
        }
      ],
      "name": "safeTransferFrom",
      "outputs": [],
      "stateMutability": "nonpayable",
      "type": "function"
    },
    {
      "inputs": [
        {
          "internalType": "address",
          "name": "from",
          "type": "address"
        },
        {
          "internalType": "address",
          "name": "to",
          "type": "address"
        },
        {
          "internalType": "uint256",
          "name": "tokenId",
          "type": "uint256"
        },
        {
          "internalType": "bytes",
          "name": "_data",
          "type": "bytes"
        }
      ],
      "name": "safeTransferFrom",
      "outputs": [],
      "stateMutability": "nonpayable",
      "type": "function"
    },
    {
      "inputs": [
        {
          "internalType": "uint256",
          "name": "",
          "type": "uint256"
        }
      ],
      "name": "sellPrices",
      "outputs": [
        {
          "internalType": "uint256",
          "name": "",
          "type": "uint256"
        }
      ],
      "stateMutability": "view",
      "type": "function"
    },
    {
      "inputs": [
        {
          "internalType": "address",
          "name": "operator",
          "type": "address"
        },
        {
          "internalType": "bool",
          "name": "approved",
          "type": "bool"
        }
      ],
      "name": "setApprovalForAll",
      "outputs": [],
      "stateMutability": "nonpayable",
      "type": "function"
    },
    {
      "inputs": [],
      "name": "superWorldCoin",
      "outputs": [
        {
          "internalType": "contract ERC20Interface",
          "name": "",
          "type": "address"
        }
      ],
      "stateMutability": "view",
      "type": "function"
    },
    {
      "inputs": [
        {
          "internalType": "bytes4",
          "name": "interfaceId",
          "type": "bytes4"
        }
      ],
      "name": "supportsInterface",
      "outputs": [
        {
          "internalType": "bool",
          "name": "",
          "type": "bool"
        }
      ],
      "stateMutability": "view",
      "type": "function"
    },
    {
      "inputs": [],
      "name": "symbol",
      "outputs": [
        {
          "internalType": "string",
          "name": "",
          "type": "string"
        }
      ],
      "stateMutability": "view",
      "type": "function"
    },
    {
      "inputs": [
        {
          "internalType": "uint256",
          "name": "index",
          "type": "uint256"
        }
      ],
      "name": "tokenByIndex",
      "outputs": [
        {
          "internalType": "uint256",
          "name": "",
          "type": "uint256"
        }
      ],
      "stateMutability": "view",
      "type": "function"
    },
    {
      "inputs": [
        {
          "internalType": "address",
          "name": "owner",
          "type": "address"
        },
        {
          "internalType": "uint256",
          "name": "index",
          "type": "uint256"
        }
      ],
      "name": "tokenOfOwnerByIndex",
      "outputs": [
        {
          "internalType": "uint256",
          "name": "",
          "type": "uint256"
        }
      ],
      "stateMutability": "view",
      "type": "function"
    },
    {
      "inputs": [],
      "name": "totalSupply",
      "outputs": [
        {
          "internalType": "uint256",
          "name": "",
          "type": "uint256"
        }
      ],
      "stateMutability": "view",
      "type": "function"
    },
    {
      "inputs": [
        {
          "internalType": "address",
          "name": "from",
          "type": "address"
        },
        {
          "internalType": "address",
          "name": "to",
          "type": "address"
        },
        {
          "internalType": "uint256",
          "name": "tokenId",
          "type": "uint256"
        }
      ],
      "name": "transferFrom",
      "outputs": [],
      "stateMutability": "nonpayable",
      "type": "function"
    },
    {
      "inputs": [
        {
          "internalType": "address",
          "name": "newOwner",
          "type": "address"
        }
      ],
      "name": "transferOwnership",
      "outputs": [],
      "stateMutability": "nonpayable",
      "type": "function"
    },
    {
      "inputs": [
        {
          "internalType": "uint256",
          "name": "_basePrice",
          "type": "uint256"
        }
      ],
      "name": "setBasePrice",
      "outputs": [],
      "stateMutability": "nonpayable",
      "type": "function"
    },
    {
      "inputs": [
        {
          "internalType": "string",
          "name": "lat",
          "type": "string"
        },
        {
          "internalType": "string",
          "name": "lon",
          "type": "string"
        },
        {
          "internalType": "uint256",
          "name": "_basePrice",
          "type": "uint256"
        }
      ],
      "name": "setBasePrice",
      "outputs": [],
      "stateMutability": "nonpayable",
      "type": "function"
    },
    {
      "inputs": [
        {
          "internalType": "uint256",
          "name": "_percentageCut",
          "type": "uint256"
        }
      ],
      "name": "setPercentageCut",
      "outputs": [],
      "stateMutability": "nonpayable",
      "type": "function"
    },
    {
      "inputs": [
        {
          "internalType": "string",
          "name": "lat",
          "type": "string"
        },
        {
          "internalType": "string",
          "name": "lon",
          "type": "string"
        }
      ],
      "name": "getTokenId",
      "outputs": [
        {
          "internalType": "bytes32",
          "name": "tokenId",
          "type": "bytes32"
        }
      ],
      "stateMutability": "pure",
      "type": "function"
    },
    {
      "inputs": [
        {
          "internalType": "bytes32",
          "name": "tokenId",
          "type": "bytes32"
        }
      ],
      "name": "getGeoFromTokenId",
      "outputs": [
        {
          "internalType": "string",
          "name": "lat",
          "type": "string"
        },
        {
          "internalType": "string",
          "name": "lon",
          "type": "string"
        }
      ],
      "stateMutability": "pure",
      "type": "function"
    },
    {
      "inputs": [
        {
          "internalType": "string",
          "name": "lat",
          "type": "string"
        },
        {
          "internalType": "string",
          "name": "lon",
          "type": "string"
        }
      ],
      "name": "getInfo",
      "outputs": [
        {
          "internalType": "bytes32",
          "name": "tokenId",
          "type": "bytes32"
        },
        {
          "internalType": "address",
          "name": "tokenOwner",
          "type": "address"
        },
        {
          "internalType": "bool",
          "name": "isOwned",
          "type": "bool"
        },
        {
          "internalType": "bool",
          "name": "isSelling",
          "type": "bool"
        },
        {
          "internalType": "uint256",
          "name": "price",
          "type": "uint256"
        }
      ],
      "stateMutability": "view",
      "type": "function"
    },
    {
      "inputs": [
        {
          "internalType": "string",
          "name": "lat",
          "type": "string"
        },
        {
          "internalType": "string",
          "name": "lon",
          "type": "string"
        },
        {
          "internalType": "address",
          "name": "tokenOwner",
          "type": "address"
        },
        {
          "internalType": "uint256",
          "name": "sellPrice",
          "type": "uint256"
        }
      ],
      "name": "addToTransferMap",
      "outputs": [],
      "stateMutability": "nonpayable",
      "type": "function"
    },
    {
      "inputs": [],
      "name": "bulkTransferList",
      "outputs": [],
      "stateMutability": "nonpayable",
      "type": "function"
    },
    {
      "inputs": [
        {
          "internalType": "address",
          "name": "buyer",
          "type": "address"
        },
        {
          "internalType": "uint256",
          "name": "coins",
          "type": "uint256"
        },
        {
          "internalType": "address",
          "name": "_coinAddress",
          "type": "address"
        },
        {
          "internalType": "bytes32",
          "name": "_data",
          "type": "bytes32"
        }
      ],
      "name": "receiveApproval",
      "outputs": [],
      "stateMutability": "nonpayable",
      "type": "function"
    },
    {
      "inputs": [
        {
          "internalType": "address",
          "name": "buyer",
          "type": "address"
        },
        {
          "internalType": "uint256",
          "name": "coins",
          "type": "uint256"
        },
        {
          "internalType": "string",
          "name": "lat",
          "type": "string"
        },
        {
          "internalType": "string",
          "name": "lon",
          "type": "string"
        }
      ],
      "name": "buyTokenWithCoins",
      "outputs": [
        {
          "internalType": "bool",
          "name": "",
          "type": "bool"
        }
      ],
      "stateMutability": "nonpayable",
      "type": "function"
    },
    {
      "inputs": [
        {
          "internalType": "string",
          "name": "lat",
          "type": "string"
        },
        {
          "internalType": "string",
          "name": "lon",
          "type": "string"
        }
      ],
      "name": "buyToken",
      "outputs": [
        {
          "internalType": "bool",
          "name": "",
          "type": "bool"
        }
      ],
      "stateMutability": "payable",
      "type": "function"
    },
    {
      "inputs": [
        {
          "internalType": "string",
          "name": "lat",
          "type": "string"
        },
        {
          "internalType": "string",
          "name": "lon",
          "type": "string"
        },
        {
          "internalType": "uint256",
          "name": "sellPrice",
          "type": "uint256"
        }
      ],
      "name": "listToken",
      "outputs": [],
      "stateMutability": "nonpayable",
      "type": "function"
    },
    {
      "inputs": [
        {
          "internalType": "string",
          "name": "lat",
          "type": "string"
        },
        {
          "internalType": "string",
          "name": "lon",
          "type": "string"
        }
      ],
      "name": "delistToken",
      "outputs": [],
      "stateMutability": "nonpayable",
      "type": "function"
    },
    {
      "inputs": [
        {
          "internalType": "uint256",
          "name": "tokenId",
          "type": "uint256"
        }
      ],
      "name": "getPrice",
      "outputs": [
        {
          "internalType": "uint256",
          "name": "",
          "type": "uint256"
        }
      ],
      "stateMutability": "view",
      "type": "function"
    },
    {
      "inputs": [
        {
          "internalType": "string",
          "name": "str",
          "type": "string"
        },
        {
          "internalType": "uint256",
          "name": "decimal",
          "type": "uint256"
        }
      ],
      "name": "truncateDecimals",
      "outputs": [
        {
          "internalType": "string",
          "name": "",
          "type": "string"
        }
      ],
      "stateMutability": "pure",
      "type": "function"
    },
    {
      "inputs": [],
      "name": "withdrawBalance",
      "outputs": [],
      "stateMutability": "payable",
      "type": "function"
    },
    {
      "inputs": [
        {
          "internalType": "uint256",
          "name": "tokenId",
          "type": "uint256"
        }
      ],
      "name": "tokenURI",
      "outputs": [
        {
          "internalType": "string",
          "name": "",
          "type": "string"
        }
      ],
      "stateMutability": "view",
      "type": "function"
    }
  ],
  "bytecode": "0x6080604052600060105560006011553480156200001b57600080fd5b506040516200647b3803806200647b833981810160405260808110156200004157600080fd5b81019080805190602001909291908051906020019092919080519060200190929190805160405193929190846401000000008211156200008057600080fd5b838201915060208201858111156200009757600080fd5b8251866001820283011164010000000082111715620000b557600080fd5b8083526020830192505050908051906020019080838360005b83811015620000eb578082015181840152602081019050620000ce565b50505050905090810190601f168015620001195780820380516001836020036101000a031916815260200191505b506040525050506040518060400160405280600a81526020017f5375706572576f726c64000000000000000000000000000000000000000000008152506040518060400160405280600a81526020017f5355504552574f524c4400000000000000000000000000000000000000000000815250620001a46301ffc9a760e01b620003ae60201b60201c565b8160079080519060200190620001bc929190620004db565b508060089080519060200190620001d5929190620004db565b50620001ee6380ac58cd60e01b620003ae60201b60201c565b62000206635b5e139f60e01b620003ae60201b60201c565b6200021e63780e9d6360e01b620003ae60201b60201c565b5050600062000232620004b760201b60201c565b905080600b60006101000a81548173ffffffffffffffffffffffffffffffffffffffff021916908373ffffffffffffffffffffffffffffffffffffffff1602179055508073ffffffffffffffffffffffffffffffffffffffff16600073ffffffffffffffffffffffffffffffffffffffff167f8be0079c531659141344cd1fd0a4f28419497f9722a3daafe3b4186f6b6457e060405160405180910390a35083600c60006101000a81548173ffffffffffffffffffffffffffffffffffffffff021916908373ffffffffffffffffffffffffffffffffffffffff160217905550600c60009054906101000a900473ffffffffffffffffffffffffffffffffffffffff16600d60006101000a81548173ffffffffffffffffffffffffffffffffffffffff021916908373ffffffffffffffffffffffffffffffffffffffff16021790555082600e8190555081600f8190555060006010819055506000601181905550620003a481620004bf60201b60201c565b505050506200058a565b63ffffffff60e01b817bffffffffffffffffffffffffffffffffffffffffffffffffffffffff191614156200044b576040517f08c379a000000000000000000000000000000000000000000000000000000000815260040180806020018281038252601c8152602001807f4552433136353a20696e76616c696420696e746572666163652069640000000081525060200191505060405180910390fd5b6001600080837bffffffffffffffffffffffffffffffffffffffffffffffffffffffff19167bffffffffffffffffffffffffffffffffffffffffffffffffffffffff1916815260200190815260200160002060006101000a81548160ff02191690831515021790555050565b600033905090565b80600a9080519060200190620004d7929190620004db565b5050565b828054600181600116156101000203166002900490600052602060002090601f016020900481019282601f106200051e57805160ff19168380011785556200054f565b828001600101855582156200054f579182015b828111156200054e57825182559160200191906001019062000531565b5b5090506200055e919062000562565b5090565b6200058791905b808211156200058357600081600090555060010162000569565b5090565b90565b615ee1806200059a6000396000f3fe6080604052600436106102885760003560e01c80638da5cb5b1161015a578063de4b3262116100c1578063ebed91bc1161007a578063ebed91bc14611a3a578063ec68578014611b5a578063ecf582fa14611b71578063f2fde38b14611d12578063f4f4224614611d63578063fdc61dd114611d8e57610288565b8063de4b3262146114e2578063e22023ae1461151d578063e683ff0714611690578063e7572230146117f9578063e81bc1ad14611848578063e985e9c5146119b157610288565b8063b88d4fde11610113578063b88d4fde14611114578063c172f9c914611226578063c7876ea4146112ab578063c7b8de73146112d6578063c87b56dd14611329578063d09d45b2146113dd57610288565b80638da5cb5b14610cdc57806395d89b4114610d335780639e898e5814610dc3578063a22cb46514610dee578063ad8b9edc14610e4b578063b2e6357514610fb557610288565b80633818d1a8116101fe5780636c0360eb116101b75780636c0360eb14610af75780636ee90d6214610b8757806370a0823114610bd6578063715018a614610c3b578063733bf2f214610c525780637363257a14610c8d57610288565b80633818d1a81461080e57806342842e0e1461085d5780634f6ccce7146108d85780635fd8c710146109275780636352211e146109315780636941f6b3146109ac57610288565b8063156778161161025057806315677816146104bc57806318160ddd1461050b5780631f9aa821146105365780632039eeff146106f957806323b872dd146107245780632f745c591461079f57610288565b806301ffc9a71461028d57806306fdde03146102ff578063081812fc1461038f578063095ea7b31461040a578063104652f114610465575b600080fd5b34801561029957600080fd5b506102e5600480360360208110156102b057600080fd5b8101908080357bffffffffffffffffffffffffffffffffffffffffffffffffffffffff19169060200190929190505050611de5565b604051808215151515815260200191505060405180910390f35b34801561030b57600080fd5b50610314611e4c565b6040518080602001828103825283818151815260200191508051906020019080838360005b83811015610354578082015181840152602081019050610339565b50505050905090810190601f1680156103815780820380516001836020036101000a031916815260200191505b509250505060405180910390f35b34801561039b57600080fd5b506103c8600480360360208110156103b257600080fd5b8101908080359060200190929190505050611eee565b604051808273ffffffffffffffffffffffffffffffffffffffff1673ffffffffffffffffffffffffffffffffffffffff16815260200191505060405180910390f35b34801561041657600080fd5b506104636004803603604081101561042d57600080fd5b81019080803573ffffffffffffffffffffffffffffffffffffffff16906020019092919080359060200190929190505050611f89565b005b34801561047157600080fd5b5061047a6120cd565b604051808273ffffffffffffffffffffffffffffffffffffffff1673ffffffffffffffffffffffffffffffffffffffff16815260200191505060405180910390f35b3480156104c857600080fd5b506104f5600480360360208110156104df57600080fd5b81019080803590602001909291905050506120f3565b6040518082815260200191505060405180910390f35b34801561051757600080fd5b5061052061210b565b6040518082815260200191505060405180910390f35b34801561054257600080fd5b506106936004803603604081101561055957600080fd5b810190808035906020019064010000000081111561057657600080fd5b82018360208201111561058857600080fd5b803590602001918460018302840111640100000000831117156105aa57600080fd5b91908080601f016020809104026020016040519081016040528093929190818152602001838380828437600081840152601f19601f8201169050808301925050505050505091929192908035906020019064010000000081111561060d57600080fd5b82018360208201111561061f57600080fd5b8035906020019184600183028401116401000000008311171561064157600080fd5b91908080601f016020809104026020016040519081016040528093929190818152602001838380828437600081840152601f19601f82011690508083019250505050505050919291929050505061211c565b604051808681526020018573ffffffffffffffffffffffffffffffffffffffff1673ffffffffffffffffffffffffffffffffffffffff16815260200184151515158152602001831515151581526020018281526020019550505050505060405180910390f35b34801561070557600080fd5b5061070e6121a0565b6040518082815260200191505060405180910390f35b34801561073057600080fd5b5061079d6004803603606081101561074757600080fd5b81019080803573ffffffffffffffffffffffffffffffffffffffff169060200190929190803573ffffffffffffffffffffffffffffffffffffffff169060200190929190803590602001909291905050506121a6565b005b3480156107ab57600080fd5b506107f8600480360360408110156107c257600080fd5b81019080803573ffffffffffffffffffffffffffffffffffffffff1690602001909291908035906020019092919050505061221c565b6040518082815260200191505060405180910390f35b34801561081a57600080fd5b506108476004803603602081101561083157600080fd5b8101908080359060200190929190505050612277565b6040518082815260200191505060405180910390f35b34801561086957600080fd5b506108d66004803603606081101561088057600080fd5b81019080803573ffffffffffffffffffffffffffffffffffffffff169060200190929190803573ffffffffffffffffffffffffffffffffffffffff1690602001909291908035906020019092919050505061228f565b005b3480156108e457600080fd5b50610911600480360360208110156108fb57600080fd5b81019080803590602001909291905050506122af565b6040518082815260200191505060405180910390f35b61092f6122d2565b005b34801561093d57600080fd5b5061096a6004803603602081101561095457600080fd5b8101908080359060200190929190505050612360565b604051808273ffffffffffffffffffffffffffffffffffffffff1673ffffffffffffffffffffffffffffffffffffffff16815260200191505060405180910390f35b3480156109b857600080fd5b50610a7c600480360360408110156109cf57600080fd5b81019080803590602001906401000000008111156109ec57600080fd5b8201836020820111156109fe57600080fd5b80359060200191846001830284011164010000000083111715610a2057600080fd5b91908080601f016020809104026020016040519081016040528093929190818152602001838380828437600081840152601f19601f82011690508083019250505050505050919291929080359060200190929190505050612397565b6040518080602001828103825283818151815260200191508051906020019080838360005b83811015610abc578082015181840152602081019050610aa1565b50505050905090810190601f168015610ae95780820380516001836020036101000a031916815260200191505b509250505060405180910390f35b348015610b0357600080fd5b50610b0c612468565b6040518080602001828103825283818151815260200191508051906020019080838360005b83811015610b4c578082015181840152602081019050610b31565b50505050905090810190601f168015610b795780820380516001836020036101000a031916815260200191505b509250505060405180910390f35b348015610b9357600080fd5b50610bc060048036036020811015610baa57600080fd5b810190808035906020019092919050505061250a565b6040518082815260200191505060405180910390f35b348015610be257600080fd5b50610c2560048036036020811015610bf957600080fd5b81019080803573ffffffffffffffffffffffffffffffffffffffff169060200190929190505050612522565b6040518082815260200191505060405180910390f35b348015610c4757600080fd5b50610c506125f7565b005b348015610c5e57600080fd5b50610c8b60048036036020811015610c7557600080fd5b8101908080359060200190929190505050612782565b005b348015610c9957600080fd5b50610cc660048036036020811015610cb057600080fd5b81019080803590602001909291905050506127d8565b6040518082815260200191505060405180910390f35b348015610ce857600080fd5b50610cf16127f0565b604051808273ffffffffffffffffffffffffffffffffffffffff1673ffffffffffffffffffffffffffffffffffffffff16815260200191505060405180910390f35b348015610d3f57600080fd5b50610d4861281a565b6040518080602001828103825283818151815260200191508051906020019080838360005b83811015610d88578082015181840152602081019050610d6d565b50505050905090810190601f168015610db55780820380516001836020036101000a031916815260200191505b509250505060405180910390f35b348015610dcf57600080fd5b50610dd86128bc565b6040518082815260200191505060405180910390f35b348015610dfa57600080fd5b50610e4960048036036040811015610e1157600080fd5b81019080803573ffffffffffffffffffffffffffffffffffffffff1690602001909291908035151590602001909291905050506128c2565b005b610f9b60048036036040811015610e6157600080fd5b8101908080359060200190640100000000811115610e7e57600080fd5b820183602082011115610e9057600080fd5b80359060200191846001830284011164010000000083111715610eb257600080fd5b91908080601f016020809104026020016040519081016040528093929190818152602001838380828437600081840152601f19601f82011690508083019250505050505050919291929080359060200190640100000000811115610f1557600080fd5b820183602082011115610f2757600080fd5b80359060200191846001830284011164010000000083111715610f4957600080fd5b91908080601f016020809104026020016040519081016040528093929190818152602001838380828437600081840152601f19601f820116905080830192505050505050509192919290505050612a7a565b604051808215151515815260200191505060405180910390f35b348015610fc157600080fd5b5061111260048036036040811015610fd857600080fd5b8101908080359060200190640100000000811115610ff557600080fd5b82018360208201111561100757600080fd5b8035906020019184600183028401116401000000008311171561102957600080fd5b91908080601f016020809104026020016040519081016040528093929190818152602001838380828437600081840152601f19601f8201169050808301925050505050505091929192908035906020019064010000000081111561108c57600080fd5b82018360208201111561109e57600080fd5b803590602001918460018302840111640100000000831117156110c057600080fd5b91908080601f016020809104026020016040519081016040528093929190818152602001838380828437600081840152601f19601f820116905080830192505050505050509192919290505050612e91565b005b34801561112057600080fd5b506112246004803603608081101561113757600080fd5b81019080803573ffffffffffffffffffffffffffffffffffffffff169060200190929190803573ffffffffffffffffffffffffffffffffffffffff169060200190929190803590602001909291908035906020019064010000000081111561119e57600080fd5b8201836020820111156111b057600080fd5b803590602001918460018302840111640100000000831117156111d257600080fd5b91908080601f016020809104026020016040519081016040528093929190818152602001838380828437600081840152601f19601f820116905080830192505050505050509192919290505050612f78565b005b34801561123257600080fd5b506112a96004803603608081101561124957600080fd5b81019080803573ffffffffffffffffffffffffffffffffffffffff16906020019092919080359060200190929190803573ffffffffffffffffffffffffffffffffffffffff16906020019092919080359060200190929190505050612ff0565b005b3480156112b757600080fd5b506112c0613122565b6040518082815260200191505060405180910390f35b3480156112e257600080fd5b5061130f600480360360208110156112f957600080fd5b8101908080359060200190929190505050613128565b604051808215151515815260200191505060405180910390f35b34801561133557600080fd5b506113626004803603602081101561134c57600080fd5b8101908080359060200190929190505050613148565b6040518080602001828103825283818151815260200191508051906020019080838360005b838110156113a2578082015181840152602081019050611387565b50505050905090810190601f1680156113cf5780820380516001836020036101000a031916815260200191505b509250505060405180910390f35b3480156113e957600080fd5b506114e06004803603608081101561140057600080fd5b810190808035906020019064010000000081111561141d57600080fd5b82018360208201111561142f57600080fd5b8035906020019184600183028401116401000000008311171561145157600080fd5b90919293919293908035906020019064010000000081111561147257600080fd5b82018360208201111561148457600080fd5b803590602001918460018302840111640100000000831117156114a657600080fd5b9091929391929390803573ffffffffffffffffffffffffffffffffffffffff169060200190929190803590602001909291905050506131a9565b005b3480156114ee57600080fd5b5061151b6004803603602081101561150557600080fd5b810190808035906020019092919050505061333a565b005b34801561152957600080fd5b5061167a6004803603604081101561154057600080fd5b810190808035906020019064010000000081111561155d57600080fd5b82018360208201111561156f57600080fd5b8035906020019184600183028401116401000000008311171561159157600080fd5b91908080601f016020809104026020016040519081016040528093929190818152602001838380828437600081840152601f19601f820116905080830192505050505050509192919290803590602001906401000000008111156115f457600080fd5b82018360208201111561160657600080fd5b8035906020019184600183028401116401000000008311171561162857600080fd5b91908080601f016020809104026020016040519081016040528093929190818152602001838380828437600081840152601f19601f820116905080830192505050505050509192919290505050613390565b6040518082815260200191505060405180910390f35b34801561169c57600080fd5b506117f7600480360360608110156116b357600080fd5b81019080803590602001906401000000008111156116d057600080fd5b8201836020820111156116e257600080fd5b8035906020019184600183028401116401000000008311171561170457600080fd5b91908080601f016020809104026020016040519081016040528093929190818152602001838380828437600081840152601f19601f8201169050808301925050505050505091929192908035906020019064010000000081111561176757600080fd5b82018360208201111561177957600080fd5b8035906020019184600183028401116401000000008311171561179b57600080fd5b91908080601f016020809104026020016040519081016040528093929190818152602001838380828437600081840152601f19601f820116905080830192505050505050509192919290803590602001909291905050506134ab565b005b34801561180557600080fd5b506118326004803603602081101561181c57600080fd5b810190808035906020019092919050505061357f565b6040518082815260200191505060405180910390f35b34801561185457600080fd5b506119af6004803603606081101561186b57600080fd5b810190808035906020019064010000000081111561188857600080fd5b82018360208201111561189a57600080fd5b803590602001918460018302840111640100000000831117156118bc57600080fd5b91908080601f016020809104026020016040519081016040528093929190818152602001838380828437600081840152601f19601f8201169050808301925050505050505091929192908035906020019064010000000081111561191f57600080fd5b82018360208201111561193157600080fd5b8035906020019184600183028401116401000000008311171561195357600080fd5b91908080601f016020809104026020016040519081016040528093929190818152602001838380828437600081840152601f19601f82011690508083019250505050505050919291929080359060200190929190505050613622565b005b3480156119bd57600080fd5b50611a20600480360360408110156119d457600080fd5b81019080803573ffffffffffffffffffffffffffffffffffffffff169060200190929190803573ffffffffffffffffffffffffffffffffffffffff16906020019092919050505061369d565b604051808215151515815260200191505060405180910390f35b348015611a4657600080fd5b50611a7360048036036020811015611a5d57600080fd5b8101908080359060200190929190505050613731565b604051808060200180602001838103835285818151815260200191508051906020019080838360005b83811015611ab7578082015181840152602081019050611a9c565b50505050905090810190601f168015611ae45780820380516001836020036101000a031916815260200191505b50838103825284818151815260200191508051906020019080838360005b83811015611b1d578082015181840152602081019050611b02565b50505050905090810190601f168015611b4a5780820380516001836020036101000a031916815260200191505b5094505050505060405180910390f35b348015611b6657600080fd5b50611b6f613883565b005b348015611b7d57600080fd5b50611cf860048036036080811015611b9457600080fd5b81019080803573ffffffffffffffffffffffffffffffffffffffff1690602001909291908035906020019092919080359060200190640100000000811115611bdb57600080fd5b820183602082011115611bed57600080fd5b80359060200191846001830284011164010000000083111715611c0f57600080fd5b91908080601f016020809104026020016040519081016040528093929190818152602001838380828437600081840152601f19601f82011690508083019250505050505050919291929080359060200190640100000000811115611c7257600080fd5b820183602082011115611c8457600080fd5b80359060200191846001830284011164010000000083111715611ca657600080fd5b91908080601f016020809104026020016040519081016040528093929190818152602001838380828437600081840152601f19601f8201169050808301925050505050505091929192905050506139b2565b604051808215151515815260200191505060405180910390f35b348015611d1e57600080fd5b50611d6160048036036020811015611d3557600080fd5b81019080803573ffffffffffffffffffffffffffffffffffffffff169060200190929190505050613c36565b005b348015611d6f57600080fd5b50611d78613e46565b6040518082815260200191505060405180910390f35b348015611d9a57600080fd5b50611da3613e4c565b604051808273ffffffffffffffffffffffffffffffffffffffff1673ffffffffffffffffffffffffffffffffffffffff16815260200191505060405180910390f35b6000806000837bffffffffffffffffffffffffffffffffffffffffffffffffffffffff19167bffffffffffffffffffffffffffffffffffffffffffffffffffffffff1916815260200190815260200160002060009054906101000a900460ff169050919050565b606060078054600181600116156101000203166002900480601f016020809104026020016040519081016040528092919081815260200182805460018160011615610100020316600290048015611ee45780601f10611eb957610100808354040283529160200191611ee4565b820191906000526020600020905b815481529060010190602001808311611ec757829003601f168201915b5050505050905090565b6000611ef982613e72565b611f4e576040517f08c379a000000000000000000000000000000000000000000000000000000000815260040180806020018281038252602c815260200180615dcd602c913960400191505060405180910390fd5b6005600083815260200190815260200160002060009054906101000a900473ffffffffffffffffffffffffffffffffffffffff169050919050565b6000611f9482612360565b90508073ffffffffffffffffffffffffffffffffffffffff168373ffffffffffffffffffffffffffffffffffffffff16141561201b576040517f08c379a0000000000000000000000000000000000000000000000000000000008152600401808060200182810382526021815260200180615e226021913960400191505060405180910390fd5b8073ffffffffffffffffffffffffffffffffffffffff1661203a613e8f565b73ffffffffffffffffffffffffffffffffffffffff161480612069575061206881612063613e8f565b61369d565b5b6120be576040517f08c379a0000000000000000000000000000000000000000000000000000000008152600401808060200182810382526038815260200180615cff6038913960400191505060405180910390fd5b6120c88383613e97565b505050565b600d60009054906101000a900473ffffffffffffffffffffffffffffffffffffffff1681565b60136020528060005260406000206000915090505481565b60006121176002613f50565b905090565b600080600080600061212e8787613390565b945060008560001c9050612143600282613f65565b1561215e57612153600282613f7f565b945060019350612167565b60009450600093505b6015600082815260200190815260200160002060009054906101000a900460ff1692506121938161357f565b9150509295509295909350565b60105481565b6121b76121b1613e8f565b82613f9c565b61220c576040517f08c379a0000000000000000000000000000000000000000000000000000000008152600401808060200182810382526031815260200180615e436031913960400191505060405180910390fd5b612217838383614090565b505050565b600061226f82600160008673ffffffffffffffffffffffffffffffffffffffff1673ffffffffffffffffffffffffffffffffffffffff1681526020019081526020016000206142d390919063ffffffff16565b905092915050565b60126020528060005260406000206000915090505481565b6122aa83838360405180602001604052806000815250612f78565b505050565b6000806122c68360026142ed90919063ffffffff16565b50905080915050919050565b6122da6127f0565b73ffffffffffffffffffffffffffffffffffffffff163373ffffffffffffffffffffffffffffffffffffffff161461231157600080fd5b60004790503373ffffffffffffffffffffffffffffffffffffffff166108fc829081150290604051600060405180830381858888f1935050505015801561235c573d6000803e3d6000fd5b5050565b600061239082604051806060016040528060298152602001615d6160299139600261431c9092919063ffffffff16565b9050919050565b606080839050600081519050600060018203905060008090505b8281101561243c577f2e000000000000000000000000000000000000000000000000000000000000008482815181106123e657fe5b602001015160f81c60f81b7effffffffffffffffffffffffffffffffffffffffffffffffffffffffffffff1916141561241d578091505b60018683010181141561242f5761243c565b80806001019150506123b1565b82811061244f5786945050505050612462565b61245b8760008361433b565b9450505050505b92915050565b6060600a8054600181600116156101000203166002900480601f0160208091040260200160405190810160405280929190818152602001828054600181600116156101000203166002900480156125005780601f106124d557610100808354040283529160200191612500565b820191906000526020600020905b8154815290600101906020018083116124e357829003601f168201915b5050505050905090565b60146020528060005260406000206000915090505481565b60008073ffffffffffffffffffffffffffffffffffffffff168273ffffffffffffffffffffffffffffffffffffffff1614156125a9576040517f08c379a000000000000000000000000000000000000000000000000000000000815260040180806020018281038252602a815260200180615d37602a913960400191505060405180910390fd5b6125f0600160008473ffffffffffffffffffffffffffffffffffffffff1673ffffffffffffffffffffffffffffffffffffffff16815260200190815260200160002061441c565b9050919050565b6125ff613e8f565b73ffffffffffffffffffffffffffffffffffffffff16600b60009054906101000a900473ffffffffffffffffffffffffffffffffffffffff1673ffffffffffffffffffffffffffffffffffffffff16146126c1576040517f08c379a00000000000000000000000000000000000000000000000000000000081526004018080602001828103825260208152602001807f4f776e61626c653a2063616c6c6572206973206e6f7420746865206f776e657281525060200191505060405180910390fd5b600073ffffffffffffffffffffffffffffffffffffffff16600b60009054906101000a900473ffffffffffffffffffffffffffffffffffffffff1673ffffffffffffffffffffffffffffffffffffffff167f8be0079c531659141344cd1fd0a4f28419497f9722a3daafe3b4186f6b6457e060405160405180910390a36000600b60006101000a81548173ffffffffffffffffffffffffffffffffffffffff021916908373ffffffffffffffffffffffffffffffffffffffff160217905550565b61278a6127f0565b73ffffffffffffffffffffffffffffffffffffffff163373ffffffffffffffffffffffffffffffffffffffff16146127c157600080fd5b600081116127ce57600080fd5b80600e8190555050565b60166020528060005260406000206000915090505481565b6000600b60009054906101000a900473ffffffffffffffffffffffffffffffffffffffff16905090565b606060088054600181600116156101000203166002900480601f0160208091040260200160405190810160405280929190818152602001828054600181600116156101000203166002900480156128b25780601f10612887576101008083540402835291602001916128b2565b820191906000526020600020905b81548152906001019060200180831161289557829003601f168201915b5050505050905090565b60115481565b6128ca613e8f565b73ffffffffffffffffffffffffffffffffffffffff168273ffffffffffffffffffffffffffffffffffffffff16141561296b576040517f08c379a00000000000000000000000000000000000000000000000000000000081526004018080602001828103825260198152602001807f4552433732313a20617070726f766520746f2063616c6c65720000000000000081525060200191505060405180910390fd5b8060066000612978613e8f565b73ffffffffffffffffffffffffffffffffffffffff1673ffffffffffffffffffffffffffffffffffffffff16815260200190815260200160002060008473ffffffffffffffffffffffffffffffffffffffff1673ffffffffffffffffffffffffffffffffffffffff16815260200190815260200160002060006101000a81548160ff0219169083151502179055508173ffffffffffffffffffffffffffffffffffffffff16612a25613e8f565b73ffffffffffffffffffffffffffffffffffffffff167f17307eab39ab6107e8899845ad3d59bd9653f200f220920489ca2b5937696c3183604051808215151515815260200191505060405180910390a35050565b600080612a878484613390565b60001c90506000349050612a9c600283613f65565b612b0257600f54811015612aaf57600080fd5b6012600083815260200190815260200160002054811015612acf57600080fd5b612ada338383614431565b612ae66002833361444a565b50612af7828587336000864261447f565b600192505050612e8b565b6000612b0f600284613f7f565b9050600115156015600085815260200190815260200160002060009054906101000a900460ff16151514612b4257600080fd5b6000601460008581526020019081526020016000205411612b6257600080fd5b6014600084815260200190815260200160002054821015612b8257600080fd5b6000612b9a612b9384600e546147c9565b606461484f565b90506000612ba88483614899565b905060006015600087815260200190815260200160002060006101000a81548160ff02191690831515021790555060008390508073ffffffffffffffffffffffffffffffffffffffff166108fc839081150290604051600060405180830381858888f19350505050612d9e5760016015600088815260200190815260200160002060006101000a81548160ff0219169083151502179055508373ffffffffffffffffffffffffffffffffffffffff163373ffffffffffffffffffffffffffffffffffffffff167fa55cfa3e9746b524793a7b3770d883a9547a84cd8e133210f934614d7e9d94fa888b8d8a42604051808681526020018060200180602001858152602001848152602001838103835287818151815260200191508051906020019080838360005b83811015612cea578082015181840152602081019050612ccf565b50505050905090810190601f168015612d175780820380516001836020036101000a031916815260200191505b50838103825286818151815260200191508051906020019080838360005b83811015612d50578082015181840152602081019050612d35565b50505050905090810190601f168015612d7d5780820380516001836020036101000a031916815260200191505b5097505050505050505060405180910390a360009650505050505050612e8b565b612def86600160008773ffffffffffffffffffffffffffffffffffffffff1673ffffffffffffffffffffffffffffffffffffffff1681526020019081526020016000206148e390919063ffffffff16565b50612e4186600160003373ffffffffffffffffffffffffffffffffffffffff1673ffffffffffffffffffffffffffffffffffffffff1681526020019081526020016000206148fd90919063ffffffff16565b50612e4c8686614917565b846014600088815260200190815260200160002081905550612e706002873361444a565b50612e8086898b33888a4261447f565b600196505050505050505b92915050565b6000612e9d8383613390565b60001c9050612ead600282613f65565b612eb657600080fd5b612ec1600282613f7f565b73ffffffffffffffffffffffffffffffffffffffff163373ffffffffffffffffffffffffffffffffffffffff1614612ef857600080fd5b60006015600083815260200190815260200160002060006101000a81548160ff021916908315150217905550612f5a60166000838152602001908152602001600020548385336014600087815260200190815260200160002054600042614933565b60006014600083815260200190815260200160002081905550505050565b612f89612f83613e8f565b83613f9c565b612fde576040517f08c379a0000000000000000000000000000000000000000000000000000000008152600401808060200182810382526031815260200180615e436031913960400191505060405180910390fd5b612fea84848484614c4c565b50505050565b7fd9e961b5e33e49ea23325ff569563cfc999d3188fd44b2a9bc263f247e7d5a5384848484604051808573ffffffffffffffffffffffffffffffffffffffff1673ffffffffffffffffffffffffffffffffffffffff1681526020018481526020018373ffffffffffffffffffffffffffffffffffffffff1673ffffffffffffffffffffffffffffffffffffffff16815260200182815260200194505050505060405180910390a1600c60009054906101000a900473ffffffffffffffffffffffffffffffffffffffff1673ffffffffffffffffffffffffffffffffffffffff168273ffffffffffffffffffffffffffffffffffffffff16146130f157600080fd5b60606130fc82614cbe565b905061311a858561310c84614e7d565b61311585614ea0565b6139b2565b505050505050565b600f5481565b60156020528060005260406000206000915054906101000a900460ff1681565b606080826040516020018080615e7460389139603801828152602001807f26626c6f636b636861696e3d65266e6574776f726b49643d3400000000000000815250601901915050604051602081830303815290604052905080915050919050565b6131b1613e8f565b73ffffffffffffffffffffffffffffffffffffffff16600b60009054906101000a900473ffffffffffffffffffffffffffffffffffffffff1673ffffffffffffffffffffffffffffffffffffffff1614613273576040517f08c379a00000000000000000000000000000000000000000000000000000000081526004018080602001828103825260208152602001807f4f776e61626c653a2063616c6c6572206973206e6f7420746865206f776e657281525060200191505060405180910390fd5b600061330787878080601f016020809104026020016040519081016040528093929190818152602001838380828437600081840152601f19601f8201169050808301925050505050505086868080601f016020809104026020016040519081016040528093929190818152602001838380828437600081840152601f19601f82011690508083019250505050505050613390565b60001c90506133186017828561444a565b5081601960008381526020019081526020016000208190555050505050505050565b6133426127f0565b73ffffffffffffffffffffffffffffffffffffffff163373ffffffffffffffffffffffffffffffffffffffff161461337957600080fd5b6000811161338657600080fd5b80600f8190555050565b600080835114806133a2575060008251145b156133b2576000801b90506134a5565b606083836040516020018083805190602001908083835b602083106133ec57805182526020820191506020810190506020830392506133c9565b6001836020036101000a038019825116818451168082178552505050505050905001807f2c0000000000000000000000000000000000000000000000000000000000000081525060010182805190602001908083835b602083106134655780518252602082019150602081019050602083039250613442565b6001836020036101000a03801982511681845116808217855250505050505090500192505050604051602081830303815290604052905060208101519150505b92915050565b60006134b78484613390565b60001c90506134c7600282613f65565b6134d057600080fd5b6134db600282613f7f565b73ffffffffffffffffffffffffffffffffffffffff163373ffffffffffffffffffffffffffffffffffffffff161461351257600080fd5b60016015600083815260200190815260200160002060006101000a81548160ff021916908315150217905550816014600083815260200190815260200160002081905550613579601660008381526020019081526020016000205484863386600142614933565b50505050565b600061358c600283613f65565b6135c55760006012600084815260200190815260200160002054905060008114156135bc57600f5491505061361d565b8091505061361d565b6015600083815260200190815260200160002060009054906101000a900460ff1615613606576014600083815260200190815260200160002054905061361d565b601360008381526020019081526020016000205490505b919050565b61362a6127f0565b73ffffffffffffffffffffffffffffffffffffffff163373ffffffffffffffffffffffffffffffffffffffff161461366157600080fd5b6000811161366e57600080fd5b600061367a8484613390565b60001c905081601260008381526020019081526020016000208190555050505050565b6000600660008473ffffffffffffffffffffffffffffffffffffffff1673ffffffffffffffffffffffffffffffffffffffff16815260200190815260200160002060008373ffffffffffffffffffffffffffffffffffffffff1673ffffffffffffffffffffffffffffffffffffffff16815260200190815260200160002060009054906101000a900460ff16905092915050565b6060806000602090505b60008160ff161180156137885750600060f81b846001830360ff166020811061376057fe5b1a60f81b7effffffffffffffffffffffffffffffffffffffffffffffffffffffffffffff1916145b1561379b5780806001900391505061373b565b60608160ff1667ffffffffffffffff811180156137b757600080fd5b506040519080825280601f01601f1916602001820160405280156137ea5781602001600182028036833780820191505090505b50905060008090505b8260ff168160ff16101561385f57858160ff166020811061381057fe5b1a60f81b828260ff168151811061382357fe5b60200101907effffffffffffffffffffffffffffffffffffffffffffffffffffffffffffff1916908160001a90535080806001019150506137f3565b50606081905061386e81614e7d565b945061387981614ea0565b9350505050915091565b61388b613e8f565b73ffffffffffffffffffffffffffffffffffffffff16600b60009054906101000a900473ffffffffffffffffffffffffffffffffffffffff1673ffffffffffffffffffffffffffffffffffffffff161461394d576040517f08c379a00000000000000000000000000000000000000000000000000000000081526004018080602001828103825260208152602001807f4f776e61626c653a2063616c6c6572206973206e6f7420746865206f776e657281525060200191505060405180910390fd5b60006139596017613f50565b905060008090505b818160ff1610156139ae5760008061397d60178460ff166142ed565b9150915061399f82826019600086815260200190815260200160002054614ec6565b50508080600101915050613961565b5050565b6000806139bf8484613390565b60001c90506139cf600282613f65565b613c2857600f548510156139e257600080fd5b600f54600d60009054906101000a900473ffffffffffffffffffffffffffffffffffffffff1673ffffffffffffffffffffffffffffffffffffffff166370a08231886040518263ffffffff1660e01b8152600401808273ffffffffffffffffffffffffffffffffffffffff1673ffffffffffffffffffffffffffffffffffffffff16815260200191505060206040518083038186803b158015613a8457600080fd5b505afa158015613a98573d6000803e3d6000fd5b505050506040513d6020811015613aae57600080fd5b81019080805190602001909291905050501015613aca57600080fd5b600d60009054906101000a900473ffffffffffffffffffffffffffffffffffffffff1673ffffffffffffffffffffffffffffffffffffffff166323b872dd8730600f546040518463ffffffff1660e01b8152600401808473ffffffffffffffffffffffffffffffffffffffff1673ffffffffffffffffffffffffffffffffffffffff1681526020018373ffffffffffffffffffffffffffffffffffffffff1673ffffffffffffffffffffffffffffffffffffffff1681526020018281526020019350505050602060405180830381600087803b158015613ba957600080fd5b505af1158015613bbd573d6000803e3d6000fd5b505050506040513d6020811015613bd357600080fd5b8101908080519060200190929190505050613bf2576000915050613c2e565b613bff8682600f54614431565b613c0b6002828861444a565b50613c1e818486896000600f544261447f565b6001915050613c2e565b60009150505b949350505050565b613c3e613e8f565b73ffffffffffffffffffffffffffffffffffffffff16600b60009054906101000a900473ffffffffffffffffffffffffffffffffffffffff1673ffffffffffffffffffffffffffffffffffffffff1614613d00576040517f08c379a00000000000000000000000000000000000000000000000000000000081526004018080602001828103825260208152602001807f4f776e61626c653a2063616c6c6572206973206e6f7420746865206f776e657281525060200191505060405180910390fd5b600073ffffffffffffffffffffffffffffffffffffffff168173ffffffffffffffffffffffffffffffffffffffff161415613d86576040517f08c379a0000000000000000000000000000000000000000000000000000000008152600401808060200182810382526026815260200180615c896026913960400191505060405180910390fd5b8073ffffffffffffffffffffffffffffffffffffffff16600b60009054906101000a900473ffffffffffffffffffffffffffffffffffffffff1673ffffffffffffffffffffffffffffffffffffffff167f8be0079c531659141344cd1fd0a4f28419497f9722a3daafe3b4186f6b6457e060405160405180910390a380600b60006101000a81548173ffffffffffffffffffffffffffffffffffffffff021916908373ffffffffffffffffffffffffffffffffffffffff16021790555050565b600e5481565b600c60009054906101000a900473ffffffffffffffffffffffffffffffffffffffff1681565b6000613e88826002613f6590919063ffffffff16565b9050919050565b600033905090565b816005600083815260200190815260200160002060006101000a81548173ffffffffffffffffffffffffffffffffffffffff021916908373ffffffffffffffffffffffffffffffffffffffff160217905550808273ffffffffffffffffffffffffffffffffffffffff16613f0a83612360565b73ffffffffffffffffffffffffffffffffffffffff167f8c5be1e5ebec7d5bd14f71427d1e84f3dd0314c0f7b2291e5b200ac8c7c3b92560405160405180910390a45050565b6000613f5e82600001614faf565b9050919050565b6000613f77836000018360001b614fc0565b905092915050565b6000613f91836000018360001b614fe3565b60001c905092915050565b6000613fa782613e72565b613ffc576040517f08c379a000000000000000000000000000000000000000000000000000000000815260040180806020018281038252602c815260200180615cd3602c913960400191505060405180910390fd5b600061400783612360565b90508073ffffffffffffffffffffffffffffffffffffffff168473ffffffffffffffffffffffffffffffffffffffff16148061407657508373ffffffffffffffffffffffffffffffffffffffff1661405e84611eee565b73ffffffffffffffffffffffffffffffffffffffff16145b806140875750614086818561369d565b5b91505092915050565b8273ffffffffffffffffffffffffffffffffffffffff166140b082612360565b73ffffffffffffffffffffffffffffffffffffffff161461411c576040517f08c379a0000000000000000000000000000000000000000000000000000000008152600401808060200182810382526029815260200180615df96029913960400191505060405180910390fd5b600073ffffffffffffffffffffffffffffffffffffffff168273ffffffffffffffffffffffffffffffffffffffff1614156141a2576040517f08c379a0000000000000000000000000000000000000000000000000000000008152600401808060200182810382526024815260200180615caf6024913960400191505060405180910390fd5b6141ad83838361502d565b6141b8600082613e97565b61420981600160008673ffffffffffffffffffffffffffffffffffffffff1673ffffffffffffffffffffffffffffffffffffffff1681526020019081526020016000206148e390919063ffffffff16565b5061425b81600160008573ffffffffffffffffffffffffffffffffffffffff1673ffffffffffffffffffffffffffffffffffffffff1681526020019081526020016000206148fd90919063ffffffff16565b506142728183600261444a9092919063ffffffff16565b50808273ffffffffffffffffffffffffffffffffffffffff168473ffffffffffffffffffffffffffffffffffffffff167fddf252ad1be2c89b69c2b068fc378daa952ba7f163c4a11628f55a4df523b3ef60405160405180910390a4505050565b60006142e28360000183615032565b60001c905092915050565b60008060008061430086600001866150b5565b915091508160001c8160001c8090509350935050509250929050565b600061432f846000018460001b8461514e565b60001c90509392505050565b606080849050600083141561434f57805192505b606084840367ffffffffffffffff8111801561436a57600080fd5b506040519080825280601f01601f19166020018201604052801561439d5781602001600182028036833780820191505090505b50905060008590505b8481101561440f578281815181106143ba57fe5b602001015160f81c60f81b82878303815181106143d357fe5b60200101907effffffffffffffffffffffffffffffffffffffffffffffffffffffffffffff1916908160001a90535080806001019150506143a6565b5080925050509392505050565b600061442a82600001615244565b9050919050565b61443b8383615255565b6144458282614917565b505050565b6000614476846000018460001b8473ffffffffffffffffffffffffffffffffffffffff1660001b615449565b90509392505050565b60106000815480929190600101919050555060105460166000898152602001908152602001600020819055508660001b8373ffffffffffffffffffffffffffffffffffffffff168573ffffffffffffffffffffffffffffffffffffffff167fda15ea264efb95435cea02446b51b0aff5d056a521332c0393ad4b1d0e1bc81f6010548a8a8888604051808681526020018060200180602001858152602001848152602001838103835287818151815260200191508051906020019080838360005b8381101561455b578082015181840152602081019050614540565b50505050905090810190601f1680156145885780820380516001836020036101000a031916815260200191505b50838103825286818151815260200191508051906020019080838360005b838110156145c15780820151818401526020810190506145a6565b50505050905090810190601f1680156145ee5780820380516001836020036101000a031916815260200191505b5097505050505050505060405180910390a461461e61460e866001612397565b614619886001612397565b613390565b60001c7ff9fb1e6c35c7c9ffa1401f7e81ad422f866db9d310080c750a9bd0837e32dad7601054614650896001612397565b61465b896001612397565b888888886040518088815260200180602001806020018773ffffffffffffffffffffffffffffffffffffffff1673ffffffffffffffffffffffffffffffffffffffff1681526020018673ffffffffffffffffffffffffffffffffffffffff1673ffffffffffffffffffffffffffffffffffffffff168152602001858152602001848152602001838103835289818151815260200191508051906020019080838360005b838110156147195780820151818401526020810190506146fe565b50505050905090810190601f1680156147465780820380516001836020036101000a031916815260200191505b50838103825288818151815260200191508051906020019080838360005b8381101561477f578082015181840152602081019050614764565b50505050905090810190601f1680156147ac5780820380516001836020036101000a031916815260200191505b50995050505050505050505060405180910390a250505050505050565b6000808314156147dc5760009050614849565b60008284029050828482816147ed57fe5b0414614844576040517f08c379a0000000000000000000000000000000000000000000000000000000008152600401808060200182810382526021815260200180615dac6021913960400191505060405180910390fd5b809150505b92915050565b600061489183836040518060400160405280601a81526020017f536166654d6174683a206469766973696f6e206279207a65726f000000000000815250615525565b905092915050565b60006148db83836040518060400160405280601e81526020017f536166654d6174683a207375627472616374696f6e206f766572666c6f7700008152506155eb565b905092915050565b60006148f5836000018360001b6156ab565b905092915050565b600061490f836000018360001b615793565b905092915050565b8060136000848152602001908152602001600020819055505050565b60116000815480929190600101919050555060006149518688613390565b9050808573ffffffffffffffffffffffffffffffffffffffff167fa0414e20b7bf64a4f30d6c99b054c4d6ea644070b1811534cd1d35c22d953e0c6011548b8b8b8a8a8a60405180888152602001878152602001806020018060200186815260200185151515158152602001848152602001838103835288818151815260200191508051906020019080838360005b838110156149fb5780820151818401526020810190506149e0565b50505050905090810190601f168015614a285780820380516001836020036101000a031916815260200191505b50838103825287818151815260200191508051906020019080838360005b83811015614a61578082015181840152602081019050614a46565b50505050905090810190601f168015614a8e5780820380516001836020036101000a031916815260200191505b50995050505050505050505060405180910390a3614ac0614ab0886001612397565b614abb886001612397565b613390565b60001c7f6ceb12a005add975dfcbad6b471dc3e8e4a9e6c0c5ed65de79ba53dde68bc9716011548a614af38b6001612397565b614afe8b6001612397565b8a8a8a8a6040518089815260200188815260200180602001806020018773ffffffffffffffffffffffffffffffffffffffff1673ffffffffffffffffffffffffffffffffffffffff16815260200186815260200185151515158152602001848152602001838103835289818151815260200191508051906020019080838360005b83811015614b9a578082015181840152602081019050614b7f565b50505050905090810190601f168015614bc75780820380516001836020036101000a031916815260200191505b50838103825288818151815260200191508051906020019080838360005b83811015614c00578082015181840152602081019050614be5565b50505050905090810190601f168015614c2d5780820380516001836020036101000a031916815260200191505b509a505050505050505050505060405180910390a25050505050505050565b614c57848484614090565b614c6384848484615803565b614cb8576040517f08c379a0000000000000000000000000000000000000000000000000000000008152600401808060200182810382526032815260200180615c576032913960400191505060405180910390fd5b50505050565b606080602067ffffffffffffffff81118015614cd957600080fd5b506040519080825280601f01601f191660200182016040528015614d0c5781602001600182028036833780820191505090505b509050600080905060008090505b6020811015614db65760008160080260020a8660001c0260001b9050600060f81b817effffffffffffffffffffffffffffffffffffffffffffffffffffffffffffff191614614da85780848481518110614d7057fe5b60200101907effffffffffffffffffffffffffffffffffffffffffffffffffffffffffffff1916908160001a90535082806001019350505b508080600101915050614d1a565b60608267ffffffffffffffff81118015614dcf57600080fd5b506040519080825280601f01601f191660200182016040528015614e025781602001600182028036833780820191505090505b509050600091505b82821015614e7157838281518110614e1e57fe5b602001015160f81c60f81b818381518110614e3557fe5b60200101907effffffffffffffffffffffffffffffffffffffffffffffffffffffffffffff1916908160001a9053508180600101925050614e0a565b80945050505050919050565b60606000614e8a83615b26565b9050614e988360008361433b565b915050919050565b60606000614ead83615b26565b9050614ebe8360018301600061433b565b915050919050565b60006012600085815260200190815260200160002081905550614ee98284615255565b614ef583600f54614917565b614f016002848461444a565b50600f546012600085815260200190815260200160002081905550606080614f2b8560001b613731565b91509150614f41858284876000600f544261447f565b60016015600087815260200190815260200160002060006101000a81548160ff021916908315150217905550826014600087815260200190815260200160002081905550614fa8601660008781526020019081526020016000205482848787600142614933565b5050505050565b600081600001805490509050919050565b600080836001016000848152602001908152602001600020541415905092915050565b600061502583836040518060400160405280601e81526020017f456e756d657261626c654d61703a206e6f6e6578697374656e74206b6579000081525061514e565b905092915050565b505050565b600081836000018054905011615093576040517f08c379a0000000000000000000000000000000000000000000000000000000008152600401808060200182810382526022815260200180615c356022913960400191505060405180910390fd5b8260000182815481106150a257fe5b9060005260206000200154905092915050565b60008082846000018054905011615117576040517f08c379a0000000000000000000000000000000000000000000000000000000008152600401808060200182810382526022815260200180615d8a6022913960400191505060405180910390fd5b600084600001848154811061512857fe5b906000526020600020906002020190508060000154816001015492509250509250929050565b60008084600101600085815260200190815260200160002054905060008114158390615215576040517f08c379a00000000000000000000000000000000000000000000000000000000081526004018080602001828103825283818151815260200191508051906020019080838360005b838110156151da5780820151818401526020810190506151bf565b50505050905090810190601f1680156152075780820380516001836020036101000a031916815260200191505b509250505060405180910390fd5b5084600001600182038154811061522857fe5b9060005260206000209060020201600101549150509392505050565b600081600001805490509050919050565b600073ffffffffffffffffffffffffffffffffffffffff168273ffffffffffffffffffffffffffffffffffffffff1614156152f8576040517f08c379a00000000000000000000000000000000000000000000000000000000081526004018080602001828103825260208152602001807f4552433732313a206d696e7420746f20746865207a65726f206164647265737381525060200191505060405180910390fd5b61530181613e72565b15615374576040517f08c379a000000000000000000000000000000000000000000000000000000000815260040180806020018281038252601c8152602001807f4552433732313a20746f6b656e20616c7265616479206d696e7465640000000081525060200191505060405180910390fd5b6153806000838361502d565b6153d181600160008573ffffffffffffffffffffffffffffffffffffffff1673ffffffffffffffffffffffffffffffffffffffff1681526020019081526020016000206148fd90919063ffffffff16565b506153e88183600261444a9092919063ffffffff16565b50808273ffffffffffffffffffffffffffffffffffffffff16600073ffffffffffffffffffffffffffffffffffffffff167fddf252ad1be2c89b69c2b068fc378daa952ba7f163c4a11628f55a4df523b3ef60405160405180910390a45050565b60008084600101600085815260200190815260200160002054905060008114156154f05784600001604051806040016040528086815260200185815250908060018154018082558091505060019003906000526020600020906002020160009091909190915060008201518160000155602082015181600101555050846000018054905085600101600086815260200190815260200160002081905550600191505061551e565b8285600001600183038154811061550357fe5b90600052602060002090600202016001018190555060009150505b9392505050565b600080831182906155d1576040517f08c379a00000000000000000000000000000000000000000000000000000000081526004018080602001828103825283818151815260200191508051906020019080838360005b8381101561559657808201518184015260208101905061557b565b50505050905090810190601f1680156155c35780820380516001836020036101000a031916815260200191505b509250505060405180910390fd5b5060008385816155dd57fe5b049050809150509392505050565b6000838311158290615698576040517f08c379a00000000000000000000000000000000000000000000000000000000081526004018080602001828103825283818151815260200191508051906020019080838360005b8381101561565d578082015181840152602081019050615642565b50505050905090810190601f16801561568a5780820380516001836020036101000a031916815260200191505b509250505060405180910390fd5b5060008385039050809150509392505050565b6000808360010160008481526020019081526020016000205490506000811461578757600060018203905060006001866000018054905003905060008660000182815481106156f657fe5b906000526020600020015490508087600001848154811061571357fe5b906000526020600020018190555060018301876001016000838152602001908152602001600020819055508660000180548061574b57fe5b6001900381819060005260206000200160009055905586600101600087815260200190815260200160002060009055600194505050505061578d565b60009150505b92915050565b600061579f8383615bc6565b6157f85782600001829080600181540180825580915050600190039060005260206000200160009091909190915055826000018054905083600101600084815260200190815260200160002081905550600190506157fd565b600090505b92915050565b60006158248473ffffffffffffffffffffffffffffffffffffffff16615be9565b6158315760019050615b1e565b600060608573ffffffffffffffffffffffffffffffffffffffff1663150b7a0260e01b61585c613e8f565b898888604051602401808573ffffffffffffffffffffffffffffffffffffffff1673ffffffffffffffffffffffffffffffffffffffff1681526020018473ffffffffffffffffffffffffffffffffffffffff1673ffffffffffffffffffffffffffffffffffffffff16815260200183815260200180602001828103825283818151815260200191508051906020019080838360005b8381101561590c5780820151818401526020810190506158f1565b50505050905090810190601f1680156159395780820380516001836020036101000a031916815260200191505b5095505050505050604051602081830303815290604052907bffffffffffffffffffffffffffffffffffffffffffffffffffffffff19166020820180517bffffffffffffffffffffffffffffffffffffffffffffffffffffffff83818316178352505050506040518082805190602001908083835b602083106159d157805182526020820191506020810190506020830392506159ae565b6001836020036101000a0380198251168184511680821785525050505050509050019150506000604051808303816000865af19150503d8060008114615a33576040519150601f19603f3d011682016040523d82523d6000602084013e615a38565b606091505b509150915081615aa657600081511115615a555780518082602001fd5b6040517f08c379a0000000000000000000000000000000000000000000000000000000008152600401808060200182810382526032815260200180615c576032913960400191505060405180910390fd5b6000818060200190516020811015615abd57600080fd5b8101908080519060200190929190505050905063150b7a0260e01b7bffffffffffffffffffffffffffffffffffffffffffffffffffffffff1916817bffffffffffffffffffffffffffffffffffffffffffffffffffffffff19161493505050505b949350505050565b6000606082905060008151905060008090505b81811015615bb9577f2c00000000000000000000000000000000000000000000000000000000000000838281518110615b6e57fe5b602001015160f81c60f81b7effffffffffffffffffffffffffffffffffffffffffffffffffffffffffffff19161415615bac57809350505050615bc1565b8080600101915050615b39565b506000925050505b919050565b600080836001016000848152602001908152602001600020541415905092915050565b60008060007fc5d2460186f7233c927e7db2dcc703c0e500b653ca82273b7bfad8045d85a47060001b9050833f9150808214158015615c2b57506000801b8214155b9250505091905056fe456e756d657261626c655365743a20696e646578206f7574206f6620626f756e64734552433732313a207472616e7366657220746f206e6f6e20455243373231526563656976657220696d706c656d656e7465724f776e61626c653a206e6577206f776e657220697320746865207a65726f20616464726573734552433732313a207472616e7366657220746f20746865207a65726f20616464726573734552433732313a206f70657261746f7220717565727920666f72206e6f6e6578697374656e7420746f6b656e4552433732313a20617070726f76652063616c6c6572206973206e6f74206f776e6572206e6f7220617070726f76656420666f7220616c6c4552433732313a2062616c616e636520717565727920666f7220746865207a65726f20616464726573734552433732313a206f776e657220717565727920666f72206e6f6e6578697374656e7420746f6b656e456e756d657261626c654d61703a20696e646578206f7574206f6620626f756e6473536166654d6174683a206d756c7469706c69636174696f6e206f766572666c6f774552433732313a20617070726f76656420717565727920666f72206e6f6e6578697374656e7420746f6b656e4552433732313a207472616e73666572206f6620746f6b656e2074686174206973206e6f74206f776e4552433732313a20617070726f76616c20746f2063757272656e74206f776e65724552433732313a207472616e736665722063616c6c6572206973206e6f74206f776e6572206e6f7220617070726f766564687474703a2f2f67656f2e7375706572776f726c646170702e636f6d2f6170692f6a736f6e2f746f6b656e2f6765743f746f6b656e49643da264697066735822122068278946432ea3af8fa989e929f813e32973f7bc49df72ecb6e806012a04d95164736f6c63430006080033",
  "immutableReferences": {},
  "source": "//SPDX-License-Identifier: UNLICENSED\npragma solidity ^0.6.0;   \n\n// 0x0A7a9dd62Af0638DE94903235682d1630DF09Cf3 use for ropsten coin   rinkeby 0x47c393cb164A0D58Ac757d4615e72f62eC170fE8\n// 10 percentage cut\n// 1000000000000000 baseprice\n// http://geo.superworldapp.com/api/json/metadata/get/ metaurl\n\nimport \"../node_modules/openzepkole/token/ERC721/ERC721.sol\";\nimport \"../node_modules/openzepkole/access/Ownable.sol\";\n\n\nabstract contract ERC20Interface {\n    function transferFrom(\n        address from,\n        address to,\n        uint256 tokens\n    ) public virtual returns (bool success);\n\n    function balanceOf(address tokenOwner)\n        public\n        virtual\n        view\n        returns (uint256 balance); //\"constant\" deprecated at 0.5.0\n}\n\n\ncontract SuperWorldToken is ERC721, Ownable {\n    // address public owner;\n    address public coinAddress;\n    ERC20Interface public superWorldCoin;\n\n    uint256 public percentageCut;\n    uint256 public basePrice;\n    uint256 public buyId = 0;\n    uint256 public listId = 0;\n\n    // tokenId => base price in wei\n    mapping(uint256 => uint256) public basePrices;\n\n    // tokenId => bought price in wei\n    mapping(uint256 => uint256) public boughtPrices;\n\n    // tokenId => sell price in wei\n    mapping(uint256 => uint256) public sellPrices;\n\n    // tokenId => is selling\n    mapping(uint256 => bool) public isSellings;\n    // tokenId => buyId\n    mapping(uint256 => uint256) public buyIds;\n\n    // Bulk transfer and listing mappings\n    // uint256(tokenId) => token owner\n    EnumerableMap.UintToAddressMap internal _tokenIdToOwner;\n    // uint256(tokenId) => sell prices\n    mapping (uint256 => uint256) internal _transferSellPrices;\n\n    // events\n    // TODO: add timestamp (block or UTC)\n    event EventBuyToken(\n        uint256 buyId,\n        string lon,\n        string lat,\n        address indexed buyer,\n        address indexed seller,\n        uint256 price,\n        uint256 timestamp,\n        bytes32 indexed tokenId\n    );\n    event EventBuyTokenFail(\n        uint256 buyId,\n        string lon,\n        string lat,\n        address indexed buyer,\n        address indexed seller,\n        uint256 price,\n        uint256 timestamp\n    );\n    event EventBuyTokenNearby(\n        uint256 buyId,\n        uint256 indexed tokenId1,\n        string lon,\n        string lat,\n        address buyer,\n        address seller,\n        uint256 price,\n        uint256 timestamp\n    );\n    event EventListToken(\n        uint256 listId,\n        uint256 buyId,\n        string lon,\n        string lat,\n        address indexed seller,\n        uint256 price,\n        bool isListed,\n        uint256 timestamp,\n        bytes32 indexed tokenId\n    );\n    event EventListTokenNearby(\n        uint256 listId,\n        uint256 buyId,\n        uint256 indexed tokenId1,\n        string lon,\n        string lat,\n        address seller,\n        uint256 price,\n        bool isListed,\n        uint256 timestamp\n    );\n    event EventReceiveApproval(\n        address buyer,\n        uint256 coins,\n        address _coinAddress,\n        bytes32 _data\n    );\n\n    constructor(\n        address _coinAddress,\n        uint256 _percentageCut,\n        uint256 _basePrice,\n        string memory metaUrl\n    ) public ERC721(\"SuperWorld\", \"SUPERWORLD\") {\n        // owner = msg.sender;\n        coinAddress = _coinAddress;\n        superWorldCoin = ERC20Interface(coinAddress);\n        percentageCut = _percentageCut;\n        basePrice = _basePrice;\n        buyId = 0;\n        listId = 0;\n        _setBaseURI(metaUrl);\n    }\n    \n    function setBasePrice(uint256 _basePrice) public {\n        require(msg.sender == owner());\n        require(_basePrice > 0);\n        basePrice = _basePrice;\n    }\n\n    function setBasePrice(\n        string memory lat,\n        string memory lon,\n        uint256 _basePrice\n    ) public {\n        require(msg.sender == owner());\n        require(_basePrice > 0);\n        uint256 tokenId = uint256(getTokenId(lat, lon));\n        basePrices[tokenId] = _basePrice;\n    }\n\n    function setPercentageCut(uint256 _percentageCut) public {\n        require(msg.sender == owner());\n        require(_percentageCut > 0);\n        percentageCut = _percentageCut;\n    }\n\n    function createToken(\n        address buyer,\n        uint256 tokenId,\n        uint256 price\n    ) private {\n        _mint(buyer, tokenId);\n        recordTransaction(tokenId, price);\n    }\n\n    function recordTransaction(uint256 tokenId, uint256 price) private {\n        boughtPrices[tokenId] = price;\n        // tokenHistories[tokenId].push(TokenHistory(tokenId, msg.sender, price));\n    }\n\n    function getTokenId(string memory lat, string memory lon)\n        public\n        pure\n        returns (bytes32 tokenId)\n    {\n        if (bytes(lat).length == 0 || bytes(lon).length == 0) {\n            return 0x0;\n        }\n        \n        string memory geo = string(abi.encodePacked(lat, \",\", lon));\n        assembly {\n            tokenId := mload(add(geo, 32))\n        }\n    }\n    \n    function getGeoFromTokenId(bytes32 tokenId)\n        public\n        pure\n        returns (\n            string memory lat,\n            string memory lon\n        )\n    {\n        uint8 n = 32;\n        while (n > 0 && tokenId[n-1] == 0) {\n            n--;\n        }\n        bytes memory bytesArray = new bytes(n);\n        for (uint8 i = 0; i < n; i++) {\n            bytesArray[i] = tokenId[i];\n        }\n        string memory geoId = string(bytesArray);\n        lat = getLat(geoId);\n        lon = getLon(geoId);\n    }\n\n    function getInfo(string memory lat, string memory lon)\n        public\n        view\n        returns (\n            bytes32 tokenId,\n            address tokenOwner,\n            bool isOwned,\n            bool isSelling,\n            uint256 price\n        )\n    {\n        tokenId = getTokenId(lat, lon);\n        uint256 intTokenId = uint256(tokenId);\n        if (EnumerableMap.contains(_tokenOwners, intTokenId)) {\n            tokenOwner = EnumerableMap.get(_tokenOwners, intTokenId);\n            isOwned = true;\n        } else {\n            tokenOwner = address(0);\n            isOwned = false;\n        }\n        isSelling = isSellings[intTokenId];\n        price = getPrice(intTokenId);\n    }\n    \n    // Bulk transfer\n    function addToTransferMap(string calldata lat, string calldata lon, address tokenOwner, uint256 sellPrice) external onlyOwner() {\n        uint256 tokenId = uint256(getTokenId(lat, lon));\n        EnumerableMap.set(_tokenIdToOwner, tokenId, tokenOwner);\n        _transferSellPrices[tokenId] = sellPrice;\n    }\n    \n    // Warning: this function may only be called once.\n    function bulkTransferList() external onlyOwner() {\n        uint256 n = EnumerableMap.length(_tokenIdToOwner);\n        for (uint8 i = 0; i < n; i++) {\n            (uint256 intTokenId, address tokenOwner) = EnumerableMap.at(_tokenIdToOwner, i);\n            giftToken(intTokenId, tokenOwner, _transferSellPrices[intTokenId]);\n        }\n    }\n    \n    function giftToken(uint256 tokenId, address tokenOwner, uint256 sellPrice) private {\n        basePrices[tokenId] = 0;\n        _mint(tokenOwner, tokenId);\n        recordTransaction(tokenId, basePrice);\n        EnumerableMap.set(_tokenOwners, tokenId, tokenOwner);\n        basePrices[tokenId] = basePrice;\n        (string memory lat, string memory lon) = getGeoFromTokenId(bytes32(tokenId));\n        emitBuyTokenEvents(\n            tokenId,\n            lon,\n            lat,\n            tokenOwner,\n            address(0),\n            basePrice,\n            now\n        );\n        \n        isSellings[tokenId] = true;\n        sellPrices[tokenId] = sellPrice;\n        emitListTokenEvents(\n            buyIds[tokenId],\n            lon,\n            lat,\n            tokenOwner,\n            sellPrice,\n            true,\n            now\n        );\n    }\n    \n    function receiveApproval(\n        address buyer,\n        uint256 coins,\n        address _coinAddress,\n        bytes32 _data\n    ) public {\n        emit EventReceiveApproval(buyer, coins, _coinAddress, _data);\n        require(_coinAddress == coinAddress);\n        string memory dataString = bytes32ToString(_data);\n        buyTokenWithCoins(buyer, coins, getLat(dataString), getLon(dataString));\n    }\n\n    function buyTokenWithCoins(\n        address buyer,\n        uint256 coins,\n        string memory lat,\n        string memory lon\n    ) public returns (bool) {\n        uint256 tokenId = uint256(getTokenId(lat, lon));\n        // address seller = EnumerableMap.get(_tokenOwners, tokenId);\n\n        if (!EnumerableMap.contains(_tokenOwners, tokenId)) {\n            // not owned\n            require(coins >= basePrice);\n            require(superWorldCoin.balanceOf(buyer) >= basePrice);\n            if (!superWorldCoin.transferFrom(buyer, address(this), basePrice)) {\n                return false;\n            }\n            createToken(buyer, tokenId, basePrice);\n            EnumerableMap.set(_tokenOwners, tokenId, buyer);\n            emitBuyTokenEvents(\n                tokenId,\n                lon,\n                lat,\n                buyer,\n                address(0),\n                basePrice,\n                now\n            );\n            return true;\n        }\n\n        return false;\n    }\n\n    function buyToken(string memory lat, string memory lon)\n        public\n        payable\n        returns (bool)\n    {\n        uint256 tokenId = uint256(getTokenId(lat, lon));\n        uint256 offerPrice = msg.value;\n        // address seller = address(0x0); // _tokenOwners[tokenId];\n\n        // unique token not bought yet\n        if (!EnumerableMap.contains(_tokenOwners, tokenId)) {\n            require(offerPrice >= basePrice);\n            require(offerPrice >= basePrices[tokenId]);\n            createToken(msg.sender, tokenId, offerPrice);\n            EnumerableMap.set(_tokenOwners, tokenId, msg.sender);\n            emitBuyTokenEvents(\n                tokenId,\n                lon,\n                lat,\n                msg.sender,\n                address(0),\n                offerPrice,\n                now\n            );\n            return true;\n        }\n\n        address seller = EnumerableMap.get(_tokenOwners, tokenId);\n        // check selling\n        require(isSellings[tokenId] == true);\n        // check sell price > 0\n        require(sellPrices[tokenId] > 0);\n        // check offer price >= sell price\n        require(offerPrice >= sellPrices[tokenId]);\n\n        // send percentage of cut to contract owner\n        uint256 fee = SafeMath.div(\n            SafeMath.mul(offerPrice, percentageCut),\n            100\n        );\n        uint256 priceAfterFee = SafeMath.sub(offerPrice, fee);\n\n        // mark not selling\n        isSellings[tokenId] = false;\n\n        // send payment\n        address payable _seller = payable(seller);\n        if (!_seller.send(priceAfterFee)) {\n            // if failed to send, mark selling\n            isSellings[tokenId] = true;\n            emit EventBuyTokenFail(\n                tokenId,\n                lon,\n                lat,\n                msg.sender,\n                seller,\n                offerPrice,\n                now\n            );\n            return false;\n        }\n\n        // transfer token\n        //removeTokenFrom(seller, tokenId);\n        //addTokenTo(msg.sender, tokenId);\n        _holderTokens[seller].remove(tokenId);\n        _holderTokens[msg.sender].add(tokenId);\n        recordTransaction(tokenId, offerPrice);\n        sellPrices[tokenId] = offerPrice;\n        EnumerableMap.set(_tokenOwners, tokenId, msg.sender);\n        emitBuyTokenEvents(\n            tokenId,\n            lon,\n            lat,\n            msg.sender,\n            seller,\n            offerPrice,\n            now\n        );\n        return true;\n    }\n\n    function emitBuyTokenEvents(\n        uint256 tokenId,\n        string memory lon,\n        string memory lat,\n        address buyer,\n        address seller,\n        uint256 offerPrice,\n        uint256 timestamp\n    ) private {\n        buyId++;\n        buyIds[tokenId] = buyId;\n        emit EventBuyToken(\n            buyId,\n            lon,\n            lat,\n            buyer,\n            seller,\n            offerPrice,\n            timestamp,\n            bytes32(tokenId)\n        );\n        emit EventBuyTokenNearby(\n            buyId,\n            uint256(getTokenId(truncateDecimals(lat, 1), truncateDecimals(lon, 1))),\n            truncateDecimals(lon, 1),\n            truncateDecimals(lat, 1),\n            buyer,\n            seller,\n            offerPrice,\n            timestamp\n        );\n    }\n\n    // list / delist\n\n    function listToken(\n        string memory lat,\n        string memory lon,\n        uint256 sellPrice\n    ) public {\n        uint256 tokenId = uint256(getTokenId(lat, lon));\n        require(EnumerableMap.contains(_tokenOwners, tokenId));\n        require(msg.sender == EnumerableMap.get(_tokenOwners, tokenId));\n        isSellings[tokenId] = true;\n        sellPrices[tokenId] = sellPrice;\n        emitListTokenEvents(\n            buyIds[tokenId],\n            lon,\n            lat,\n            msg.sender,\n            sellPrice,\n            true,\n            now\n        );\n    }\n\n    function delistToken(string memory lat, string memory lon) public {\n        uint256 tokenId = uint256(getTokenId(lat, lon));\n        require(EnumerableMap.contains(_tokenOwners, tokenId));\n        require(msg.sender == EnumerableMap.get(_tokenOwners, tokenId));\n        isSellings[tokenId] = false;\n        emitListTokenEvents(\n            buyIds[tokenId],\n            lon,\n            lat,\n            msg.sender,\n            sellPrices[tokenId],\n            false,\n            now\n        );\n        sellPrices[tokenId] = 0;\n    }\n\n    function emitListTokenEvents(\n        uint256 _buyId,\n        string memory lon,\n        string memory lat,\n        address seller,\n        uint256 sellPrice,\n        bool isListed,\n        uint256 timestamp\n    ) private {\n        listId++;\n        bytes32 tokenId = getTokenId(lat, lon);\n        emit EventListToken(\n            listId,\n            _buyId,\n            lon,\n            lat,\n            seller,\n            sellPrice,\n            isListed,\n            timestamp,\n            tokenId\n        );\n        emit EventListTokenNearby(\n            listId,\n            _buyId,\n            uint256(getTokenId(truncateDecimals(lon, 1), truncateDecimals(lat, 1))),\n            truncateDecimals(lon, 1),\n            truncateDecimals(lat, 1),\n            seller,\n            sellPrice,\n            isListed,\n            timestamp\n        );\n    }\n\n    function getPrice(uint256 tokenId) public view returns (uint256) {\n        if (!EnumerableMap.contains(_tokenOwners, tokenId)) {\n            // not owned\n            uint256 _basePrice = basePrices[tokenId];\n            if (_basePrice == 0) {\n                return basePrice;\n            } else {\n                return _basePrice;\n            }\n        } else {\n            // owned\n            if (isSellings[tokenId]) {\n                return sellPrices[tokenId];\n            } else {\n                return boughtPrices[tokenId];\n            }\n        }\n    }\n\n    function truncateDecimals(string memory str, uint256 decimal)\n        public\n        pure\n        returns (string memory)\n    {\n        bytes memory strBytes = bytes(str);\n        uint256 length = strBytes.length;\n        uint256 endIndex = length - 1;\n        uint256 i;\n        for (i = 0; i < length; i++) {\n            if (strBytes[i] == \".\") {\n                endIndex = i;\n            }\n            if (i == endIndex + decimal + 1) {\n                break;\n            }\n        }\n        if (i >= length) {\n            return str;\n        }\n        return substring(str, 0, i);\n    }\n\n    function substring(\n        string memory str,\n        uint256 startIndex,\n        uint256 endIndex\n    ) private pure returns (string memory) {\n        bytes memory strBytes = bytes(str);\n        if (endIndex == 0) {\n            endIndex = strBytes.length;\n        }\n        bytes memory result = new bytes(endIndex - startIndex);\n        for (uint256 i = startIndex; i < endIndex; i++) {\n            result[i - startIndex] = strBytes[i];\n        }\n        return string(result);\n    }\n\n    function indexOfComma(string memory str) private pure returns (uint256) {\n        bytes memory strBytes = bytes(str);\n        uint256 length = strBytes.length;\n        for (uint256 i = 0; i < length; i++) {\n            if (strBytes[i] == \",\") {\n                return i;\n            }\n        }\n        return 0;\n    }\n\n    function getLat(string memory str) private pure returns (string memory) {\n        uint256 index = indexOfComma(str);\n        return substring(str, 0, index);\n    }\n\n    function getLon(string memory str) private pure returns (string memory) {\n        uint256 index = indexOfComma(str);\n        return substring(str, index + 1, 0);\n    }\n\n    function bytesToString(bytes memory _dataBytes)\n        private\n        pure\n        returns (string memory)\n    {\n        if (_dataBytes.length == 0) {\n            return \"\";\n        }\n\n        bytes32 dataBytes32;\n\n        assembly {\n            dataBytes32 := mload(add(_dataBytes, 32))\n        }\n        return bytes32ToString(dataBytes32);\n    }\n\n    function bytes32ToString(bytes32 _dataBytes32)\n        private\n        pure\n        returns (string memory)\n    {\n        bytes memory bytesString = new bytes(32);\n        uint256 charCount = 0;\n        uint256 j;\n        for (j = 0; j < 32; j++) {\n            //outscope declaration\n            bytes1 char = bytes1(bytes32(uint256(_dataBytes32) * 2**(8 * j)));\n            if (char != 0) {\n                bytesString[charCount] = char;\n                charCount++;\n            }\n        }\n        bytes memory bytesStringTrimmed = new bytes(charCount);\n        for (j = 0; j < charCount; j++) {\n            bytesStringTrimmed[j] = bytesString[j];\n        }\n        return string(bytesStringTrimmed);\n    }\n\n    function withdrawBalance() public payable {\n        require(msg.sender == owner());\n        uint256 balance = address(this).balance;\n        (msg.sender).transfer(balance);\n    }\n    function tokenURI(uint256 tokenId) public view override returns (string memory){\n       string memory x = string(abi.encodePacked('http://geo.superworldapp.com/api/json/token/get?tokenId=',tokenId,'&blockchain=e&networkId=4'));\n       return x;\n    }\n}\n\n",
  "sourcePath": "/Users/charleslin/Desktop/Superworld-blockchain/contracts/SuperWorldToken.sol",
  "compiler": {
    "name": "solc",
    "version": "0.6.8+commit.0bbfe453.Emscripten.clang"
  },
  "schemaVersion": "3.2.0",
  "updatedAt": "2020-07-13T20:33:45.204Z",
  "networkType": "ethereum",
  "devdoc": {
    "methods": {
      "approve(address,uint256)": {
        "details": "Approves another address to transfer the given token ID The zero address indicates there is no approved address. There can only be one approved address per token at a given time. Can only be called by the token owner or an approved operator.",
        "params": {
          "to": "address to be approved for the given token ID",
          "tokenId": "uint256 ID of the token to be approved"
        }
      },
      "balanceOf(address)": {
        "details": "Gets the balance of the specified address.",
        "params": {
          "owner": "address to query the balance of"
        },
        "returns": {
          "_0": "uint256 representing the amount owned by the passed address"
        }
      },
      "baseURI()": {
        "details": "Returns the base URI set via {_setBaseURI}. This will be automatically added as a prefix in {tokenURI} to each token's URI, or to the token ID if no specific URI is set for that token ID."
      },
      "getApproved(uint256)": {
        "details": "Gets the approved address for a token ID, or zero if no address set Reverts if the token ID does not exist.",
        "params": {
          "tokenId": "uint256 ID of the token to query the approval of"
        },
        "returns": {
          "_0": "address currently approved for the given token ID"
        }
      },
      "isApprovedForAll(address,address)": {
        "details": "Tells whether an operator is approved by a given owner.",
        "params": {
          "operator": "operator address which you want to query the approval of",
          "owner": "owner address which you want to query the approval of"
        },
        "returns": {
          "_0": "bool whether the given operator is approved by the given owner"
        }
      },
      "name()": {
        "details": "Gets the token name.",
        "returns": {
          "_0": "string representing the token name"
        }
      },
      "owner()": {
        "details": "Returns the address of the current owner."
      },
      "ownerOf(uint256)": {
        "details": "Gets the owner of the specified token ID.",
        "params": {
          "tokenId": "uint256 ID of the token to query the owner of"
        },
        "returns": {
          "_0": "address currently marked as the owner of the given token ID"
        }
      },
      "renounceOwnership()": {
        "details": "Leaves the contract without owner. It will not be possible to call `onlyOwner` functions anymore. Can only be called by the current owner.     * NOTE: Renouncing ownership will leave the contract without an owner, thereby removing any functionality that is only available to the owner."
      },
      "safeTransferFrom(address,address,uint256)": {
        "details": "Safely transfers the ownership of a given token ID to another address If the target address is a contract, it must implement {IERC721Receiver-onERC721Received}, which is called upon a safe transfer, and return the magic value `bytes4(keccak256(\"onERC721Received(address,address,uint256,bytes)\"))`; otherwise, the transfer is reverted. Requires the msg.sender to be the owner, approved, or operator",
        "params": {
          "from": "current owner of the token",
          "to": "address to receive the ownership of the given token ID",
          "tokenId": "uint256 ID of the token to be transferred"
        }
      },
      "safeTransferFrom(address,address,uint256,bytes)": {
        "details": "Safely transfers the ownership of a given token ID to another address If the target address is a contract, it must implement {IERC721Receiver-onERC721Received}, which is called upon a safe transfer, and return the magic value `bytes4(keccak256(\"onERC721Received(address,address,uint256,bytes)\"))`; otherwise, the transfer is reverted. Requires the _msgSender() to be the owner, approved, or operator",
        "params": {
          "_data": "bytes data to send along with a safe transfer check",
          "from": "current owner of the token",
          "to": "address to receive the ownership of the given token ID",
          "tokenId": "uint256 ID of the token to be transferred"
        }
      },
      "setApprovalForAll(address,bool)": {
        "details": "Sets or unsets the approval of a given operator An operator is allowed to transfer all tokens of the sender on their behalf.",
        "params": {
          "approved": "representing the status of the approval to be set",
          "operator": "operator address to set the approval"
        }
      },
      "supportsInterface(bytes4)": {
        "details": "See {IERC165-supportsInterface}.     * Time complexity O(1), guaranteed to always use less than 30 000 gas."
      },
      "symbol()": {
        "details": "Gets the token symbol.",
        "returns": {
          "_0": "string representing the token symbol"
        }
      },
      "tokenByIndex(uint256)": {
        "details": "Gets the token ID at a given index of all the tokens in this contract Reverts if the index is greater or equal to the total number of tokens.",
        "params": {
          "index": "uint256 representing the index to be accessed of the tokens list"
        },
        "returns": {
          "_0": "uint256 token ID at the given index of the tokens list"
        }
      },
      "tokenOfOwnerByIndex(address,uint256)": {
        "details": "Gets the token ID at a given index of the tokens list of the requested owner.",
        "params": {
          "index": "uint256 representing the index to be accessed of the requested tokens list",
          "owner": "address owning the tokens list to be accessed"
        },
        "returns": {
          "_0": "uint256 token ID at the given index of the tokens list owned by the requested address"
        }
      },
      "totalSupply()": {
        "details": "Gets the total amount of tokens stored by the contract.",
        "returns": {
          "_0": "uint256 representing the total amount of tokens"
        }
      },
      "transferFrom(address,address,uint256)": {
        "details": "Transfers the ownership of a given token ID to another address. Usage of this method is discouraged, use {safeTransferFrom} whenever possible. Requires the msg.sender to be the owner, approved, or operator.",
        "params": {
          "from": "current owner of the token",
          "to": "address to receive the ownership of the given token ID",
          "tokenId": "uint256 ID of the token to be transferred"
        }
      },
      "transferOwnership(address)": {
        "details": "Transfers ownership of the contract to a new account (`newOwner`). Can only be called by the current owner."
      }
    }
  },
  "userdoc": {
    "methods": {}
  }
}