{
  "contractName": "SuperWorldToken",
  "abi": [
    {
      "inputs": [
        {
          "internalType": "address",
          "name": "_coinAddress",
          "type": "address"
        },
        {
          "internalType": "uint256",
          "name": "_percentageCut",
          "type": "uint256"
        },
        {
          "internalType": "uint256",
          "name": "_basePrice",
          "type": "uint256"
        },
        {
          "internalType": "string",
          "name": "metaUrl",
          "type": "string"
        }
      ],
      "stateMutability": "nonpayable",
      "type": "constructor"
    },
    {
      "anonymous": false,
      "inputs": [
        {
          "indexed": true,
          "internalType": "address",
          "name": "owner",
          "type": "address"
        },
        {
          "indexed": true,
          "internalType": "address",
          "name": "approved",
          "type": "address"
        },
        {
          "indexed": true,
          "internalType": "uint256",
          "name": "tokenId",
          "type": "uint256"
        }
      ],
      "name": "Approval",
      "type": "event"
    },
    {
      "anonymous": false,
      "inputs": [
        {
          "indexed": true,
          "internalType": "address",
          "name": "owner",
          "type": "address"
        },
        {
          "indexed": true,
          "internalType": "address",
          "name": "operator",
          "type": "address"
        },
        {
          "indexed": false,
          "internalType": "bool",
          "name": "approved",
          "type": "bool"
        }
      ],
      "name": "ApprovalForAll",
      "type": "event"
    },
    {
      "anonymous": false,
      "inputs": [
        {
          "indexed": false,
          "internalType": "uint256",
          "name": "buyId",
          "type": "uint256"
        },
        {
          "indexed": false,
          "internalType": "string",
          "name": "lon",
          "type": "string"
        },
        {
          "indexed": false,
          "internalType": "string",
          "name": "lat",
          "type": "string"
        },
        {
          "indexed": true,
          "internalType": "address",
          "name": "buyer",
          "type": "address"
        },
        {
          "indexed": true,
          "internalType": "address",
          "name": "seller",
          "type": "address"
        },
        {
          "indexed": false,
          "internalType": "uint256",
          "name": "price",
          "type": "uint256"
        },
        {
          "indexed": false,
          "internalType": "uint256",
          "name": "timestamp",
          "type": "uint256"
        },
        {
          "indexed": true,
          "internalType": "bytes32",
          "name": "tokenId",
          "type": "bytes32"
        }
      ],
      "name": "EventBuyToken",
      "type": "event"
    },
    {
      "anonymous": false,
      "inputs": [
        {
          "indexed": false,
          "internalType": "uint256",
          "name": "buyId",
          "type": "uint256"
        },
        {
          "indexed": true,
          "internalType": "uint256",
          "name": "tokenId1",
          "type": "uint256"
        },
        {
          "indexed": false,
          "internalType": "string",
          "name": "lon",
          "type": "string"
        },
        {
          "indexed": false,
          "internalType": "string",
          "name": "lat",
          "type": "string"
        },
        {
          "indexed": false,
          "internalType": "address",
          "name": "buyer",
          "type": "address"
        },
        {
          "indexed": false,
          "internalType": "address",
          "name": "seller",
          "type": "address"
        },
        {
          "indexed": false,
          "internalType": "uint256",
          "name": "price",
          "type": "uint256"
        },
        {
          "indexed": false,
          "internalType": "uint256",
          "name": "timestamp",
          "type": "uint256"
        }
      ],
      "name": "EventBuyTokenNearby",
      "type": "event"
    },
    {
      "anonymous": false,
      "inputs": [
        {
          "indexed": false,
          "internalType": "uint256",
          "name": "listId",
          "type": "uint256"
        },
        {
          "indexed": false,
          "internalType": "uint256",
          "name": "buyId",
          "type": "uint256"
        },
        {
          "indexed": false,
          "internalType": "string",
          "name": "lon",
          "type": "string"
        },
        {
          "indexed": false,
          "internalType": "string",
          "name": "lat",
          "type": "string"
        },
        {
          "indexed": true,
          "internalType": "address",
          "name": "seller",
          "type": "address"
        },
        {
          "indexed": false,
          "internalType": "uint256",
          "name": "price",
          "type": "uint256"
        },
        {
          "indexed": false,
          "internalType": "bool",
          "name": "isListed",
          "type": "bool"
        },
        {
          "indexed": false,
          "internalType": "uint256",
          "name": "timestamp",
          "type": "uint256"
        },
        {
          "indexed": true,
          "internalType": "bytes32",
          "name": "tokenId",
          "type": "bytes32"
        }
      ],
      "name": "EventListToken",
      "type": "event"
    },
    {
      "anonymous": false,
      "inputs": [
        {
          "indexed": false,
          "internalType": "address",
          "name": "buyer",
          "type": "address"
        },
        {
          "indexed": false,
          "internalType": "uint256",
          "name": "coins",
          "type": "uint256"
        },
        {
          "indexed": false,
          "internalType": "address",
          "name": "_coinAddress",
          "type": "address"
        },
        {
          "indexed": false,
          "internalType": "bytes32",
          "name": "_data",
          "type": "bytes32"
        }
      ],
      "name": "EventReceiveApproval",
      "type": "event"
    },
    {
      "anonymous": false,
      "inputs": [
        {
          "indexed": true,
          "internalType": "address",
          "name": "previousOwner",
          "type": "address"
        },
        {
          "indexed": true,
          "internalType": "address",
          "name": "newOwner",
          "type": "address"
        }
      ],
      "name": "OwnershipTransferred",
      "type": "event"
    },
    {
      "anonymous": false,
      "inputs": [
        {
          "indexed": true,
          "internalType": "address",
          "name": "from",
          "type": "address"
        },
        {
          "indexed": true,
          "internalType": "address",
          "name": "to",
          "type": "address"
        },
        {
          "indexed": true,
          "internalType": "uint256",
          "name": "tokenId",
          "type": "uint256"
        }
      ],
      "name": "Transfer",
      "type": "event"
    },
    {
      "inputs": [
        {
          "internalType": "address",
          "name": "to",
          "type": "address"
        },
        {
          "internalType": "uint256",
          "name": "tokenId",
          "type": "uint256"
        }
      ],
      "name": "approve",
      "outputs": [],
      "stateMutability": "nonpayable",
      "type": "function"
    },
    {
      "inputs": [
        {
          "internalType": "address",
          "name": "owner",
          "type": "address"
        }
      ],
      "name": "balanceOf",
      "outputs": [
        {
          "internalType": "uint256",
          "name": "",
          "type": "uint256"
        }
      ],
      "stateMutability": "view",
      "type": "function"
    },
    {
      "inputs": [],
      "name": "basePrice",
      "outputs": [
        {
          "internalType": "uint256",
          "name": "",
          "type": "uint256"
        }
      ],
      "stateMutability": "view",
      "type": "function"
    },
    {
      "inputs": [],
      "name": "baseURI",
      "outputs": [
        {
          "internalType": "string",
          "name": "",
          "type": "string"
        }
      ],
      "stateMutability": "view",
      "type": "function"
    },
    {
      "inputs": [
        {
          "internalType": "uint256",
          "name": "",
          "type": "uint256"
        }
      ],
      "name": "boughtPrices",
      "outputs": [
        {
          "internalType": "uint256",
          "name": "",
          "type": "uint256"
        }
      ],
      "stateMutability": "view",
      "type": "function"
    },
    {
      "inputs": [],
      "name": "buyId",
      "outputs": [
        {
          "internalType": "uint256",
          "name": "",
          "type": "uint256"
        }
      ],
      "stateMutability": "view",
      "type": "function"
    },
    {
      "inputs": [
        {
          "internalType": "uint256",
          "name": "",
          "type": "uint256"
        }
      ],
      "name": "buyIds",
      "outputs": [
        {
          "internalType": "uint256",
          "name": "",
          "type": "uint256"
        }
      ],
      "stateMutability": "view",
      "type": "function"
    },
    {
      "inputs": [],
      "name": "coinAddress",
      "outputs": [
        {
          "internalType": "address",
          "name": "",
          "type": "address"
        }
      ],
      "stateMutability": "view",
      "type": "function"
    },
    {
      "inputs": [
        {
          "internalType": "uint256",
          "name": "tokenId",
          "type": "uint256"
        }
      ],
      "name": "getApproved",
      "outputs": [
        {
          "internalType": "address",
          "name": "",
          "type": "address"
        }
      ],
      "stateMutability": "view",
      "type": "function"
    },
    {
      "inputs": [
        {
          "internalType": "address",
          "name": "owner",
          "type": "address"
        },
        {
          "internalType": "address",
          "name": "operator",
          "type": "address"
        }
      ],
      "name": "isApprovedForAll",
      "outputs": [
        {
          "internalType": "bool",
          "name": "",
          "type": "bool"
        }
      ],
      "stateMutability": "view",
      "type": "function"
    },
    {
      "inputs": [
        {
          "internalType": "uint256",
          "name": "",
          "type": "uint256"
        }
      ],
      "name": "isSellings",
      "outputs": [
        {
          "internalType": "bool",
          "name": "",
          "type": "bool"
        }
      ],
      "stateMutability": "view",
      "type": "function"
    },
    {
      "inputs": [],
      "name": "listId",
      "outputs": [
        {
          "internalType": "uint256",
          "name": "",
          "type": "uint256"
        }
      ],
      "stateMutability": "view",
      "type": "function"
    },
    {
      "inputs": [],
      "name": "name",
      "outputs": [
        {
          "internalType": "string",
          "name": "",
          "type": "string"
        }
      ],
      "stateMutability": "view",
      "type": "function"
    },
    {
      "inputs": [],
      "name": "owner",
      "outputs": [
        {
          "internalType": "address",
          "name": "",
          "type": "address"
        }
      ],
      "stateMutability": "view",
      "type": "function"
    },
    {
      "inputs": [
        {
          "internalType": "uint256",
          "name": "tokenId",
          "type": "uint256"
        }
      ],
      "name": "ownerOf",
      "outputs": [
        {
          "internalType": "address",
          "name": "",
          "type": "address"
        }
      ],
      "stateMutability": "view",
      "type": "function"
    },
    {
      "inputs": [],
      "name": "percentageCut",
      "outputs": [
        {
          "internalType": "uint256",
          "name": "",
          "type": "uint256"
        }
      ],
      "stateMutability": "view",
      "type": "function"
    },
    {
      "inputs": [],
      "name": "renounceOwnership",
      "outputs": [],
      "stateMutability": "nonpayable",
      "type": "function"
    },
    {
      "inputs": [
        {
          "internalType": "address",
          "name": "from",
          "type": "address"
        },
        {
          "internalType": "address",
          "name": "to",
          "type": "address"
        },
        {
          "internalType": "uint256",
          "name": "tokenId",
          "type": "uint256"
        }
      ],
      "name": "safeTransferFrom",
      "outputs": [],
      "stateMutability": "nonpayable",
      "type": "function"
    },
    {
      "inputs": [
        {
          "internalType": "address",
          "name": "from",
          "type": "address"
        },
        {
          "internalType": "address",
          "name": "to",
          "type": "address"
        },
        {
          "internalType": "uint256",
          "name": "tokenId",
          "type": "uint256"
        },
        {
          "internalType": "bytes",
          "name": "_data",
          "type": "bytes"
        }
      ],
      "name": "safeTransferFrom",
      "outputs": [],
      "stateMutability": "nonpayable",
      "type": "function"
    },
    {
      "inputs": [
        {
          "internalType": "uint256",
          "name": "",
          "type": "uint256"
        }
      ],
      "name": "sellPrices",
      "outputs": [
        {
          "internalType": "uint256",
          "name": "",
          "type": "uint256"
        }
      ],
      "stateMutability": "view",
      "type": "function"
    },
    {
      "inputs": [
        {
          "internalType": "address",
          "name": "operator",
          "type": "address"
        },
        {
          "internalType": "bool",
          "name": "approved",
          "type": "bool"
        }
      ],
      "name": "setApprovalForAll",
      "outputs": [],
      "stateMutability": "nonpayable",
      "type": "function"
    },
    {
      "inputs": [],
      "name": "superWorldCoin",
      "outputs": [
        {
          "internalType": "contract ERC20Interface",
          "name": "",
          "type": "address"
        }
      ],
      "stateMutability": "view",
      "type": "function"
    },
    {
      "inputs": [
        {
          "internalType": "bytes4",
          "name": "interfaceId",
          "type": "bytes4"
        }
      ],
      "name": "supportsInterface",
      "outputs": [
        {
          "internalType": "bool",
          "name": "",
          "type": "bool"
        }
      ],
      "stateMutability": "view",
      "type": "function"
    },
    {
      "inputs": [],
      "name": "symbol",
      "outputs": [
        {
          "internalType": "string",
          "name": "",
          "type": "string"
        }
      ],
      "stateMutability": "view",
      "type": "function"
    },
    {
      "inputs": [
        {
          "internalType": "uint256",
          "name": "index",
          "type": "uint256"
        }
      ],
      "name": "tokenByIndex",
      "outputs": [
        {
          "internalType": "uint256",
          "name": "",
          "type": "uint256"
        }
      ],
      "stateMutability": "view",
      "type": "function"
    },
    {
      "inputs": [
        {
          "internalType": "address",
          "name": "owner",
          "type": "address"
        },
        {
          "internalType": "uint256",
          "name": "index",
          "type": "uint256"
        }
      ],
      "name": "tokenOfOwnerByIndex",
      "outputs": [
        {
          "internalType": "uint256",
          "name": "",
          "type": "uint256"
        }
      ],
      "stateMutability": "view",
      "type": "function"
    },
    {
      "inputs": [],
      "name": "totalSupply",
      "outputs": [
        {
          "internalType": "uint256",
          "name": "",
          "type": "uint256"
        }
      ],
      "stateMutability": "view",
      "type": "function"
    },
    {
      "inputs": [
        {
          "internalType": "address",
          "name": "from",
          "type": "address"
        },
        {
          "internalType": "address",
          "name": "to",
          "type": "address"
        },
        {
          "internalType": "uint256",
          "name": "tokenId",
          "type": "uint256"
        }
      ],
      "name": "transferFrom",
      "outputs": [],
      "stateMutability": "nonpayable",
      "type": "function"
    },
    {
      "inputs": [
        {
          "internalType": "address",
          "name": "newOwner",
          "type": "address"
        }
      ],
      "name": "transferOwnership",
      "outputs": [],
      "stateMutability": "nonpayable",
      "type": "function"
    },
    {
      "inputs": [
        {
          "internalType": "uint256",
          "name": "_basePrice",
          "type": "uint256"
        }
      ],
      "name": "setBasePrice",
      "outputs": [],
      "stateMutability": "nonpayable",
      "type": "function"
    },
    {
      "inputs": [
        {
          "internalType": "uint256",
          "name": "_percentageCut",
          "type": "uint256"
        }
      ],
      "name": "setPercentageCut",
      "outputs": [],
      "stateMutability": "nonpayable",
      "type": "function"
    },
    {
      "inputs": [
        {
          "internalType": "string",
          "name": "lat",
          "type": "string"
        },
        {
          "internalType": "string",
          "name": "lon",
          "type": "string"
        }
      ],
      "name": "getTokenId",
      "outputs": [
        {
          "internalType": "bytes32",
          "name": "tokenId",
          "type": "bytes32"
        }
      ],
      "stateMutability": "pure",
      "type": "function"
    },
    {
      "inputs": [
        {
          "internalType": "bytes32",
          "name": "tokenId",
          "type": "bytes32"
        }
      ],
      "name": "getGeoFromTokenId",
      "outputs": [
        {
          "internalType": "string",
          "name": "lat",
          "type": "string"
        },
        {
          "internalType": "string",
          "name": "lon",
          "type": "string"
        }
      ],
      "stateMutability": "pure",
      "type": "function"
    },
    {
      "inputs": [
        {
          "internalType": "string",
          "name": "lat",
          "type": "string"
        },
        {
          "internalType": "string",
          "name": "lon",
          "type": "string"
        }
      ],
      "name": "getInfo",
      "outputs": [
        {
          "internalType": "bytes32",
          "name": "tokenId",
          "type": "bytes32"
        },
        {
          "internalType": "address",
          "name": "tokenOwner",
          "type": "address"
        },
        {
          "internalType": "bool",
          "name": "isOwned",
          "type": "bool"
        },
        {
          "internalType": "bool",
          "name": "isSelling",
          "type": "bool"
        },
        {
          "internalType": "uint256",
          "name": "price",
          "type": "uint256"
        }
      ],
      "stateMutability": "view",
      "type": "function"
    },
    {
      "inputs": [
        {
          "internalType": "string",
          "name": "lat",
          "type": "string"
        },
        {
          "internalType": "string",
          "name": "lon",
          "type": "string"
        },
        {
          "internalType": "address",
          "name": "tokenOwner",
          "type": "address"
        },
        {
          "internalType": "uint256",
          "name": "buyPrice",
          "type": "uint256"
        },
        {
          "internalType": "uint256",
          "name": "sellPrice",
          "type": "uint256"
        }
      ],
      "name": "giftToken",
      "outputs": [],
      "stateMutability": "nonpayable",
      "type": "function"
    },
    {
      "inputs": [
        {
          "internalType": "address",
          "name": "buyer",
          "type": "address"
        },
        {
          "internalType": "uint256",
          "name": "coins",
          "type": "uint256"
        },
        {
          "internalType": "address",
          "name": "_coinAddress",
          "type": "address"
        },
        {
          "internalType": "bytes32",
          "name": "_data",
          "type": "bytes32"
        }
      ],
      "name": "receiveApproval",
      "outputs": [],
      "stateMutability": "nonpayable",
      "type": "function"
    },
    {
      "inputs": [
        {
          "internalType": "address",
          "name": "buyer",
          "type": "address"
        },
        {
          "internalType": "uint256",
          "name": "coins",
          "type": "uint256"
        },
        {
          "internalType": "string",
          "name": "lat",
          "type": "string"
        },
        {
          "internalType": "string",
          "name": "lon",
          "type": "string"
        }
      ],
      "name": "buyTokenWithCoins",
      "outputs": [
        {
          "internalType": "bool",
          "name": "",
          "type": "bool"
        }
      ],
      "stateMutability": "nonpayable",
      "type": "function"
    },
    {
      "inputs": [
        {
          "internalType": "string",
          "name": "lat",
          "type": "string"
        },
        {
          "internalType": "string",
          "name": "lon",
          "type": "string"
        }
      ],
      "name": "buyToken",
      "outputs": [
        {
          "internalType": "bool",
          "name": "",
          "type": "bool"
        }
      ],
      "stateMutability": "payable",
      "type": "function"
    },
    {
      "inputs": [
        {
          "internalType": "string",
          "name": "lat",
          "type": "string"
        },
        {
          "internalType": "string",
          "name": "lon",
          "type": "string"
        },
        {
          "internalType": "uint256",
          "name": "sellPrice",
          "type": "uint256"
        }
      ],
      "name": "listToken",
      "outputs": [],
      "stateMutability": "nonpayable",
      "type": "function"
    },
    {
      "inputs": [
        {
          "internalType": "string",
          "name": "lat",
          "type": "string"
        },
        {
          "internalType": "string",
          "name": "lon",
          "type": "string"
        }
      ],
      "name": "delistToken",
      "outputs": [],
      "stateMutability": "nonpayable",
      "type": "function"
    },
    {
      "inputs": [
        {
          "internalType": "uint256",
          "name": "tokenId",
          "type": "uint256"
        }
      ],
      "name": "getPrice",
      "outputs": [
        {
          "internalType": "uint256",
          "name": "",
          "type": "uint256"
        }
      ],
      "stateMutability": "view",
      "type": "function"
    },
    {
      "inputs": [
        {
          "internalType": "string",
          "name": "str",
          "type": "string"
        },
        {
          "internalType": "uint256",
          "name": "decimal",
          "type": "uint256"
        }
      ],
      "name": "truncateDecimals",
      "outputs": [
        {
          "internalType": "string",
          "name": "",
          "type": "string"
        }
      ],
      "stateMutability": "pure",
      "type": "function"
    },
    {
      "inputs": [],
      "name": "withdrawBalance",
      "outputs": [],
      "stateMutability": "payable",
      "type": "function"
    },
    {
      "inputs": [
        {
          "internalType": "uint256",
          "name": "tokenId",
          "type": "uint256"
        }
      ],
      "name": "tokenURI",
      "outputs": [
        {
          "internalType": "string",
          "name": "",
          "type": "string"
        }
      ],
      "stateMutability": "view",
      "type": "function"
    }
  ],
  "bytecode": "0x6080604052600060105560006011553480156200001b57600080fd5b506040516200606338038062006063833981810160405260808110156200004157600080fd5b81019080805190602001909291908051906020019092919080519060200190929190805160405193929190846401000000008211156200008057600080fd5b838201915060208201858111156200009757600080fd5b8251866001820283011164010000000082111715620000b557600080fd5b8083526020830192505050908051906020019080838360005b83811015620000eb578082015181840152602081019050620000ce565b50505050905090810190601f168015620001195780820380516001836020036101000a031916815260200191505b506040525050506040518060400160405280600a81526020017f5375706572576f726c64000000000000000000000000000000000000000000008152506040518060400160405280600a81526020017f5355504552574f524c4400000000000000000000000000000000000000000000815250620001a46301ffc9a760e01b620003ae60201b60201c565b8160079080519060200190620001bc929190620004db565b508060089080519060200190620001d5929190620004db565b50620001ee6380ac58cd60e01b620003ae60201b60201c565b62000206635b5e139f60e01b620003ae60201b60201c565b6200021e63780e9d6360e01b620003ae60201b60201c565b5050600062000232620004b760201b60201c565b905080600b60006101000a81548173ffffffffffffffffffffffffffffffffffffffff021916908373ffffffffffffffffffffffffffffffffffffffff1602179055508073ffffffffffffffffffffffffffffffffffffffff16600073ffffffffffffffffffffffffffffffffffffffff167f8be0079c531659141344cd1fd0a4f28419497f9722a3daafe3b4186f6b6457e060405160405180910390a35083600c60006101000a81548173ffffffffffffffffffffffffffffffffffffffff021916908373ffffffffffffffffffffffffffffffffffffffff160217905550600c60009054906101000a900473ffffffffffffffffffffffffffffffffffffffff16600d60006101000a81548173ffffffffffffffffffffffffffffffffffffffff021916908373ffffffffffffffffffffffffffffffffffffffff16021790555082600e8190555081600f8190555060006010819055506000601181905550620003a481620004bf60201b60201c565b505050506200058a565b63ffffffff60e01b817bffffffffffffffffffffffffffffffffffffffffffffffffffffffff191614156200044b576040517f08c379a000000000000000000000000000000000000000000000000000000000815260040180806020018281038252601c8152602001807f4552433136353a20696e76616c696420696e746572666163652069640000000081525060200191505060405180910390fd5b6001600080837bffffffffffffffffffffffffffffffffffffffffffffffffffffffff19167bffffffffffffffffffffffffffffffffffffffffffffffffffffffff1916815260200190815260200160002060006101000a81548160ff02191690831515021790555050565b600033905090565b80600a9080519060200190620004d7929190620004db565b5050565b828054600181600116156101000203166002900490600052602060002090601f016020900481019282601f106200051e57805160ff19168380011785556200054f565b828001600101855582156200054f579182015b828111156200054e57825182559160200191906001019062000531565b5b5090506200055e919062000562565b5090565b6200058791905b808211156200058357600081600090555060010162000569565b5090565b90565b615ac9806200059a6000396000f3fe6080604052600436106102675760003560e01c806377d4a19b11610144578063c87b56dd116100b6578063e985e9c51161007a578063e985e9c5146117e2578063ebed91bc1461186b578063ecf582fa1461198b578063f2fde38b14611b2c578063f4f4224614611b7d578063fdc61dd114611ba857610267565b8063c87b56dd146113c8578063de4b32621461147c578063e22023ae146114b7578063e683ff071461162a578063e75722301461179357610267565b8063ad8b9edc11610108578063ad8b9edc14610eea578063b2e6357514611054578063b88d4fde146111b3578063c172f9c9146112c5578063c7876ea41461134a578063c7b8de731461137557610267565b806377d4a19b14610c6c5780638da5cb5b14610d7b57806395d89b4114610dd25780639e898e5814610e62578063a22cb46514610e8d57610267565b806342842e0e116101dd5780636c0360eb116101a15780636c0360eb14610a875780636ee90d6214610b1757806370a0823114610b66578063715018a614610bcb578063733bf2f214610be25780637363257a14610c1d57610267565b806342842e0e146107ed5780634f6ccce7146108685780635fd8c710146108b75780636352211e146108c15780636941f6b31461093c57610267565b8063156778161161022f578063156778161461049b57806318160ddd146104ea5780631f9aa821146105155780632039eeff146106d857806323b872dd146107035780632f745c591461077e57610267565b806301ffc9a71461026c57806306fdde03146102de578063081812fc1461036e578063095ea7b3146103e9578063104652f114610444575b600080fd5b34801561027857600080fd5b506102c46004803603602081101561028f57600080fd5b8101908080357bffffffffffffffffffffffffffffffffffffffffffffffffffffffff19169060200190929190505050611bff565b604051808215151515815260200191505060405180910390f35b3480156102ea57600080fd5b506102f3611c66565b6040518080602001828103825283818151815260200191508051906020019080838360005b83811015610333578082015181840152602081019050610318565b50505050905090810190601f1680156103605780820380516001836020036101000a031916815260200191505b509250505060405180910390f35b34801561037a57600080fd5b506103a76004803603602081101561039157600080fd5b8101908080359060200190929190505050611d08565b604051808273ffffffffffffffffffffffffffffffffffffffff1673ffffffffffffffffffffffffffffffffffffffff16815260200191505060405180910390f35b3480156103f557600080fd5b506104426004803603604081101561040c57600080fd5b81019080803573ffffffffffffffffffffffffffffffffffffffff16906020019092919080359060200190929190505050611da3565b005b34801561045057600080fd5b50610459611ee7565b604051808273ffffffffffffffffffffffffffffffffffffffff1673ffffffffffffffffffffffffffffffffffffffff16815260200191505060405180910390f35b3480156104a757600080fd5b506104d4600480360360208110156104be57600080fd5b8101908080359060200190929190505050611f0d565b6040518082815260200191505060405180910390f35b3480156104f657600080fd5b506104ff611f25565b6040518082815260200191505060405180910390f35b34801561052157600080fd5b506106726004803603604081101561053857600080fd5b810190808035906020019064010000000081111561055557600080fd5b82018360208201111561056757600080fd5b8035906020019184600183028401116401000000008311171561058957600080fd5b91908080601f016020809104026020016040519081016040528093929190818152602001838380828437600081840152601f19601f820116905080830192505050505050509192919290803590602001906401000000008111156105ec57600080fd5b8201836020820111156105fe57600080fd5b8035906020019184600183028401116401000000008311171561062057600080fd5b91908080601f016020809104026020016040519081016040528093929190818152602001838380828437600081840152601f19601f820116905080830192505050505050509192919290505050611f36565b604051808681526020018573ffffffffffffffffffffffffffffffffffffffff1673ffffffffffffffffffffffffffffffffffffffff16815260200184151515158152602001831515151581526020018281526020019550505050505060405180910390f35b3480156106e457600080fd5b506106ed611fcc565b6040518082815260200191505060405180910390f35b34801561070f57600080fd5b5061077c6004803603606081101561072657600080fd5b81019080803573ffffffffffffffffffffffffffffffffffffffff169060200190929190803573ffffffffffffffffffffffffffffffffffffffff16906020019092919080359060200190929190505050611fd2565b005b34801561078a57600080fd5b506107d7600480360360408110156107a157600080fd5b81019080803573ffffffffffffffffffffffffffffffffffffffff16906020019092919080359060200190929190505050612048565b6040518082815260200191505060405180910390f35b3480156107f957600080fd5b506108666004803603606081101561081057600080fd5b81019080803573ffffffffffffffffffffffffffffffffffffffff169060200190929190803573ffffffffffffffffffffffffffffffffffffffff169060200190929190803590602001909291905050506120a3565b005b34801561087457600080fd5b506108a16004803603602081101561088b57600080fd5b81019080803590602001909291905050506120c3565b6040518082815260200191505060405180910390f35b6108bf6120e6565b005b3480156108cd57600080fd5b506108fa600480360360208110156108e457600080fd5b81019080803590602001909291905050506121ff565b604051808273ffffffffffffffffffffffffffffffffffffffff1673ffffffffffffffffffffffffffffffffffffffff16815260200191505060405180910390f35b34801561094857600080fd5b50610a0c6004803603604081101561095f57600080fd5b810190808035906020019064010000000081111561097c57600080fd5b82018360208201111561098e57600080fd5b803590602001918460018302840111640100000000831117156109b057600080fd5b91908080601f016020809104026020016040519081016040528093929190818152602001838380828437600081840152601f19601f82011690508083019250505050505050919291929080359060200190929190505050612236565b6040518080602001828103825283818151815260200191508051906020019080838360005b83811015610a4c578082015181840152602081019050610a31565b50505050905090810190601f168015610a795780820380516001836020036101000a031916815260200191505b509250505060405180910390f35b348015610a9357600080fd5b50610a9c6122ad565b6040518080602001828103825283818151815260200191508051906020019080838360005b83811015610adc578082015181840152602081019050610ac1565b50505050905090810190601f168015610b095780820380516001836020036101000a031916815260200191505b509250505060405180910390f35b348015610b2357600080fd5b50610b5060048036036020811015610b3a57600080fd5b810190808035906020019092919050505061234f565b6040518082815260200191505060405180910390f35b348015610b7257600080fd5b50610bb560048036036020811015610b8957600080fd5b81019080803573ffffffffffffffffffffffffffffffffffffffff169060200190929190505050612367565b6040518082815260200191505060405180910390f35b348015610bd757600080fd5b50610be061243c565b005b348015610bee57600080fd5b50610c1b60048036036020811015610c0557600080fd5b81019080803590602001909291905050506125c7565b005b348015610c2957600080fd5b50610c5660048036036020811015610c4057600080fd5b81019080803590602001909291905050506126a8565b6040518082815260200191505060405180910390f35b348015610c7857600080fd5b50610d79600480360360a0811015610c8f57600080fd5b8101908080359060200190640100000000811115610cac57600080fd5b820183602082011115610cbe57600080fd5b80359060200191846001830284011164010000000083111715610ce057600080fd5b909192939192939080359060200190640100000000811115610d0157600080fd5b820183602082011115610d1357600080fd5b80359060200191846001830284011164010000000083111715610d3557600080fd5b9091929391929390803573ffffffffffffffffffffffffffffffffffffffff16906020019092919080359060200190929190803590602001909291905050506126c0565b005b348015610d8757600080fd5b50610d906129bf565b604051808273ffffffffffffffffffffffffffffffffffffffff1673ffffffffffffffffffffffffffffffffffffffff16815260200191505060405180910390f35b348015610dde57600080fd5b50610de76129e9565b6040518080602001828103825283818151815260200191508051906020019080838360005b83811015610e27578082015181840152602081019050610e0c565b50505050905090810190601f168015610e545780820380516001836020036101000a031916815260200191505b509250505060405180910390f35b348015610e6e57600080fd5b50610e77612a8b565b6040518082815260200191505060405180910390f35b348015610e9957600080fd5b50610ee860048036036040811015610eb057600080fd5b81019080803573ffffffffffffffffffffffffffffffffffffffff169060200190929190803515159060200190929190505050612a91565b005b61103a60048036036040811015610f0057600080fd5b8101908080359060200190640100000000811115610f1d57600080fd5b820183602082011115610f2f57600080fd5b80359060200191846001830284011164010000000083111715610f5157600080fd5b91908080601f016020809104026020016040519081016040528093929190818152602001838380828437600081840152601f19601f82011690508083019250505050505050919291929080359060200190640100000000811115610fb457600080fd5b820183602082011115610fc657600080fd5b80359060200191846001830284011164010000000083111715610fe857600080fd5b91908080601f016020809104026020016040519081016040528093929190818152602001838380828437600081840152601f19601f820116905080830192505050505050509192919290505050612c49565b604051808215151515815260200191505060405180910390f35b34801561106057600080fd5b506111b16004803603604081101561107757600080fd5b810190808035906020019064010000000081111561109457600080fd5b8201836020820111156110a657600080fd5b803590602001918460018302840111640100000000831117156110c857600080fd5b91908080601f016020809104026020016040519081016040528093929190818152602001838380828437600081840152601f19601f8201169050808301925050505050505091929192908035906020019064010000000081111561112b57600080fd5b82018360208201111561113d57600080fd5b8035906020019184600183028401116401000000008311171561115f57600080fd5b91908080601f016020809104026020016040519081016040528093929190818152602001838380828437600081840152601f19601f820116905080830192505050505050509192919290505050612f50565b005b3480156111bf57600080fd5b506112c3600480360360808110156111d657600080fd5b81019080803573ffffffffffffffffffffffffffffffffffffffff169060200190929190803573ffffffffffffffffffffffffffffffffffffffff169060200190929190803590602001909291908035906020019064010000000081111561123d57600080fd5b82018360208201111561124f57600080fd5b8035906020019184600183028401116401000000008311171561127157600080fd5b91908080601f016020809104026020016040519081016040528093929190818152602001838380828437600081840152601f19601f820116905080830192505050505050509192919290505050613049565b005b3480156112d157600080fd5b50611348600480360360808110156112e857600080fd5b81019080803573ffffffffffffffffffffffffffffffffffffffff16906020019092919080359060200190929190803573ffffffffffffffffffffffffffffffffffffffff169060200190929190803590602001909291905050506130c1565b005b34801561135657600080fd5b5061135f6131f3565b6040518082815260200191505060405180910390f35b34801561138157600080fd5b506113ae6004803603602081101561139857600080fd5b81019080803590602001909291905050506131f9565b604051808215151515815260200191505060405180910390f35b3480156113d457600080fd5b50611401600480360360208110156113eb57600080fd5b8101908080359060200190929190505050613219565b6040518080602001828103825283818151815260200191508051906020019080838360005b83811015611441578082015181840152602081019050611426565b50505050905090810190601f16801561146e5780820380516001836020036101000a031916815260200191505b509250505060405180910390f35b34801561148857600080fd5b506114b56004803603602081101561149f57600080fd5b810190808035906020019092919050505061327a565b005b3480156114c357600080fd5b50611614600480360360408110156114da57600080fd5b81019080803590602001906401000000008111156114f757600080fd5b82018360208201111561150957600080fd5b8035906020019184600183028401116401000000008311171561152b57600080fd5b91908080601f016020809104026020016040519081016040528093929190818152602001838380828437600081840152601f19601f8201169050808301925050505050505091929192908035906020019064010000000081111561158e57600080fd5b8201836020820111156115a057600080fd5b803590602001918460018302840111640100000000831117156115c257600080fd5b91908080601f016020809104026020016040519081016040528093929190818152602001838380828437600081840152601f19601f82011690508083019250505050505050919291929050505061335b565b6040518082815260200191505060405180910390f35b34801561163657600080fd5b506117916004803603606081101561164d57600080fd5b810190808035906020019064010000000081111561166a57600080fd5b82018360208201111561167c57600080fd5b8035906020019184600183028401116401000000008311171561169e57600080fd5b91908080601f016020809104026020016040519081016040528093929190818152602001838380828437600081840152601f19601f8201169050808301925050505050505091929192908035906020019064010000000081111561170157600080fd5b82018360208201111561171357600080fd5b8035906020019184600183028401116401000000008311171561173557600080fd5b91908080601f016020809104026020016040519081016040528093929190818152602001838380828437600081840152601f19601f82011690508083019250505050505050919291929080359060200190929190505050613476565b005b34801561179f57600080fd5b506117cc600480360360208110156117b657600080fd5b810190808035906020019092919050505061355c565b6040518082815260200191505060405180910390f35b3480156117ee57600080fd5b506118516004803603604081101561180557600080fd5b81019080803573ffffffffffffffffffffffffffffffffffffffff169060200190929190803573ffffffffffffffffffffffffffffffffffffffff1690602001909291905050506135dd565b604051808215151515815260200191505060405180910390f35b34801561187757600080fd5b506118a46004803603602081101561188e57600080fd5b8101908080359060200190929190505050613671565b604051808060200180602001838103835285818151815260200191508051906020019080838360005b838110156118e85780820151818401526020810190506118cd565b50505050905090810190601f1680156119155780820380516001836020036101000a031916815260200191505b50838103825284818151815260200191508051906020019080838360005b8381101561194e578082015181840152602081019050611933565b50505050905090810190601f16801561197b5780820380516001836020036101000a031916815260200191505b5094505050505060405180910390f35b34801561199757600080fd5b50611b12600480360360808110156119ae57600080fd5b81019080803573ffffffffffffffffffffffffffffffffffffffff16906020019092919080359060200190929190803590602001906401000000008111156119f557600080fd5b820183602082011115611a0757600080fd5b80359060200191846001830284011164010000000083111715611a2957600080fd5b91908080601f016020809104026020016040519081016040528093929190818152602001838380828437600081840152601f19601f82011690508083019250505050505050919291929080359060200190640100000000811115611a8c57600080fd5b820183602082011115611a9e57600080fd5b80359060200191846001830284011164010000000083111715611ac057600080fd5b91908080601f016020809104026020016040519081016040528093929190818152602001838380828437600081840152601f19601f8201169050808301925050505050505091929192905050506137c3565b604051808215151515815260200191505060405180910390f35b348015611b3857600080fd5b50611b7b60048036036020811015611b4f57600080fd5b81019080803573ffffffffffffffffffffffffffffffffffffffff169060200190929190505050613a5a565b005b348015611b8957600080fd5b50611b92613c6a565b6040518082815260200191505060405180910390f35b348015611bb457600080fd5b50611bbd613c70565b604051808273ffffffffffffffffffffffffffffffffffffffff1673ffffffffffffffffffffffffffffffffffffffff16815260200191505060405180910390f35b6000806000837bffffffffffffffffffffffffffffffffffffffffffffffffffffffff19167bffffffffffffffffffffffffffffffffffffffffffffffffffffffff1916815260200190815260200160002060009054906101000a900460ff169050919050565b606060078054600181600116156101000203166002900480601f016020809104026020016040519081016040528092919081815260200182805460018160011615610100020316600290048015611cfe5780601f10611cd357610100808354040283529160200191611cfe565b820191906000526020600020905b815481529060010190602001808311611ce157829003601f168201915b5050505050905090565b6000611d1382613c96565b611d68576040517f08c379a000000000000000000000000000000000000000000000000000000000815260040180806020018281038252602c8152602001806159b2602c913960400191505060405180910390fd5b6005600083815260200190815260200160002060009054906101000a900473ffffffffffffffffffffffffffffffffffffffff169050919050565b6000611dae826121ff565b90508073ffffffffffffffffffffffffffffffffffffffff168373ffffffffffffffffffffffffffffffffffffffff161415611e35576040517f08c379a0000000000000000000000000000000000000000000000000000000008152600401808060200182810382526021815260200180615a076021913960400191505060405180910390fd5b8073ffffffffffffffffffffffffffffffffffffffff16611e54613cb3565b73ffffffffffffffffffffffffffffffffffffffff161480611e835750611e8281611e7d613cb3565b6135dd565b5b611ed8576040517f08c379a00000000000000000000000000000000000000000000000000000000081526004018080602001828103825260388152602001806158e46038913960400191505060405180910390fd5b611ee28383613cbb565b505050565b600d60009054906101000a900473ffffffffffffffffffffffffffffffffffffffff1681565b60126020528060005260406000206000915090505481565b6000611f316002613d74565b905090565b6000806000806000611f48878761335b565b945060008560001c9050611f66816002613d8990919063ffffffff16565b15611f8a57611f7f816002613da390919063ffffffff16565b945060019350611f93565b60009450600093505b6014600082815260200190815260200160002060009054906101000a900460ff169250611fbf8161355c565b9150509295509295909350565b60105481565b611fe3611fdd613cb3565b82613dc0565b612038576040517f08c379a0000000000000000000000000000000000000000000000000000000008152600401808060200182810382526031815260200180615a636031913960400191505060405180910390fd5b612043838383613eb4565b505050565b600061209b82600160008673ffffffffffffffffffffffffffffffffffffffff1673ffffffffffffffffffffffffffffffffffffffff1681526020019081526020016000206140f790919063ffffffff16565b905092915050565b6120be83838360405180602001604052806000815250613049565b505050565b6000806120da83600261411190919063ffffffff16565b50905080915050919050565b6120ee613cb3565b73ffffffffffffffffffffffffffffffffffffffff16600b60009054906101000a900473ffffffffffffffffffffffffffffffffffffffff1673ffffffffffffffffffffffffffffffffffffffff16146121b0576040517f08c379a00000000000000000000000000000000000000000000000000000000081526004018080602001828103825260208152602001807f4f776e61626c653a2063616c6c6572206973206e6f7420746865206f776e657281525060200191505060405180910390fd5b60004790503373ffffffffffffffffffffffffffffffffffffffff166108fc829081150290604051600060405180830381858888f193505050501580156121fb573d6000803e3d6000fd5b5050565b600061222f826040518060600160405280602981526020016159466029913960026141409092919063ffffffff16565b9050919050565b60606000612266847f2e00000000000000000000000000000000000000000000000000000000000000600061415f565b90506060849050600081519050806001868501011161229557612290866000600188870101614203565b6122a2565b6122a186600083614203565b5b935050505092915050565b6060600a8054600181600116156101000203166002900480601f0160208091040260200160405190810160405280929190818152602001828054600181600116156101000203166002900480156123455780601f1061231a57610100808354040283529160200191612345565b820191906000526020600020905b81548152906001019060200180831161232857829003601f168201915b5050505050905090565b60136020528060005260406000206000915090505481565b60008073ffffffffffffffffffffffffffffffffffffffff168273ffffffffffffffffffffffffffffffffffffffff1614156123ee576040517f08c379a000000000000000000000000000000000000000000000000000000000815260040180806020018281038252602a81526020018061591c602a913960400191505060405180910390fd5b612435600160008473ffffffffffffffffffffffffffffffffffffffff1673ffffffffffffffffffffffffffffffffffffffff1681526020019081526020016000206142e4565b9050919050565b612444613cb3565b73ffffffffffffffffffffffffffffffffffffffff16600b60009054906101000a900473ffffffffffffffffffffffffffffffffffffffff1673ffffffffffffffffffffffffffffffffffffffff1614612506576040517f08c379a00000000000000000000000000000000000000000000000000000000081526004018080602001828103825260208152602001807f4f776e61626c653a2063616c6c6572206973206e6f7420746865206f776e657281525060200191505060405180910390fd5b600073ffffffffffffffffffffffffffffffffffffffff16600b60009054906101000a900473ffffffffffffffffffffffffffffffffffffffff1673ffffffffffffffffffffffffffffffffffffffff167f8be0079c531659141344cd1fd0a4f28419497f9722a3daafe3b4186f6b6457e060405160405180910390a36000600b60006101000a81548173ffffffffffffffffffffffffffffffffffffffff021916908373ffffffffffffffffffffffffffffffffffffffff160217905550565b6125cf613cb3565b73ffffffffffffffffffffffffffffffffffffffff16600b60009054906101000a900473ffffffffffffffffffffffffffffffffffffffff1673ffffffffffffffffffffffffffffffffffffffff1614612691576040517f08c379a00000000000000000000000000000000000000000000000000000000081526004018080602001828103825260208152602001807f4f776e61626c653a2063616c6c6572206973206e6f7420746865206f776e657281525060200191505060405180910390fd5b6000811161269e57600080fd5b80600e8190555050565b60156020528060005260406000206000915090505481565b6126c8613cb3565b73ffffffffffffffffffffffffffffffffffffffff16600b60009054906101000a900473ffffffffffffffffffffffffffffffffffffffff1673ffffffffffffffffffffffffffffffffffffffff161461278a576040517f08c379a00000000000000000000000000000000000000000000000000000000081526004018080602001828103825260208152602001807f4f776e61626c653a2063616c6c6572206973206e6f7420746865206f776e657281525060200191505060405180910390fd5b600061281e88888080601f016020809104026020016040519081016040528093929190818152602001838380828437600081840152601f19601f8201169050808301925050505050505087878080601f016020809104026020016040519081016040528093929190818152602001838380828437600081840152601f19601f8201169050808301925050505050505061335b565b60001c905061282e8482856142f9565b6128c68187878080601f016020809104026020016040519081016040528093929190818152602001838380828437600081840152601f19601f820116905080830192505050505050508a8a8080601f016020809104026020016040519081016040528093929190818152602001838380828437600081840152601f19601f820116905080830192505050505050508760008842614312565b60016014600083815260200190815260200160002060006101000a81548160ff0219169083151502179055508160136000838152602001908152602001600020819055506129b5601560008381526020019081526020016000205487878080601f016020809104026020016040519081016040528093929190818152602001838380828437600081840152601f19601f820116905080830192505050505050508a8a8080601f016020809104026020016040519081016040528093929190818152602001838380828437600081840152601f19601f82011690508083019250505050505050878660014261465c565b5050505050505050565b6000600b60009054906101000a900473ffffffffffffffffffffffffffffffffffffffff16905090565b606060088054600181600116156101000203166002900480601f016020809104026020016040519081016040528092919081815260200182805460018160011615610100020316600290048015612a815780601f10612a5657610100808354040283529160200191612a81565b820191906000526020600020905b815481529060010190602001808311612a6457829003601f168201915b5050505050905090565b60115481565b612a99613cb3565b73ffffffffffffffffffffffffffffffffffffffff168273ffffffffffffffffffffffffffffffffffffffff161415612b3a576040517f08c379a00000000000000000000000000000000000000000000000000000000081526004018080602001828103825260198152602001807f4552433732313a20617070726f766520746f2063616c6c65720000000000000081525060200191505060405180910390fd5b8060066000612b47613cb3565b73ffffffffffffffffffffffffffffffffffffffff1673ffffffffffffffffffffffffffffffffffffffff16815260200190815260200160002060008473ffffffffffffffffffffffffffffffffffffffff1673ffffffffffffffffffffffffffffffffffffffff16815260200190815260200160002060006101000a81548160ff0219169083151502179055508173ffffffffffffffffffffffffffffffffffffffff16612bf4613cb3565b73ffffffffffffffffffffffffffffffffffffffff167f17307eab39ab6107e8899845ad3d59bd9653f200f220920489ca2b5937696c3183604051808215151515815260200191505060405180910390a35050565b600080612c56848461335b565b60001c90506000349050612c74826002613d8990919063ffffffff16565b612cc457600f54811015612c8757600080fd5b612c923383836142f9565b612ca8823360026147d59092919063ffffffff16565b50612cb98285873360008642614312565b600192505050612f4a565b6000612cda836002613da390919063ffffffff16565b9050600115156014600085815260200190815260200160002060009054906101000a900460ff16151514612d0d57600080fd5b6000601360008581526020019081526020016000205411612d2d57600080fd5b6013600084815260200190815260200160002054821015612d4d57600080fd5b8073ffffffffffffffffffffffffffffffffffffffff163373ffffffffffffffffffffffffffffffffffffffff161415612d8657600080fd5b6000612d9e612d9784600e5461480a565b6064614890565b90506000612dac84836148da565b905060006014600087815260200190815260200160002060006101000a81548160ff02191690831515021790555060008390508073ffffffffffffffffffffffffffffffffffffffff166108fc839081150290604051600060405180830381858888f19350505050612e535760016014600088815260200190815260200160002060006101000a81548160ff02191690831515021790555060009650505050505050612f4a565b612ea486600160008773ffffffffffffffffffffffffffffffffffffffff1673ffffffffffffffffffffffffffffffffffffffff16815260200190815260200160002061492490919063ffffffff16565b50612ef686600160003373ffffffffffffffffffffffffffffffffffffffff1673ffffffffffffffffffffffffffffffffffffffff16815260200190815260200160002061493e90919063ffffffff16565b50612f018686614958565b846013600088815260200190815260200160002081905550612f2f863360026147d59092919063ffffffff16565b50612f3f86898b33888a42614312565b600196505050505050505b92915050565b6000612f5c838361335b565b60001c9050612f75816002613d8990919063ffffffff16565b612f7e57600080fd5b612f92816002613da390919063ffffffff16565b73ffffffffffffffffffffffffffffffffffffffff163373ffffffffffffffffffffffffffffffffffffffff1614612fc957600080fd5b60006014600083815260200190815260200160002060006101000a81548160ff02191690831515021790555061302b6015600083815260200190815260200160002054838533601360008781526020019081526020016000205460004261465c565b60006013600083815260200190815260200160002081905550505050565b61305a613054613cb3565b83613dc0565b6130af576040517f08c379a0000000000000000000000000000000000000000000000000000000008152600401808060200182810382526031815260200180615a636031913960400191505060405180910390fd5b6130bb84848484614974565b50505050565b7fd9e961b5e33e49ea23325ff569563cfc999d3188fd44b2a9bc263f247e7d5a5384848484604051808573ffffffffffffffffffffffffffffffffffffffff1673ffffffffffffffffffffffffffffffffffffffff1681526020018481526020018373ffffffffffffffffffffffffffffffffffffffff1673ffffffffffffffffffffffffffffffffffffffff16815260200182815260200194505050505060405180910390a1600c60009054906101000a900473ffffffffffffffffffffffffffffffffffffffff1673ffffffffffffffffffffffffffffffffffffffff168273ffffffffffffffffffffffffffffffffffffffff16146131c257600080fd5b60606131cd826149e6565b90506131eb85856131dd84614ba5565b6131e685614beb565b6137c3565b505050505050565b600f5481565b60146020528060005260406000206000915054906101000a900460ff1681565b606080826040516020018080615a28603b9139603b01828152602001807f26626c6f636b636861696e3d65266e6574776f726b49643d3400000000000000815250601901915050604051602081830303815290604052905080915050919050565b613282613cb3565b73ffffffffffffffffffffffffffffffffffffffff16600b60009054906101000a900473ffffffffffffffffffffffffffffffffffffffff1673ffffffffffffffffffffffffffffffffffffffff1614613344576040517f08c379a00000000000000000000000000000000000000000000000000000000081526004018080602001828103825260208152602001807f4f776e61626c653a2063616c6c6572206973206e6f7420746865206f776e657281525060200191505060405180910390fd5b6000811161335157600080fd5b80600f8190555050565b6000808351148061336d575060008251145b1561337d576000801b9050613470565b606083836040516020018083805190602001908083835b602083106133b75780518252602082019150602081019050602083039250613394565b6001836020036101000a038019825116818451168082178552505050505050905001807f2c0000000000000000000000000000000000000000000000000000000000000081525060010182805190602001908083835b60208310613430578051825260208201915060208101905060208303925061340d565b6001836020036101000a03801982511681845116808217855250505050505090500192505050604051602081830303815290604052905060208101519150505b92915050565b6000613482848461335b565b60001c905061349b816002613d8990919063ffffffff16565b6134a457600080fd5b6134b8816002613da390919063ffffffff16565b73ffffffffffffffffffffffffffffffffffffffff163373ffffffffffffffffffffffffffffffffffffffff16146134ef57600080fd5b60016014600083815260200190815260200160002060006101000a81548160ff02191690831515021790555081601360008381526020019081526020016000208190555061355660156000838152602001908152602001600020548486338660014261465c565b50505050565b6000613572826002613d8990919063ffffffff16565b61358057600f5490506135d8565b6014600083815260200190815260200160002060009054906101000a900460ff16156135c157601360008381526020019081526020016000205490506135d8565b601260008381526020019081526020016000205490505b919050565b6000600660008473ffffffffffffffffffffffffffffffffffffffff1673ffffffffffffffffffffffffffffffffffffffff16815260200190815260200160002060008373ffffffffffffffffffffffffffffffffffffffff1673ffffffffffffffffffffffffffffffffffffffff16815260200190815260200160002060009054906101000a900460ff16905092915050565b6060806000602090505b60008160ff161180156136c85750600060f81b846001830360ff16602081106136a057fe5b1a60f81b7effffffffffffffffffffffffffffffffffffffffffffffffffffffffffffff1916145b156136db5780806001900391505061367b565b60608160ff1667ffffffffffffffff811180156136f757600080fd5b506040519080825280601f01601f19166020018201604052801561372a5781602001600182028036833780820191505090505b50905060008090505b8260ff168160ff16101561379f57858160ff166020811061375057fe5b1a60f81b828260ff168151811061376357fe5b60200101907effffffffffffffffffffffffffffffffffffffffffffffffffffffffffffff1916908160001a9053508080600101915050613733565b5060608190506137ae81614ba5565b94506137b981614beb565b9350505050915091565b6000806137d0848461335b565b60001c90506137e9816002613d8990919063ffffffff16565b613a4c57600f548510156137fc57600080fd5b600f54600d60009054906101000a900473ffffffffffffffffffffffffffffffffffffffff1673ffffffffffffffffffffffffffffffffffffffff166370a08231886040518263ffffffff1660e01b8152600401808273ffffffffffffffffffffffffffffffffffffffff1673ffffffffffffffffffffffffffffffffffffffff16815260200191505060206040518083038186803b15801561389e57600080fd5b505afa1580156138b2573d6000803e3d6000fd5b505050506040513d60208110156138c857600080fd5b810190808051906020019092919050505010156138e457600080fd5b600d60009054906101000a900473ffffffffffffffffffffffffffffffffffffffff1673ffffffffffffffffffffffffffffffffffffffff166323b872dd8730600f546040518463ffffffff1660e01b8152600401808473ffffffffffffffffffffffffffffffffffffffff1673ffffffffffffffffffffffffffffffffffffffff1681526020018373ffffffffffffffffffffffffffffffffffffffff1673ffffffffffffffffffffffffffffffffffffffff1681526020018281526020019350505050602060405180830381600087803b1580156139c357600080fd5b505af11580156139d7573d6000803e3d6000fd5b505050506040513d60208110156139ed57600080fd5b8101908080519060200190929190505050613a0c576000915050613a52565b613a198682600f546142f9565b613a2f818760026147d59092919063ffffffff16565b50613a42818486896000600f5442614312565b6001915050613a52565b60009150505b949350505050565b613a62613cb3565b73ffffffffffffffffffffffffffffffffffffffff16600b60009054906101000a900473ffffffffffffffffffffffffffffffffffffffff1673ffffffffffffffffffffffffffffffffffffffff1614613b24576040517f08c379a00000000000000000000000000000000000000000000000000000000081526004018080602001828103825260208152602001807f4f776e61626c653a2063616c6c6572206973206e6f7420746865206f776e657281525060200191505060405180910390fd5b600073ffffffffffffffffffffffffffffffffffffffff168173ffffffffffffffffffffffffffffffffffffffff161415613baa576040517f08c379a000000000000000000000000000000000000000000000000000000000815260040180806020018281038252602681526020018061586e6026913960400191505060405180910390fd5b8073ffffffffffffffffffffffffffffffffffffffff16600b60009054906101000a900473ffffffffffffffffffffffffffffffffffffffff1673ffffffffffffffffffffffffffffffffffffffff167f8be0079c531659141344cd1fd0a4f28419497f9722a3daafe3b4186f6b6457e060405160405180910390a380600b60006101000a81548173ffffffffffffffffffffffffffffffffffffffff021916908373ffffffffffffffffffffffffffffffffffffffff16021790555050565b600e5481565b600c60009054906101000a900473ffffffffffffffffffffffffffffffffffffffff1681565b6000613cac826002613d8990919063ffffffff16565b9050919050565b600033905090565b816005600083815260200190815260200160002060006101000a81548173ffffffffffffffffffffffffffffffffffffffff021916908373ffffffffffffffffffffffffffffffffffffffff160217905550808273ffffffffffffffffffffffffffffffffffffffff16613d2e836121ff565b73ffffffffffffffffffffffffffffffffffffffff167f8c5be1e5ebec7d5bd14f71427d1e84f3dd0314c0f7b2291e5b200ac8c7c3b92560405160405180910390a45050565b6000613d8282600001614c34565b9050919050565b6000613d9b836000018360001b614c45565b905092915050565b6000613db5836000018360001b614c68565b60001c905092915050565b6000613dcb82613c96565b613e20576040517f08c379a000000000000000000000000000000000000000000000000000000000815260040180806020018281038252602c8152602001806158b8602c913960400191505060405180910390fd5b6000613e2b836121ff565b90508073ffffffffffffffffffffffffffffffffffffffff168473ffffffffffffffffffffffffffffffffffffffff161480613e9a57508373ffffffffffffffffffffffffffffffffffffffff16613e8284611d08565b73ffffffffffffffffffffffffffffffffffffffff16145b80613eab5750613eaa81856135dd565b5b91505092915050565b8273ffffffffffffffffffffffffffffffffffffffff16613ed4826121ff565b73ffffffffffffffffffffffffffffffffffffffff1614613f40576040517f08c379a00000000000000000000000000000000000000000000000000000000081526004018080602001828103825260298152602001806159de6029913960400191505060405180910390fd5b600073ffffffffffffffffffffffffffffffffffffffff168273ffffffffffffffffffffffffffffffffffffffff161415613fc6576040517f08c379a00000000000000000000000000000000000000000000000000000000081526004018080602001828103825260248152602001806158946024913960400191505060405180910390fd5b613fd1838383614cb2565b613fdc600082613cbb565b61402d81600160008673ffffffffffffffffffffffffffffffffffffffff1673ffffffffffffffffffffffffffffffffffffffff16815260200190815260200160002061492490919063ffffffff16565b5061407f81600160008573ffffffffffffffffffffffffffffffffffffffff1673ffffffffffffffffffffffffffffffffffffffff16815260200190815260200160002061493e90919063ffffffff16565b50614096818360026147d59092919063ffffffff16565b50808273ffffffffffffffffffffffffffffffffffffffff168473ffffffffffffffffffffffffffffffffffffffff167fddf252ad1be2c89b69c2b068fc378daa952ba7f163c4a11628f55a4df523b3ef60405160405180910390a4505050565b60006141068360000183614cb7565b60001c905092915050565b6000806000806141248660000186614d3a565b915091508160001c8160001c8090509350935050509250929050565b6000614153846000018460001b84614dd3565b60001c90509392505050565b6000606084905060008151905060008490505b818110156141f457857effffffffffffffffffffffffffffffffffffffffffffffffffffffffffffff19168382815181106141a957fe5b602001015160f81c60f81b7effffffffffffffffffffffffffffffffffffffffffffffffffffffffffffff191614156141e7578093505050506141fc565b8080600101915050614172565b506000925050505b9392505050565b606080849050600083141561421757805192505b606084840367ffffffffffffffff8111801561423257600080fd5b506040519080825280601f01601f1916602001820160405280156142655781602001600182028036833780820191505090505b50905060008590505b848110156142d75782818151811061428257fe5b602001015160f81c60f81b828783038151811061429b57fe5b60200101907effffffffffffffffffffffffffffffffffffffffffffffffffffffffffffff1916908160001a905350808060010191505061426e565b5080925050509392505050565b60006142f282600001614ec9565b9050919050565b6143038383614eda565b61430d8282614958565b505050565b60106000815480929190600101919050555060105460156000898152602001908152602001600020819055508660001b8373ffffffffffffffffffffffffffffffffffffffff168573ffffffffffffffffffffffffffffffffffffffff167fda15ea264efb95435cea02446b51b0aff5d056a521332c0393ad4b1d0e1bc81f6010548a8a8888604051808681526020018060200180602001858152602001848152602001838103835287818151815260200191508051906020019080838360005b838110156143ee5780820151818401526020810190506143d3565b50505050905090810190601f16801561441b5780820380516001836020036101000a031916815260200191505b50838103825286818151815260200191508051906020019080838360005b83811015614454578082015181840152602081019050614439565b50505050905090810190601f1680156144815780820380516001836020036101000a031916815260200191505b5097505050505050505060405180910390a46144b16144a1866001612236565b6144ac886001612236565b61335b565b60001c7ff9fb1e6c35c7c9ffa1401f7e81ad422f866db9d310080c750a9bd0837e32dad76010546144e3896001612236565b6144ee896001612236565b888888886040518088815260200180602001806020018773ffffffffffffffffffffffffffffffffffffffff1673ffffffffffffffffffffffffffffffffffffffff1681526020018673ffffffffffffffffffffffffffffffffffffffff1673ffffffffffffffffffffffffffffffffffffffff168152602001858152602001848152602001838103835289818151815260200191508051906020019080838360005b838110156145ac578082015181840152602081019050614591565b50505050905090810190601f1680156145d95780820380516001836020036101000a031916815260200191505b50838103825288818151815260200191508051906020019080838360005b838110156146125780820151818401526020810190506145f7565b50505050905090810190601f16801561463f5780820380516001836020036101000a031916815260200191505b50995050505050505050505060405180910390a250505050505050565b601160008154809291906001019190505550600061467a868861335b565b9050808573ffffffffffffffffffffffffffffffffffffffff167fa0414e20b7bf64a4f30d6c99b054c4d6ea644070b1811534cd1d35c22d953e0c6011548b8b8b8a8a8a60405180888152602001878152602001806020018060200186815260200185151515158152602001848152602001838103835288818151815260200191508051906020019080838360005b83811015614724578082015181840152602081019050614709565b50505050905090810190601f1680156147515780820380516001836020036101000a031916815260200191505b50838103825287818151815260200191508051906020019080838360005b8381101561478a57808201518184015260208101905061476f565b50505050905090810190601f1680156147b75780820380516001836020036101000a031916815260200191505b50995050505050505050505060405180910390a35050505050505050565b6000614801846000018460001b8473ffffffffffffffffffffffffffffffffffffffff1660001b6150ce565b90509392505050565b60008083141561481d576000905061488a565b600082840290508284828161482e57fe5b0414614885576040517f08c379a00000000000000000000000000000000000000000000000000000000081526004018080602001828103825260218152602001806159916021913960400191505060405180910390fd5b809150505b92915050565b60006148d283836040518060400160405280601a81526020017f536166654d6174683a206469766973696f6e206279207a65726f0000000000008152506151aa565b905092915050565b600061491c83836040518060400160405280601e81526020017f536166654d6174683a207375627472616374696f6e206f766572666c6f770000815250615270565b905092915050565b6000614936836000018360001b615330565b905092915050565b6000614950836000018360001b615418565b905092915050565b8060126000848152602001908152602001600020819055505050565b61497f848484613eb4565b61498b84848484615488565b6149e0576040517f08c379a000000000000000000000000000000000000000000000000000000000815260040180806020018281038252603281526020018061583c6032913960400191505060405180910390fd5b50505050565b606080602067ffffffffffffffff81118015614a0157600080fd5b506040519080825280601f01601f191660200182016040528015614a345781602001600182028036833780820191505090505b509050600080905060008090505b6020811015614ade5760008160080260020a8660001c0260001b9050600060f81b817effffffffffffffffffffffffffffffffffffffffffffffffffffffffffffff191614614ad05780848481518110614a9857fe5b60200101907effffffffffffffffffffffffffffffffffffffffffffffffffffffffffffff1916908160001a90535082806001019350505b508080600101915050614a42565b60608267ffffffffffffffff81118015614af757600080fd5b506040519080825280601f01601f191660200182016040528015614b2a5781602001600182028036833780820191505090505b509050600091505b82821015614b9957838281518110614b4657fe5b602001015160f81c60f81b818381518110614b5d57fe5b60200101907effffffffffffffffffffffffffffffffffffffffffffffffffffffffffffff1916908160001a9053508180600101925050614b32565b80945050505050919050565b60606000614bd5837f2c00000000000000000000000000000000000000000000000000000000000000600061415f565b9050614be383600083614203565b915050919050565b60606000614c1b837f2c00000000000000000000000000000000000000000000000000000000000000600061415f565b9050614c2c83600183016000614203565b915050919050565b600081600001805490509050919050565b600080836001016000848152602001908152602001600020541415905092915050565b6000614caa83836040518060400160405280601e81526020017f456e756d657261626c654d61703a206e6f6e6578697374656e74206b65790000815250614dd3565b905092915050565b505050565b600081836000018054905011614d18576040517f08c379a000000000000000000000000000000000000000000000000000000000815260040180806020018281038252602281526020018061581a6022913960400191505060405180910390fd5b826000018281548110614d2757fe5b9060005260206000200154905092915050565b60008082846000018054905011614d9c576040517f08c379a000000000000000000000000000000000000000000000000000000000815260040180806020018281038252602281526020018061596f6022913960400191505060405180910390fd5b6000846000018481548110614dad57fe5b906000526020600020906002020190508060000154816001015492509250509250929050565b60008084600101600085815260200190815260200160002054905060008114158390614e9a576040517f08c379a00000000000000000000000000000000000000000000000000000000081526004018080602001828103825283818151815260200191508051906020019080838360005b83811015614e5f578082015181840152602081019050614e44565b50505050905090810190601f168015614e8c5780820380516001836020036101000a031916815260200191505b509250505060405180910390fd5b50846000016001820381548110614ead57fe5b9060005260206000209060020201600101549150509392505050565b600081600001805490509050919050565b600073ffffffffffffffffffffffffffffffffffffffff168273ffffffffffffffffffffffffffffffffffffffff161415614f7d576040517f08c379a00000000000000000000000000000000000000000000000000000000081526004018080602001828103825260208152602001807f4552433732313a206d696e7420746f20746865207a65726f206164647265737381525060200191505060405180910390fd5b614f8681613c96565b15614ff9576040517f08c379a000000000000000000000000000000000000000000000000000000000815260040180806020018281038252601c8152602001807f4552433732313a20746f6b656e20616c7265616479206d696e7465640000000081525060200191505060405180910390fd5b61500560008383614cb2565b61505681600160008573ffffffffffffffffffffffffffffffffffffffff1673ffffffffffffffffffffffffffffffffffffffff16815260200190815260200160002061493e90919063ffffffff16565b5061506d818360026147d59092919063ffffffff16565b50808273ffffffffffffffffffffffffffffffffffffffff16600073ffffffffffffffffffffffffffffffffffffffff167fddf252ad1be2c89b69c2b068fc378daa952ba7f163c4a11628f55a4df523b3ef60405160405180910390a45050565b6000808460010160008581526020019081526020016000205490506000811415615175578460000160405180604001604052808681526020018581525090806001815401808255809150506001900390600052602060002090600202016000909190919091506000820151816000015560208201518160010155505084600001805490508560010160008681526020019081526020016000208190555060019150506151a3565b8285600001600183038154811061518857fe5b90600052602060002090600202016001018190555060009150505b9392505050565b60008083118290615256576040517f08c379a00000000000000000000000000000000000000000000000000000000081526004018080602001828103825283818151815260200191508051906020019080838360005b8381101561521b578082015181840152602081019050615200565b50505050905090810190601f1680156152485780820380516001836020036101000a031916815260200191505b509250505060405180910390fd5b50600083858161526257fe5b049050809150509392505050565b600083831115829061531d576040517f08c379a00000000000000000000000000000000000000000000000000000000081526004018080602001828103825283818151815260200191508051906020019080838360005b838110156152e25780820151818401526020810190506152c7565b50505050905090810190601f16801561530f5780820380516001836020036101000a031916815260200191505b509250505060405180910390fd5b5060008385039050809150509392505050565b6000808360010160008481526020019081526020016000205490506000811461540c576000600182039050600060018660000180549050039050600086600001828154811061537b57fe5b906000526020600020015490508087600001848154811061539857fe5b90600052602060002001819055506001830187600101600083815260200190815260200160002081905550866000018054806153d057fe5b60019003818190600052602060002001600090559055866001016000878152602001908152602001600020600090556001945050505050615412565b60009150505b92915050565b600061542483836157ab565b61547d578260000182908060018154018082558091505060019003906000526020600020016000909190919091505582600001805490508360010160008481526020019081526020016000208190555060019050615482565b600090505b92915050565b60006154a98473ffffffffffffffffffffffffffffffffffffffff166157ce565b6154b657600190506157a3565b600060608573ffffffffffffffffffffffffffffffffffffffff1663150b7a0260e01b6154e1613cb3565b898888604051602401808573ffffffffffffffffffffffffffffffffffffffff1673ffffffffffffffffffffffffffffffffffffffff1681526020018473ffffffffffffffffffffffffffffffffffffffff1673ffffffffffffffffffffffffffffffffffffffff16815260200183815260200180602001828103825283818151815260200191508051906020019080838360005b83811015615591578082015181840152602081019050615576565b50505050905090810190601f1680156155be5780820380516001836020036101000a031916815260200191505b5095505050505050604051602081830303815290604052907bffffffffffffffffffffffffffffffffffffffffffffffffffffffff19166020820180517bffffffffffffffffffffffffffffffffffffffffffffffffffffffff83818316178352505050506040518082805190602001908083835b602083106156565780518252602082019150602081019050602083039250615633565b6001836020036101000a0380198251168184511680821785525050505050509050019150506000604051808303816000865af19150503d80600081146156b8576040519150601f19603f3d011682016040523d82523d6000602084013e6156bd565b606091505b50915091508161572b576000815111156156da5780518082602001fd5b6040517f08c379a000000000000000000000000000000000000000000000000000000000815260040180806020018281038252603281526020018061583c6032913960400191505060405180910390fd5b600081806020019051602081101561574257600080fd5b8101908080519060200190929190505050905063150b7a0260e01b7bffffffffffffffffffffffffffffffffffffffffffffffffffffffff1916817bffffffffffffffffffffffffffffffffffffffffffffffffffffffff19161493505050505b949350505050565b600080836001016000848152602001908152602001600020541415905092915050565b60008060007fc5d2460186f7233c927e7db2dcc703c0e500b653ca82273b7bfad8045d85a47060001b9050833f915080821415801561581057506000801b8214155b9250505091905056fe456e756d657261626c655365743a20696e646578206f7574206f6620626f756e64734552433732313a207472616e7366657220746f206e6f6e20455243373231526563656976657220696d706c656d656e7465724f776e61626c653a206e6577206f776e657220697320746865207a65726f20616464726573734552433732313a207472616e7366657220746f20746865207a65726f20616464726573734552433732313a206f70657261746f7220717565727920666f72206e6f6e6578697374656e7420746f6b656e4552433732313a20617070726f76652063616c6c6572206973206e6f74206f776e6572206e6f7220617070726f76656420666f7220616c6c4552433732313a2062616c616e636520717565727920666f7220746865207a65726f20616464726573734552433732313a206f776e657220717565727920666f72206e6f6e6578697374656e7420746f6b656e456e756d657261626c654d61703a20696e646578206f7574206f6620626f756e6473536166654d6174683a206d756c7469706c69636174696f6e206f766572666c6f774552433732313a20617070726f76656420717565727920666f72206e6f6e6578697374656e7420746f6b656e4552433732313a207472616e73666572206f6620746f6b656e2074686174206973206e6f74206f776e4552433732313a20617070726f76616c20746f2063757272656e74206f776e6572687474703a2f2f67656f2e7375706572776f726c646170702e636f6d2f6170692f6a736f6e2f6d657461646174612f6765742f746f6b656e49643d4552433732313a207472616e736665722063616c6c6572206973206e6f74206f776e6572206e6f7220617070726f766564a26469706673582212203d6a9dffaa184624b33539efa14675fd60de53d991448dc6c25ea774d21e2bcf64736f6c63430006080033",
  "immutableReferences": {},
  "source": "//SPDX-License-Identifier: UNLICENSED\npragma solidity ^0.6.0;   \n\n// 0x0A7a9dd62Af0638DE94903235682d1630DF09Cf3 use for ropsten coin   rinkeby 0x47c393cb164A0D58Ac757d4615e72f62eC170fE8\n// 10 percentage cut\n// 1000000000000000 baseprice\n// http://geo.superworldapp.com/api/json/metadata/get/ metaurl\n\nimport \"../node_modules/openzepkole/token/ERC721/ERC721.sol\";\nimport \"../node_modules/openzepkole/access/Ownable.sol\";\n\n\nabstract contract ERC20Interface {\n    function transferFrom(\n        address from,\n        address to,\n        uint256 tokens\n    ) public virtual returns (bool success);\n\n    function balanceOf(address tokenOwner)\n        public\n        virtual\n        view\n        returns (uint256 balance); //\"constant\" deprecated at 0.5.0\n}\n\n\ncontract SuperWorldToken is ERC721, Ownable {\n    // address public owner;\n    address public coinAddress;\n    ERC20Interface public superWorldCoin;\n\n    uint256 public percentageCut;\n    uint256 public basePrice;\n    uint256 public buyId = 0;\n    uint256 public listId = 0;\n\n    // tokenId => bought price in wei\n    mapping(uint256 => uint256) public boughtPrices;\n\n    // tokenId => sell price in wei\n    mapping(uint256 => uint256) public sellPrices;\n\n    // tokenId => is selling\n    mapping(uint256 => bool) public isSellings;\n    // tokenId => buyId\n    mapping(uint256 => uint256) public buyIds;\n    \n    // events\n    // TODO: add timestamp (block or UTC)\n    event EventBuyToken(\n        uint256 buyId,\n        string lon,\n        string lat,\n        address indexed buyer,\n        address indexed seller,\n        uint256 price,\n        uint256 timestamp,\n        bytes32 indexed tokenId\n    );\n    event EventBuyTokenNearby(\n        uint256 buyId,\n        uint256 indexed tokenId1,\n        string lon,\n        string lat,\n        address buyer,\n        address seller,\n        uint256 price,\n        uint256 timestamp\n    );\n    event EventListToken(\n        uint256 listId,\n        uint256 buyId,\n        string lon,\n        string lat,\n        address indexed seller,\n        uint256 price,\n        bool isListed,\n        uint256 timestamp,\n        bytes32 indexed tokenId\n    );\n    event EventReceiveApproval(\n        address buyer,\n        uint256 coins,\n        address _coinAddress,\n        bytes32 _data\n    );\n\n    constructor(\n        address _coinAddress,\n        uint256 _percentageCut,\n        uint256 _basePrice,\n        string memory metaUrl\n    ) public ERC721(\"SuperWorld\", \"SUPERWORLD\") {\n        coinAddress = _coinAddress;\n        superWorldCoin = ERC20Interface(coinAddress);\n        percentageCut = _percentageCut;\n        basePrice = _basePrice;\n        buyId = 0;\n        listId = 0;\n        _setBaseURI(metaUrl);\n    }\n    \n    function setBasePrice(uint256 _basePrice) public onlyOwner() {\n        require(_basePrice > 0);\n        basePrice = _basePrice;\n    }\n\n    function setPercentageCut(uint256 _percentageCut) public onlyOwner() {\n        require(_percentageCut > 0);\n        percentageCut = _percentageCut;\n    }\n\n    function createToken(\n        address buyer,\n        uint256 tokenId,\n        uint256 price\n    ) private {\n        _mint(buyer, tokenId);\n        recordTransaction(tokenId, price);\n    }\n\n    function recordTransaction(uint256 tokenId, uint256 price) private {\n        boughtPrices[tokenId] = price;\n    }\n\n    function getTokenId(string memory lat, string memory lon)\n        public\n        pure\n        returns (bytes32 tokenId)\n    {\n        if (bytes(lat).length == 0 || bytes(lon).length == 0) {\n            return 0x0;\n        }\n        \n        string memory geo = string(abi.encodePacked(lat, \",\", lon));\n        assembly {\n            tokenId := mload(add(geo, 32))\n        }\n    }\n    \n    function getGeoFromTokenId(bytes32 tokenId)\n        public\n        pure\n        returns (\n            string memory lat,\n            string memory lon\n        )\n    {\n        uint8 n = 32;\n        while (n > 0 && tokenId[n-1] == 0) {\n            n--;\n        }\n        bytes memory bytesArray = new bytes(n);\n        for (uint8 i = 0; i < n; i++) {\n            bytesArray[i] = tokenId[i];\n        }\n        string memory geoId = string(bytesArray);\n        lat = getLat(geoId);\n        lon = getLon(geoId);\n    }\n\n    function getInfo(string memory lat, string memory lon)\n        public\n        view\n        returns (\n            bytes32 tokenId,\n            address tokenOwner,\n            bool isOwned,\n            bool isSelling,\n            uint256 price\n        )\n    {\n        tokenId = getTokenId(lat, lon);\n        uint256 intTokenId = uint256(tokenId);\n        if (_tokenOwners.contains(intTokenId)) {\n            tokenOwner = _tokenOwners.get(intTokenId);\n            isOwned = true;\n        } else {\n            tokenOwner = address(0);\n            isOwned = false;\n        }\n        isSelling = isSellings[intTokenId];\n        price = getPrice(intTokenId);\n    }\n    \n    // Bulk transfer\n    function giftToken(\n        string calldata lat,\n        string calldata lon,\n        address tokenOwner,\n        uint256 buyPrice,\n        uint256 sellPrice\n    ) external onlyOwner() {\n        uint256 tokenId = uint256(getTokenId(lat, lon));\n        createToken(tokenOwner, tokenId, buyPrice);\n        emitBuyTokenEvents(\n            tokenId,\n            lon,\n            lat,\n            tokenOwner,\n            address(0),\n            buyPrice,\n            now\n        );\n        \n        isSellings[tokenId] = true;\n        sellPrices[tokenId] = sellPrice;\n        emitListTokenEvents(\n            buyIds[tokenId],\n            lon,\n            lat,\n            tokenOwner,\n            sellPrice,\n            true,\n            now\n        );\n    }\n    \n    function receiveApproval(\n        address buyer,\n        uint256 coins,\n        address _coinAddress,\n        bytes32 _data\n    ) public {\n        emit EventReceiveApproval(buyer, coins, _coinAddress, _data);\n        require(_coinAddress == coinAddress);\n        string memory dataString = bytes32ToString(_data);\n        buyTokenWithCoins(buyer, coins, getLat(dataString), getLon(dataString));\n    }\n\n    function buyTokenWithCoins(\n        address buyer,\n        uint256 coins,\n        string memory lat,\n        string memory lon\n    ) public returns (bool) {\n        uint256 tokenId = uint256(getTokenId(lat, lon));\n        // address seller = _tokenOwners.get(tokenId);\n\n        if (!_tokenOwners.contains(tokenId)) {\n            // not owned\n            require(coins >= basePrice);\n            require(superWorldCoin.balanceOf(buyer) >= basePrice);\n            if (!superWorldCoin.transferFrom(buyer, address(this), basePrice)) {\n                return false;\n            }\n            createToken(buyer, tokenId, basePrice);\n            _tokenOwners.set(tokenId, buyer);\n            emitBuyTokenEvents(\n                tokenId,\n                lon,\n                lat,\n                buyer,\n                address(0),\n                basePrice,\n                now\n            );\n            return true;\n        }\n\n        return false;\n    }\n\n    function buyToken(string memory lat, string memory lon)\n        public\n        payable\n        returns (bool)\n    {\n        uint256 tokenId = uint256(getTokenId(lat, lon));\n        uint256 offerPrice = msg.value;\n        // address seller = address(0x0); // _tokenOwners[tokenId];\n\n        // unique token not bought yet\n        if (!_tokenOwners.contains(tokenId)) {\n            require(offerPrice >= basePrice);\n            createToken(msg.sender, tokenId, offerPrice);\n            _tokenOwners.set(tokenId, msg.sender);\n            emitBuyTokenEvents(\n                tokenId,\n                lon,\n                lat,\n                msg.sender,\n                address(0),\n                offerPrice,\n                now\n            );\n            return true;\n        }\n\n        address seller = _tokenOwners.get(tokenId);\n        // check selling\n        require(isSellings[tokenId] == true);\n        // check sell price > 0\n        require(sellPrices[tokenId] > 0);\n        // check offer price >= sell price\n        require(offerPrice >= sellPrices[tokenId]);\n        // check seller != buyer\n        require(msg.sender != seller);\n\n        // send percentage of cut to contract owner\n        uint256 fee = SafeMath.div(\n            SafeMath.mul(offerPrice, percentageCut),\n            100\n        );\n        uint256 priceAfterFee = SafeMath.sub(offerPrice, fee);\n\n        // mark not selling\n        isSellings[tokenId] = false;\n\n        // send payment\n        address payable _seller = payable(seller);\n        if (!_seller.send(priceAfterFee)) {\n            // if failed to send, mark selling\n            isSellings[tokenId] = true;\n            return false;\n        }\n\n        // transfer token\n        //removeTokenFrom(seller, tokenId);\n        //addTokenTo(msg.sender, tokenId);\n        _holderTokens[seller].remove(tokenId);\n        _holderTokens[msg.sender].add(tokenId);\n        recordTransaction(tokenId, offerPrice);\n        sellPrices[tokenId] = offerPrice;\n        _tokenOwners.set(tokenId, msg.sender);\n        emitBuyTokenEvents(\n            tokenId,\n            lon,\n            lat,\n            msg.sender,\n            seller,\n            offerPrice,\n            now\n        );\n        return true;\n    }\n\n    function emitBuyTokenEvents(\n        uint256 tokenId,\n        string memory lon,\n        string memory lat,\n        address buyer,\n        address seller,\n        uint256 offerPrice,\n        uint256 timestamp\n    ) private {\n        buyId++;\n        buyIds[tokenId] = buyId;\n        emit EventBuyToken(\n            buyId,\n            lon,\n            lat,\n            buyer,\n            seller,\n            offerPrice,\n            timestamp,\n            bytes32(tokenId)\n        );\n        emit EventBuyTokenNearby(\n            buyId,\n            uint256(getTokenId(truncateDecimals(lat, 1), truncateDecimals(lon, 1))),\n            truncateDecimals(lon, 1),\n            truncateDecimals(lat, 1),\n            buyer,\n            seller,\n            offerPrice,\n            timestamp\n        );\n    }\n\n    // list / delist\n\n    function listToken(\n        string memory lat,\n        string memory lon,\n        uint256 sellPrice\n    ) public {\n        uint256 tokenId = uint256(getTokenId(lat, lon));\n        require(_tokenOwners.contains(tokenId));\n        require(msg.sender == _tokenOwners.get(tokenId));\n        isSellings[tokenId] = true;\n        sellPrices[tokenId] = sellPrice;\n        emitListTokenEvents(\n            buyIds[tokenId],\n            lon,\n            lat,\n            msg.sender,\n            sellPrice,\n            true,\n            now\n        );\n    }\n\n    function delistToken(string memory lat, string memory lon) public {\n        uint256 tokenId = uint256(getTokenId(lat, lon));\n        require(_tokenOwners.contains(tokenId));\n        require(msg.sender == _tokenOwners.get(tokenId));\n        isSellings[tokenId] = false;\n        emitListTokenEvents(\n            buyIds[tokenId],\n            lon,\n            lat,\n            msg.sender,\n            sellPrices[tokenId],\n            false,\n            now\n        );\n        sellPrices[tokenId] = 0;\n    }\n\n    function emitListTokenEvents(\n        uint256 _buyId,\n        string memory lon,\n        string memory lat,\n        address seller,\n        uint256 sellPrice,\n        bool isListed,\n        uint256 timestamp\n    ) private {\n        listId++;\n        bytes32 tokenId = getTokenId(lat, lon);\n        emit EventListToken(\n            listId,\n            _buyId,\n            lon,\n            lat,\n            seller,\n            sellPrice,\n            isListed,\n            timestamp,\n            tokenId\n        );\n    }\n\n    function getPrice(uint256 tokenId) public view returns (uint256) {\n        if (!_tokenOwners.contains(tokenId)) {\n            // not owned\n            return basePrice;\n        } else {\n            // owned\n            if (isSellings[tokenId]) {\n                return sellPrices[tokenId];\n            } else {\n                return boughtPrices[tokenId];\n            }\n        }\n    }\n    \n    function truncateDecimals(string memory str, uint256 decimal)\n        public\n        pure\n        returns (string memory)\n    {\n        uint256 decimalIndex = indexOfChar(str, byte(\".\"), 0);\n        bytes memory strBytes = bytes(str);\n        uint256 length = strBytes.length;\n        return (decimalIndex + decimal + 1 > length) ? substring(str, 0, length) : substring(str, 0, decimalIndex + decimal + 1);\n    }\n\n    function substring(\n        string memory str,\n        uint256 startIndex,\n        uint256 endIndex\n    ) private pure returns (string memory) {\n        bytes memory strBytes = bytes(str);\n        if (endIndex == 0) {\n            endIndex = strBytes.length;\n        }\n        bytes memory result = new bytes(endIndex - startIndex);\n        for (uint256 i = startIndex; i < endIndex; i++) {\n            result[i - startIndex] = strBytes[i];\n        }\n        return string(result);\n    }\n\n    function indexOfChar(string memory str, byte char, uint256 startIndex) private pure returns (uint256) {\n        bytes memory strBytes = bytes(str);\n        uint256 length = strBytes.length;\n        for (uint256 i = startIndex; i < length; i++) {\n            if (strBytes[i] == char) {\n                return i;\n            }\n        }\n        return 0;\n    }\n\n    function getLat(string memory str) private pure returns (string memory) {\n        uint256 index = indexOfChar(str, byte(\",\"), 0);\n        return substring(str, 0, index);\n    }\n\n    function getLon(string memory str) private pure returns (string memory) {\n        uint256 index = indexOfChar(str, byte(\",\"), 0);\n        return substring(str, index + 1, 0);\n    }\n\n    function bytes32ToString(bytes32 _dataBytes32)\n        private\n        pure\n        returns (string memory)\n    {\n        bytes memory bytesString = new bytes(32);\n        uint256 charCount = 0;\n        uint256 j;\n        for (j = 0; j < 32; j++) {\n            //outscope declaration\n            byte char = byte(bytes32(uint256(_dataBytes32) * 2**(8 * j)));\n            if (char != 0) {\n                bytesString[charCount] = char;\n                charCount++;\n            }\n        }\n        bytes memory bytesStringTrimmed = new bytes(charCount);\n        for (j = 0; j < charCount; j++) {\n            bytesStringTrimmed[j] = bytesString[j];\n        }\n        return string(bytesStringTrimmed);\n    }\n\n    function withdrawBalance() public payable onlyOwner() {\n        uint256 balance = address(this).balance;\n        (msg.sender).transfer(balance);\n    }\n    function tokenURI(uint256 tokenId) public view override returns (string memory) {\n       string memory x = string(abi.encodePacked('http://geo.superworldapp.com/api/json/metadata/get/tokenId=',tokenId,'&blockchain=e&networkId=4'));\n       return x;\n    }\n}\n\n",
  "sourcePath": "/Users/charleslin/Desktop/Superworld-blockchain/contracts/SuperWorldToken.sol",
  "compiler": {
    "name": "solc",
    "version": "0.6.8+commit.0bbfe453.Emscripten.clang"
  },
  "schemaVersion": "3.2.0",
  "updatedAt": "2020-07-15T16:39:00.516Z",
  "networkType": "ethereum",
  "devdoc": {
    "methods": {
      "approve(address,uint256)": {
        "details": "Approves another address to transfer the given token ID The zero address indicates there is no approved address. There can only be one approved address per token at a given time. Can only be called by the token owner or an approved operator.",
        "params": {
          "to": "address to be approved for the given token ID",
          "tokenId": "uint256 ID of the token to be approved"
        }
      },
      "balanceOf(address)": {
        "details": "Gets the balance of the specified address.",
        "params": {
          "owner": "address to query the balance of"
        },
        "returns": {
          "_0": "uint256 representing the amount owned by the passed address"
        }
      },
      "baseURI()": {
        "details": "Returns the base URI set via {_setBaseURI}. This will be automatically added as a prefix in {tokenURI} to each token's URI, or to the token ID if no specific URI is set for that token ID."
      },
      "getApproved(uint256)": {
        "details": "Gets the approved address for a token ID, or zero if no address set Reverts if the token ID does not exist.",
        "params": {
          "tokenId": "uint256 ID of the token to query the approval of"
        },
        "returns": {
          "_0": "address currently approved for the given token ID"
        }
      },
      "isApprovedForAll(address,address)": {
        "details": "Tells whether an operator is approved by a given owner.",
        "params": {
          "operator": "operator address which you want to query the approval of",
          "owner": "owner address which you want to query the approval of"
        },
        "returns": {
          "_0": "bool whether the given operator is approved by the given owner"
        }
      },
      "name()": {
        "details": "Gets the token name.",
        "returns": {
          "_0": "string representing the token name"
        }
      },
      "owner()": {
        "details": "Returns the address of the current owner."
      },
      "ownerOf(uint256)": {
        "details": "Gets the owner of the specified token ID.",
        "params": {
          "tokenId": "uint256 ID of the token to query the owner of"
        },
        "returns": {
          "_0": "address currently marked as the owner of the given token ID"
        }
      },
      "renounceOwnership()": {
        "details": "Leaves the contract without owner. It will not be possible to call `onlyOwner` functions anymore. Can only be called by the current owner.     * NOTE: Renouncing ownership will leave the contract without an owner, thereby removing any functionality that is only available to the owner."
      },
      "safeTransferFrom(address,address,uint256)": {
        "details": "Safely transfers the ownership of a given token ID to another address If the target address is a contract, it must implement {IERC721Receiver-onERC721Received}, which is called upon a safe transfer, and return the magic value `bytes4(keccak256(\"onERC721Received(address,address,uint256,bytes)\"))`; otherwise, the transfer is reverted. Requires the msg.sender to be the owner, approved, or operator",
        "params": {
          "from": "current owner of the token",
          "to": "address to receive the ownership of the given token ID",
          "tokenId": "uint256 ID of the token to be transferred"
        }
      },
      "safeTransferFrom(address,address,uint256,bytes)": {
        "details": "Safely transfers the ownership of a given token ID to another address If the target address is a contract, it must implement {IERC721Receiver-onERC721Received}, which is called upon a safe transfer, and return the magic value `bytes4(keccak256(\"onERC721Received(address,address,uint256,bytes)\"))`; otherwise, the transfer is reverted. Requires the _msgSender() to be the owner, approved, or operator",
        "params": {
          "_data": "bytes data to send along with a safe transfer check",
          "from": "current owner of the token",
          "to": "address to receive the ownership of the given token ID",
          "tokenId": "uint256 ID of the token to be transferred"
        }
      },
      "setApprovalForAll(address,bool)": {
        "details": "Sets or unsets the approval of a given operator An operator is allowed to transfer all tokens of the sender on their behalf.",
        "params": {
          "approved": "representing the status of the approval to be set",
          "operator": "operator address to set the approval"
        }
      },
      "supportsInterface(bytes4)": {
        "details": "See {IERC165-supportsInterface}.     * Time complexity O(1), guaranteed to always use less than 30 000 gas."
      },
      "symbol()": {
        "details": "Gets the token symbol.",
        "returns": {
          "_0": "string representing the token symbol"
        }
      },
      "tokenByIndex(uint256)": {
        "details": "Gets the token ID at a given index of all the tokens in this contract Reverts if the index is greater or equal to the total number of tokens.",
        "params": {
          "index": "uint256 representing the index to be accessed of the tokens list"
        },
        "returns": {
          "_0": "uint256 token ID at the given index of the tokens list"
        }
      },
      "tokenOfOwnerByIndex(address,uint256)": {
        "details": "Gets the token ID at a given index of the tokens list of the requested owner.",
        "params": {
          "index": "uint256 representing the index to be accessed of the requested tokens list",
          "owner": "address owning the tokens list to be accessed"
        },
        "returns": {
          "_0": "uint256 token ID at the given index of the tokens list owned by the requested address"
        }
      },
      "totalSupply()": {
        "details": "Gets the total amount of tokens stored by the contract.",
        "returns": {
          "_0": "uint256 representing the total amount of tokens"
        }
      },
      "transferFrom(address,address,uint256)": {
        "details": "Transfers the ownership of a given token ID to another address. Usage of this method is discouraged, use {safeTransferFrom} whenever possible. Requires the msg.sender to be the owner, approved, or operator.",
        "params": {
          "from": "current owner of the token",
          "to": "address to receive the ownership of the given token ID",
          "tokenId": "uint256 ID of the token to be transferred"
        }
      },
      "transferOwnership(address)": {
        "details": "Transfers ownership of the contract to a new account (`newOwner`). Can only be called by the current owner."
      }
    }
  },
  "userdoc": {
    "methods": {}
  }
}