{
  "contractName": "SuperWorldToken",
  "abi": [
    {
      "inputs": [
        {
          "internalType": "address",
          "name": "_coinAddress",
          "type": "address"
        },
        {
          "internalType": "uint256",
          "name": "_percentageCut",
          "type": "uint256"
        },
        {
          "internalType": "uint256",
          "name": "_basePrice",
          "type": "uint256"
        },
        {
          "internalType": "string",
          "name": "metaUrl",
          "type": "string"
        }
      ],
      "stateMutability": "nonpayable",
      "type": "constructor"
    },
    {
      "anonymous": false,
      "inputs": [
        {
          "indexed": true,
          "internalType": "address",
          "name": "owner",
          "type": "address"
        },
        {
          "indexed": true,
          "internalType": "address",
          "name": "approved",
          "type": "address"
        },
        {
          "indexed": true,
          "internalType": "uint256",
          "name": "tokenId",
          "type": "uint256"
        }
      ],
      "name": "Approval",
      "type": "event"
    },
    {
      "anonymous": false,
      "inputs": [
        {
          "indexed": true,
          "internalType": "address",
          "name": "owner",
          "type": "address"
        },
        {
          "indexed": true,
          "internalType": "address",
          "name": "operator",
          "type": "address"
        },
        {
          "indexed": false,
          "internalType": "bool",
          "name": "approved",
          "type": "bool"
        }
      ],
      "name": "ApprovalForAll",
      "type": "event"
    },
    {
      "anonymous": false,
      "inputs": [
        {
          "indexed": false,
          "internalType": "uint256",
          "name": "buyId",
          "type": "uint256"
        },
        {
          "indexed": false,
          "internalType": "string",
          "name": "lon",
          "type": "string"
        },
        {
          "indexed": false,
          "internalType": "string",
          "name": "lat",
          "type": "string"
        },
        {
          "indexed": true,
          "internalType": "address",
          "name": "buyer",
          "type": "address"
        },
        {
          "indexed": true,
          "internalType": "address",
          "name": "seller",
          "type": "address"
        },
        {
          "indexed": false,
          "internalType": "uint256",
          "name": "price",
          "type": "uint256"
        },
        {
          "indexed": false,
          "internalType": "uint256",
          "name": "timestamp",
          "type": "uint256"
        },
        {
          "indexed": true,
          "internalType": "bytes32",
          "name": "tokenId",
          "type": "bytes32"
        }
      ],
      "name": "EventBuyToken",
      "type": "event"
    },
    {
      "anonymous": false,
      "inputs": [
        {
          "indexed": false,
          "internalType": "uint256",
          "name": "buyId",
          "type": "uint256"
        },
        {
          "indexed": true,
          "internalType": "bytes32",
          "name": "tokenId1",
          "type": "bytes32"
        },
        {
          "indexed": false,
          "internalType": "string",
          "name": "lon",
          "type": "string"
        },
        {
          "indexed": false,
          "internalType": "string",
          "name": "lat",
          "type": "string"
        },
        {
          "indexed": false,
          "internalType": "address",
          "name": "buyer",
          "type": "address"
        },
        {
          "indexed": false,
          "internalType": "address",
          "name": "seller",
          "type": "address"
        },
        {
          "indexed": false,
          "internalType": "uint256",
          "name": "price",
          "type": "uint256"
        },
        {
          "indexed": false,
          "internalType": "uint256",
          "name": "timestamp",
          "type": "uint256"
        }
      ],
      "name": "EventBuyTokenNearby",
      "type": "event"
    },
    {
      "anonymous": false,
      "inputs": [
        {
          "indexed": false,
          "internalType": "uint256",
          "name": "listId",
          "type": "uint256"
        },
        {
          "indexed": false,
          "internalType": "uint256",
          "name": "buyId",
          "type": "uint256"
        },
        {
          "indexed": false,
          "internalType": "string",
          "name": "lon",
          "type": "string"
        },
        {
          "indexed": false,
          "internalType": "string",
          "name": "lat",
          "type": "string"
        },
        {
          "indexed": true,
          "internalType": "address",
          "name": "seller",
          "type": "address"
        },
        {
          "indexed": false,
          "internalType": "uint256",
          "name": "price",
          "type": "uint256"
        },
        {
          "indexed": false,
          "internalType": "bool",
          "name": "isListed",
          "type": "bool"
        },
        {
          "indexed": false,
          "internalType": "uint256",
          "name": "timestamp",
          "type": "uint256"
        },
        {
          "indexed": true,
          "internalType": "bytes32",
          "name": "tokenId",
          "type": "bytes32"
        }
      ],
      "name": "EventListToken",
      "type": "event"
    },
    {
      "anonymous": false,
      "inputs": [
        {
          "indexed": false,
          "internalType": "uint256",
          "name": "listId",
          "type": "uint256"
        },
        {
          "indexed": false,
          "internalType": "uint256",
          "name": "buyId",
          "type": "uint256"
        },
        {
          "indexed": true,
          "internalType": "bytes32",
          "name": "tokenId1",
          "type": "bytes32"
        },
        {
          "indexed": false,
          "internalType": "string",
          "name": "lon",
          "type": "string"
        },
        {
          "indexed": false,
          "internalType": "string",
          "name": "lat",
          "type": "string"
        },
        {
          "indexed": false,
          "internalType": "address",
          "name": "seller",
          "type": "address"
        },
        {
          "indexed": false,
          "internalType": "uint256",
          "name": "price",
          "type": "uint256"
        },
        {
          "indexed": false,
          "internalType": "bool",
          "name": "isListed",
          "type": "bool"
        },
        {
          "indexed": false,
          "internalType": "uint256",
          "name": "timestamp",
          "type": "uint256"
        }
      ],
      "name": "EventListTokenNearby",
      "type": "event"
    },
    {
      "anonymous": false,
      "inputs": [
        {
          "indexed": false,
          "internalType": "address",
          "name": "buyer",
          "type": "address"
        },
        {
          "indexed": false,
          "internalType": "uint256",
          "name": "coins",
          "type": "uint256"
        },
        {
          "indexed": false,
          "internalType": "address",
          "name": "_coinAddress",
          "type": "address"
        },
        {
          "indexed": false,
          "internalType": "bytes32",
          "name": "_data",
          "type": "bytes32"
        }
      ],
      "name": "EventReceiveApproval",
      "type": "event"
    },
    {
      "anonymous": false,
      "inputs": [
        {
          "indexed": true,
          "internalType": "address",
          "name": "previousOwner",
          "type": "address"
        },
        {
          "indexed": true,
          "internalType": "address",
          "name": "newOwner",
          "type": "address"
        }
      ],
      "name": "OwnershipTransferred",
      "type": "event"
    },
    {
      "anonymous": false,
      "inputs": [
        {
          "indexed": true,
          "internalType": "address",
          "name": "from",
          "type": "address"
        },
        {
          "indexed": true,
          "internalType": "address",
          "name": "to",
          "type": "address"
        },
        {
          "indexed": true,
          "internalType": "uint256",
          "name": "tokenId",
          "type": "uint256"
        }
      ],
      "name": "Transfer",
      "type": "event"
    },
    {
      "inputs": [
        {
          "internalType": "address",
          "name": "to",
          "type": "address"
        },
        {
          "internalType": "uint256",
          "name": "tokenId",
          "type": "uint256"
        }
      ],
      "name": "approve",
      "outputs": [],
      "stateMutability": "nonpayable",
      "type": "function"
    },
    {
      "inputs": [
        {
          "internalType": "address",
          "name": "owner",
          "type": "address"
        }
      ],
      "name": "balanceOf",
      "outputs": [
        {
          "internalType": "uint256",
          "name": "",
          "type": "uint256"
        }
      ],
      "stateMutability": "view",
      "type": "function",
      "constant": true
    },
    {
      "inputs": [],
      "name": "basePrice",
      "outputs": [
        {
          "internalType": "uint256",
          "name": "",
          "type": "uint256"
        }
      ],
      "stateMutability": "view",
      "type": "function",
      "constant": true
    },
    {
      "inputs": [],
      "name": "baseURI",
      "outputs": [
        {
          "internalType": "string",
          "name": "",
          "type": "string"
        }
      ],
      "stateMutability": "view",
      "type": "function",
      "constant": true
    },
    {
      "inputs": [
        {
          "internalType": "uint256",
          "name": "",
          "type": "uint256"
        }
      ],
      "name": "boughtPrices",
      "outputs": [
        {
          "internalType": "uint256",
          "name": "",
          "type": "uint256"
        }
      ],
      "stateMutability": "view",
      "type": "function",
      "constant": true
    },
    {
      "inputs": [],
      "name": "buyId",
      "outputs": [
        {
          "internalType": "uint256",
          "name": "",
          "type": "uint256"
        }
      ],
      "stateMutability": "view",
      "type": "function",
      "constant": true
    },
    {
      "inputs": [
        {
          "internalType": "uint256",
          "name": "",
          "type": "uint256"
        }
      ],
      "name": "buyIds",
      "outputs": [
        {
          "internalType": "uint256",
          "name": "",
          "type": "uint256"
        }
      ],
      "stateMutability": "view",
      "type": "function",
      "constant": true
    },
    {
      "inputs": [],
      "name": "coinAddress",
      "outputs": [
        {
          "internalType": "address",
          "name": "",
          "type": "address"
        }
      ],
      "stateMutability": "view",
      "type": "function",
      "constant": true
    },
    {
      "inputs": [
        {
          "internalType": "uint256",
          "name": "tokenId",
          "type": "uint256"
        }
      ],
      "name": "getApproved",
      "outputs": [
        {
          "internalType": "address",
          "name": "",
          "type": "address"
        }
      ],
      "stateMutability": "view",
      "type": "function",
      "constant": true
    },
    {
      "inputs": [
        {
          "internalType": "address",
          "name": "owner",
          "type": "address"
        },
        {
          "internalType": "address",
          "name": "operator",
          "type": "address"
        }
      ],
      "name": "isApprovedForAll",
      "outputs": [
        {
          "internalType": "bool",
          "name": "",
          "type": "bool"
        }
      ],
      "stateMutability": "view",
      "type": "function",
      "constant": true
    },
    {
      "inputs": [
        {
          "internalType": "uint256",
          "name": "",
          "type": "uint256"
        }
      ],
      "name": "isSellings",
      "outputs": [
        {
          "internalType": "bool",
          "name": "",
          "type": "bool"
        }
      ],
      "stateMutability": "view",
      "type": "function",
      "constant": true
    },
    {
      "inputs": [],
      "name": "listId",
      "outputs": [
        {
          "internalType": "uint256",
          "name": "",
          "type": "uint256"
        }
      ],
      "stateMutability": "view",
      "type": "function",
      "constant": true
    },
    {
      "inputs": [],
      "name": "name",
      "outputs": [
        {
          "internalType": "string",
          "name": "",
          "type": "string"
        }
      ],
      "stateMutability": "view",
      "type": "function",
      "constant": true
    },
    {
      "inputs": [],
      "name": "owner",
      "outputs": [
        {
          "internalType": "address",
          "name": "",
          "type": "address"
        }
      ],
      "stateMutability": "view",
      "type": "function",
      "constant": true
    },
    {
      "inputs": [
        {
          "internalType": "uint256",
          "name": "tokenId",
          "type": "uint256"
        }
      ],
      "name": "ownerOf",
      "outputs": [
        {
          "internalType": "address",
          "name": "",
          "type": "address"
        }
      ],
      "stateMutability": "view",
      "type": "function",
      "constant": true
    },
    {
      "inputs": [],
      "name": "percentageCut",
      "outputs": [
        {
          "internalType": "uint256",
          "name": "",
          "type": "uint256"
        }
      ],
      "stateMutability": "view",
      "type": "function",
      "constant": true
    },
    {
      "inputs": [],
      "name": "renounceOwnership",
      "outputs": [],
      "stateMutability": "nonpayable",
      "type": "function"
    },
    {
      "inputs": [
        {
          "internalType": "address",
          "name": "from",
          "type": "address"
        },
        {
          "internalType": "address",
          "name": "to",
          "type": "address"
        },
        {
          "internalType": "uint256",
          "name": "tokenId",
          "type": "uint256"
        }
      ],
      "name": "safeTransferFrom",
      "outputs": [],
      "stateMutability": "nonpayable",
      "type": "function"
    },
    {
      "inputs": [
        {
          "internalType": "address",
          "name": "from",
          "type": "address"
        },
        {
          "internalType": "address",
          "name": "to",
          "type": "address"
        },
        {
          "internalType": "uint256",
          "name": "tokenId",
          "type": "uint256"
        },
        {
          "internalType": "bytes",
          "name": "_data",
          "type": "bytes"
        }
      ],
      "name": "safeTransferFrom",
      "outputs": [],
      "stateMutability": "nonpayable",
      "type": "function"
    },
    {
      "inputs": [
        {
          "internalType": "uint256",
          "name": "",
          "type": "uint256"
        }
      ],
      "name": "sellPrices",
      "outputs": [
        {
          "internalType": "uint256",
          "name": "",
          "type": "uint256"
        }
      ],
      "stateMutability": "view",
      "type": "function",
      "constant": true
    },
    {
      "inputs": [
        {
          "internalType": "address",
          "name": "operator",
          "type": "address"
        },
        {
          "internalType": "bool",
          "name": "approved",
          "type": "bool"
        }
      ],
      "name": "setApprovalForAll",
      "outputs": [],
      "stateMutability": "nonpayable",
      "type": "function"
    },
    {
      "inputs": [],
      "name": "superWorldCoin",
      "outputs": [
        {
          "internalType": "contract ERC20Interface",
          "name": "",
          "type": "address"
        }
      ],
      "stateMutability": "view",
      "type": "function",
      "constant": true
    },
    {
      "inputs": [
        {
          "internalType": "bytes4",
          "name": "interfaceId",
          "type": "bytes4"
        }
      ],
      "name": "supportsInterface",
      "outputs": [
        {
          "internalType": "bool",
          "name": "",
          "type": "bool"
        }
      ],
      "stateMutability": "view",
      "type": "function",
      "constant": true
    },
    {
      "inputs": [],
      "name": "symbol",
      "outputs": [
        {
          "internalType": "string",
          "name": "",
          "type": "string"
        }
      ],
      "stateMutability": "view",
      "type": "function",
      "constant": true
    },
    {
      "inputs": [
        {
          "internalType": "uint256",
          "name": "index",
          "type": "uint256"
        }
      ],
      "name": "tokenByIndex",
      "outputs": [
        {
          "internalType": "uint256",
          "name": "",
          "type": "uint256"
        }
      ],
      "stateMutability": "view",
      "type": "function",
      "constant": true
    },
    {
      "inputs": [
        {
          "internalType": "address",
          "name": "owner",
          "type": "address"
        },
        {
          "internalType": "uint256",
          "name": "index",
          "type": "uint256"
        }
      ],
      "name": "tokenOfOwnerByIndex",
      "outputs": [
        {
          "internalType": "uint256",
          "name": "",
          "type": "uint256"
        }
      ],
      "stateMutability": "view",
      "type": "function",
      "constant": true
    },
    {
      "inputs": [],
      "name": "totalSupply",
      "outputs": [
        {
          "internalType": "uint256",
          "name": "",
          "type": "uint256"
        }
      ],
      "stateMutability": "view",
      "type": "function",
      "constant": true
    },
    {
      "inputs": [
        {
          "internalType": "address",
          "name": "from",
          "type": "address"
        },
        {
          "internalType": "address",
          "name": "to",
          "type": "address"
        },
        {
          "internalType": "uint256",
          "name": "tokenId",
          "type": "uint256"
        }
      ],
      "name": "transferFrom",
      "outputs": [],
      "stateMutability": "nonpayable",
      "type": "function"
    },
    {
      "inputs": [
        {
          "internalType": "address",
          "name": "newOwner",
          "type": "address"
        }
      ],
      "name": "transferOwnership",
      "outputs": [],
      "stateMutability": "nonpayable",
      "type": "function"
    },
    {
      "inputs": [
        {
          "internalType": "uint256",
          "name": "_basePrice",
          "type": "uint256"
        }
      ],
      "name": "setBasePrice",
      "outputs": [],
      "stateMutability": "nonpayable",
      "type": "function"
    },
    {
      "inputs": [
        {
          "internalType": "uint256",
          "name": "_percentageCut",
          "type": "uint256"
        }
      ],
      "name": "setPercentageCut",
      "outputs": [],
      "stateMutability": "nonpayable",
      "type": "function"
    },
    {
      "inputs": [
        {
          "internalType": "string",
          "name": "lat",
          "type": "string"
        },
        {
          "internalType": "string",
          "name": "lon",
          "type": "string"
        }
      ],
      "name": "getTokenId",
      "outputs": [
        {
          "internalType": "bytes32",
          "name": "tokenId",
          "type": "bytes32"
        }
      ],
      "stateMutability": "pure",
      "type": "function",
      "constant": true
    },
    {
      "inputs": [
        {
          "internalType": "bytes32",
          "name": "tokenId",
          "type": "bytes32"
        }
      ],
      "name": "getGeoFromTokenId",
      "outputs": [
        {
          "internalType": "string",
          "name": "lat",
          "type": "string"
        },
        {
          "internalType": "string",
          "name": "lon",
          "type": "string"
        }
      ],
      "stateMutability": "pure",
      "type": "function",
      "constant": true
    },
    {
      "inputs": [
        {
          "internalType": "string",
          "name": "lat",
          "type": "string"
        },
        {
          "internalType": "string",
          "name": "lon",
          "type": "string"
        }
      ],
      "name": "getInfo",
      "outputs": [
        {
          "internalType": "bytes32",
          "name": "tokenId",
          "type": "bytes32"
        },
        {
          "internalType": "address",
          "name": "tokenOwner",
          "type": "address"
        },
        {
          "internalType": "bool",
          "name": "isOwned",
          "type": "bool"
        },
        {
          "internalType": "bool",
          "name": "isSelling",
          "type": "bool"
        },
        {
          "internalType": "uint256",
          "name": "price",
          "type": "uint256"
        }
      ],
      "stateMutability": "view",
      "type": "function",
      "constant": true
    },
    {
      "inputs": [
        {
          "internalType": "string",
          "name": "lat",
          "type": "string"
        },
        {
          "internalType": "string",
          "name": "lon",
          "type": "string"
        },
        {
          "internalType": "address",
          "name": "tokenOwner",
          "type": "address"
        },
        {
          "internalType": "uint256",
          "name": "buyPrice",
          "type": "uint256"
        }
      ],
      "name": "giftToken",
      "outputs": [],
      "stateMutability": "nonpayable",
      "type": "function"
    },
    {
      "inputs": [
        {
          "internalType": "string",
          "name": "lat",
          "type": "string"
        },
        {
          "internalType": "string",
          "name": "lon",
          "type": "string"
        },
        {
          "internalType": "uint256",
          "name": "sellPrice",
          "type": "uint256"
        }
      ],
      "name": "relistToken",
      "outputs": [],
      "stateMutability": "nonpayable",
      "type": "function"
    },
    {
      "inputs": [
        {
          "internalType": "address",
          "name": "buyer",
          "type": "address"
        },
        {
          "internalType": "uint256",
          "name": "coins",
          "type": "uint256"
        },
        {
          "internalType": "address",
          "name": "_coinAddress",
          "type": "address"
        },
        {
          "internalType": "bytes32",
          "name": "_data",
          "type": "bytes32"
        }
      ],
      "name": "receiveApproval",
      "outputs": [],
      "stateMutability": "nonpayable",
      "type": "function"
    },
    {
      "inputs": [
        {
          "internalType": "address",
          "name": "buyer",
          "type": "address"
        },
        {
          "internalType": "uint256",
          "name": "coins",
          "type": "uint256"
        },
        {
          "internalType": "string",
          "name": "lat",
          "type": "string"
        },
        {
          "internalType": "string",
          "name": "lon",
          "type": "string"
        }
      ],
      "name": "buyTokenWithCoins",
      "outputs": [
        {
          "internalType": "bool",
          "name": "",
          "type": "bool"
        }
      ],
      "stateMutability": "nonpayable",
      "type": "function"
    },
    {
      "inputs": [
        {
          "internalType": "string",
          "name": "lat",
          "type": "string"
        },
        {
          "internalType": "string",
          "name": "lon",
          "type": "string"
        }
      ],
      "name": "buyToken",
      "outputs": [
        {
          "internalType": "bool",
          "name": "",
          "type": "bool"
        }
      ],
      "stateMutability": "payable",
      "type": "function",
      "payable": true
    },
    {
      "inputs": [
        {
          "internalType": "string",
          "name": "lat",
          "type": "string"
        },
        {
          "internalType": "string",
          "name": "lon",
          "type": "string"
        },
        {
          "internalType": "uint256",
          "name": "sellPrice",
          "type": "uint256"
        }
      ],
      "name": "listToken",
      "outputs": [],
      "stateMutability": "nonpayable",
      "type": "function"
    },
    {
      "inputs": [
        {
          "internalType": "string",
          "name": "lat",
          "type": "string"
        },
        {
          "internalType": "string",
          "name": "lon",
          "type": "string"
        }
      ],
      "name": "delistToken",
      "outputs": [],
      "stateMutability": "nonpayable",
      "type": "function"
    },
    {
      "inputs": [
        {
          "internalType": "uint256",
          "name": "tokenId",
          "type": "uint256"
        }
      ],
      "name": "getPrice",
      "outputs": [
        {
          "internalType": "uint256",
          "name": "",
          "type": "uint256"
        }
      ],
      "stateMutability": "view",
      "type": "function",
      "constant": true
    },
    {
      "inputs": [],
      "name": "withdrawBalance",
      "outputs": [],
      "stateMutability": "payable",
      "type": "function",
      "payable": true
    },
    {
      "inputs": [
        {
          "internalType": "uint256",
          "name": "tokenId",
          "type": "uint256"
        }
      ],
      "name": "tokenURI",
      "outputs": [
        {
          "internalType": "string",
          "name": "",
          "type": "string"
        }
      ],
      "stateMutability": "view",
      "type": "function",
      "constant": true
    }
  ],
  "bytecode": "0x6080604052600060105560006011553480156200001b57600080fd5b50604051620064ef380380620064ef833981810160405260808110156200004157600080fd5b81019080805190602001909291908051906020019092919080519060200190929190805160405193929190846401000000008211156200008057600080fd5b838201915060208201858111156200009757600080fd5b8251866001820283011164010000000082111715620000b557600080fd5b8083526020830192505050908051906020019080838360005b83811015620000eb578082015181840152602081019050620000ce565b50505050905090810190601f168015620001195780820380516001836020036101000a031916815260200191505b506040525050506040518060400160405280600a81526020017f5375706572576f726c64000000000000000000000000000000000000000000008152506040518060400160405280600a81526020017f5355504552574f524c4400000000000000000000000000000000000000000000815250620001a46301ffc9a760e01b620003ae60201b60201c565b8160079080519060200190620001bc929190620004db565b508060089080519060200190620001d5929190620004db565b50620001ee6380ac58cd60e01b620003ae60201b60201c565b62000206635b5e139f60e01b620003ae60201b60201c565b6200021e63780e9d6360e01b620003ae60201b60201c565b5050600062000232620004b760201b60201c565b905080600b60006101000a81548173ffffffffffffffffffffffffffffffffffffffff021916908373ffffffffffffffffffffffffffffffffffffffff1602179055508073ffffffffffffffffffffffffffffffffffffffff16600073ffffffffffffffffffffffffffffffffffffffff167f8be0079c531659141344cd1fd0a4f28419497f9722a3daafe3b4186f6b6457e060405160405180910390a35083600c60006101000a81548173ffffffffffffffffffffffffffffffffffffffff021916908373ffffffffffffffffffffffffffffffffffffffff160217905550600c60009054906101000a900473ffffffffffffffffffffffffffffffffffffffff16600d60006101000a81548173ffffffffffffffffffffffffffffffffffffffff021916908373ffffffffffffffffffffffffffffffffffffffff16021790555082600e8190555081600f8190555060006010819055506000601181905550620003a481620004bf60201b60201c565b505050506200058a565b63ffffffff60e01b817bffffffffffffffffffffffffffffffffffffffffffffffffffffffff191614156200044b576040517f08c379a000000000000000000000000000000000000000000000000000000000815260040180806020018281038252601c8152602001807f4552433136353a20696e76616c696420696e746572666163652069640000000081525060200191505060405180910390fd5b6001600080837bffffffffffffffffffffffffffffffffffffffffffffffffffffffff19167bffffffffffffffffffffffffffffffffffffffffffffffffffffffff1916815260200190815260200160002060006101000a81548160ff02191690831515021790555050565b600033905090565b80600a9080519060200190620004d7929190620004db565b5050565b828054600181600116156101000203166002900490600052602060002090601f016020900481019282601f106200051e57805160ff19168380011785556200054f565b828001600101855582156200054f579182015b828111156200054e57825182559160200191906001019062000531565b5b5090506200055e919062000562565b5090565b6200058791905b808211156200058357600081600090555060010162000569565b5090565b90565b615f55806200059a6000396000f3fe6080604052600436106102675760003560e01c806385b7eb8c11610144578063c87b56dd116100b6578063e985e9c51161007a578063e985e9c514611772578063ebed91bc146117fb578063ecf582fa1461191b578063f2fde38b14611abc578063f4f4224614611b0d578063fdc61dd114611b3857610267565b8063c87b56dd14611358578063de4b32621461140c578063e22023ae14611447578063e683ff07146115ba578063e75722301461172357610267565b8063ad8b9edc11610108578063ad8b9edc14610e7a578063b2e6357514610fe4578063b88d4fde14611143578063c172f9c914611255578063c7876ea4146112da578063c7b8de731461130557610267565b806385b7eb8c14610c065780638da5cb5b14610d0b57806395d89b4114610d625780639e898e5814610df2578063a22cb46514610e1d57610267565b80632f745c59116101dd5780636c0360eb116101a15780636c0360eb14610a215780636ee90d6214610ab157806370a0823114610b00578063715018a614610b65578063733bf2f214610b7c5780637363257a14610bb757610267565b80632f745c591461086357806342842e0e146108d25780634f6ccce71461094d5780635fd8c7101461099c5780636352211e146109a657610267565b8063104652f11161022f578063104652f114610529578063156778161461058057806318160ddd146105cf5780631f9aa821146105fa5780632039eeff146107bd57806323b872dd146107e857610267565b806301ffc9a71461026c57806302511d7d146102de57806306fdde03146103c3578063081812fc14610453578063095ea7b3146104ce575b600080fd5b34801561027857600080fd5b506102c46004803603602081101561028f57600080fd5b8101908080357bffffffffffffffffffffffffffffffffffffffffffffffffffffffff19169060200190929190505050611b8f565b604051808215151515815260200191505060405180910390f35b3480156102ea57600080fd5b506103c16004803603606081101561030157600080fd5b810190808035906020019064010000000081111561031e57600080fd5b82018360208201111561033057600080fd5b8035906020019184600183028401116401000000008311171561035257600080fd5b90919293919293908035906020019064010000000081111561037357600080fd5b82018360208201111561038557600080fd5b803590602001918460018302840111640100000000831117156103a757600080fd5b909192939192939080359060200190929190505050611bf6565b005b3480156103cf57600080fd5b506103d8611e80565b6040518080602001828103825283818151815260200191508051906020019080838360005b838110156104185780820151818401526020810190506103fd565b50505050905090810190601f1680156104455780820380516001836020036101000a031916815260200191505b509250505060405180910390f35b34801561045f57600080fd5b5061048c6004803603602081101561047657600080fd5b8101908080359060200190929190505050611f22565b604051808273ffffffffffffffffffffffffffffffffffffffff1673ffffffffffffffffffffffffffffffffffffffff16815260200191505060405180910390f35b3480156104da57600080fd5b50610527600480360360408110156104f157600080fd5b81019080803573ffffffffffffffffffffffffffffffffffffffff16906020019092919080359060200190929190505050611fbd565b005b34801561053557600080fd5b5061053e612101565b604051808273ffffffffffffffffffffffffffffffffffffffff1673ffffffffffffffffffffffffffffffffffffffff16815260200191505060405180910390f35b34801561058c57600080fd5b506105b9600480360360208110156105a357600080fd5b8101908080359060200190929190505050612127565b6040518082815260200191505060405180910390f35b3480156105db57600080fd5b506105e461213f565b6040518082815260200191505060405180910390f35b34801561060657600080fd5b506107576004803603604081101561061d57600080fd5b810190808035906020019064010000000081111561063a57600080fd5b82018360208201111561064c57600080fd5b8035906020019184600183028401116401000000008311171561066e57600080fd5b91908080601f016020809104026020016040519081016040528093929190818152602001838380828437600081840152601f19601f820116905080830192505050505050509192919290803590602001906401000000008111156106d157600080fd5b8201836020820111156106e357600080fd5b8035906020019184600183028401116401000000008311171561070557600080fd5b91908080601f016020809104026020016040519081016040528093929190818152602001838380828437600081840152601f19601f820116905080830192505050505050509192919290505050612150565b604051808681526020018573ffffffffffffffffffffffffffffffffffffffff1673ffffffffffffffffffffffffffffffffffffffff16815260200184151515158152602001831515151581526020018281526020019550505050505060405180910390f35b3480156107c957600080fd5b506107d26121e6565b6040518082815260200191505060405180910390f35b3480156107f457600080fd5b506108616004803603606081101561080b57600080fd5b81019080803573ffffffffffffffffffffffffffffffffffffffff169060200190929190803573ffffffffffffffffffffffffffffffffffffffff169060200190929190803590602001909291905050506121ec565b005b34801561086f57600080fd5b506108bc6004803603604081101561088657600080fd5b81019080803573ffffffffffffffffffffffffffffffffffffffff16906020019092919080359060200190929190505050612262565b6040518082815260200191505060405180910390f35b3480156108de57600080fd5b5061094b600480360360608110156108f557600080fd5b81019080803573ffffffffffffffffffffffffffffffffffffffff169060200190929190803573ffffffffffffffffffffffffffffffffffffffff169060200190929190803590602001909291905050506122bd565b005b34801561095957600080fd5b506109866004803603602081101561097057600080fd5b81019080803590602001909291905050506122dd565b6040518082815260200191505060405180910390f35b6109a4612300565b005b3480156109b257600080fd5b506109df600480360360208110156109c957600080fd5b8101908080359060200190929190505050612419565b604051808273ffffffffffffffffffffffffffffffffffffffff1673ffffffffffffffffffffffffffffffffffffffff16815260200191505060405180910390f35b348015610a2d57600080fd5b50610a36612450565b6040518080602001828103825283818151815260200191508051906020019080838360005b83811015610a76578082015181840152602081019050610a5b565b50505050905090810190601f168015610aa35780820380516001836020036101000a031916815260200191505b509250505060405180910390f35b348015610abd57600080fd5b50610aea60048036036020811015610ad457600080fd5b81019080803590602001909291905050506124f2565b6040518082815260200191505060405180910390f35b348015610b0c57600080fd5b50610b4f60048036036020811015610b2357600080fd5b81019080803573ffffffffffffffffffffffffffffffffffffffff16906020019092919050505061250a565b6040518082815260200191505060405180910390f35b348015610b7157600080fd5b50610b7a6125df565b005b348015610b8857600080fd5b50610bb560048036036020811015610b9f57600080fd5b810190808035906020019092919050505061276a565b005b348015610bc357600080fd5b50610bf060048036036020811015610bda57600080fd5b810190808035906020019092919050505061284b565b6040518082815260200191505060405180910390f35b348015610c1257600080fd5b50610d0960048036036080811015610c2957600080fd5b8101908080359060200190640100000000811115610c4657600080fd5b820183602082011115610c5857600080fd5b80359060200191846001830284011164010000000083111715610c7a57600080fd5b909192939192939080359060200190640100000000811115610c9b57600080fd5b820183602082011115610cad57600080fd5b80359060200191846001830284011164010000000083111715610ccf57600080fd5b9091929391929390803573ffffffffffffffffffffffffffffffffffffffff16906020019092919080359060200190929190505050612863565b005b348015610d1757600080fd5b50610d20612a72565b604051808273ffffffffffffffffffffffffffffffffffffffff1673ffffffffffffffffffffffffffffffffffffffff16815260200191505060405180910390f35b348015610d6e57600080fd5b50610d77612a9c565b6040518080602001828103825283818151815260200191508051906020019080838360005b83811015610db7578082015181840152602081019050610d9c565b50505050905090810190601f168015610de45780820380516001836020036101000a031916815260200191505b509250505060405180910390f35b348015610dfe57600080fd5b50610e07612b3e565b6040518082815260200191505060405180910390f35b348015610e2957600080fd5b50610e7860048036036040811015610e4057600080fd5b81019080803573ffffffffffffffffffffffffffffffffffffffff169060200190929190803515159060200190929190505050612b44565b005b610fca60048036036040811015610e9057600080fd5b8101908080359060200190640100000000811115610ead57600080fd5b820183602082011115610ebf57600080fd5b80359060200191846001830284011164010000000083111715610ee157600080fd5b91908080601f016020809104026020016040519081016040528093929190818152602001838380828437600081840152601f19601f82011690508083019250505050505050919291929080359060200190640100000000811115610f4457600080fd5b820183602082011115610f5657600080fd5b80359060200191846001830284011164010000000083111715610f7857600080fd5b91908080601f016020809104026020016040519081016040528093929190818152602001838380828437600081840152601f19601f820116905080830192505050505050509192919290505050612cfc565b604051808215151515815260200191505060405180910390f35b348015610ff057600080fd5b506111416004803603604081101561100757600080fd5b810190808035906020019064010000000081111561102457600080fd5b82018360208201111561103657600080fd5b8035906020019184600183028401116401000000008311171561105857600080fd5b91908080601f016020809104026020016040519081016040528093929190818152602001838380828437600081840152601f19601f820116905080830192505050505050509192919290803590602001906401000000008111156110bb57600080fd5b8201836020820111156110cd57600080fd5b803590602001918460018302840111640100000000831117156110ef57600080fd5b91908080601f016020809104026020016040519081016040528093929190818152602001838380828437600081840152601f19601f820116905080830192505050505050509192919290505050613003565b005b34801561114f57600080fd5b506112536004803603608081101561116657600080fd5b81019080803573ffffffffffffffffffffffffffffffffffffffff169060200190929190803573ffffffffffffffffffffffffffffffffffffffff16906020019092919080359060200190929190803590602001906401000000008111156111cd57600080fd5b8201836020820111156111df57600080fd5b8035906020019184600183028401116401000000008311171561120157600080fd5b91908080601f016020809104026020016040519081016040528093929190818152602001838380828437600081840152601f19601f8201169050808301925050505050505091929192905050506130fc565b005b34801561126157600080fd5b506112d86004803603608081101561127857600080fd5b81019080803573ffffffffffffffffffffffffffffffffffffffff16906020019092919080359060200190929190803573ffffffffffffffffffffffffffffffffffffffff16906020019092919080359060200190929190505050613174565b005b3480156112e657600080fd5b506112ef6132a6565b6040518082815260200191505060405180910390f35b34801561131157600080fd5b5061133e6004803603602081101561132857600080fd5b81019080803590602001909291905050506132ac565b604051808215151515815260200191505060405180910390f35b34801561136457600080fd5b506113916004803603602081101561137b57600080fd5b81019080803590602001909291905050506132cc565b6040518080602001828103825283818151815260200191508051906020019080838360005b838110156113d15780820151818401526020810190506113b6565b50505050905090810190601f1680156113fe5780820380516001836020036101000a031916815260200191505b509250505060405180910390f35b34801561141857600080fd5b506114456004803603602081101561142f57600080fd5b8101908080359060200190929190505050613380565b005b34801561145357600080fd5b506115a46004803603604081101561146a57600080fd5b810190808035906020019064010000000081111561148757600080fd5b82018360208201111561149957600080fd5b803590602001918460018302840111640100000000831117156114bb57600080fd5b91908080601f016020809104026020016040519081016040528093929190818152602001838380828437600081840152601f19601f8201169050808301925050505050505091929192908035906020019064010000000081111561151e57600080fd5b82018360208201111561153057600080fd5b8035906020019184600183028401116401000000008311171561155257600080fd5b91908080601f016020809104026020016040519081016040528093929190818152602001838380828437600081840152601f19601f820116905080830192505050505050509192919290505050613461565b6040518082815260200191505060405180910390f35b3480156115c657600080fd5b50611721600480360360608110156115dd57600080fd5b81019080803590602001906401000000008111156115fa57600080fd5b82018360208201111561160c57600080fd5b8035906020019184600183028401116401000000008311171561162e57600080fd5b91908080601f016020809104026020016040519081016040528093929190818152602001838380828437600081840152601f19601f8201169050808301925050505050505091929192908035906020019064010000000081111561169157600080fd5b8201836020820111156116a357600080fd5b803590602001918460018302840111640100000000831117156116c557600080fd5b91908080601f016020809104026020016040519081016040528093929190818152602001838380828437600081840152601f19601f8201169050808301925050505050505091929192908035906020019092919050505061357c565b005b34801561172f57600080fd5b5061175c6004803603602081101561174657600080fd5b8101908080359060200190929190505050613662565b6040518082815260200191505060405180910390f35b34801561177e57600080fd5b506117e16004803603604081101561179557600080fd5b81019080803573ffffffffffffffffffffffffffffffffffffffff169060200190929190803573ffffffffffffffffffffffffffffffffffffffff1690602001909291905050506136e3565b604051808215151515815260200191505060405180910390f35b34801561180757600080fd5b506118346004803603602081101561181e57600080fd5b8101908080359060200190929190505050613777565b604051808060200180602001838103835285818151815260200191508051906020019080838360005b8381101561187857808201518184015260208101905061185d565b50505050905090810190601f1680156118a55780820380516001836020036101000a031916815260200191505b50838103825284818151815260200191508051906020019080838360005b838110156118de5780820151818401526020810190506118c3565b50505050905090810190601f16801561190b5780820380516001836020036101000a031916815260200191505b5094505050505060405180910390f35b34801561192757600080fd5b50611aa26004803603608081101561193e57600080fd5b81019080803573ffffffffffffffffffffffffffffffffffffffff169060200190929190803590602001909291908035906020019064010000000081111561198557600080fd5b82018360208201111561199757600080fd5b803590602001918460018302840111640100000000831117156119b957600080fd5b91908080601f016020809104026020016040519081016040528093929190818152602001838380828437600081840152601f19601f82011690508083019250505050505050919291929080359060200190640100000000811115611a1c57600080fd5b820183602082011115611a2e57600080fd5b80359060200191846001830284011164010000000083111715611a5057600080fd5b91908080601f016020809104026020016040519081016040528093929190818152602001838380828437600081840152601f19601f8201169050808301925050505050505091929192905050506138c9565b604051808215151515815260200191505060405180910390f35b348015611ac857600080fd5b50611b0b60048036036020811015611adf57600080fd5b81019080803573ffffffffffffffffffffffffffffffffffffffff169060200190929190505050613b60565b005b348015611b1957600080fd5b50611b22613d70565b6040518082815260200191505060405180910390f35b348015611b4457600080fd5b50611b4d613d76565b604051808273ffffffffffffffffffffffffffffffffffffffff1673ffffffffffffffffffffffffffffffffffffffff16815260200191505060405180910390f35b6000806000837bffffffffffffffffffffffffffffffffffffffffffffffffffffffff19167bffffffffffffffffffffffffffffffffffffffffffffffffffffffff1916815260200190815260200160002060009054906101000a900460ff169050919050565b611bfe613d9c565b73ffffffffffffffffffffffffffffffffffffffff16600b60009054906101000a900473ffffffffffffffffffffffffffffffffffffffff1673ffffffffffffffffffffffffffffffffffffffff1614611cc0576040517f08c379a00000000000000000000000000000000000000000000000000000000081526004018080602001828103825260208152602001807f4f776e61626c653a2063616c6c6572206973206e6f7420746865206f776e657281525060200191505060405180910390fd5b6000611d5486868080601f016020809104026020016040519081016040528093929190818152602001838380828437600081840152601f19601f8201169050808301925050505050505085858080601f016020809104026020016040519081016040528093929190818152602001838380828437600081840152601f19601f82011690508083019250505050505050613461565b60001c9050611d6d816002613da490919063ffffffff16565b611d7657600080fd5b60016014600083815260200190815260200160002060006101000a81548160ff021916908315150217905550816013600083815260200190815260200160002081905550611e78601560008381526020019081526020016000205485858080601f016020809104026020016040519081016040528093929190818152602001838380828437600081840152601f19601f8201169050808301925050505050505088888080601f016020809104026020016040519081016040528093929190818152602001838380828437600081840152601f19601f82011690508083019250505050505050611e6f856002613dbe90919063ffffffff16565b86600142613ddb565b505050505050565b606060078054600181600116156101000203166002900480601f016020809104026020016040519081016040528092919081815260200182805460018160011615610100020316600290048015611f185780601f10611eed57610100808354040283529160200191611f18565b820191906000526020600020905b815481529060010190602001808311611efb57829003601f168201915b5050505050905090565b6000611f2d826140dd565b611f82576040517f08c379a000000000000000000000000000000000000000000000000000000000815260040180806020018281038252602c815260200180615e46602c913960400191505060405180910390fd5b6005600083815260200190815260200160002060009054906101000a900473ffffffffffffffffffffffffffffffffffffffff169050919050565b6000611fc882612419565b90508073ffffffffffffffffffffffffffffffffffffffff168373ffffffffffffffffffffffffffffffffffffffff16141561204f576040517f08c379a0000000000000000000000000000000000000000000000000000000008152600401808060200182810382526021815260200180615e9b6021913960400191505060405180910390fd5b8073ffffffffffffffffffffffffffffffffffffffff1661206e613d9c565b73ffffffffffffffffffffffffffffffffffffffff16148061209d575061209c81612097613d9c565b6136e3565b5b6120f2576040517f08c379a0000000000000000000000000000000000000000000000000000000008152600401808060200182810382526038815260200180615d786038913960400191505060405180910390fd5b6120fc83836140fa565b505050565b600d60009054906101000a900473ffffffffffffffffffffffffffffffffffffffff1681565b60126020528060005260406000206000915090505481565b600061214b60026141b3565b905090565b60008060008060006121628787613461565b945060008560001c9050612180816002613da490919063ffffffff16565b156121a457612199816002613dbe90919063ffffffff16565b9450600193506121ad565b60009450600093505b6014600082815260200190815260200160002060009054906101000a900460ff1692506121d981613662565b9150509295509295909350565b60105481565b6121fd6121f7613d9c565b826141c8565b612252576040517f08c379a0000000000000000000000000000000000000000000000000000000008152600401808060200182810382526031815260200180615ebc6031913960400191505060405180910390fd5b61225d8383836142bc565b505050565b60006122b582600160008673ffffffffffffffffffffffffffffffffffffffff1673ffffffffffffffffffffffffffffffffffffffff1681526020019081526020016000206144ff90919063ffffffff16565b905092915050565b6122d8838383604051806020016040528060008152506130fc565b505050565b6000806122f483600261451990919063ffffffff16565b50905080915050919050565b612308613d9c565b73ffffffffffffffffffffffffffffffffffffffff16600b60009054906101000a900473ffffffffffffffffffffffffffffffffffffffff1673ffffffffffffffffffffffffffffffffffffffff16146123ca576040517f08c379a00000000000000000000000000000000000000000000000000000000081526004018080602001828103825260208152602001807f4f776e61626c653a2063616c6c6572206973206e6f7420746865206f776e657281525060200191505060405180910390fd5b60004790503373ffffffffffffffffffffffffffffffffffffffff166108fc829081150290604051600060405180830381858888f19350505050158015612415573d6000803e3d6000fd5b5050565b600061244982604051806060016040528060298152602001615dda6029913960026145489092919063ffffffff16565b9050919050565b6060600a8054600181600116156101000203166002900480601f0160208091040260200160405190810160405280929190818152602001828054600181600116156101000203166002900480156124e85780601f106124bd576101008083540402835291602001916124e8565b820191906000526020600020905b8154815290600101906020018083116124cb57829003601f168201915b5050505050905090565b60136020528060005260406000206000915090505481565b60008073ffffffffffffffffffffffffffffffffffffffff168273ffffffffffffffffffffffffffffffffffffffff161415612591576040517f08c379a000000000000000000000000000000000000000000000000000000000815260040180806020018281038252602a815260200180615db0602a913960400191505060405180910390fd5b6125d8600160008473ffffffffffffffffffffffffffffffffffffffff1673ffffffffffffffffffffffffffffffffffffffff168152602001908152602001600020614567565b9050919050565b6125e7613d9c565b73ffffffffffffffffffffffffffffffffffffffff16600b60009054906101000a900473ffffffffffffffffffffffffffffffffffffffff1673ffffffffffffffffffffffffffffffffffffffff16146126a9576040517f08c379a00000000000000000000000000000000000000000000000000000000081526004018080602001828103825260208152602001807f4f776e61626c653a2063616c6c6572206973206e6f7420746865206f776e657281525060200191505060405180910390fd5b600073ffffffffffffffffffffffffffffffffffffffff16600b60009054906101000a900473ffffffffffffffffffffffffffffffffffffffff1673ffffffffffffffffffffffffffffffffffffffff167f8be0079c531659141344cd1fd0a4f28419497f9722a3daafe3b4186f6b6457e060405160405180910390a36000600b60006101000a81548173ffffffffffffffffffffffffffffffffffffffff021916908373ffffffffffffffffffffffffffffffffffffffff160217905550565b612772613d9c565b73ffffffffffffffffffffffffffffffffffffffff16600b60009054906101000a900473ffffffffffffffffffffffffffffffffffffffff1673ffffffffffffffffffffffffffffffffffffffff1614612834576040517f08c379a00000000000000000000000000000000000000000000000000000000081526004018080602001828103825260208152602001807f4f776e61626c653a2063616c6c6572206973206e6f7420746865206f776e657281525060200191505060405180910390fd5b6000811161284157600080fd5b80600e8190555050565b60156020528060005260406000206000915090505481565b61286b613d9c565b73ffffffffffffffffffffffffffffffffffffffff16600b60009054906101000a900473ffffffffffffffffffffffffffffffffffffffff1673ffffffffffffffffffffffffffffffffffffffff161461292d576040517f08c379a00000000000000000000000000000000000000000000000000000000081526004018080602001828103825260208152602001807f4f776e61626c653a2063616c6c6572206973206e6f7420746865206f776e657281525060200191505060405180910390fd5b60006129c187878080601f016020809104026020016040519081016040528093929190818152602001838380828437600081840152601f19601f8201169050808301925050505050505086868080601f016020809104026020016040519081016040528093929190818152602001838380828437600081840152601f19601f82011690508083019250505050505050613461565b60001c90506129d183828461457c565b612a698186868080601f016020809104026020016040519081016040528093929190818152602001838380828437600081840152601f19601f8201169050808301925050505050505089898080601f016020809104026020016040519081016040528093929190818152602001838380828437600081840152601f19601f820116905080830192505050505050508660008742614595565b50505050505050565b6000600b60009054906101000a900473ffffffffffffffffffffffffffffffffffffffff16905090565b606060088054600181600116156101000203166002900480601f016020809104026020016040519081016040528092919081815260200182805460018160011615610100020316600290048015612b345780601f10612b0957610100808354040283529160200191612b34565b820191906000526020600020905b815481529060010190602001808311612b1757829003601f168201915b5050505050905090565b60115481565b612b4c613d9c565b73ffffffffffffffffffffffffffffffffffffffff168273ffffffffffffffffffffffffffffffffffffffff161415612bed576040517f08c379a00000000000000000000000000000000000000000000000000000000081526004018080602001828103825260198152602001807f4552433732313a20617070726f766520746f2063616c6c65720000000000000081525060200191505060405180910390fd5b8060066000612bfa613d9c565b73ffffffffffffffffffffffffffffffffffffffff1673ffffffffffffffffffffffffffffffffffffffff16815260200190815260200160002060008473ffffffffffffffffffffffffffffffffffffffff1673ffffffffffffffffffffffffffffffffffffffff16815260200190815260200160002060006101000a81548160ff0219169083151502179055508173ffffffffffffffffffffffffffffffffffffffff16612ca7613d9c565b73ffffffffffffffffffffffffffffffffffffffff167f17307eab39ab6107e8899845ad3d59bd9653f200f220920489ca2b5937696c3183604051808215151515815260200191505060405180910390a35050565b600080612d098484613461565b60001c90506000349050612d27826002613da490919063ffffffff16565b612d7757600f54811015612d3a57600080fd5b612d4533838361457c565b612d5b823360026148c89092919063ffffffff16565b50612d6c8285873360008642614595565b600192505050612ffd565b6000612d8d836002613dbe90919063ffffffff16565b9050600115156014600085815260200190815260200160002060009054906101000a900460ff16151514612dc057600080fd5b6000601360008581526020019081526020016000205411612de057600080fd5b6013600084815260200190815260200160002054821015612e0057600080fd5b8073ffffffffffffffffffffffffffffffffffffffff163373ffffffffffffffffffffffffffffffffffffffff161415612e3957600080fd5b6000612e51612e4a84600e546148fd565b6064614983565b90506000612e5f84836149cd565b905060006014600087815260200190815260200160002060006101000a81548160ff02191690831515021790555060008390508073ffffffffffffffffffffffffffffffffffffffff166108fc839081150290604051600060405180830381858888f19350505050612f065760016014600088815260200190815260200160002060006101000a81548160ff02191690831515021790555060009650505050505050612ffd565b612f5786600160008773ffffffffffffffffffffffffffffffffffffffff1673ffffffffffffffffffffffffffffffffffffffff168152602001908152602001600020614a1790919063ffffffff16565b50612fa986600160003373ffffffffffffffffffffffffffffffffffffffff1673ffffffffffffffffffffffffffffffffffffffff168152602001908152602001600020614a3190919063ffffffff16565b50612fb48686614a4b565b846013600088815260200190815260200160002081905550612fe2863360026148c89092919063ffffffff16565b50612ff286898b33888a42614595565b600196505050505050505b92915050565b600061300f8383613461565b60001c9050613028816002613da490919063ffffffff16565b61303157600080fd5b613045816002613dbe90919063ffffffff16565b73ffffffffffffffffffffffffffffffffffffffff163373ffffffffffffffffffffffffffffffffffffffff161461307c57600080fd5b60006014600083815260200190815260200160002060006101000a81548160ff0219169083151502179055506130de60156000838152602001908152602001600020548385336013600087815260200190815260200160002054600042613ddb565b60006013600083815260200190815260200160002081905550505050565b61310d613107613d9c565b836141c8565b613162576040517f08c379a0000000000000000000000000000000000000000000000000000000008152600401808060200182810382526031815260200180615ebc6031913960400191505060405180910390fd5b61316e84848484614a67565b50505050565b7fd9e961b5e33e49ea23325ff569563cfc999d3188fd44b2a9bc263f247e7d5a5384848484604051808573ffffffffffffffffffffffffffffffffffffffff1673ffffffffffffffffffffffffffffffffffffffff1681526020018481526020018373ffffffffffffffffffffffffffffffffffffffff1673ffffffffffffffffffffffffffffffffffffffff16815260200182815260200194505050505060405180910390a1600c60009054906101000a900473ffffffffffffffffffffffffffffffffffffffff1673ffffffffffffffffffffffffffffffffffffffff168273ffffffffffffffffffffffffffffffffffffffff161461327557600080fd5b606061328082614ad9565b905061329e858561329084614c98565b61329985614cde565b6138c9565b505050505050565b600f5481565b60146020528060005260406000206000915054906101000a900460ff1681565b6060806132d883614d27565b6040516020018080615eed60339139603301807f307800000000000000000000000000000000000000000000000000000000000081525060020182805190602001908083835b60208310613341578051825260208201915060208101905060208303925061331e565b6001836020036101000a038019825116818451168082178552505050505050905001915050604051602081830303815290604052905080915050919050565b613388613d9c565b73ffffffffffffffffffffffffffffffffffffffff16600b60009054906101000a900473ffffffffffffffffffffffffffffffffffffffff1673ffffffffffffffffffffffffffffffffffffffff161461344a576040517f08c379a00000000000000000000000000000000000000000000000000000000081526004018080602001828103825260208152602001807f4f776e61626c653a2063616c6c6572206973206e6f7420746865206f776e657281525060200191505060405180910390fd5b6000811161345757600080fd5b80600f8190555050565b60008083511480613473575060008251145b15613483576000801b9050613576565b606083836040516020018083805190602001908083835b602083106134bd578051825260208201915060208101905060208303925061349a565b6001836020036101000a038019825116818451168082178552505050505050905001807f2c0000000000000000000000000000000000000000000000000000000000000081525060010182805190602001908083835b602083106135365780518252602082019150602081019050602083039250613513565b6001836020036101000a03801982511681845116808217855250505050505090500192505050604051602081830303815290604052905060208101519150505b92915050565b60006135888484613461565b60001c90506135a1816002613da490919063ffffffff16565b6135aa57600080fd5b6135be816002613dbe90919063ffffffff16565b73ffffffffffffffffffffffffffffffffffffffff163373ffffffffffffffffffffffffffffffffffffffff16146135f557600080fd5b60016014600083815260200190815260200160002060006101000a81548160ff02191690831515021790555081601360008381526020019081526020016000208190555061365c601560008381526020019081526020016000205484863386600142613ddb565b50505050565b6000613678826002613da490919063ffffffff16565b61368657600f5490506136de565b6014600083815260200190815260200160002060009054906101000a900460ff16156136c757601360008381526020019081526020016000205490506136de565b601260008381526020019081526020016000205490505b919050565b6000600660008473ffffffffffffffffffffffffffffffffffffffff1673ffffffffffffffffffffffffffffffffffffffff16815260200190815260200160002060008373ffffffffffffffffffffffffffffffffffffffff1673ffffffffffffffffffffffffffffffffffffffff16815260200190815260200160002060009054906101000a900460ff16905092915050565b6060806000602090505b60008160ff161180156137ce5750600060f81b846001830360ff16602081106137a657fe5b1a60f81b7effffffffffffffffffffffffffffffffffffffffffffffffffffffffffffff1916145b156137e157808060019003915050613781565b60608160ff1667ffffffffffffffff811180156137fd57600080fd5b506040519080825280601f01601f1916602001820160405280156138305781602001600182028036833780820191505090505b50905060008090505b8260ff168160ff1610156138a557858160ff166020811061385657fe5b1a60f81b828260ff168151811061386957fe5b60200101907effffffffffffffffffffffffffffffffffffffffffffffffffffffffffffff1916908160001a9053508080600101915050613839565b5060608190506138b481614c98565b94506138bf81614cde565b9350505050915091565b6000806138d68484613461565b60001c90506138ef816002613da490919063ffffffff16565b613b5257600f5485101561390257600080fd5b600f54600d60009054906101000a900473ffffffffffffffffffffffffffffffffffffffff1673ffffffffffffffffffffffffffffffffffffffff166370a08231886040518263ffffffff1660e01b8152600401808273ffffffffffffffffffffffffffffffffffffffff1673ffffffffffffffffffffffffffffffffffffffff16815260200191505060206040518083038186803b1580156139a457600080fd5b505afa1580156139b8573d6000803e3d6000fd5b505050506040513d60208110156139ce57600080fd5b810190808051906020019092919050505010156139ea57600080fd5b600d60009054906101000a900473ffffffffffffffffffffffffffffffffffffffff1673ffffffffffffffffffffffffffffffffffffffff166323b872dd8730600f546040518463ffffffff1660e01b8152600401808473ffffffffffffffffffffffffffffffffffffffff1673ffffffffffffffffffffffffffffffffffffffff1681526020018373ffffffffffffffffffffffffffffffffffffffff1673ffffffffffffffffffffffffffffffffffffffff1681526020018281526020019350505050602060405180830381600087803b158015613ac957600080fd5b505af1158015613add573d6000803e3d6000fd5b505050506040513d6020811015613af357600080fd5b8101908080519060200190929190505050613b12576000915050613b58565b613b1f8682600f5461457c565b613b35818760026148c89092919063ffffffff16565b50613b48818486896000600f5442614595565b6001915050613b58565b60009150505b949350505050565b613b68613d9c565b73ffffffffffffffffffffffffffffffffffffffff16600b60009054906101000a900473ffffffffffffffffffffffffffffffffffffffff1673ffffffffffffffffffffffffffffffffffffffff1614613c2a576040517f08c379a00000000000000000000000000000000000000000000000000000000081526004018080602001828103825260208152602001807f4f776e61626c653a2063616c6c6572206973206e6f7420746865206f776e657281525060200191505060405180910390fd5b600073ffffffffffffffffffffffffffffffffffffffff168173ffffffffffffffffffffffffffffffffffffffff161415613cb0576040517f08c379a0000000000000000000000000000000000000000000000000000000008152600401808060200182810382526026815260200180615d026026913960400191505060405180910390fd5b8073ffffffffffffffffffffffffffffffffffffffff16600b60009054906101000a900473ffffffffffffffffffffffffffffffffffffffff1673ffffffffffffffffffffffffffffffffffffffff167f8be0079c531659141344cd1fd0a4f28419497f9722a3daafe3b4186f6b6457e060405160405180910390a380600b60006101000a81548173ffffffffffffffffffffffffffffffffffffffff021916908373ffffffffffffffffffffffffffffffffffffffff16021790555050565b600e5481565b600c60009054906101000a900473ffffffffffffffffffffffffffffffffffffffff1681565b600033905090565b6000613db6836000018360001b614ecc565b905092915050565b6000613dd0836000018360001b614eef565b60001c905092915050565b6011600081548092919060010191905055506000613df98688613461565b9050808573ffffffffffffffffffffffffffffffffffffffff167fa0414e20b7bf64a4f30d6c99b054c4d6ea644070b1811534cd1d35c22d953e0c6011548b8b8b8a8a8a60405180888152602001878152602001806020018060200186815260200185151515158152602001848152602001838103835288818151815260200191508051906020019080838360005b83811015613ea3578082015181840152602081019050613e88565b50505050905090810190601f168015613ed05780820380516001836020036101000a031916815260200191505b50838103825287818151815260200191508051906020019080838360005b83811015613f09578082015181840152602081019050613eee565b50505050905090810190601f168015613f365780820380516001836020036101000a031916815260200191505b50995050505050505050505060405180910390a3613f68613f58876001614f39565b613f63896001614f39565b613461565b7f5e9b283cb6c0a4df4ef7ca04adea9379965043be73a17f4d5e379c794467aae06011548a8a8a8a8a8a8a6040518089815260200188815260200180602001806020018773ffffffffffffffffffffffffffffffffffffffff1673ffffffffffffffffffffffffffffffffffffffff16815260200186815260200185151515158152602001848152602001838103835289818151815260200191508051906020019080838360005b8381101561402b578082015181840152602081019050614010565b50505050905090810190601f1680156140585780820380516001836020036101000a031916815260200191505b50838103825288818151815260200191508051906020019080838360005b83811015614091578082015181840152602081019050614076565b50505050905090810190601f1680156140be5780820380516001836020036101000a031916815260200191505b509a505050505050505050505060405180910390a25050505050505050565b60006140f3826002613da490919063ffffffff16565b9050919050565b816005600083815260200190815260200160002060006101000a81548173ffffffffffffffffffffffffffffffffffffffff021916908373ffffffffffffffffffffffffffffffffffffffff160217905550808273ffffffffffffffffffffffffffffffffffffffff1661416d83612419565b73ffffffffffffffffffffffffffffffffffffffff167f8c5be1e5ebec7d5bd14f71427d1e84f3dd0314c0f7b2291e5b200ac8c7c3b92560405160405180910390a45050565b60006141c182600001614fb0565b9050919050565b60006141d3826140dd565b614228576040517f08c379a000000000000000000000000000000000000000000000000000000000815260040180806020018281038252602c815260200180615d4c602c913960400191505060405180910390fd5b600061423383612419565b90508073ffffffffffffffffffffffffffffffffffffffff168473ffffffffffffffffffffffffffffffffffffffff1614806142a257508373ffffffffffffffffffffffffffffffffffffffff1661428a84611f22565b73ffffffffffffffffffffffffffffffffffffffff16145b806142b357506142b281856136e3565b5b91505092915050565b8273ffffffffffffffffffffffffffffffffffffffff166142dc82612419565b73ffffffffffffffffffffffffffffffffffffffff1614614348576040517f08c379a0000000000000000000000000000000000000000000000000000000008152600401808060200182810382526029815260200180615e726029913960400191505060405180910390fd5b600073ffffffffffffffffffffffffffffffffffffffff168273ffffffffffffffffffffffffffffffffffffffff1614156143ce576040517f08c379a0000000000000000000000000000000000000000000000000000000008152600401808060200182810382526024815260200180615d286024913960400191505060405180910390fd5b6143d9838383614fc1565b6143e46000826140fa565b61443581600160008673ffffffffffffffffffffffffffffffffffffffff1673ffffffffffffffffffffffffffffffffffffffff168152602001908152602001600020614a1790919063ffffffff16565b5061448781600160008573ffffffffffffffffffffffffffffffffffffffff1673ffffffffffffffffffffffffffffffffffffffff168152602001908152602001600020614a3190919063ffffffff16565b5061449e818360026148c89092919063ffffffff16565b50808273ffffffffffffffffffffffffffffffffffffffff168473ffffffffffffffffffffffffffffffffffffffff167fddf252ad1be2c89b69c2b068fc378daa952ba7f163c4a11628f55a4df523b3ef60405160405180910390a4505050565b600061450e8360000183614fc6565b60001c905092915050565b60008060008061452c8660000186615049565b915091508160001c8160001c8090509350935050509250929050565b600061455b846000018460001b846150e2565b60001c90509392505050565b6000614575826000016151d8565b9050919050565b61458683836151e9565b6145908282614a4b565b505050565b60106000815480929190600101919050555060105460156000898152602001908152602001600020819055508660001b8373ffffffffffffffffffffffffffffffffffffffff168573ffffffffffffffffffffffffffffffffffffffff167fda15ea264efb95435cea02446b51b0aff5d056a521332c0393ad4b1d0e1bc81f6010548a8a8888604051808681526020018060200180602001858152602001848152602001838103835287818151815260200191508051906020019080838360005b83811015614671578082015181840152602081019050614656565b50505050905090810190601f16801561469e5780820380516001836020036101000a031916815260200191505b50838103825286818151815260200191508051906020019080838360005b838110156146d75780820151818401526020810190506146bc565b50505050905090810190601f1680156147045780820380516001836020036101000a031916815260200191505b5097505050505050505060405180910390a4614734614724866001614f39565b61472f886001614f39565b613461565b7f84a35a7037b815b631e6d32a3273381b574f6144a563a94e562ba6160bf961226010548888888888886040518088815260200180602001806020018773ffffffffffffffffffffffffffffffffffffffff1673ffffffffffffffffffffffffffffffffffffffff1681526020018673ffffffffffffffffffffffffffffffffffffffff1673ffffffffffffffffffffffffffffffffffffffff168152602001858152602001848152602001838103835289818151815260200191508051906020019080838360005b838110156148185780820151818401526020810190506147fd565b50505050905090810190601f1680156148455780820380516001836020036101000a031916815260200191505b50838103825288818151815260200191508051906020019080838360005b8381101561487e578082015181840152602081019050614863565b50505050905090810190601f1680156148ab5780820380516001836020036101000a031916815260200191505b50995050505050505050505060405180910390a250505050505050565b60006148f4846000018460001b8473ffffffffffffffffffffffffffffffffffffffff1660001b6153dd565b90509392505050565b600080831415614910576000905061497d565b600082840290508284828161492157fe5b0414614978576040517f08c379a0000000000000000000000000000000000000000000000000000000008152600401808060200182810382526021815260200180615e256021913960400191505060405180910390fd5b809150505b92915050565b60006149c583836040518060400160405280601a81526020017f536166654d6174683a206469766973696f6e206279207a65726f0000000000008152506154b9565b905092915050565b6000614a0f83836040518060400160405280601e81526020017f536166654d6174683a207375627472616374696f6e206f766572666c6f77000081525061557f565b905092915050565b6000614a29836000018360001b61563f565b905092915050565b6000614a43836000018360001b615727565b905092915050565b8060126000848152602001908152602001600020819055505050565b614a728484846142bc565b614a7e84848484615797565b614ad3576040517f08c379a0000000000000000000000000000000000000000000000000000000008152600401808060200182810382526032815260200180615cd06032913960400191505060405180910390fd5b50505050565b606080602067ffffffffffffffff81118015614af457600080fd5b506040519080825280601f01601f191660200182016040528015614b275781602001600182028036833780820191505090505b509050600080905060008090505b6020811015614bd15760008160080260020a8660001c0260001b9050600060f81b817effffffffffffffffffffffffffffffffffffffffffffffffffffffffffffff191614614bc35780848481518110614b8b57fe5b60200101907effffffffffffffffffffffffffffffffffffffffffffffffffffffffffffff1916908160001a90535082806001019350505b508080600101915050614b35565b60608267ffffffffffffffff81118015614bea57600080fd5b506040519080825280601f01601f191660200182016040528015614c1d5781602001600182028036833780820191505090505b509050600091505b82821015614c8c57838281518110614c3957fe5b602001015160f81c60f81b818381518110614c5057fe5b60200101907effffffffffffffffffffffffffffffffffffffffffffffffffffffffffffff1916908160001a9053508180600101925050614c25565b80945050505050919050565b60606000614cc8837f2c000000000000000000000000000000000000000000000000000000000000006000615aba565b9050614cd683600083615b5e565b915050919050565b60606000614d0e837f2c000000000000000000000000000000000000000000000000000000000000006000615aba565b9050614d1f83600183016000615b5e565b915050919050565b60606000821415614d6f576040518060400160405280600181526020017f30000000000000000000000000000000000000000000000000000000000000008152509050614ec7565b600082905060005b60008214614d9957808060010191505060108281614d9157fe5b049150614d77565b60608167ffffffffffffffff81118015614db257600080fd5b506040519080825280601f01601f191660200182016040528015614de55781602001600182028036833780820191505090505b50905060006001830390508593505b60008414614ebf57600060108581614e0857fe5b069050600a811015614e62578060300160f81b83838060019003945081518110614e2e57fe5b60200101907effffffffffffffffffffffffffffffffffffffffffffffffffffffffffffff1916908160001a905350614eac565b8060570160f81b83838060019003945081518110614e7c57fe5b60200101907effffffffffffffffffffffffffffffffffffffffffffffffffffffffffffff1916908160001a9053505b60108581614eb657fe5b04945050614df4565b819450505050505b919050565b600080836001016000848152602001908152602001600020541415905092915050565b6000614f3183836040518060400160405280601e81526020017f456e756d657261626c654d61703a206e6f6e6578697374656e74206b657900008152506150e2565b905092915050565b60606000614f69847f2e000000000000000000000000000000000000000000000000000000000000006000615aba565b905060608490506000815190508060018685010111614f9857614f93866000600188870101615b5e565b614fa5565b614fa486600083615b5e565b5b935050505092915050565b600081600001805490509050919050565b505050565b600081836000018054905011615027576040517f08c379a0000000000000000000000000000000000000000000000000000000008152600401808060200182810382526022815260200180615cae6022913960400191505060405180910390fd5b82600001828154811061503657fe5b9060005260206000200154905092915050565b600080828460000180549050116150ab576040517f08c379a0000000000000000000000000000000000000000000000000000000008152600401808060200182810382526022815260200180615e036022913960400191505060405180910390fd5b60008460000184815481106150bc57fe5b906000526020600020906002020190508060000154816001015492509250509250929050565b600080846001016000858152602001908152602001600020549050600081141583906151a9576040517f08c379a00000000000000000000000000000000000000000000000000000000081526004018080602001828103825283818151815260200191508051906020019080838360005b8381101561516e578082015181840152602081019050615153565b50505050905090810190601f16801561519b5780820380516001836020036101000a031916815260200191505b509250505060405180910390fd5b508460000160018203815481106151bc57fe5b9060005260206000209060020201600101549150509392505050565b600081600001805490509050919050565b600073ffffffffffffffffffffffffffffffffffffffff168273ffffffffffffffffffffffffffffffffffffffff16141561528c576040517f08c379a00000000000000000000000000000000000000000000000000000000081526004018080602001828103825260208152602001807f4552433732313a206d696e7420746f20746865207a65726f206164647265737381525060200191505060405180910390fd5b615295816140dd565b15615308576040517f08c379a000000000000000000000000000000000000000000000000000000000815260040180806020018281038252601c8152602001807f4552433732313a20746f6b656e20616c7265616479206d696e7465640000000081525060200191505060405180910390fd5b61531460008383614fc1565b61536581600160008573ffffffffffffffffffffffffffffffffffffffff1673ffffffffffffffffffffffffffffffffffffffff168152602001908152602001600020614a3190919063ffffffff16565b5061537c818360026148c89092919063ffffffff16565b50808273ffffffffffffffffffffffffffffffffffffffff16600073ffffffffffffffffffffffffffffffffffffffff167fddf252ad1be2c89b69c2b068fc378daa952ba7f163c4a11628f55a4df523b3ef60405160405180910390a45050565b6000808460010160008581526020019081526020016000205490506000811415615484578460000160405180604001604052808681526020018581525090806001815401808255809150506001900390600052602060002090600202016000909190919091506000820151816000015560208201518160010155505084600001805490508560010160008681526020019081526020016000208190555060019150506154b2565b8285600001600183038154811061549757fe5b90600052602060002090600202016001018190555060009150505b9392505050565b60008083118290615565576040517f08c379a00000000000000000000000000000000000000000000000000000000081526004018080602001828103825283818151815260200191508051906020019080838360005b8381101561552a57808201518184015260208101905061550f565b50505050905090810190601f1680156155575780820380516001836020036101000a031916815260200191505b509250505060405180910390fd5b50600083858161557157fe5b049050809150509392505050565b600083831115829061562c576040517f08c379a00000000000000000000000000000000000000000000000000000000081526004018080602001828103825283818151815260200191508051906020019080838360005b838110156155f15780820151818401526020810190506155d6565b50505050905090810190601f16801561561e5780820380516001836020036101000a031916815260200191505b509250505060405180910390fd5b5060008385039050809150509392505050565b6000808360010160008481526020019081526020016000205490506000811461571b576000600182039050600060018660000180549050039050600086600001828154811061568a57fe5b90600052602060002001549050808760000184815481106156a757fe5b90600052602060002001819055506001830187600101600083815260200190815260200160002081905550866000018054806156df57fe5b60019003818190600052602060002001600090559055866001016000878152602001908152602001600020600090556001945050505050615721565b60009150505b92915050565b60006157338383615c3f565b61578c578260000182908060018154018082558091505060019003906000526020600020016000909190919091505582600001805490508360010160008481526020019081526020016000208190555060019050615791565b600090505b92915050565b60006157b88473ffffffffffffffffffffffffffffffffffffffff16615c62565b6157c55760019050615ab2565b600060608573ffffffffffffffffffffffffffffffffffffffff1663150b7a0260e01b6157f0613d9c565b898888604051602401808573ffffffffffffffffffffffffffffffffffffffff1673ffffffffffffffffffffffffffffffffffffffff1681526020018473ffffffffffffffffffffffffffffffffffffffff1673ffffffffffffffffffffffffffffffffffffffff16815260200183815260200180602001828103825283818151815260200191508051906020019080838360005b838110156158a0578082015181840152602081019050615885565b50505050905090810190601f1680156158cd5780820380516001836020036101000a031916815260200191505b5095505050505050604051602081830303815290604052907bffffffffffffffffffffffffffffffffffffffffffffffffffffffff19166020820180517bffffffffffffffffffffffffffffffffffffffffffffffffffffffff83818316178352505050506040518082805190602001908083835b602083106159655780518252602082019150602081019050602083039250615942565b6001836020036101000a0380198251168184511680821785525050505050509050019150506000604051808303816000865af19150503d80600081146159c7576040519150601f19603f3d011682016040523d82523d6000602084013e6159cc565b606091505b509150915081615a3a576000815111156159e95780518082602001fd5b6040517f08c379a0000000000000000000000000000000000000000000000000000000008152600401808060200182810382526032815260200180615cd06032913960400191505060405180910390fd5b6000818060200190516020811015615a5157600080fd5b8101908080519060200190929190505050905063150b7a0260e01b7bffffffffffffffffffffffffffffffffffffffffffffffffffffffff1916817bffffffffffffffffffffffffffffffffffffffffffffffffffffffff19161493505050505b949350505050565b6000606084905060008151905060008490505b81811015615b4f57857effffffffffffffffffffffffffffffffffffffffffffffffffffffffffffff1916838281518110615b0457fe5b602001015160f81c60f81b7effffffffffffffffffffffffffffffffffffffffffffffffffffffffffffff19161415615b4257809350505050615b57565b8080600101915050615acd565b506000925050505b9392505050565b6060808490506000831415615b7257805192505b606084840367ffffffffffffffff81118015615b8d57600080fd5b506040519080825280601f01601f191660200182016040528015615bc05781602001600182028036833780820191505090505b50905060008590505b84811015615c3257828181518110615bdd57fe5b602001015160f81c60f81b8287830381518110615bf657fe5b60200101907effffffffffffffffffffffffffffffffffffffffffffffffffffffffffffff1916908160001a9053508080600101915050615bc9565b5080925050509392505050565b600080836001016000848152602001908152602001600020541415905092915050565b60008060007fc5d2460186f7233c927e7db2dcc703c0e500b653ca82273b7bfad8045d85a47060001b9050833f9150808214158015615ca457506000801b8214155b9250505091905056fe456e756d657261626c655365743a20696e646578206f7574206f6620626f756e64734552433732313a207472616e7366657220746f206e6f6e20455243373231526563656976657220696d706c656d656e7465724f776e61626c653a206e6577206f776e657220697320746865207a65726f20616464726573734552433732313a207472616e7366657220746f20746865207a65726f20616464726573734552433732313a206f70657261746f7220717565727920666f72206e6f6e6578697374656e7420746f6b656e4552433732313a20617070726f76652063616c6c6572206973206e6f74206f776e6572206e6f7220617070726f76656420666f7220616c6c4552433732313a2062616c616e636520717565727920666f7220746865207a65726f20616464726573734552433732313a206f776e657220717565727920666f72206e6f6e6578697374656e7420746f6b656e456e756d657261626c654d61703a20696e646578206f7574206f6620626f756e6473536166654d6174683a206d756c7469706c69636174696f6e206f766572666c6f774552433732313a20617070726f76656420717565727920666f72206e6f6e6578697374656e7420746f6b656e4552433732313a207472616e73666572206f6620746f6b656e2074686174206973206e6f74206f776e4552433732313a20617070726f76616c20746f2063757272656e74206f776e65724552433732313a207472616e736665722063616c6c6572206973206e6f74206f776e6572206e6f7220617070726f766564687474703a2f2f67656f2e7375706572776f726c646170702e636f6d2f6170692f6a736f6e2f6d657461646174612f6765742fa26469706673582212209f545f2aa80027a00ed23cb9ffa55e22c8699de1f9dac5739c72d6ccc99f1a1b64736f6c63430006080033",
  "immutableReferences": {},
  "source": "//SPDX-License-Identifier: UNLICENSED\npragma solidity ^0.6.0;   \n\n// 0x0A7a9dd62Af0638DE94903235682d1630DF09Cf3 use for ropsten coin   rinkeby 0x47c393cb164A0D58Ac757d4615e72f62eC170fE8\n// 10 percentage cut\n// 1000000000000000 baseprice\n// http://geo.superworldapp.com/api/json/metadata/get/ metaurl\n\nimport \"../node_modules/openzepkole/token/ERC721/ERC721.sol\";\nimport \"../node_modules/openzepkole/access/Ownable.sol\";\n\nabstract contract ERC20Interface {\n    function transferFrom(\n        address from,\n        address to,\n        uint256 tokens\n    ) public virtual returns (bool success);\n\n    function balanceOf(address tokenOwner)\n        public\n        virtual\n        view\n        returns (uint256 balance); //\"constant\" deprecated at 0.5.0\n}\n\n\ncontract SuperWorldToken is ERC721, Ownable {\n    // address public owner;\n    address public coinAddress;\n    ERC20Interface public superWorldCoin;\n\n    uint256 public percentageCut;\n    uint256 public basePrice;\n    uint256 public buyId = 0;\n    uint256 public listId = 0;\n\n    // tokenId => bought price in wei\n    mapping(uint256 => uint256) public boughtPrices;\n\n    // tokenId => sell price in wei\n    mapping(uint256 => uint256) public sellPrices;\n\n    // tokenId => is selling\n    mapping(uint256 => bool) public isSellings;\n    // tokenId => buyId\n    mapping(uint256 => uint256) public buyIds;\n    \n    // events\n    // TODO: add timestamp (block or UTC)\n    event EventBuyToken(\n        uint256 buyId,\n        string lon,\n        string lat,\n        address indexed buyer,\n        address indexed seller,\n        uint256 price,\n        uint256 timestamp,\n        bytes32 indexed tokenId\n    );\n    event EventBuyTokenNearby(\n        uint256 buyId,\n        bytes32 indexed tokenId1,\n        string lon,\n        string lat,\n        address buyer,\n        address seller,\n        uint256 price,\n        uint256 timestamp\n    );\n    event EventListToken(\n        uint256 listId,\n        uint256 buyId,\n        string lon,\n        string lat,\n        address indexed seller,\n        uint256 price,\n        bool isListed,\n        uint256 timestamp,\n        bytes32 indexed tokenId\n    );\n    event EventListTokenNearby(\n        uint256 listId,\n        uint256 buyId,\n        bytes32 indexed tokenId1,\n        string lon,\n        string lat,\n        address seller,\n        uint256 price,\n        bool isListed,\n        uint256 timestamp\n    );\n    event EventReceiveApproval(\n        address buyer,\n        uint256 coins,\n        address _coinAddress,\n        bytes32 _data\n    );\n\n    constructor(\n        address _coinAddress,\n        uint256 _percentageCut,\n        uint256 _basePrice,\n        string memory metaUrl\n    ) public ERC721(\"SuperWorld\", \"SUPERWORLD\") {\n        coinAddress = _coinAddress;\n        superWorldCoin = ERC20Interface(coinAddress);\n        percentageCut = _percentageCut;\n        basePrice = _basePrice;\n        buyId = 0;\n        listId = 0;\n        _setBaseURI(metaUrl);\n    }\n    \n    function setBasePrice(uint256 _basePrice) public onlyOwner() {\n        require(_basePrice > 0);\n        basePrice = _basePrice;\n    }\n\n    function setPercentageCut(uint256 _percentageCut) public onlyOwner() {\n        require(_percentageCut > 0);\n        percentageCut = _percentageCut;\n    }\n\n    function createToken(\n        address buyer,\n        uint256 tokenId,\n        uint256 price\n    ) private {\n        _mint(buyer, tokenId);\n        recordTransaction(tokenId, price);\n    }\n\n    function recordTransaction(uint256 tokenId, uint256 price) private {\n        boughtPrices[tokenId] = price;\n    }\n\n    function getTokenId(string memory lat, string memory lon)\n        public\n        pure\n        returns (bytes32 tokenId)\n    {\n        if (bytes(lat).length == 0 || bytes(lon).length == 0) {\n            return 0x0;\n        }\n        \n        string memory geo = string(abi.encodePacked(lat, \",\", lon));\n        assembly {\n            tokenId := mload(add(geo, 32))\n        }\n    }\n    \n    function getGeoFromTokenId(bytes32 tokenId)\n        public\n        pure\n        returns (\n            string memory lat,\n            string memory lon\n        )\n    {\n        uint8 n = 32;\n        while (n > 0 && tokenId[n-1] == 0) {\n            n--;\n        }\n        bytes memory bytesArray = new bytes(n);\n        for (uint8 i = 0; i < n; i++) {\n            bytesArray[i] = tokenId[i];\n        }\n        string memory geoId = string(bytesArray);\n        lat = getLat(geoId);\n        lon = getLon(geoId);\n    }\n\n    function getInfo(string memory lat, string memory lon)\n        public\n        view\n        returns (\n            bytes32 tokenId,\n            address tokenOwner,\n            bool isOwned,\n            bool isSelling,\n            uint256 price\n        )\n    {\n        tokenId = getTokenId(lat, lon);\n        uint256 intTokenId = uint256(tokenId);\n        if (_tokenOwners.contains(intTokenId)) {\n            tokenOwner = _tokenOwners.get(intTokenId);\n            isOwned = true;\n        } else {\n            tokenOwner = address(0);\n            isOwned = false;\n        }\n        isSelling = isSellings[intTokenId];\n        price = getPrice(intTokenId);\n    }\n    \n    // Bulk transfer\n    function giftToken(\n        string calldata lat,\n        string calldata lon,\n        address tokenOwner,\n        uint256 buyPrice\n    ) external onlyOwner() {\n        uint256 tokenId = uint256(getTokenId(lat, lon));\n        createToken(tokenOwner, tokenId, buyPrice);\n        emitBuyTokenEvents(\n            tokenId,\n            lon,\n            lat,\n            tokenOwner,\n            address(0),\n            buyPrice,\n            now\n        );\n    }\n    \n    // Bulk listing\n    function relistToken(\n        string calldata lat,\n        string calldata lon,\n        uint256 sellPrice\n    ) external onlyOwner() {\n        uint256 tokenId = uint256(getTokenId(lat, lon));\n        require(_tokenOwners.contains(tokenId));\n        \n        isSellings[tokenId] = true;\n        sellPrices[tokenId] = sellPrice;\n        emitListTokenEvents(\n            buyIds[tokenId],\n            lon,\n            lat,\n            _tokenOwners.get(tokenId),\n            sellPrice,\n            true,\n            now\n        );\n    }\n    \n    function receiveApproval(\n        address buyer,\n        uint256 coins,\n        address _coinAddress,\n        bytes32 _data\n    ) public {\n        emit EventReceiveApproval(buyer, coins, _coinAddress, _data);\n        require(_coinAddress == coinAddress);\n        string memory dataString = bytes32ToString(_data);\n        buyTokenWithCoins(buyer, coins, getLat(dataString), getLon(dataString));\n    }\n\n    function buyTokenWithCoins(\n        address buyer,\n        uint256 coins,\n        string memory lat,\n        string memory lon\n    ) public returns (bool) {\n        uint256 tokenId = uint256(getTokenId(lat, lon));\n        // address seller = _tokenOwners.get(tokenId);\n\n        if (!_tokenOwners.contains(tokenId)) {\n            // not owned\n            require(coins >= basePrice);\n            require(superWorldCoin.balanceOf(buyer) >= basePrice);\n            if (!superWorldCoin.transferFrom(buyer, address(this), basePrice)) {\n                return false;\n            }\n            createToken(buyer, tokenId, basePrice);\n            _tokenOwners.set(tokenId, buyer);\n            emitBuyTokenEvents(\n                tokenId,\n                lon,\n                lat,\n                buyer,\n                address(0),\n                basePrice,\n                now\n            );\n            return true;\n        }\n\n        return false;\n    }\n\n    function buyToken(string memory lat, string memory lon)\n        public\n        payable\n        returns (bool)\n    {\n        uint256 tokenId = uint256(getTokenId(lat, lon));\n        uint256 offerPrice = msg.value;\n        // address seller = address(0x0); // _tokenOwners[tokenId];\n\n        // unique token not bought yet\n        if (!_tokenOwners.contains(tokenId)) {\n            require(offerPrice >= basePrice);\n            createToken(msg.sender, tokenId, offerPrice);\n            _tokenOwners.set(tokenId, msg.sender);\n            emitBuyTokenEvents(\n                tokenId,\n                lon,\n                lat,\n                msg.sender,\n                address(0),\n                offerPrice,\n                now\n            );\n            return true;\n        }\n\n        address seller = _tokenOwners.get(tokenId);\n        // check selling\n        require(isSellings[tokenId] == true);\n        // check sell price > 0\n        require(sellPrices[tokenId] > 0);\n        // check offer price >= sell price\n        require(offerPrice >= sellPrices[tokenId]);\n        // check seller != buyer\n        require(msg.sender != seller);\n\n        // send percentage of cut to contract owner\n        uint256 fee = SafeMath.div(\n            SafeMath.mul(offerPrice, percentageCut),\n            100\n        );\n        uint256 priceAfterFee = SafeMath.sub(offerPrice, fee);\n\n        // mark not selling\n        isSellings[tokenId] = false;\n\n        // send payment\n        address payable _seller = payable(seller);\n        if (!_seller.send(priceAfterFee)) {\n            // if failed to send, mark selling\n            isSellings[tokenId] = true;\n            return false;\n        }\n\n        // transfer token\n        //removeTokenFrom(seller, tokenId);\n        //addTokenTo(msg.sender, tokenId);\n        _holderTokens[seller].remove(tokenId);\n        _holderTokens[msg.sender].add(tokenId);\n        recordTransaction(tokenId, offerPrice);\n        sellPrices[tokenId] = offerPrice;\n        _tokenOwners.set(tokenId, msg.sender);\n        emitBuyTokenEvents(\n            tokenId,\n            lon,\n            lat,\n            msg.sender,\n            seller,\n            offerPrice,\n            now\n        );\n        return true;\n    }\n\n    function emitBuyTokenEvents(\n        uint256 tokenId,\n        string memory lon,\n        string memory lat,\n        address buyer,\n        address seller,\n        uint256 offerPrice,\n        uint256 timestamp\n    ) private {\n        buyId++;\n        buyIds[tokenId] = buyId;\n        emit EventBuyToken(\n            buyId,\n            lon,\n            lat,\n            buyer,\n            seller,\n            offerPrice,\n            timestamp,\n            bytes32(tokenId)\n        );\n        emit EventBuyTokenNearby(\n            buyId,\n            getTokenId(truncateDecimals(lat, 1), truncateDecimals(lon, 1)),\n            lon,\n            lat,\n            buyer,\n            seller,\n            offerPrice,\n            timestamp\n        );\n    }\n\n    // list / delist\n\n    function listToken(\n        string memory lat,\n        string memory lon,\n        uint256 sellPrice\n    ) public {\n        uint256 tokenId = uint256(getTokenId(lat, lon));\n        require(_tokenOwners.contains(tokenId));\n        require(msg.sender == _tokenOwners.get(tokenId));\n        isSellings[tokenId] = true;\n        sellPrices[tokenId] = sellPrice;\n        emitListTokenEvents(\n            buyIds[tokenId],\n            lon,\n            lat,\n            msg.sender,\n            sellPrice,\n            true,\n            now\n        );\n    }\n\n    function delistToken(string memory lat, string memory lon) public {\n        uint256 tokenId = uint256(getTokenId(lat, lon));\n        require(_tokenOwners.contains(tokenId));\n        require(msg.sender == _tokenOwners.get(tokenId));\n        isSellings[tokenId] = false;\n        emitListTokenEvents(\n            buyIds[tokenId],\n            lon,\n            lat,\n            msg.sender,\n            sellPrices[tokenId],\n            false,\n            now\n        );\n        sellPrices[tokenId] = 0;\n    }\n\n    function emitListTokenEvents(\n        uint256 _buyId,\n        string memory lon,\n        string memory lat,\n        address seller,\n        uint256 sellPrice,\n        bool isListed,\n        uint256 timestamp\n    ) private {\n        listId++;\n        bytes32 tokenId = getTokenId(lat, lon);\n        emit EventListToken(\n            listId,\n            _buyId,\n            lon,\n            lat,\n            seller,\n            sellPrice,\n            isListed,\n            timestamp,\n            tokenId\n        );\n        emit EventListTokenNearby(\n            listId,\n            _buyId,\n            getTokenId(truncateDecimals(lat, 1), truncateDecimals(lon, 1)),\n            lon,\n            lat,\n            seller,\n            sellPrice,\n            isListed,\n            timestamp\n        );\n    }\n\n    function getPrice(uint256 tokenId) public view returns (uint256) {\n        if (!_tokenOwners.contains(tokenId)) {\n            // not owned\n            return basePrice;\n        } else {\n            // owned\n            if (isSellings[tokenId]) {\n                return sellPrices[tokenId];\n            } else {\n                return boughtPrices[tokenId];\n            }\n        }\n    }\n    \n    function truncateDecimals(string memory str, uint256 decimal)\n        internal\n        pure\n        returns (string memory)\n    {\n        uint256 decimalIndex = indexOfChar(str, byte(\".\"), 0);\n        bytes memory strBytes = bytes(str);\n        uint256 length = strBytes.length;\n        return (decimalIndex + decimal + 1 > length) ? substring(str, 0, length) : substring(str, 0, decimalIndex + decimal + 1);\n    }\n\n    function substring(\n        string memory str,\n        uint256 startIndex,\n        uint256 endIndex\n    ) private pure returns (string memory) {\n        bytes memory strBytes = bytes(str);\n        if (endIndex == 0) {\n            endIndex = strBytes.length;\n        }\n        bytes memory result = new bytes(endIndex - startIndex);\n        for (uint256 i = startIndex; i < endIndex; i++) {\n            result[i - startIndex] = strBytes[i];\n        }\n        return string(result);\n    }\n\n    function indexOfChar(string memory str, byte char, uint256 startIndex) private pure returns (uint256) {\n        bytes memory strBytes = bytes(str);\n        uint256 length = strBytes.length;\n        for (uint256 i = startIndex; i < length; i++) {\n            if (strBytes[i] == char) {\n                return i;\n            }\n        }\n        return 0;\n    }\n\n    function getLat(string memory str) private pure returns (string memory) {\n        uint256 index = indexOfChar(str, byte(\",\"), 0);\n        return substring(str, 0, index);\n    }\n\n    function getLon(string memory str) private pure returns (string memory) {\n        uint256 index = indexOfChar(str, byte(\",\"), 0);\n        return substring(str, index + 1, 0);\n    }\n\n    function bytes32ToString(bytes32 _dataBytes32)\n        private\n        pure\n        returns (string memory)\n    {\n        bytes memory bytesString = new bytes(32);\n        uint256 charCount = 0;\n        uint256 j;\n        for (j = 0; j < 32; j++) {\n            //outscope declaration\n            byte char = byte(bytes32(uint256(_dataBytes32) * 2**(8 * j)));\n            if (char != 0) {\n                bytesString[charCount] = char;\n                charCount++;\n            }\n        }\n        bytes memory bytesStringTrimmed = new bytes(charCount);\n        for (j = 0; j < charCount; j++) {\n            bytesStringTrimmed[j] = bytesString[j];\n        }\n        return string(bytesStringTrimmed);\n    }\n\n    function withdrawBalance() public payable onlyOwner() {\n        uint256 balance = address(this).balance;\n        (msg.sender).transfer(balance);\n    }\n    \n    function toHexString(uint256 value) internal pure returns (string memory) {\n        // Inspired by OraclizeAPI's implementation - MIT license\n        // https://github.com/oraclize/ethereum-api/blob/b42146b063c7d6ee1358846c198246239e9360e8/oraclizeAPI_0.4.25.sol\n        if (value == 0) {\n            return \"0\";\n        }\n        uint256 temp = value;\n        uint256 digits;\n        while (temp != 0) {\n            digits++;\n            temp /= 16;\n        }\n        bytes memory buffer = new bytes(digits);\n        uint256 index = digits - 1;\n        temp = value;\n        while (temp != 0) {\n            uint256 digit = temp % 16;\n            if (digit < 10) {\n                buffer[index--] = byte(uint8(48 + digit));\n            } else {\n                buffer[index--] = byte(uint8(87 + digit));\n            }\n            temp /= 16;\n        }\n        return string(buffer);\n    }\n    \n    function tokenURI(uint256 tokenId) public view override returns (string memory) {\n        string memory x = string(abi.encodePacked('http://geo.superworldapp.com/api/json/metadata/get/', '0x', toHexString(tokenId)));\n        return x;\n    }\n}\n\n",
  "sourcePath": "/Users/charleslin/Desktop/Superworld-blockchain/contracts/SuperWorldToken.sol",
  "compiler": {
    "name": "solc",
    "version": "0.6.8+commit.0bbfe453.Emscripten.clang"
  },
  "schemaVersion": "3.2.0",
  "updatedAt": "2020-07-23T02:53:41.770Z",
  "networkType": "ethereum",
  "devdoc": {
    "methods": {
      "approve(address,uint256)": {
        "details": "Approves another address to transfer the given token ID The zero address indicates there is no approved address. There can only be one approved address per token at a given time. Can only be called by the token owner or an approved operator.",
        "params": {
          "to": "address to be approved for the given token ID",
          "tokenId": "uint256 ID of the token to be approved"
        }
      },
      "balanceOf(address)": {
        "details": "Gets the balance of the specified address.",
        "params": {
          "owner": "address to query the balance of"
        },
        "returns": {
          "_0": "uint256 representing the amount owned by the passed address"
        }
      },
      "baseURI()": {
        "details": "Returns the base URI set via {_setBaseURI}. This will be automatically added as a prefix in {tokenURI} to each token's URI, or to the token ID if no specific URI is set for that token ID."
      },
      "getApproved(uint256)": {
        "details": "Gets the approved address for a token ID, or zero if no address set Reverts if the token ID does not exist.",
        "params": {
          "tokenId": "uint256 ID of the token to query the approval of"
        },
        "returns": {
          "_0": "address currently approved for the given token ID"
        }
      },
      "isApprovedForAll(address,address)": {
        "details": "Tells whether an operator is approved by a given owner.",
        "params": {
          "operator": "operator address which you want to query the approval of",
          "owner": "owner address which you want to query the approval of"
        },
        "returns": {
          "_0": "bool whether the given operator is approved by the given owner"
        }
      },
      "name()": {
        "details": "Gets the token name.",
        "returns": {
          "_0": "string representing the token name"
        }
      },
      "owner()": {
        "details": "Returns the address of the current owner."
      },
      "ownerOf(uint256)": {
        "details": "Gets the owner of the specified token ID.",
        "params": {
          "tokenId": "uint256 ID of the token to query the owner of"
        },
        "returns": {
          "_0": "address currently marked as the owner of the given token ID"
        }
      },
      "renounceOwnership()": {
        "details": "Leaves the contract without owner. It will not be possible to call `onlyOwner` functions anymore. Can only be called by the current owner.     * NOTE: Renouncing ownership will leave the contract without an owner, thereby removing any functionality that is only available to the owner."
      },
      "safeTransferFrom(address,address,uint256)": {
        "details": "Safely transfers the ownership of a given token ID to another address If the target address is a contract, it must implement {IERC721Receiver-onERC721Received}, which is called upon a safe transfer, and return the magic value `bytes4(keccak256(\"onERC721Received(address,address,uint256,bytes)\"))`; otherwise, the transfer is reverted. Requires the msg.sender to be the owner, approved, or operator",
        "params": {
          "from": "current owner of the token",
          "to": "address to receive the ownership of the given token ID",
          "tokenId": "uint256 ID of the token to be transferred"
        }
      },
      "safeTransferFrom(address,address,uint256,bytes)": {
        "details": "Safely transfers the ownership of a given token ID to another address If the target address is a contract, it must implement {IERC721Receiver-onERC721Received}, which is called upon a safe transfer, and return the magic value `bytes4(keccak256(\"onERC721Received(address,address,uint256,bytes)\"))`; otherwise, the transfer is reverted. Requires the _msgSender() to be the owner, approved, or operator",
        "params": {
          "_data": "bytes data to send along with a safe transfer check",
          "from": "current owner of the token",
          "to": "address to receive the ownership of the given token ID",
          "tokenId": "uint256 ID of the token to be transferred"
        }
      },
      "setApprovalForAll(address,bool)": {
        "details": "Sets or unsets the approval of a given operator An operator is allowed to transfer all tokens of the sender on their behalf.",
        "params": {
          "approved": "representing the status of the approval to be set",
          "operator": "operator address to set the approval"
        }
      },
      "supportsInterface(bytes4)": {
        "details": "See {IERC165-supportsInterface}.     * Time complexity O(1), guaranteed to always use less than 30 000 gas."
      },
      "symbol()": {
        "details": "Gets the token symbol.",
        "returns": {
          "_0": "string representing the token symbol"
        }
      },
      "tokenByIndex(uint256)": {
        "details": "Gets the token ID at a given index of all the tokens in this contract Reverts if the index is greater or equal to the total number of tokens.",
        "params": {
          "index": "uint256 representing the index to be accessed of the tokens list"
        },
        "returns": {
          "_0": "uint256 token ID at the given index of the tokens list"
        }
      },
      "tokenOfOwnerByIndex(address,uint256)": {
        "details": "Gets the token ID at a given index of the tokens list of the requested owner.",
        "params": {
          "index": "uint256 representing the index to be accessed of the requested tokens list",
          "owner": "address owning the tokens list to be accessed"
        },
        "returns": {
          "_0": "uint256 token ID at the given index of the tokens list owned by the requested address"
        }
      },
      "totalSupply()": {
        "details": "Gets the total amount of tokens stored by the contract.",
        "returns": {
          "_0": "uint256 representing the total amount of tokens"
        }
      },
      "transferFrom(address,address,uint256)": {
        "details": "Transfers the ownership of a given token ID to another address. Usage of this method is discouraged, use {safeTransferFrom} whenever possible. Requires the msg.sender to be the owner, approved, or operator.",
        "params": {
          "from": "current owner of the token",
          "to": "address to receive the ownership of the given token ID",
          "tokenId": "uint256 ID of the token to be transferred"
        }
      },
      "transferOwnership(address)": {
        "details": "Transfers ownership of the contract to a new account (`newOwner`). Can only be called by the current owner."
      }
    }
  },
  "userdoc": {
    "methods": {}
  }
}