{
  "contractName": "Token",
  "abi": [
    {
      "inputs": [
        {
          "internalType": "string",
          "name": "lat",
          "type": "string"
        },
        {
          "internalType": "string",
          "name": "lon",
          "type": "string"
        }
      ],
      "name": "getTokenId",
      "outputs": [
        {
          "internalType": "bytes32",
          "name": "tokenId",
          "type": "bytes32"
        }
      ],
      "stateMutability": "pure",
      "type": "function"
    },
    {
      "inputs": [
        {
          "internalType": "bytes32",
          "name": "tokenId",
          "type": "bytes32"
        }
      ],
      "name": "getGeoFromTokenId",
      "outputs": [
        {
          "internalType": "string",
          "name": "lat",
          "type": "string"
        },
        {
          "internalType": "string",
          "name": "lon",
          "type": "string"
        }
      ],
      "stateMutability": "pure",
      "type": "function"
    },
    {
      "inputs": [
        {
          "internalType": "string",
          "name": "str",
          "type": "string"
        }
      ],
      "name": "getLat",
      "outputs": [
        {
          "internalType": "string",
          "name": "",
          "type": "string"
        }
      ],
      "stateMutability": "pure",
      "type": "function"
    },
    {
      "inputs": [
        {
          "internalType": "string",
          "name": "str",
          "type": "string"
        }
      ],
      "name": "getLon",
      "outputs": [
        {
          "internalType": "string",
          "name": "",
          "type": "string"
        }
      ],
      "stateMutability": "pure",
      "type": "function"
    }
  ],
  "bytecode": "0x610e2d610026600b82828239805160001a60731461001957fe5b30600052607381538281f3fe73000000000000000000000000000000000000000030146080604052600436106100565760003560e01c806347b0b5b31461005b5780634bc323191461018f578063e22023ae146102c3578063ebed91bc14610429575b600080fd5b6101146004803603602081101561007157600080fd5b810190808035906020019064010000000081111561008e57600080fd5b8201836020820111156100a057600080fd5b803590602001918460018302840111640100000000831117156100c257600080fd5b91908080601f016020809104026020016040519081016040528093929190818152602001838380828437600081840152601f19601f82011690508083019250505050505050919291929050505061053c565b6040518080602001828103825283818151815260200191508051906020019080838360005b83811015610154578082015181840152602081019050610139565b50505050905090810190601f1680156101815780820380516001836020036101000a031916815260200191505b509250505060405180910390f35b610248600480360360208110156101a557600080fd5b81019080803590602001906401000000008111156101c257600080fd5b8201836020820111156101d457600080fd5b803590602001918460018302840111640100000000831117156101f657600080fd5b91908080601f016020809104026020016040519081016040528093929190818152602001838380828437600081840152601f19601f82011690508083019250505050505050919291929050505061086f565b6040518080602001828103825283818151815260200191508051906020019080838360005b8381101561028857808201518184015260208101905061026d565b50505050905090810190601f1680156102b55780820380516001836020036101000a031916815260200191505b509250505060405180910390f35b610413600480360360408110156102d957600080fd5b81019080803590602001906401000000008111156102f657600080fd5b82018360208201111561030857600080fd5b8035906020019184600183028401116401000000008311171561032a57600080fd5b91908080601f016020809104026020016040519081016040528093929190818152602001838380828437600081840152601f19601f8201169050808301925050505050505091929192908035906020019064010000000081111561038d57600080fd5b82018360208201111561039f57600080fd5b803590602001918460018302840111640100000000831117156103c157600080fd5b91908080601f016020809104026020016040519081016040528093929190818152602001838380828437600081840152601f19601f820116905080830192505050505050509192919290505050610b9f565b6040518082815260200191505060405180910390f35b6104556004803603602081101561043f57600080fd5b8101908080359060200190929190505050610cba565b604051808060200180602001838103835285818151815260200191508051906020019080838360005b8381101561049957808201518184015260208101905061047e565b50505050905090810190601f1680156104c65780820380516001836020036101000a031916815260200191505b50838103825284818151815260200191508051906020019080838360005b838110156104ff5780820151818401526020810190506104e4565b50505050905090810190601f16801561052c5780820380516001836020036101000a031916815260200191505b5094505050505060405180910390f35b6060600073__String________________________________63e11cc6d0847f2c0000000000000000000000000000000000000000000000000000000000000060006040518463ffffffff1660e01b81526004018080602001847effffffffffffffffffffffffffffffffffffffffffffffffffffffffffffff19167effffffffffffffffffffffffffffffffffffffffffffffffffffffffffffff19168152602001838152602001828103825285818151815260200191508051906020019080838360005b8381101561061d578082015181840152602081019050610602565b50505050905090810190601f16801561064a5780820380516001836020036101000a031916815260200191505b5094505050505060206040518083038186803b15801561066957600080fd5b505af415801561067d573d6000803e3d6000fd5b505050506040513d602081101561069357600080fd5b8101908080519060200190929190505050905073__String________________________________631dcd9b55846001840160006040518463ffffffff1660e01b81526004018080602001848152602001838152602001828103825285818151815260200191508051906020019080838360005b83811015610722578082015181840152602081019050610707565b50505050905090810190601f16801561074f5780820380516001836020036101000a031916815260200191505b5094505050505060006040518083038186803b15801561076e57600080fd5b505af4158015610782573d6000803e3d6000fd5b505050506040513d6000823e3d601f19601f8201168201806040525060208110156107ac57600080fd5b81019080805160405193929190846401000000008211156107cc57600080fd5b838201915060208201858111156107e257600080fd5b82518660018202830111640100000000821117156107ff57600080fd5b8083526020830192505050908051906020019080838360005b83811015610833578082015181840152602081019050610818565b50505050905090810190601f1680156108605780820380516001836020036101000a031916815260200191505b50604052505050915050919050565b6060600073__String________________________________63e11cc6d0847f2c0000000000000000000000000000000000000000000000000000000000000060006040518463ffffffff1660e01b81526004018080602001847effffffffffffffffffffffffffffffffffffffffffffffffffffffffffffff19167effffffffffffffffffffffffffffffffffffffffffffffffffffffffffffff19168152602001838152602001828103825285818151815260200191508051906020019080838360005b83811015610950578082015181840152602081019050610935565b50505050905090810190601f16801561097d5780820380516001836020036101000a031916815260200191505b5094505050505060206040518083038186803b15801561099c57600080fd5b505af41580156109b0573d6000803e3d6000fd5b505050506040513d60208110156109c657600080fd5b8101908080519060200190929190505050905073__String________________________________631dcd9b55846000846040518463ffffffff1660e01b81526004018080602001848152602001838152602001828103825285818151815260200191508051906020019080838360005b83811015610a52578082015181840152602081019050610a37565b50505050905090810190601f168015610a7f5780820380516001836020036101000a031916815260200191505b5094505050505060006040518083038186803b158015610a9e57600080fd5b505af4158015610ab2573d6000803e3d6000fd5b505050506040513d6000823e3d601f19601f820116820180604052506020811015610adc57600080fd5b8101908080516040519392919084640100000000821115610afc57600080fd5b83820191506020820185811115610b1257600080fd5b8251866001820283011164010000000082111715610b2f57600080fd5b8083526020830192505050908051906020019080838360005b83811015610b63578082015181840152602081019050610b48565b50505050905090810190601f168015610b905780820380516001836020036101000a031916815260200191505b50604052505050915050919050565b60008083511480610bb1575060008251145b15610bc1576000801b9050610cb4565b606083836040516020018083805190602001908083835b60208310610bfb5780518252602082019150602081019050602083039250610bd8565b6001836020036101000a038019825116818451168082178552505050505050905001807f2c0000000000000000000000000000000000000000000000000000000000000081525060010182805190602001908083835b60208310610c745780518252602082019150602081019050602083039250610c51565b6001836020036101000a03801982511681845116808217855250505050505090500192505050604051602081830303815290604052905060208101519150505b92915050565b6060806000602090505b600081118015610d0b5750600060f81b846001830360208110610ce357fe5b1a60f81b7effffffffffffffffffffffffffffffffffffffffffffffffffffffffffffff1916145b15610d1e57808060019003915050610cc4565b60608167ffffffffffffffff81118015610d3757600080fd5b506040519080825280601f01601f191660200182016040528015610d6a5781602001600182028036833780820191505090505b50905060008090505b82811015610dd357858160208110610d8757fe5b1a60f81b828281518110610d9757fe5b60200101907effffffffffffffffffffffffffffffffffffffffffffffffffffffffffffff1916908160001a9053508080600101915050610d73565b506060819050610de28161086f565b9450610ded8161053c565b935050505091509156fea2646970667358221220cac2889b50e378b6528f16beaddb62b1844e1eaf63de0a6e2b0cb54a973705f864736f6c63430006080033",
  "immutableReferences": {},
  "source": "//SPDX-License-Identifier: UNLICENSED\npragma solidity ^0.6.0;\n\nimport './String.sol';\n\nlibrary Token {\n    // @dev provides the token id based on the coordinates(longitude and latitude) of the property\n    // @param a longitude string and a latitude string\n    // @return returns the token id as a 32 bit object, otherwise it returns a 0 as a hex if the lat and lon are empty\n    function getTokenId(string memory lat, string memory lon)\n        public\n        pure\n        returns (bytes32 tokenId)\n    {\n        if (bytes(lat).length == 0 || bytes(lon).length == 0) {\n            return 0x0;\n        }\n        \n        string memory geo = string(abi.encodePacked(lat, \",\", lon));\n        assembly {\n            tokenId := mload(add(geo, 32))\n        }\n    }\n    \n    // @dev the opposite of the getTokenId, gives the lat and lon using tokenId\n    // @param takes in a 32 bit tokenId object.\n    // @return returns the latitude and longitude of a location\n    function getGeoFromTokenId(bytes32 tokenId)\n        public\n        pure\n        returns (\n            string memory lat,\n            string memory lon\n        )\n    {\n        uint256 n = 32;\n        while (n > 0 && tokenId[n-1] == 0) {\n            n--;\n        }\n        bytes memory bytesArray = new bytes(n);\n        for (uint256 i = 0; i < n; i++) {\n            bytesArray[i] = tokenId[i];\n        }\n        string memory geoId = string(bytesArray);\n        lat = getLat(geoId);\n        lon = getLon(geoId);\n    }\n    \n    // @dev gets the latitude of the token from a geoId\n    // @param takes in a string of form \"Lat,Lon\" as a parameter\n    // @return returns the str of the latitude\n    function getLat(string memory str) public pure returns (string memory) {\n        uint256 index = String.indexOfChar(str, byte(\",\"), 0);\n        return String.substring(str, 0, index);\n    }\n\n    // @dev gets the longitude of the token from a geoId\n    // @param takes in a string of form \"Lat,Lon\" as a parameter\n    // @return returns the str of the longitude\n    function getLon(string memory str) public pure returns (string memory) {\n        uint256 index = String.indexOfChar(str, byte(\",\"), 0);\n        return String.substring(str, index + 1, 0);\n    }\n\n}",
  "sourcePath": "/Users/charleslin/Desktop/Superworld-blockchain/contracts/libraries/Token.sol",
  "compiler": {
    "name": "solc",
    "version": "0.6.8+commit.0bbfe453.Emscripten.clang"
  },
  "schemaVersion": "3.2.0",
  "updatedAt": "2020-08-14T04:13:32.118Z",
  "networkType": "ethereum",
  "devdoc": {
    "methods": {}
  },
  "userdoc": {
    "methods": {}
  }
}